{
	"xuanshang/jstask/app/Task.sol": {
		"Task": {
			"abi": [
				{
					"inputs": [
						{
							"internalType": "address",
							"name": "owner",
							"type": "address"
						}
					],
					"stateMutability": "nonpayable",
					"type": "constructor"
				},
				{
					"inputs": [
						{
							"internalType": "string",
							"name": "_owner",
							"type": "string"
						}
					],
					"name": "balanceOf",
					"outputs": [
						{
							"internalType": "uint256",
							"name": "balance",
							"type": "uint256"
						}
					],
					"stateMutability": "view",
					"type": "function"
				},
				{
					"inputs": [
						{
							"internalType": "string",
							"name": "worker",
							"type": "string"
						},
						{
							"internalType": "string",
							"name": "passwd",
							"type": "string"
						},
						{
							"internalType": "uint256",
							"name": "taskID",
							"type": "uint256"
						}
					],
					"name": "commit",
					"outputs": [],
					"stateMutability": "nonpayable",
					"type": "function"
				},
				{
					"inputs": [
						{
							"internalType": "string",
							"name": "issuer",
							"type": "string"
						},
						{
							"internalType": "string",
							"name": "passwd",
							"type": "string"
						},
						{
							"internalType": "uint256",
							"name": "taskID",
							"type": "uint256"
						},
						{
							"internalType": "string",
							"name": "comment",
							"type": "string"
						},
						{
							"internalType": "uint8",
							"name": "status",
							"type": "uint8"
						}
					],
					"name": "confirm",
					"outputs": [],
					"stateMutability": "nonpayable",
					"type": "function"
				},
				{
					"inputs": [
						{
							"internalType": "string",
							"name": "issuer",
							"type": "string"
						},
						{
							"internalType": "string",
							"name": "passwd",
							"type": "string"
						},
						{
							"internalType": "string",
							"name": "desc",
							"type": "string"
						},
						{
							"internalType": "uint256",
							"name": "bonus",
							"type": "uint256"
						}
					],
					"name": "issue",
					"outputs": [],
					"stateMutability": "nonpayable",
					"type": "function"
				},
				{
					"inputs": [
						{
							"internalType": "string",
							"name": "username",
							"type": "string"
						},
						{
							"internalType": "string",
							"name": "passwd",
							"type": "string"
						}
					],
					"name": "login",
					"outputs": [
						{
							"internalType": "bool",
							"name": "",
							"type": "bool"
						}
					],
					"stateMutability": "view",
					"type": "function"
				},
				{
					"inputs": [
						{
							"internalType": "string",
							"name": "_to",
							"type": "string"
						},
						{
							"internalType": "uint256",
							"name": "_value",
							"type": "uint256"
						}
					],
					"name": "mint",
					"outputs": [],
					"stateMutability": "nonpayable",
					"type": "function"
				},
				{
					"inputs": [],
					"name": "qryAllTasks",
					"outputs": [
						{
							"components": [
								{
									"internalType": "string",
									"name": "issuer",
									"type": "string"
								},
								{
									"internalType": "string",
									"name": "worker",
									"type": "string"
								},
								{
									"internalType": "string",
									"name": "desc",
									"type": "string"
								},
								{
									"internalType": "uint256",
									"name": "bonus",
									"type": "uint256"
								},
								{
									"internalType": "uint8",
									"name": "status",
									"type": "uint8"
								},
								{
									"internalType": "uint256",
									"name": "timestamp",
									"type": "uint256"
								},
								{
									"internalType": "string",
									"name": "comment",
									"type": "string"
								}
							],
							"internalType": "struct TaskInfo[]",
							"name": "",
							"type": "tuple[]"
						}
					],
					"stateMutability": "view",
					"type": "function"
				},
				{
					"inputs": [
						{
							"internalType": "uint256",
							"name": "taskID",
							"type": "uint256"
						}
					],
					"name": "qryOneTask",
					"outputs": [
						{
							"internalType": "string",
							"name": "",
							"type": "string"
						},
						{
							"internalType": "string",
							"name": "",
							"type": "string"
						},
						{
							"internalType": "uint256",
							"name": "",
							"type": "uint256"
						},
						{
							"internalType": "string",
							"name": "",
							"type": "string"
						},
						{
							"internalType": "uint8",
							"name": "",
							"type": "uint8"
						}
					],
					"stateMutability": "view",
					"type": "function"
				},
				{
					"inputs": [
						{
							"internalType": "string",
							"name": "username",
							"type": "string"
						},
						{
							"internalType": "string",
							"name": "passwd",
							"type": "string"
						}
					],
					"name": "register",
					"outputs": [],
					"stateMutability": "nonpayable",
					"type": "function"
				},
				{
					"inputs": [
						{
							"internalType": "string",
							"name": "worker",
							"type": "string"
						},
						{
							"internalType": "string",
							"name": "passwd",
							"type": "string"
						},
						{
							"internalType": "uint256",
							"name": "taskID",
							"type": "uint256"
						}
					],
					"name": "take",
					"outputs": [],
					"stateMutability": "nonpayable",
					"type": "function"
				},
				{
					"inputs": [],
					"name": "totalSupply",
					"outputs": [
						{
							"internalType": "uint256",
							"name": "",
							"type": "uint256"
						}
					],
					"stateMutability": "view",
					"type": "function"
				},
				{
					"inputs": [
						{
							"internalType": "string",
							"name": "_from",
							"type": "string"
						},
						{
							"internalType": "string",
							"name": "_to",
							"type": "string"
						},
						{
							"internalType": "uint256",
							"name": "_value",
							"type": "uint256"
						}
					],
					"name": "transfer",
					"outputs": [
						{
							"internalType": "bool",
							"name": "success",
							"type": "bool"
						}
					],
					"stateMutability": "nonpayable",
					"type": "function"
				}
			],
			"devdoc": {
				"methods": {}
			},
			"evm": {
				"assembly": "    /* \"xuanshang/jstask/app/Task.sol\":376:4347  contract Task{... */\n  mstore(0x40, 0x80)\n    /* \"xuanshang/jstask/app/Task.sol\":523:674  constructor(address owner)public{... */\n  callvalue\n  dup1\n  iszero\n  tag_1\n  jumpi\n  0x00\n  dup1\n  revert\ntag_1:\n  pop\n  mload(0x40)\n  sub(codesize, bytecodeSize)\n  dup1\n  bytecodeSize\n  dup4\n  codecopy\n  dup2\n  dup2\n  add\n  0x40\n  mstore\n  dup2\n  add\n  swap1\n  tag_2\n  swap2\n  swap1\n  jump(tag_3)\ntag_2:\n    /* \"xuanshang/jstask/app/Task.sol\":574:584  msg.sender */\n  caller\n    /* \"xuanshang/jstask/app/Task.sol\":565:571  _admin */\n  0x02\n  0x00\n    /* \"xuanshang/jstask/app/Task.sol\":565:584  _admin = msg.sender */\n  0x0100\n  exp\n  dup2\n  sload\n  dup2\n  0xffffffffffffffffffffffffffffffffffffffff\n  mul\n  not\n  and\n  swap1\n  dup4\n  0xffffffffffffffffffffffffffffffffffffffff\n  and\n  mul\n  or\n  swap1\n  sstore\n  pop\n    /* \"xuanshang/jstask/app/Task.sol\":603:608  owner */\n  dup1\n    /* \"xuanshang/jstask/app/Task.sol\":594:600  _owner */\n  0x03\n  0x00\n    /* \"xuanshang/jstask/app/Task.sol\":594:608  _owner = owner */\n  0x0100\n  exp\n  dup2\n  sload\n  dup2\n  0xffffffffffffffffffffffffffffffffffffffff\n  mul\n  not\n  and\n  swap1\n  dup4\n  0xffffffffffffffffffffffffffffffffffffffff\n  and\n  mul\n  or\n  swap1\n  sstore\n  pop\n    /* \"xuanshang/jstask/app/Task.sol\":627:638  new Token() */\n  mload(0x40)\n  tag_6\n  swap1\n  tag_7\n  jump\t// in\ntag_6:\n  mload(0x40)\n  dup1\n  swap2\n  sub\n  swap1\n  0x00\n  create\n  dup1\n  iszero\n  dup1\n  iszero\n  tag_8\n  jumpi\n  returndatasize\n  0x00\n  dup1\n  returndatacopy\n  revert(0x00, returndatasize)\ntag_8:\n  pop\n    /* \"xuanshang/jstask/app/Task.sol\":618:624  _token */\n  0x00\n  dup1\n    /* \"xuanshang/jstask/app/Task.sol\":618:638  _token = new Token() */\n  0x0100\n  exp\n  dup2\n  sload\n  dup2\n  0xffffffffffffffffffffffffffffffffffffffff\n  mul\n  not\n  and\n  swap1\n  dup4\n  0xffffffffffffffffffffffffffffffffffffffff\n  and\n  mul\n  or\n  swap1\n  sstore\n  pop\n    /* \"xuanshang/jstask/app/Task.sol\":656:666  new User() */\n  mload(0x40)\n  tag_9\n  swap1\n  tag_10\n  jump\t// in\ntag_9:\n  mload(0x40)\n  dup1\n  swap2\n  sub\n  swap1\n  0x00\n  create\n  dup1\n  iszero\n  dup1\n  iszero\n  tag_11\n  jumpi\n  returndatasize\n  0x00\n  dup1\n  returndatacopy\n  revert(0x00, returndatasize)\ntag_11:\n  pop\n    /* \"xuanshang/jstask/app/Task.sol\":648:653  _user */\n  0x01\n  0x00\n    /* \"xuanshang/jstask/app/Task.sol\":648:666  _user = new User() */\n  0x0100\n  exp\n  dup2\n  sload\n  dup2\n  0xffffffffffffffffffffffffffffffffffffffff\n  mul\n  not\n  and\n  swap1\n  dup4\n  0xffffffffffffffffffffffffffffffffffffffff\n  and\n  mul\n  or\n  swap1\n  sstore\n  pop\n    /* \"xuanshang/jstask/app/Task.sol\":523:674  constructor(address owner)public{... */\n  pop\n    /* \"xuanshang/jstask/app/Task.sol\":376:4347  contract Task{... */\n  jump(tag_12)\ntag_7:\n  dataSize(sub_1)\n  dup1\n  dataOffset(sub_1)\n  dup4\n  codecopy\n  add\n  swap1\n  jump\t// out\ntag_10:\n  dataSize(sub_2)\n  dup1\n  dataOffset(sub_2)\n  dup4\n  codecopy\n  add\n  swap1\n  jump\t// out\n    /* \"--CODEGEN--\":5:139   */\ntag_14:\n  0x00\n    /* \"--CODEGEN--\":89:95   */\n  dup2\n    /* \"--CODEGEN--\":83:96   */\n  mload\n    /* \"--CODEGEN--\":74:96   */\n  swap1\n  pop\n    /* \"--CODEGEN--\":101:134   */\n  tag_16\n    /* \"--CODEGEN--\":128:133   */\n  dup2\n    /* \"--CODEGEN--\":101:134   */\n  jump(tag_17)\ntag_16:\n    /* \"--CODEGEN--\":68:139   */\n  swap3\n  swap2\n  pop\n  pop\n  jump\n    /* \"--CODEGEN--\":146:409   */\ntag_3:\n  0x00\n    /* \"--CODEGEN--\":261:263   */\n  0x20\n    /* \"--CODEGEN--\":249:258   */\n  dup3\n    /* \"--CODEGEN--\":240:247   */\n  dup5\n    /* \"--CODEGEN--\":236:259   */\n  sub\n    /* \"--CODEGEN--\":232:264   */\n  slt\n    /* \"--CODEGEN--\":229:231   */\n  iszero\n  tag_19\n  jumpi\n    /* \"--CODEGEN--\":277:278   */\n  0x00\n    /* \"--CODEGEN--\":274:275   */\n  dup1\n    /* \"--CODEGEN--\":267:279   */\n  revert\n    /* \"--CODEGEN--\":229:231   */\ntag_19:\n    /* \"--CODEGEN--\":312:313   */\n  0x00\n    /* \"--CODEGEN--\":329:393   */\n  tag_20\n    /* \"--CODEGEN--\":385:392   */\n  dup5\n    /* \"--CODEGEN--\":376:382   */\n  dup3\n    /* \"--CODEGEN--\":365:374   */\n  dup6\n    /* \"--CODEGEN--\":361:383   */\n  add\n    /* \"--CODEGEN--\":329:393   */\n  jump(tag_14)\ntag_20:\n    /* \"--CODEGEN--\":319:393   */\n  swap2\n  pop\n    /* \"--CODEGEN--\":291:399   */\n  pop\n    /* \"--CODEGEN--\":223:409   */\n  swap3\n  swap2\n  pop\n  pop\n  jump\n    /* \"--CODEGEN--\":416:507   */\ntag_21:\n  0x00\n    /* \"--CODEGEN--\":478:502   */\n  tag_23\n    /* \"--CODEGEN--\":496:501   */\n  dup3\n    /* \"--CODEGEN--\":478:502   */\n  jump(tag_24)\ntag_23:\n    /* \"--CODEGEN--\":467:502   */\n  swap1\n  pop\n    /* \"--CODEGEN--\":461:507   */\n  swap2\n  swap1\n  pop\n  jump\n    /* \"--CODEGEN--\":514:635   */\ntag_24:\n  0x00\n    /* \"--CODEGEN--\":587:629   */\n  0xffffffffffffffffffffffffffffffffffffffff\n    /* \"--CODEGEN--\":580:585   */\n  dup3\n    /* \"--CODEGEN--\":576:630   */\n  and\n    /* \"--CODEGEN--\":565:630   */\n  swap1\n  pop\n    /* \"--CODEGEN--\":559:635   */\n  swap2\n  swap1\n  pop\n  jump\n    /* \"--CODEGEN--\":642:759   */\ntag_17:\n    /* \"--CODEGEN--\":711:735   */\n  tag_27\n    /* \"--CODEGEN--\":729:734   */\n  dup2\n    /* \"--CODEGEN--\":711:735   */\n  jump(tag_21)\ntag_27:\n    /* \"--CODEGEN--\":704:709   */\n  dup2\n    /* \"--CODEGEN--\":701:736   */\n  eq\n    /* \"--CODEGEN--\":691:693   */\n  tag_28\n  jumpi\n    /* \"--CODEGEN--\":750:751   */\n  0x00\n    /* \"--CODEGEN--\":747:748   */\n  dup1\n    /* \"--CODEGEN--\":740:752   */\n  revert\n    /* \"--CODEGEN--\":691:693   */\ntag_28:\n    /* \"--CODEGEN--\":685:759   */\n  pop\n  jump\n    /* \"xuanshang/jstask/app/Task.sol\":376:4347  contract Task{... */\ntag_12:\n  dataSize(sub_0)\n  dup1\n  dataOffset(sub_0)\n  0x00\n  codecopy\n  0x00\n  return\nstop\n\nsub_0: assembly {\n        /* \"xuanshang/jstask/app/Task.sol\":376:4347  contract Task{... */\n      mstore(0x40, 0x80)\n      callvalue\n      dup1\n      iszero\n      tag_1\n      jumpi\n      0x00\n      dup1\n      revert\n    tag_1:\n      pop\n      jumpi(tag_2, lt(calldatasize, 0x04))\n      shr(0xe0, calldataload(0x00))\n      dup1\n      0x679a5e14\n      gt\n      tag_15\n      jumpi\n      dup1\n      0x679a5e14\n      eq\n      tag_9\n      jumpi\n      dup1\n      0x89dc99d2\n      eq\n      tag_10\n      jumpi\n      dup1\n      0x8a3f7bb3\n      eq\n      tag_11\n      jumpi\n      dup1\n      0x9b3add75\n      eq\n      tag_12\n      jumpi\n      dup1\n      0x9b80b050\n      eq\n      tag_13\n      jumpi\n      dup1\n      0xfc18cb62\n      eq\n      tag_14\n      jumpi\n      jump(tag_2)\n    tag_15:\n      dup1\n      0x056b01ce\n      eq\n      tag_3\n      jumpi\n      dup1\n      0x18160ddd\n      eq\n      tag_4\n      jumpi\n      dup1\n      0x35ee5f87\n      eq\n      tag_5\n      jumpi\n      dup1\n      0x3ffbd47f\n      eq\n      tag_6\n      jumpi\n      dup1\n      0x58467dbc\n      eq\n      tag_7\n      jumpi\n      dup1\n      0x5b4c0b54\n      eq\n      tag_8\n      jumpi\n    tag_2:\n      0x00\n      dup1\n      revert\n        /* \"xuanshang/jstask/app/Task.sol\":1143:1330  function mint(string calldata _to, uint256 _value)external{... */\n    tag_3:\n      tag_16\n      0x04\n      dup1\n      calldatasize\n      sub\n      dup2\n      add\n      swap1\n      tag_17\n      swap2\n      swap1\n      jump(tag_18)\n    tag_17:\n      tag_19\n      jump\t// in\n    tag_16:\n      stop\n        /* \"xuanshang/jstask/app/Task.sol\":703:801  function totalSupply() external view returns (uint256){... */\n    tag_4:\n      tag_20\n      tag_21\n      jump\t// in\n    tag_20:\n      mload(0x40)\n      tag_22\n      swap2\n      swap1\n      jump(tag_23)\n    tag_22:\n      mload(0x40)\n      dup1\n      swap2\n      sub\n      swap1\n      return\n        /* \"xuanshang/jstask/app/Task.sol\":826:956  function balanceOf(string calldata _owner) external view returns (uint256 balance){... */\n    tag_5:\n      tag_24\n      0x04\n      dup1\n      calldatasize\n      sub\n      dup2\n      add\n      swap1\n      tag_25\n      swap2\n      swap1\n      jump(tag_26)\n    tag_25:\n      tag_27\n      jump\t// in\n    tag_24:\n      mload(0x40)\n      tag_28\n      swap2\n      swap1\n      jump(tag_23)\n    tag_28:\n      mload(0x40)\n      dup1\n      swap2\n      sub\n      swap1\n      return\n        /* \"xuanshang/jstask/app/Task.sol\":1362:1560  function register(string calldata username,string calldata passwd) external{... */\n    tag_6:\n      tag_29\n      0x04\n      dup1\n      calldatasize\n      sub\n      dup2\n      add\n      swap1\n      tag_30\n      swap2\n      swap1\n      jump(tag_31)\n    tag_30:\n      tag_32\n      jump\t// in\n    tag_29:\n      stop\n        /* \"xuanshang/jstask/app/Task.sol\":1591:1867  function login(string calldata username,string calldata passwd)external view returns(bool){... */\n    tag_7:\n      tag_33\n      0x04\n      dup1\n      calldatasize\n      sub\n      dup2\n      add\n      swap1\n      tag_34\n      swap2\n      swap1\n      jump(tag_31)\n    tag_34:\n      tag_35\n      jump\t// in\n    tag_33:\n      mload(0x40)\n      tag_36\n      swap2\n      swap1\n      jump(tag_37)\n    tag_36:\n      mload(0x40)\n      dup1\n      swap2\n      sub\n      swap1\n      return\n        /* \"xuanshang/jstask/app/Task.sol\":2340:2734  function take(string calldata worker,string calldata passwd,uint256 taskID)external{... */\n    tag_8:\n      tag_38\n      0x04\n      dup1\n      calldatasize\n      sub\n      dup2\n      add\n      swap1\n      tag_39\n      swap2\n      swap1\n      jump(tag_40)\n    tag_39:\n      tag_41\n      jump\t// in\n    tag_38:\n      stop\n        /* \"xuanshang/jstask/app/Task.sol\":1892:2315  function issue(string calldata issuer,string calldata passwd,string calldata desc,uint256 bonus)external {... */\n    tag_9:\n      tag_42\n      0x04\n      dup1\n      calldatasize\n      sub\n      dup2\n      add\n      swap1\n      tag_43\n      swap2\n      swap1\n      jump(tag_44)\n    tag_43:\n      tag_45\n      jump\t// in\n    tag_42:\n      stop\n        /* \"xuanshang/jstask/app/Task.sol\":2759:3201  function commit(string calldata worker,string calldata passwd,uint256 taskID)external{... */\n    tag_10:\n      tag_46\n      0x04\n      dup1\n      calldatasize\n      sub\n      dup2\n      add\n      swap1\n      tag_47\n      swap2\n      swap1\n      jump(tag_40)\n    tag_47:\n      tag_48\n      jump\t// in\n    tag_46:\n      stop\n        /* \"xuanshang/jstask/app/Task.sol\":4252:4344  function qryAllTasks()external view returns(TaskInfo[] memory){... */\n    tag_11:\n      tag_49\n      tag_50\n      jump\t// in\n    tag_49:\n      mload(0x40)\n      tag_51\n      swap2\n      swap1\n      jump(tag_52)\n    tag_51:\n      mload(0x40)\n      dup1\n      swap2\n      sub\n      swap1\n      return\n        /* \"xuanshang/jstask/app/Task.sol\":3975:4220  function qryOneTask(uint256 taskID)external view returns(string memory,string memory,uint256,string memory,uint8){... */\n    tag_12:\n      tag_53\n      0x04\n      dup1\n      calldatasize\n      sub\n      dup2\n      add\n      swap1\n      tag_54\n      swap2\n      swap1\n      jump(tag_55)\n    tag_54:\n      tag_56\n      jump\t// in\n    tag_53:\n      mload(0x40)\n      tag_57\n      swap6\n      swap5\n      swap4\n      swap3\n      swap2\n      swap1\n      jump(tag_58)\n    tag_57:\n      mload(0x40)\n      dup1\n      swap2\n      sub\n      swap1\n      return\n        /* \"xuanshang/jstask/app/Task.sol\":975:1133  function transfer(string calldata _from,string calldata _to, uint256 _value) external returns (bool success){... */\n    tag_13:\n      tag_59\n      0x04\n      dup1\n      calldatasize\n      sub\n      dup2\n      add\n      swap1\n      tag_60\n      swap2\n      swap1\n      jump(tag_40)\n    tag_60:\n      tag_61\n      jump\t// in\n    tag_59:\n      mload(0x40)\n      tag_62\n      swap2\n      swap1\n      jump(tag_37)\n    tag_62:\n      mload(0x40)\n      dup1\n      swap2\n      sub\n      swap1\n      return\n        /* \"xuanshang/jstask/app/Task.sol\":3226:3949  function confirm(string calldata issuer,string calldata passwd,uint256 taskID,string calldata comment,uint8 status)external{... */\n    tag_14:\n      tag_63\n      0x04\n      dup1\n      calldatasize\n      sub\n      dup2\n      add\n      swap1\n      tag_64\n      swap2\n      swap1\n      jump(tag_65)\n    tag_64:\n      tag_66\n      jump\t// in\n    tag_63:\n      stop\n        /* \"xuanshang/jstask/app/Task.sol\":1143:1330  function mint(string calldata _to, uint256 _value)external{... */\n    tag_19:\n        /* \"xuanshang/jstask/app/Task.sol\":1229:1239  msg.sender */\n      caller\n        /* \"xuanshang/jstask/app/Task.sol\":1219:1239  _admin == msg.sender */\n      0xffffffffffffffffffffffffffffffffffffffff\n      and\n        /* \"xuanshang/jstask/app/Task.sol\":1219:1225  _admin */\n      0x02\n      0x00\n      swap1\n      sload\n      swap1\n      0x0100\n      exp\n      swap1\n      div\n      0xffffffffffffffffffffffffffffffffffffffff\n      and\n        /* \"xuanshang/jstask/app/Task.sol\":1219:1239  _admin == msg.sender */\n      0xffffffffffffffffffffffffffffffffffffffff\n      and\n      eq\n        /* \"xuanshang/jstask/app/Task.sol\":1219:1263  _admin == msg.sender || _owner == msg.sender */\n      dup1\n      tag_68\n      jumpi\n      pop\n        /* \"xuanshang/jstask/app/Task.sol\":1253:1263  msg.sender */\n      caller\n        /* \"xuanshang/jstask/app/Task.sol\":1243:1263  _owner == msg.sender */\n      0xffffffffffffffffffffffffffffffffffffffff\n      and\n        /* \"xuanshang/jstask/app/Task.sol\":1243:1249  _owner */\n      0x03\n      0x00\n      swap1\n      sload\n      swap1\n      0x0100\n      exp\n      swap1\n      div\n      0xffffffffffffffffffffffffffffffffffffffff\n      and\n        /* \"xuanshang/jstask/app/Task.sol\":1243:1263  _owner == msg.sender */\n      0xffffffffffffffffffffffffffffffffffffffff\n      and\n      eq\n        /* \"xuanshang/jstask/app/Task.sol\":1219:1263  _admin == msg.sender || _owner == msg.sender */\n    tag_68:\n        /* \"xuanshang/jstask/app/Task.sol\":1211:1290  require(_admin == msg.sender || _owner == msg.sender,\"Only admin can do this!\") */\n      tag_69\n      jumpi\n      mload(0x40)\n      0x08c379a000000000000000000000000000000000000000000000000000000000\n      dup2\n      mstore\n      0x04\n      add\n      tag_70\n      swap1\n      jump(tag_71)\n    tag_70:\n      mload(0x40)\n      dup1\n      swap2\n      sub\n      swap1\n      revert\n    tag_69:\n        /* \"xuanshang/jstask/app/Task.sol\":1300:1306  _token */\n      0x00\n      dup1\n      swap1\n      sload\n      swap1\n      0x0100\n      exp\n      swap1\n      div\n      0xffffffffffffffffffffffffffffffffffffffff\n      and\n        /* \"xuanshang/jstask/app/Task.sol\":1300:1311  _token.mint */\n      0xffffffffffffffffffffffffffffffffffffffff\n      and\n      0x056b01ce\n        /* \"xuanshang/jstask/app/Task.sol\":1312:1315  _to */\n      dup5\n      dup5\n        /* \"xuanshang/jstask/app/Task.sol\":1316:1322  _value */\n      dup5\n        /* \"xuanshang/jstask/app/Task.sol\":1300:1323  _token.mint(_to,_value) */\n      mload(0x40)\n      dup5\n      0xffffffff\n      and\n      0xe0\n      shl\n      dup2\n      mstore\n      0x04\n      add\n      tag_72\n      swap4\n      swap3\n      swap2\n      swap1\n      jump(tag_73)\n    tag_72:\n      0x00\n      mload(0x40)\n      dup1\n      dup4\n      sub\n      dup2\n      0x00\n      dup8\n      dup1\n      extcodesize\n      iszero\n      dup1\n      iszero\n      tag_74\n      jumpi\n      0x00\n      dup1\n      revert\n    tag_74:\n      pop\n      gas\n      call\n      iszero\n      dup1\n      iszero\n      tag_76\n      jumpi\n      returndatasize\n      0x00\n      dup1\n      returndatacopy\n      revert(0x00, returndatasize)\n    tag_76:\n      pop\n      pop\n      pop\n      pop\n        /* \"xuanshang/jstask/app/Task.sol\":1143:1330  function mint(string calldata _to, uint256 _value)external{... */\n      pop\n      pop\n      pop\n      jump\t// out\n        /* \"xuanshang/jstask/app/Task.sol\":703:801  function totalSupply() external view returns (uint256){... */\n    tag_21:\n        /* \"xuanshang/jstask/app/Task.sol\":749:756  uint256 */\n      0x00\n        /* \"xuanshang/jstask/app/Task.sol\":774:780  _token */\n      dup1\n      0x00\n      swap1\n      sload\n      swap1\n      0x0100\n      exp\n      swap1\n      div\n      0xffffffffffffffffffffffffffffffffffffffff\n      and\n        /* \"xuanshang/jstask/app/Task.sol\":774:792  _token.totalSupply */\n      0xffffffffffffffffffffffffffffffffffffffff\n      and\n      0x18160ddd\n        /* \"xuanshang/jstask/app/Task.sol\":774:794  _token.totalSupply() */\n      mload(0x40)\n      dup2\n      0xffffffff\n      and\n      0xe0\n      shl\n      dup2\n      mstore\n      0x04\n      add\n      0x20\n      mload(0x40)\n      dup1\n      dup4\n      sub\n      dup2\n      dup7\n      dup1\n      extcodesize\n      iszero\n      dup1\n      iszero\n      tag_78\n      jumpi\n      0x00\n      dup1\n      revert\n    tag_78:\n      pop\n      gas\n      staticcall\n      iszero\n      dup1\n      iszero\n      tag_80\n      jumpi\n      returndatasize\n      0x00\n      dup1\n      returndatacopy\n      revert(0x00, returndatasize)\n    tag_80:\n      pop\n      pop\n      pop\n      pop\n      mload(0x40)\n      returndatasize\n      not(0x1f)\n      0x1f\n      dup3\n      add\n      and\n      dup3\n      add\n      dup1\n      0x40\n      mstore\n      pop\n      dup2\n      add\n      swap1\n      tag_81\n      swap2\n      swap1\n      jump(tag_82)\n    tag_81:\n        /* \"xuanshang/jstask/app/Task.sol\":767:794  return _token.totalSupply() */\n      swap1\n      pop\n        /* \"xuanshang/jstask/app/Task.sol\":703:801  function totalSupply() external view returns (uint256){... */\n      swap1\n      jump\t// out\n        /* \"xuanshang/jstask/app/Task.sol\":826:956  function balanceOf(string calldata _owner) external view returns (uint256 balance){... */\n    tag_27:\n        /* \"xuanshang/jstask/app/Task.sol\":892:907  uint256 balance */\n      0x00\n        /* \"xuanshang/jstask/app/Task.sol\":925:931  _token */\n      dup1\n      0x00\n      swap1\n      sload\n      swap1\n      0x0100\n      exp\n      swap1\n      div\n      0xffffffffffffffffffffffffffffffffffffffff\n      and\n        /* \"xuanshang/jstask/app/Task.sol\":925:941  _token.balanceOf */\n      0xffffffffffffffffffffffffffffffffffffffff\n      and\n      0x35ee5f87\n        /* \"xuanshang/jstask/app/Task.sol\":942:948  _owner */\n      dup5\n      dup5\n        /* \"xuanshang/jstask/app/Task.sol\":925:949  _token.balanceOf(_owner) */\n      mload(0x40)\n      dup4\n      0xffffffff\n      and\n      0xe0\n      shl\n      dup2\n      mstore\n      0x04\n      add\n      tag_84\n      swap3\n      swap2\n      swap1\n      jump(tag_85)\n    tag_84:\n      0x20\n      mload(0x40)\n      dup1\n      dup4\n      sub\n      dup2\n      dup7\n      dup1\n      extcodesize\n      iszero\n      dup1\n      iszero\n      tag_86\n      jumpi\n      0x00\n      dup1\n      revert\n    tag_86:\n      pop\n      gas\n      staticcall\n      iszero\n      dup1\n      iszero\n      tag_88\n      jumpi\n      returndatasize\n      0x00\n      dup1\n      returndatacopy\n      revert(0x00, returndatasize)\n    tag_88:\n      pop\n      pop\n      pop\n      pop\n      mload(0x40)\n      returndatasize\n      not(0x1f)\n      0x1f\n      dup3\n      add\n      and\n      dup3\n      add\n      dup1\n      0x40\n      mstore\n      pop\n      dup2\n      add\n      swap1\n      tag_89\n      swap2\n      swap1\n      jump(tag_82)\n    tag_89:\n        /* \"xuanshang/jstask/app/Task.sol\":918:949  return _token.balanceOf(_owner) */\n      swap1\n      pop\n        /* \"xuanshang/jstask/app/Task.sol\":826:956  function balanceOf(string calldata _owner) external view returns (uint256 balance){... */\n      swap3\n      swap2\n      pop\n      pop\n      jump\t// out\n        /* \"xuanshang/jstask/app/Task.sol\":1362:1560  function register(string calldata username,string calldata passwd) external{... */\n    tag_32:\n        /* \"xuanshang/jstask/app/Task.sol\":1522:1527  _user */\n      0x01\n      0x00\n      swap1\n      sload\n      swap1\n      0x0100\n      exp\n      swap1\n      div\n      0xffffffffffffffffffffffffffffffffffffffff\n      and\n        /* \"xuanshang/jstask/app/Task.sol\":1522:1536  _user.register */\n      0xffffffffffffffffffffffffffffffffffffffff\n      and\n      0x3ffbd47f\n        /* \"xuanshang/jstask/app/Task.sol\":1537:1545  username */\n      dup6\n      dup6\n        /* \"xuanshang/jstask/app/Task.sol\":1546:1552  passwd */\n      dup6\n      dup6\n        /* \"xuanshang/jstask/app/Task.sol\":1522:1553  _user.register(username,passwd) */\n      mload(0x40)\n      dup6\n      0xffffffff\n      and\n      0xe0\n      shl\n      dup2\n      mstore\n      0x04\n      add\n      tag_91\n      swap5\n      swap4\n      swap3\n      swap2\n      swap1\n      jump(tag_92)\n    tag_91:\n      0x00\n      mload(0x40)\n      dup1\n      dup4\n      sub\n      dup2\n      0x00\n      dup8\n      dup1\n      extcodesize\n      iszero\n      dup1\n      iszero\n      tag_93\n      jumpi\n      0x00\n      dup1\n      revert\n    tag_93:\n      pop\n      gas\n      call\n      iszero\n      dup1\n      iszero\n      tag_95\n      jumpi\n      returndatasize\n      0x00\n      dup1\n      returndatacopy\n      revert(0x00, returndatasize)\n    tag_95:\n      pop\n      pop\n      pop\n      pop\n        /* \"xuanshang/jstask/app/Task.sol\":1362:1560  function register(string calldata username,string calldata passwd) external{... */\n      pop\n      pop\n      pop\n      pop\n      jump\t// out\n        /* \"xuanshang/jstask/app/Task.sol\":1591:1867  function login(string calldata username,string calldata passwd)external view returns(bool){... */\n    tag_35:\n        /* \"xuanshang/jstask/app/Task.sol\":1676:1680  bool */\n      0x00\n        /* \"xuanshang/jstask/app/Task.sol\":1832:1837  _user */\n      0x01\n      0x00\n      swap1\n      sload\n      swap1\n      0x0100\n      exp\n      swap1\n      div\n      0xffffffffffffffffffffffffffffffffffffffff\n      and\n        /* \"xuanshang/jstask/app/Task.sol\":1832:1843  _user.login */\n      0xffffffffffffffffffffffffffffffffffffffff\n      and\n      0x58467dbc\n        /* \"xuanshang/jstask/app/Task.sol\":1844:1852  username */\n      dup7\n      dup7\n        /* \"xuanshang/jstask/app/Task.sol\":1853:1859  passwd */\n      dup7\n      dup7\n        /* \"xuanshang/jstask/app/Task.sol\":1832:1860  _user.login(username,passwd) */\n      mload(0x40)\n      dup6\n      0xffffffff\n      and\n      0xe0\n      shl\n      dup2\n      mstore\n      0x04\n      add\n      tag_97\n      swap5\n      swap4\n      swap3\n      swap2\n      swap1\n      jump(tag_92)\n    tag_97:\n      0x20\n      mload(0x40)\n      dup1\n      dup4\n      sub\n      dup2\n      dup7\n      dup1\n      extcodesize\n      iszero\n      dup1\n      iszero\n      tag_98\n      jumpi\n      0x00\n      dup1\n      revert\n    tag_98:\n      pop\n      gas\n      staticcall\n      iszero\n      dup1\n      iszero\n      tag_100\n      jumpi\n      returndatasize\n      0x00\n      dup1\n      returndatacopy\n      revert(0x00, returndatasize)\n    tag_100:\n      pop\n      pop\n      pop\n      pop\n      mload(0x40)\n      returndatasize\n      not(0x1f)\n      0x1f\n      dup3\n      add\n      and\n      dup3\n      add\n      dup1\n      0x40\n      mstore\n      pop\n      dup2\n      add\n      swap1\n      tag_101\n      swap2\n      swap1\n      jump(tag_102)\n    tag_101:\n        /* \"xuanshang/jstask/app/Task.sol\":1825:1860  return _user.login(username,passwd) */\n      swap1\n      pop\n        /* \"xuanshang/jstask/app/Task.sol\":1591:1867  function login(string calldata username,string calldata passwd)external view returns(bool){... */\n      swap5\n      swap4\n      pop\n      pop\n      pop\n      pop\n      jump\t// out\n        /* \"xuanshang/jstask/app/Task.sol\":2340:2734  function take(string calldata worker,string calldata passwd,uint256 taskID)external{... */\n    tag_41:\n        /* \"xuanshang/jstask/app/Task.sol\":2441:2446  _user */\n      0x01\n      0x00\n      swap1\n      sload\n      swap1\n      0x0100\n      exp\n      swap1\n      div\n      0xffffffffffffffffffffffffffffffffffffffff\n      and\n        /* \"xuanshang/jstask/app/Task.sol\":2441:2452  _user.login */\n      0xffffffffffffffffffffffffffffffffffffffff\n      and\n      0x58467dbc\n        /* \"xuanshang/jstask/app/Task.sol\":2453:2459  worker */\n      dup7\n      dup7\n        /* \"xuanshang/jstask/app/Task.sol\":2460:2466  passwd */\n      dup7\n      dup7\n        /* \"xuanshang/jstask/app/Task.sol\":2441:2467  _user.login(worker,passwd) */\n      mload(0x40)\n      dup6\n      0xffffffff\n      and\n      0xe0\n      shl\n      dup2\n      mstore\n      0x04\n      add\n      tag_104\n      swap5\n      swap4\n      swap3\n      swap2\n      swap1\n      jump(tag_92)\n    tag_104:\n      0x20\n      mload(0x40)\n      dup1\n      dup4\n      sub\n      dup2\n      dup7\n      dup1\n      extcodesize\n      iszero\n      dup1\n      iszero\n      tag_105\n      jumpi\n      0x00\n      dup1\n      revert\n    tag_105:\n      pop\n      gas\n      staticcall\n      iszero\n      dup1\n      iszero\n      tag_107\n      jumpi\n      returndatasize\n      0x00\n      dup1\n      returndatacopy\n      revert(0x00, returndatasize)\n    tag_107:\n      pop\n      pop\n      pop\n      pop\n      mload(0x40)\n      returndatasize\n      not(0x1f)\n      0x1f\n      dup3\n      add\n      and\n      dup3\n      add\n      dup1\n      0x40\n      mstore\n      pop\n      dup2\n      add\n      swap1\n      tag_108\n      swap2\n      swap1\n      jump(tag_102)\n    tag_108:\n        /* \"xuanshang/jstask/app/Task.sol\":2433:2497  require(_user.login(worker,passwd),\"worker must have his right\") */\n      tag_109\n      jumpi\n      mload(0x40)\n      0x08c379a000000000000000000000000000000000000000000000000000000000\n      dup2\n      mstore\n      0x04\n      add\n      tag_110\n      swap1\n      jump(tag_111)\n    tag_110:\n      mload(0x40)\n      dup1\n      swap2\n      sub\n      swap1\n      revert\n    tag_109:\n        /* \"xuanshang/jstask/app/Task.sol\":2542:2543  0 */\n      0x00\n        /* \"xuanshang/jstask/app/Task.sol\":2515:2521  _tasks */\n      0x04\n        /* \"xuanshang/jstask/app/Task.sol\":2522:2528  taskID */\n      dup3\n        /* \"xuanshang/jstask/app/Task.sol\":2515:2529  _tasks[taskID] */\n      dup2\n      sload\n      dup2\n      lt\n      tag_112\n      jumpi\n      invalid\n    tag_112:\n      swap1\n      0x00\n      mstore\n      keccak256(0x00, 0x20)\n      swap1\n      0x07\n      mul\n      add\n        /* \"xuanshang/jstask/app/Task.sol\":2515:2539  _tasks[taskID].timestamp */\n      0x05\n      add\n      sload\n        /* \"xuanshang/jstask/app/Task.sol\":2515:2543  _tasks[taskID].timestamp > 0 */\n      gt\n        /* \"xuanshang/jstask/app/Task.sol\":2507:2563  require(_tasks[taskID].timestamp > 0,\"task must exists\") */\n      tag_114\n      jumpi\n      mload(0x40)\n      0x08c379a000000000000000000000000000000000000000000000000000000000\n      dup2\n      mstore\n      0x04\n      add\n      tag_115\n      swap1\n      jump(tag_116)\n    tag_115:\n      mload(0x40)\n      dup1\n      swap2\n      sub\n      swap1\n      revert\n    tag_114:\n        /* \"xuanshang/jstask/app/Task.sol\":2606:2607  0 */\n      0x00\n        /* \"xuanshang/jstask/app/Task.sol\":2581:2587  _tasks */\n      0x04\n        /* \"xuanshang/jstask/app/Task.sol\":2588:2594  taskID */\n      dup3\n        /* \"xuanshang/jstask/app/Task.sol\":2581:2595  _tasks[taskID] */\n      dup2\n      sload\n      dup2\n      lt\n      tag_117\n      jumpi\n      invalid\n    tag_117:\n      swap1\n      0x00\n      mstore\n      keccak256(0x00, 0x20)\n      swap1\n      0x07\n      mul\n      add\n        /* \"xuanshang/jstask/app/Task.sol\":2581:2602  _tasks[taskID].status */\n      0x04\n      add\n      0x00\n      swap1\n      sload\n      swap1\n      0x0100\n      exp\n      swap1\n      div\n      0xff\n      and\n        /* \"xuanshang/jstask/app/Task.sol\":2581:2607  _tasks[taskID].status == 0 */\n      0xff\n      and\n      eq\n        /* \"xuanshang/jstask/app/Task.sol\":2573:2634  require(_tasks[taskID].status == 0,\"task's status must == 0\") */\n      tag_119\n      jumpi\n      mload(0x40)\n      0x08c379a000000000000000000000000000000000000000000000000000000000\n      dup2\n      mstore\n      0x04\n      add\n      tag_120\n      swap1\n      jump(tag_121)\n    tag_120:\n      mload(0x40)\n      dup1\n      swap2\n      sub\n      swap1\n      revert\n    tag_119:\n        /* \"xuanshang/jstask/app/Task.sol\":2668:2674  worker */\n      dup5\n      dup5\n        /* \"xuanshang/jstask/app/Task.sol\":2644:2650  _tasks */\n      0x04\n        /* \"xuanshang/jstask/app/Task.sol\":2651:2657  taskID */\n      dup4\n        /* \"xuanshang/jstask/app/Task.sol\":2644:2658  _tasks[taskID] */\n      dup2\n      sload\n      dup2\n      lt\n      tag_122\n      jumpi\n      invalid\n    tag_122:\n      swap1\n      0x00\n      mstore\n      keccak256(0x00, 0x20)\n      swap1\n      0x07\n      mul\n      add\n        /* \"xuanshang/jstask/app/Task.sol\":2644:2665  _tasks[taskID].worker */\n      0x01\n      add\n        /* \"xuanshang/jstask/app/Task.sol\":2644:2674  _tasks[taskID].worker = worker */\n      swap2\n      swap1\n      tag_124\n      swap3\n      swap2\n      swap1\n      tag_125\n      jump\t// in\n    tag_124:\n      pop\n        /* \"xuanshang/jstask/app/Task.sol\":2708:2709  1 */\n      0x01\n        /* \"xuanshang/jstask/app/Task.sol\":2684:2690  _tasks */\n      0x04\n        /* \"xuanshang/jstask/app/Task.sol\":2691:2697  taskID */\n      dup3\n        /* \"xuanshang/jstask/app/Task.sol\":2684:2698  _tasks[taskID] */\n      dup2\n      sload\n      dup2\n      lt\n      tag_126\n      jumpi\n      invalid\n    tag_126:\n      swap1\n      0x00\n      mstore\n      keccak256(0x00, 0x20)\n      swap1\n      0x07\n      mul\n      add\n        /* \"xuanshang/jstask/app/Task.sol\":2684:2705  _tasks[taskID].status */\n      0x04\n      add\n      0x00\n        /* \"xuanshang/jstask/app/Task.sol\":2684:2709  _tasks[taskID].status = 1 */\n      0x0100\n      exp\n      dup2\n      sload\n      dup2\n      0xff\n      mul\n      not\n      and\n      swap1\n      dup4\n      0xff\n      and\n      mul\n      or\n      swap1\n      sstore\n      pop\n        /* \"xuanshang/jstask/app/Task.sol\":2340:2734  function take(string calldata worker,string calldata passwd,uint256 taskID)external{... */\n      pop\n      pop\n      pop\n      pop\n      pop\n      jump\t// out\n        /* \"xuanshang/jstask/app/Task.sol\":1892:2315  function issue(string calldata issuer,string calldata passwd,string calldata desc,uint256 bonus)external {... */\n    tag_45:\n        /* \"xuanshang/jstask/app/Task.sol\":2015:2020  _user */\n      0x01\n      0x00\n      swap1\n      sload\n      swap1\n      0x0100\n      exp\n      swap1\n      div\n      0xffffffffffffffffffffffffffffffffffffffff\n      and\n        /* \"xuanshang/jstask/app/Task.sol\":2015:2026  _user.login */\n      0xffffffffffffffffffffffffffffffffffffffff\n      and\n      0x58467dbc\n        /* \"xuanshang/jstask/app/Task.sol\":2027:2033  issuer */\n      dup9\n      dup9\n        /* \"xuanshang/jstask/app/Task.sol\":2034:2040  passwd */\n      dup9\n      dup9\n        /* \"xuanshang/jstask/app/Task.sol\":2015:2041  _user.login(issuer,passwd) */\n      mload(0x40)\n      dup6\n      0xffffffff\n      and\n      0xe0\n      shl\n      dup2\n      mstore\n      0x04\n      add\n      tag_129\n      swap5\n      swap4\n      swap3\n      swap2\n      swap1\n      jump(tag_92)\n    tag_129:\n      0x20\n      mload(0x40)\n      dup1\n      dup4\n      sub\n      dup2\n      dup7\n      dup1\n      extcodesize\n      iszero\n      dup1\n      iszero\n      tag_130\n      jumpi\n      0x00\n      dup1\n      revert\n    tag_130:\n      pop\n      gas\n      staticcall\n      iszero\n      dup1\n      iszero\n      tag_132\n      jumpi\n      returndatasize\n      0x00\n      dup1\n      returndatacopy\n      revert(0x00, returndatasize)\n    tag_132:\n      pop\n      pop\n      pop\n      pop\n      mload(0x40)\n      returndatasize\n      not(0x1f)\n      0x1f\n      dup3\n      add\n      and\n      dup3\n      add\n      dup1\n      0x40\n      mstore\n      pop\n      dup2\n      add\n      swap1\n      tag_133\n      swap2\n      swap1\n      jump(tag_102)\n    tag_133:\n        /* \"xuanshang/jstask/app/Task.sol\":2007:2071  require(_user.login(issuer,passwd),\"issuer must have his right\") */\n      tag_134\n      jumpi\n      mload(0x40)\n      0x08c379a000000000000000000000000000000000000000000000000000000000\n      dup2\n      mstore\n      0x04\n      add\n      tag_135\n      swap1\n      jump(tag_136)\n    tag_135:\n      mload(0x40)\n      dup1\n      swap2\n      sub\n      swap1\n      revert\n    tag_134:\n        /* \"xuanshang/jstask/app/Task.sol\":2097:2098  0 */\n      0x00\n        /* \"xuanshang/jstask/app/Task.sol\":2089:2094  bonus */\n      dup2\n        /* \"xuanshang/jstask/app/Task.sol\":2089:2098  bonus > 0 */\n      gt\n        /* \"xuanshang/jstask/app/Task.sol\":2081:2116  require(bonus > 0,\"bonus must > 0\") */\n      tag_137\n      jumpi\n      mload(0x40)\n      0x08c379a000000000000000000000000000000000000000000000000000000000\n      dup2\n      mstore\n      0x04\n      add\n      tag_138\n      swap1\n      jump(tag_139)\n    tag_138:\n      mload(0x40)\n      dup1\n      swap2\n      sub\n      swap1\n      revert\n    tag_137:\n        /* \"xuanshang/jstask/app/Task.sol\":2162:2167  bonus */\n      dup1\n        /* \"xuanshang/jstask/app/Task.sol\":2134:2140  _token */\n      0x00\n      dup1\n      swap1\n      sload\n      swap1\n      0x0100\n      exp\n      swap1\n      div\n      0xffffffffffffffffffffffffffffffffffffffff\n      and\n        /* \"xuanshang/jstask/app/Task.sol\":2134:2150  _token.balanceOf */\n      0xffffffffffffffffffffffffffffffffffffffff\n      and\n      0x35ee5f87\n        /* \"xuanshang/jstask/app/Task.sol\":2151:2157  issuer */\n      dup10\n      dup10\n        /* \"xuanshang/jstask/app/Task.sol\":2134:2158  _token.balanceOf(issuer) */\n      mload(0x40)\n      dup4\n      0xffffffff\n      and\n      0xe0\n      shl\n      dup2\n      mstore\n      0x04\n      add\n      tag_140\n      swap3\n      swap2\n      swap1\n      jump(tag_85)\n    tag_140:\n      0x20\n      mload(0x40)\n      dup1\n      dup4\n      sub\n      dup2\n      dup7\n      dup1\n      extcodesize\n      iszero\n      dup1\n      iszero\n      tag_141\n      jumpi\n      0x00\n      dup1\n      revert\n    tag_141:\n      pop\n      gas\n      staticcall\n      iszero\n      dup1\n      iszero\n      tag_143\n      jumpi\n      returndatasize\n      0x00\n      dup1\n      returndatacopy\n      revert(0x00, returndatasize)\n    tag_143:\n      pop\n      pop\n      pop\n      pop\n      mload(0x40)\n      returndatasize\n      not(0x1f)\n      0x1f\n      dup3\n      add\n      and\n      dup3\n      add\n      dup1\n      0x40\n      mstore\n      pop\n      dup2\n      add\n      swap1\n      tag_144\n      swap2\n      swap1\n      jump(tag_82)\n    tag_144:\n        /* \"xuanshang/jstask/app/Task.sol\":2134:2167  _token.balanceOf(issuer) >= bonus */\n      lt\n      iszero\n        /* \"xuanshang/jstask/app/Task.sol\":2126:2197  require(_token.balanceOf(issuer) >= bonus,\"issuer's bonus must enough\") */\n      tag_145\n      jumpi\n      mload(0x40)\n      0x08c379a000000000000000000000000000000000000000000000000000000000\n      dup2\n      mstore\n      0x04\n      add\n      tag_146\n      swap1\n      jump(tag_147)\n    tag_146:\n      mload(0x40)\n      dup1\n      swap2\n      sub\n      swap1\n      revert\n    tag_145:\n        /* \"xuanshang/jstask/app/Task.sol\":2207:2227  TaskInfo memory task */\n      tag_148\n      tag_149\n      jump\t// in\n    tag_148:\n        /* \"xuanshang/jstask/app/Task.sol\":2230:2281  TaskInfo(issuer,\"\",desc,bonus,0,block.timestamp,\"\") */\n      mload(0x40)\n      dup1\n      0xe0\n      add\n      0x40\n      mstore\n      dup1\n        /* \"xuanshang/jstask/app/Task.sol\":2239:2245  issuer */\n      dup10\n      dup10\n        /* \"xuanshang/jstask/app/Task.sol\":2230:2281  TaskInfo(issuer,\"\",desc,bonus,0,block.timestamp,\"\") */\n      dup1\n      dup1\n      0x1f\n      add\n      0x20\n      dup1\n      swap2\n      div\n      mul\n      0x20\n      add\n      mload(0x40)\n      swap1\n      dup2\n      add\n      0x40\n      mstore\n      dup1\n      swap4\n      swap3\n      swap2\n      swap1\n      dup2\n      dup2\n      mstore\n      0x20\n      add\n      dup4\n      dup4\n      dup1\n      dup3\n      dup5\n      calldatacopy\n      0x00\n      dup2\n      dup5\n      add\n      mstore\n      not(0x1f)\n      0x1f\n      dup3\n      add\n      and\n      swap1\n      pop\n      dup1\n      dup4\n      add\n      swap3\n      pop\n      pop\n      pop\n      pop\n      pop\n      pop\n      pop\n      dup2\n      mstore\n      0x20\n      add\n      mload(0x40)\n      dup1\n      0x20\n      add\n      0x40\n      mstore\n      dup1\n      0x00\n      dup2\n      mstore\n      pop\n      dup2\n      mstore\n      0x20\n      add\n        /* \"xuanshang/jstask/app/Task.sol\":2249:2253  desc */\n      dup6\n      dup6\n        /* \"xuanshang/jstask/app/Task.sol\":2230:2281  TaskInfo(issuer,\"\",desc,bonus,0,block.timestamp,\"\") */\n      dup1\n      dup1\n      0x1f\n      add\n      0x20\n      dup1\n      swap2\n      div\n      mul\n      0x20\n      add\n      mload(0x40)\n      swap1\n      dup2\n      add\n      0x40\n      mstore\n      dup1\n      swap4\n      swap3\n      swap2\n      swap1\n      dup2\n      dup2\n      mstore\n      0x20\n      add\n      dup4\n      dup4\n      dup1\n      dup3\n      dup5\n      calldatacopy\n      0x00\n      dup2\n      dup5\n      add\n      mstore\n      not(0x1f)\n      0x1f\n      dup3\n      add\n      and\n      swap1\n      pop\n      dup1\n      dup4\n      add\n      swap3\n      pop\n      pop\n      pop\n      pop\n      pop\n      pop\n      pop\n      dup2\n      mstore\n      0x20\n      add\n        /* \"xuanshang/jstask/app/Task.sol\":2254:2259  bonus */\n      dup4\n        /* \"xuanshang/jstask/app/Task.sol\":2230:2281  TaskInfo(issuer,\"\",desc,bonus,0,block.timestamp,\"\") */\n      dup2\n      mstore\n      0x20\n      add\n        /* \"xuanshang/jstask/app/Task.sol\":2260:2261  0 */\n      0x00\n        /* \"xuanshang/jstask/app/Task.sol\":2230:2281  TaskInfo(issuer,\"\",desc,bonus,0,block.timestamp,\"\") */\n      0xff\n      and\n      dup2\n      mstore\n      0x20\n      add\n        /* \"xuanshang/jstask/app/Task.sol\":2262:2277  block.timestamp */\n      timestamp\n        /* \"xuanshang/jstask/app/Task.sol\":2230:2281  TaskInfo(issuer,\"\",desc,bonus,0,block.timestamp,\"\") */\n      dup2\n      mstore\n      0x20\n      add\n      mload(0x40)\n      dup1\n      0x20\n      add\n      0x40\n      mstore\n      dup1\n      0x00\n      dup2\n      mstore\n      pop\n      dup2\n      mstore\n      pop\n        /* \"xuanshang/jstask/app/Task.sol\":2207:2281  TaskInfo memory task = TaskInfo(issuer,\"\",desc,bonus,0,block.timestamp,\"\") */\n      swap1\n      pop\n        /* \"xuanshang/jstask/app/Task.sol\":2291:2297  _tasks */\n      0x04\n        /* \"xuanshang/jstask/app/Task.sol\":2303:2307  task */\n      dup2\n        /* \"xuanshang/jstask/app/Task.sol\":2291:2308  _tasks.push(task) */\n      swap1\n      dup1\n      0x01\n      dup2\n      sload\n      add\n      dup1\n      dup3\n      sstore\n      dup1\n      swap2\n      pop\n      pop\n      0x01\n      swap1\n      sub\n      swap1\n      0x00\n      mstore\n      keccak256(0x00, 0x20)\n      swap1\n      0x07\n      mul\n      add\n      0x00\n      swap1\n      swap2\n      swap1\n      swap2\n      swap1\n      swap2\n      pop\n      0x00\n      dup3\n      add\n      mload\n      dup2\n      0x00\n      add\n      swap1\n      dup1\n      mload\n      swap1\n      0x20\n      add\n      swap1\n      tag_151\n      swap3\n      swap2\n      swap1\n      tag_152\n      jump\t// in\n    tag_151:\n      pop\n      0x20\n      dup3\n      add\n      mload\n      dup2\n      0x01\n      add\n      swap1\n      dup1\n      mload\n      swap1\n      0x20\n      add\n      swap1\n      tag_153\n      swap3\n      swap2\n      swap1\n      tag_152\n      jump\t// in\n    tag_153:\n      pop\n      0x40\n      dup3\n      add\n      mload\n      dup2\n      0x02\n      add\n      swap1\n      dup1\n      mload\n      swap1\n      0x20\n      add\n      swap1\n      tag_154\n      swap3\n      swap2\n      swap1\n      tag_152\n      jump\t// in\n    tag_154:\n      pop\n      0x60\n      dup3\n      add\n      mload\n      dup2\n      0x03\n      add\n      sstore\n      0x80\n      dup3\n      add\n      mload\n      dup2\n      0x04\n      add\n      exp(0x0100, 0x00)\n      dup2\n      sload\n      dup2\n      0xff\n      mul\n      not\n      and\n      swap1\n      dup4\n      0xff\n      and\n      mul\n      or\n      swap1\n      sstore\n      pop\n      0xa0\n      dup3\n      add\n      mload\n      dup2\n      0x05\n      add\n      sstore\n      0xc0\n      dup3\n      add\n      mload\n      dup2\n      0x06\n      add\n      swap1\n      dup1\n      mload\n      swap1\n      0x20\n      add\n      swap1\n      tag_155\n      swap3\n      swap2\n      swap1\n      tag_152\n      jump\t// in\n    tag_155:\n      pop\n      pop\n      pop\n        /* \"xuanshang/jstask/app/Task.sol\":1892:2315  function issue(string calldata issuer,string calldata passwd,string calldata desc,uint256 bonus)external {... */\n      pop\n      pop\n      pop\n      pop\n      pop\n      pop\n      pop\n      pop\n      jump\t// out\n        /* \"xuanshang/jstask/app/Task.sol\":2759:3201  function commit(string calldata worker,string calldata passwd,uint256 taskID)external{... */\n    tag_48:\n        /* \"xuanshang/jstask/app/Task.sol\":2862:2867  _user */\n      0x01\n      0x00\n      swap1\n      sload\n      swap1\n      0x0100\n      exp\n      swap1\n      div\n      0xffffffffffffffffffffffffffffffffffffffff\n      and\n        /* \"xuanshang/jstask/app/Task.sol\":2862:2873  _user.login */\n      0xffffffffffffffffffffffffffffffffffffffff\n      and\n      0x58467dbc\n        /* \"xuanshang/jstask/app/Task.sol\":2874:2880  worker */\n      dup7\n      dup7\n        /* \"xuanshang/jstask/app/Task.sol\":2881:2887  passwd */\n      dup7\n      dup7\n        /* \"xuanshang/jstask/app/Task.sol\":2862:2888  _user.login(worker,passwd) */\n      mload(0x40)\n      dup6\n      0xffffffff\n      and\n      0xe0\n      shl\n      dup2\n      mstore\n      0x04\n      add\n      tag_157\n      swap5\n      swap4\n      swap3\n      swap2\n      swap1\n      jump(tag_92)\n    tag_157:\n      0x20\n      mload(0x40)\n      dup1\n      dup4\n      sub\n      dup2\n      dup7\n      dup1\n      extcodesize\n      iszero\n      dup1\n      iszero\n      tag_158\n      jumpi\n      0x00\n      dup1\n      revert\n    tag_158:\n      pop\n      gas\n      staticcall\n      iszero\n      dup1\n      iszero\n      tag_160\n      jumpi\n      returndatasize\n      0x00\n      dup1\n      returndatacopy\n      revert(0x00, returndatasize)\n    tag_160:\n      pop\n      pop\n      pop\n      pop\n      mload(0x40)\n      returndatasize\n      not(0x1f)\n      0x1f\n      dup3\n      add\n      and\n      dup3\n      add\n      dup1\n      0x40\n      mstore\n      pop\n      dup2\n      add\n      swap1\n      tag_161\n      swap2\n      swap1\n      jump(tag_102)\n    tag_161:\n        /* \"xuanshang/jstask/app/Task.sol\":2854:2918  require(_user.login(worker,passwd),\"worker must have his right\") */\n      tag_162\n      jumpi\n      mload(0x40)\n      0x08c379a000000000000000000000000000000000000000000000000000000000\n      dup2\n      mstore\n      0x04\n      add\n      tag_163\n      swap1\n      jump(tag_111)\n    tag_163:\n      mload(0x40)\n      dup1\n      swap2\n      sub\n      swap1\n      revert\n    tag_162:\n        /* \"xuanshang/jstask/app/Task.sol\":2963:2964  0 */\n      0x00\n        /* \"xuanshang/jstask/app/Task.sol\":2936:2942  _tasks */\n      0x04\n        /* \"xuanshang/jstask/app/Task.sol\":2943:2949  taskID */\n      dup3\n        /* \"xuanshang/jstask/app/Task.sol\":2936:2950  _tasks[taskID] */\n      dup2\n      sload\n      dup2\n      lt\n      tag_164\n      jumpi\n      invalid\n    tag_164:\n      swap1\n      0x00\n      mstore\n      keccak256(0x00, 0x20)\n      swap1\n      0x07\n      mul\n      add\n        /* \"xuanshang/jstask/app/Task.sol\":2936:2960  _tasks[taskID].timestamp */\n      0x05\n      add\n      sload\n        /* \"xuanshang/jstask/app/Task.sol\":2936:2964  _tasks[taskID].timestamp > 0 */\n      gt\n        /* \"xuanshang/jstask/app/Task.sol\":2928:2984  require(_tasks[taskID].timestamp > 0,\"task must exists\") */\n      tag_166\n      jumpi\n      mload(0x40)\n      0x08c379a000000000000000000000000000000000000000000000000000000000\n      dup2\n      mstore\n      0x04\n      add\n      tag_167\n      swap1\n      jump(tag_116)\n    tag_167:\n      mload(0x40)\n      dup1\n      swap2\n      sub\n      swap1\n      revert\n    tag_166:\n        /* \"xuanshang/jstask/app/Task.sol\":3027:3028  1 */\n      0x01\n        /* \"xuanshang/jstask/app/Task.sol\":3002:3008  _tasks */\n      0x04\n        /* \"xuanshang/jstask/app/Task.sol\":3009:3015  taskID */\n      dup3\n        /* \"xuanshang/jstask/app/Task.sol\":3002:3016  _tasks[taskID] */\n      dup2\n      sload\n      dup2\n      lt\n      tag_168\n      jumpi\n      invalid\n    tag_168:\n      swap1\n      0x00\n      mstore\n      keccak256(0x00, 0x20)\n      swap1\n      0x07\n      mul\n      add\n        /* \"xuanshang/jstask/app/Task.sol\":3002:3023  _tasks[taskID].status */\n      0x04\n      add\n      0x00\n      swap1\n      sload\n      swap1\n      0x0100\n      exp\n      swap1\n      div\n      0xff\n      and\n        /* \"xuanshang/jstask/app/Task.sol\":3002:3028  _tasks[taskID].status == 1 */\n      0xff\n      and\n      eq\n        /* \"xuanshang/jstask/app/Task.sol\":2994:3055  require(_tasks[taskID].status == 1,\"task's status must == 1\") */\n      tag_170\n      jumpi\n      mload(0x40)\n      0x08c379a000000000000000000000000000000000000000000000000000000000\n      dup2\n      mstore\n      0x04\n      add\n      tag_171\n      swap1\n      jump(tag_172)\n    tag_171:\n      mload(0x40)\n      dup1\n      swap2\n      sub\n      swap1\n      revert\n    tag_170:\n        /* \"xuanshang/jstask/app/Task.sol\":3073:3110  worker.isEqual(_tasks[taskID].worker) */\n      tag_173\n        /* \"xuanshang/jstask/app/Task.sol\":3088:3094  _tasks */\n      0x04\n        /* \"xuanshang/jstask/app/Task.sol\":3095:3101  taskID */\n      dup3\n        /* \"xuanshang/jstask/app/Task.sol\":3088:3102  _tasks[taskID] */\n      dup2\n      sload\n      dup2\n      lt\n      tag_174\n      jumpi\n      invalid\n    tag_174:\n      swap1\n      0x00\n      mstore\n      keccak256(0x00, 0x20)\n      swap1\n      0x07\n      mul\n      add\n        /* \"xuanshang/jstask/app/Task.sol\":3088:3109  _tasks[taskID].worker */\n      0x01\n      add\n        /* \"xuanshang/jstask/app/Task.sol\":3073:3110  worker.isEqual(_tasks[taskID].worker) */\n      dup1\n      sload\n      0x01\n      dup2\n      0x01\n      and\n      iszero\n      0x0100\n      mul\n      sub\n      and\n      0x02\n      swap1\n      div\n      dup1\n      0x1f\n      add\n      0x20\n      dup1\n      swap2\n      div\n      mul\n      0x20\n      add\n      mload(0x40)\n      swap1\n      dup2\n      add\n      0x40\n      mstore\n      dup1\n      swap3\n      swap2\n      swap1\n      dup2\n      dup2\n      mstore\n      0x20\n      add\n      dup3\n      dup1\n      sload\n      0x01\n      dup2\n      0x01\n      and\n      iszero\n      0x0100\n      mul\n      sub\n      and\n      0x02\n      swap1\n      div\n      dup1\n      iszero\n      tag_176\n      jumpi\n      dup1\n      0x1f\n      lt\n      tag_177\n      jumpi\n      0x0100\n      dup1\n      dup4\n      sload\n      div\n      mul\n      dup4\n      mstore\n      swap2\n      0x20\n      add\n      swap2\n      jump(tag_176)\n    tag_177:\n      dup3\n      add\n      swap2\n      swap1\n      0x00\n      mstore\n      keccak256(0x00, 0x20)\n      swap1\n    tag_178:\n      dup2\n      sload\n      dup2\n      mstore\n      swap1\n      0x01\n      add\n      swap1\n      0x20\n      add\n      dup1\n      dup4\n      gt\n      tag_178\n      jumpi\n      dup3\n      swap1\n      sub\n      0x1f\n      and\n      dup3\n      add\n      swap2\n    tag_176:\n      pop\n      pop\n      pop\n      pop\n      pop\n        /* \"xuanshang/jstask/app/Task.sol\":3073:3079  worker */\n      dup7\n      dup7\n        /* \"xuanshang/jstask/app/Task.sol\":3073:3087  worker.isEqual */\n      dup1\n      dup1\n      0x1f\n      add\n      0x20\n      dup1\n      swap2\n      div\n      mul\n      0x20\n      add\n      mload(0x40)\n      swap1\n      dup2\n      add\n      0x40\n      mstore\n      dup1\n      swap4\n      swap3\n      swap2\n      swap1\n      dup2\n      dup2\n      mstore\n      0x20\n      add\n      dup4\n      dup4\n      dup1\n      dup3\n      dup5\n      calldatacopy\n      0x00\n      dup2\n      dup5\n      add\n      mstore\n      not(0x1f)\n      0x1f\n      dup3\n      add\n      and\n      swap1\n      pop\n      dup1\n      dup4\n      add\n      swap3\n      pop\n      pop\n      pop\n      pop\n      pop\n      pop\n      pop\n      tag_179\n      swap1\n        /* \"xuanshang/jstask/app/Task.sol\":3073:3110  worker.isEqual(_tasks[taskID].worker) */\n      swap2\n      swap1\n      0xffffffff\n      and\n      jump\t// in\n    tag_173:\n        /* \"xuanshang/jstask/app/Task.sol\":3065:3141  require(worker.isEqual(_tasks[taskID].worker),\"task's works must is worker\") */\n      tag_180\n      jumpi\n      mload(0x40)\n      0x08c379a000000000000000000000000000000000000000000000000000000000\n      dup2\n      mstore\n      0x04\n      add\n      tag_181\n      swap1\n      jump(tag_182)\n    tag_181:\n      mload(0x40)\n      dup1\n      swap2\n      sub\n      swap1\n      revert\n    tag_180:\n        /* \"xuanshang/jstask/app/Task.sol\":3175:3176  2 */\n      0x02\n        /* \"xuanshang/jstask/app/Task.sol\":3151:3157  _tasks */\n      0x04\n        /* \"xuanshang/jstask/app/Task.sol\":3158:3164  taskID */\n      dup3\n        /* \"xuanshang/jstask/app/Task.sol\":3151:3165  _tasks[taskID] */\n      dup2\n      sload\n      dup2\n      lt\n      tag_183\n      jumpi\n      invalid\n    tag_183:\n      swap1\n      0x00\n      mstore\n      keccak256(0x00, 0x20)\n      swap1\n      0x07\n      mul\n      add\n        /* \"xuanshang/jstask/app/Task.sol\":3151:3172  _tasks[taskID].status */\n      0x04\n      add\n      0x00\n        /* \"xuanshang/jstask/app/Task.sol\":3151:3176  _tasks[taskID].status = 2 */\n      0x0100\n      exp\n      dup2\n      sload\n      dup2\n      0xff\n      mul\n      not\n      and\n      swap1\n      dup4\n      0xff\n      and\n      mul\n      or\n      swap1\n      sstore\n      pop\n        /* \"xuanshang/jstask/app/Task.sol\":2759:3201  function commit(string calldata worker,string calldata passwd,uint256 taskID)external{... */\n      pop\n      pop\n      pop\n      pop\n      pop\n      jump\t// out\n        /* \"xuanshang/jstask/app/Task.sol\":4252:4344  function qryAllTasks()external view returns(TaskInfo[] memory){... */\n    tag_50:\n        /* \"xuanshang/jstask/app/Task.sol\":4296:4313  TaskInfo[] memory */\n      0x60\n        /* \"xuanshang/jstask/app/Task.sol\":4331:4337  _tasks */\n      0x04\n        /* \"xuanshang/jstask/app/Task.sol\":4324:4337  return _tasks */\n      dup1\n      sload\n      dup1\n      0x20\n      mul\n      0x20\n      add\n      mload(0x40)\n      swap1\n      dup2\n      add\n      0x40\n      mstore\n      dup1\n      swap3\n      swap2\n      swap1\n      dup2\n      dup2\n      mstore\n      0x20\n      add\n      0x00\n      swap1\n    tag_186:\n      dup3\n      dup3\n      lt\n      iszero\n      tag_187\n      jumpi\n      dup4\n      dup3\n      swap1\n      0x00\n      mstore\n      keccak256(0x00, 0x20)\n      swap1\n      0x07\n      mul\n      add\n      mload(0x40)\n      dup1\n      0xe0\n      add\n      0x40\n      mstore\n      swap1\n      dup2\n      0x00\n      dup3\n      add\n      dup1\n      sload\n      0x01\n      dup2\n      0x01\n      and\n      iszero\n      0x0100\n      mul\n      sub\n      and\n      0x02\n      swap1\n      div\n      dup1\n      0x1f\n      add\n      0x20\n      dup1\n      swap2\n      div\n      mul\n      0x20\n      add\n      mload(0x40)\n      swap1\n      dup2\n      add\n      0x40\n      mstore\n      dup1\n      swap3\n      swap2\n      swap1\n      dup2\n      dup2\n      mstore\n      0x20\n      add\n      dup3\n      dup1\n      sload\n      0x01\n      dup2\n      0x01\n      and\n      iszero\n      0x0100\n      mul\n      sub\n      and\n      0x02\n      swap1\n      div\n      dup1\n      iszero\n      tag_189\n      jumpi\n      dup1\n      0x1f\n      lt\n      tag_190\n      jumpi\n      0x0100\n      dup1\n      dup4\n      sload\n      div\n      mul\n      dup4\n      mstore\n      swap2\n      0x20\n      add\n      swap2\n      jump(tag_189)\n    tag_190:\n      dup3\n      add\n      swap2\n      swap1\n      0x00\n      mstore\n      keccak256(0x00, 0x20)\n      swap1\n    tag_191:\n      dup2\n      sload\n      dup2\n      mstore\n      swap1\n      0x01\n      add\n      swap1\n      0x20\n      add\n      dup1\n      dup4\n      gt\n      tag_191\n      jumpi\n      dup3\n      swap1\n      sub\n      0x1f\n      and\n      dup3\n      add\n      swap2\n    tag_189:\n      pop\n      pop\n      pop\n      pop\n      pop\n      dup2\n      mstore\n      0x20\n      add\n      0x01\n      dup3\n      add\n      dup1\n      sload\n      0x01\n      dup2\n      0x01\n      and\n      iszero\n      0x0100\n      mul\n      sub\n      and\n      0x02\n      swap1\n      div\n      dup1\n      0x1f\n      add\n      0x20\n      dup1\n      swap2\n      div\n      mul\n      0x20\n      add\n      mload(0x40)\n      swap1\n      dup2\n      add\n      0x40\n      mstore\n      dup1\n      swap3\n      swap2\n      swap1\n      dup2\n      dup2\n      mstore\n      0x20\n      add\n      dup3\n      dup1\n      sload\n      0x01\n      dup2\n      0x01\n      and\n      iszero\n      0x0100\n      mul\n      sub\n      and\n      0x02\n      swap1\n      div\n      dup1\n      iszero\n      tag_192\n      jumpi\n      dup1\n      0x1f\n      lt\n      tag_193\n      jumpi\n      0x0100\n      dup1\n      dup4\n      sload\n      div\n      mul\n      dup4\n      mstore\n      swap2\n      0x20\n      add\n      swap2\n      jump(tag_192)\n    tag_193:\n      dup3\n      add\n      swap2\n      swap1\n      0x00\n      mstore\n      keccak256(0x00, 0x20)\n      swap1\n    tag_194:\n      dup2\n      sload\n      dup2\n      mstore\n      swap1\n      0x01\n      add\n      swap1\n      0x20\n      add\n      dup1\n      dup4\n      gt\n      tag_194\n      jumpi\n      dup3\n      swap1\n      sub\n      0x1f\n      and\n      dup3\n      add\n      swap2\n    tag_192:\n      pop\n      pop\n      pop\n      pop\n      pop\n      dup2\n      mstore\n      0x20\n      add\n      0x02\n      dup3\n      add\n      dup1\n      sload\n      0x01\n      dup2\n      0x01\n      and\n      iszero\n      0x0100\n      mul\n      sub\n      and\n      0x02\n      swap1\n      div\n      dup1\n      0x1f\n      add\n      0x20\n      dup1\n      swap2\n      div\n      mul\n      0x20\n      add\n      mload(0x40)\n      swap1\n      dup2\n      add\n      0x40\n      mstore\n      dup1\n      swap3\n      swap2\n      swap1\n      dup2\n      dup2\n      mstore\n      0x20\n      add\n      dup3\n      dup1\n      sload\n      0x01\n      dup2\n      0x01\n      and\n      iszero\n      0x0100\n      mul\n      sub\n      and\n      0x02\n      swap1\n      div\n      dup1\n      iszero\n      tag_195\n      jumpi\n      dup1\n      0x1f\n      lt\n      tag_196\n      jumpi\n      0x0100\n      dup1\n      dup4\n      sload\n      div\n      mul\n      dup4\n      mstore\n      swap2\n      0x20\n      add\n      swap2\n      jump(tag_195)\n    tag_196:\n      dup3\n      add\n      swap2\n      swap1\n      0x00\n      mstore\n      keccak256(0x00, 0x20)\n      swap1\n    tag_197:\n      dup2\n      sload\n      dup2\n      mstore\n      swap1\n      0x01\n      add\n      swap1\n      0x20\n      add\n      dup1\n      dup4\n      gt\n      tag_197\n      jumpi\n      dup3\n      swap1\n      sub\n      0x1f\n      and\n      dup3\n      add\n      swap2\n    tag_195:\n      pop\n      pop\n      pop\n      pop\n      pop\n      dup2\n      mstore\n      0x20\n      add\n      0x03\n      dup3\n      add\n      sload\n      dup2\n      mstore\n      0x20\n      add\n      0x04\n      dup3\n      add\n      0x00\n      swap1\n      sload\n      swap1\n      0x0100\n      exp\n      swap1\n      div\n      0xff\n      and\n      0xff\n      and\n      0xff\n      and\n      dup2\n      mstore\n      0x20\n      add\n      0x05\n      dup3\n      add\n      sload\n      dup2\n      mstore\n      0x20\n      add\n      0x06\n      dup3\n      add\n      dup1\n      sload\n      0x01\n      dup2\n      0x01\n      and\n      iszero\n      0x0100\n      mul\n      sub\n      and\n      0x02\n      swap1\n      div\n      dup1\n      0x1f\n      add\n      0x20\n      dup1\n      swap2\n      div\n      mul\n      0x20\n      add\n      mload(0x40)\n      swap1\n      dup2\n      add\n      0x40\n      mstore\n      dup1\n      swap3\n      swap2\n      swap1\n      dup2\n      dup2\n      mstore\n      0x20\n      add\n      dup3\n      dup1\n      sload\n      0x01\n      dup2\n      0x01\n      and\n      iszero\n      0x0100\n      mul\n      sub\n      and\n      0x02\n      swap1\n      div\n      dup1\n      iszero\n      tag_198\n      jumpi\n      dup1\n      0x1f\n      lt\n      tag_199\n      jumpi\n      0x0100\n      dup1\n      dup4\n      sload\n      div\n      mul\n      dup4\n      mstore\n      swap2\n      0x20\n      add\n      swap2\n      jump(tag_198)\n    tag_199:\n      dup3\n      add\n      swap2\n      swap1\n      0x00\n      mstore\n      keccak256(0x00, 0x20)\n      swap1\n    tag_200:\n      dup2\n      sload\n      dup2\n      mstore\n      swap1\n      0x01\n      add\n      swap1\n      0x20\n      add\n      dup1\n      dup4\n      gt\n      tag_200\n      jumpi\n      dup3\n      swap1\n      sub\n      0x1f\n      and\n      dup3\n      add\n      swap2\n    tag_198:\n      pop\n      pop\n      pop\n      pop\n      pop\n      dup2\n      mstore\n      pop\n      pop\n      dup2\n      mstore\n      0x20\n      add\n      swap1\n      0x01\n      add\n      swap1\n      jump(tag_186)\n    tag_187:\n      pop\n      pop\n      pop\n      pop\n      swap1\n      pop\n        /* \"xuanshang/jstask/app/Task.sol\":4252:4344  function qryAllTasks()external view returns(TaskInfo[] memory){... */\n      swap1\n      jump\t// out\n        /* \"xuanshang/jstask/app/Task.sol\":3975:4220  function qryOneTask(uint256 taskID)external view returns(string memory,string memory,uint256,string memory,uint8){... */\n    tag_56:\n        /* \"xuanshang/jstask/app/Task.sol\":4032:4045  string memory */\n      0x60\n        /* \"xuanshang/jstask/app/Task.sol\":4046:4059  string memory */\n      dup1\n        /* \"xuanshang/jstask/app/Task.sol\":4060:4067  uint256 */\n      0x00\n        /* \"xuanshang/jstask/app/Task.sol\":4068:4081  string memory */\n      0x60\n        /* \"xuanshang/jstask/app/Task.sol\":4082:4087  uint8 */\n      0x00\n        /* \"xuanshang/jstask/app/Task.sol\":4106:4112  _tasks */\n      0x04\n        /* \"xuanshang/jstask/app/Task.sol\":4113:4119  taskID */\n      dup7\n        /* \"xuanshang/jstask/app/Task.sol\":4106:4120  _tasks[taskID] */\n      dup2\n      sload\n      dup2\n      lt\n      tag_202\n      jumpi\n      invalid\n    tag_202:\n      swap1\n      0x00\n      mstore\n      keccak256(0x00, 0x20)\n      swap1\n      0x07\n      mul\n      add\n        /* \"xuanshang/jstask/app/Task.sol\":4106:4127  _tasks[taskID].issuer */\n      0x00\n      add\n        /* \"xuanshang/jstask/app/Task.sol\":4128:4134  _tasks */\n      0x04\n        /* \"xuanshang/jstask/app/Task.sol\":4135:4141  taskID */\n      dup8\n        /* \"xuanshang/jstask/app/Task.sol\":4128:4142  _tasks[taskID] */\n      dup2\n      sload\n      dup2\n      lt\n      tag_204\n      jumpi\n      invalid\n    tag_204:\n      swap1\n      0x00\n      mstore\n      keccak256(0x00, 0x20)\n      swap1\n      0x07\n      mul\n      add\n        /* \"xuanshang/jstask/app/Task.sol\":4128:4147  _tasks[taskID].desc */\n      0x02\n      add\n        /* \"xuanshang/jstask/app/Task.sol\":4148:4154  _tasks */\n      0x04\n        /* \"xuanshang/jstask/app/Task.sol\":4155:4161  taskID */\n      dup9\n        /* \"xuanshang/jstask/app/Task.sol\":4148:4162  _tasks[taskID] */\n      dup2\n      sload\n      dup2\n      lt\n      tag_206\n      jumpi\n      invalid\n    tag_206:\n      swap1\n      0x00\n      mstore\n      keccak256(0x00, 0x20)\n      swap1\n      0x07\n      mul\n      add\n        /* \"xuanshang/jstask/app/Task.sol\":4148:4168  _tasks[taskID].bonus */\n      0x03\n      add\n      sload\n        /* \"xuanshang/jstask/app/Task.sol\":4169:4175  _tasks */\n      0x04\n        /* \"xuanshang/jstask/app/Task.sol\":4176:4182  taskID */\n      dup10\n        /* \"xuanshang/jstask/app/Task.sol\":4169:4183  _tasks[taskID] */\n      dup2\n      sload\n      dup2\n      lt\n      tag_208\n      jumpi\n      invalid\n    tag_208:\n      swap1\n      0x00\n      mstore\n      keccak256(0x00, 0x20)\n      swap1\n      0x07\n      mul\n      add\n        /* \"xuanshang/jstask/app/Task.sol\":4169:4190  _tasks[taskID].worker */\n      0x01\n      add\n        /* \"xuanshang/jstask/app/Task.sol\":4191:4197  _tasks */\n      0x04\n        /* \"xuanshang/jstask/app/Task.sol\":4198:4204  taskID */\n      dup11\n        /* \"xuanshang/jstask/app/Task.sol\":4191:4205  _tasks[taskID] */\n      dup2\n      sload\n      dup2\n      lt\n      tag_210\n      jumpi\n      invalid\n    tag_210:\n      swap1\n      0x00\n      mstore\n      keccak256(0x00, 0x20)\n      swap1\n      0x07\n      mul\n      add\n        /* \"xuanshang/jstask/app/Task.sol\":4191:4212  _tasks[taskID].status */\n      0x04\n      add\n      0x00\n      swap1\n      sload\n      swap1\n      0x0100\n      exp\n      swap1\n      div\n      0xff\n      and\n        /* \"xuanshang/jstask/app/Task.sol\":4098:4213  return (_tasks[taskID].issuer,_tasks[taskID].desc,_tasks[taskID].bonus,_tasks[taskID].worker,_tasks[taskID].status) */\n      dup5\n      dup1\n      sload\n      0x01\n      dup2\n      0x01\n      and\n      iszero\n      0x0100\n      mul\n      sub\n      and\n      0x02\n      swap1\n      div\n      dup1\n      0x1f\n      add\n      0x20\n      dup1\n      swap2\n      div\n      mul\n      0x20\n      add\n      mload(0x40)\n      swap1\n      dup2\n      add\n      0x40\n      mstore\n      dup1\n      swap3\n      swap2\n      swap1\n      dup2\n      dup2\n      mstore\n      0x20\n      add\n      dup3\n      dup1\n      sload\n      0x01\n      dup2\n      0x01\n      and\n      iszero\n      0x0100\n      mul\n      sub\n      and\n      0x02\n      swap1\n      div\n      dup1\n      iszero\n      tag_212\n      jumpi\n      dup1\n      0x1f\n      lt\n      tag_213\n      jumpi\n      0x0100\n      dup1\n      dup4\n      sload\n      div\n      mul\n      dup4\n      mstore\n      swap2\n      0x20\n      add\n      swap2\n      jump(tag_212)\n    tag_213:\n      dup3\n      add\n      swap2\n      swap1\n      0x00\n      mstore\n      keccak256(0x00, 0x20)\n      swap1\n    tag_214:\n      dup2\n      sload\n      dup2\n      mstore\n      swap1\n      0x01\n      add\n      swap1\n      0x20\n      add\n      dup1\n      dup4\n      gt\n      tag_214\n      jumpi\n      dup3\n      swap1\n      sub\n      0x1f\n      and\n      dup3\n      add\n      swap2\n    tag_212:\n      pop\n      pop\n      pop\n      pop\n      pop\n      swap5\n      pop\n      dup4\n      dup1\n      sload\n      0x01\n      dup2\n      0x01\n      and\n      iszero\n      0x0100\n      mul\n      sub\n      and\n      0x02\n      swap1\n      div\n      dup1\n      0x1f\n      add\n      0x20\n      dup1\n      swap2\n      div\n      mul\n      0x20\n      add\n      mload(0x40)\n      swap1\n      dup2\n      add\n      0x40\n      mstore\n      dup1\n      swap3\n      swap2\n      swap1\n      dup2\n      dup2\n      mstore\n      0x20\n      add\n      dup3\n      dup1\n      sload\n      0x01\n      dup2\n      0x01\n      and\n      iszero\n      0x0100\n      mul\n      sub\n      and\n      0x02\n      swap1\n      div\n      dup1\n      iszero\n      tag_215\n      jumpi\n      dup1\n      0x1f\n      lt\n      tag_216\n      jumpi\n      0x0100\n      dup1\n      dup4\n      sload\n      div\n      mul\n      dup4\n      mstore\n      swap2\n      0x20\n      add\n      swap2\n      jump(tag_215)\n    tag_216:\n      dup3\n      add\n      swap2\n      swap1\n      0x00\n      mstore\n      keccak256(0x00, 0x20)\n      swap1\n    tag_217:\n      dup2\n      sload\n      dup2\n      mstore\n      swap1\n      0x01\n      add\n      swap1\n      0x20\n      add\n      dup1\n      dup4\n      gt\n      tag_217\n      jumpi\n      dup3\n      swap1\n      sub\n      0x1f\n      and\n      dup3\n      add\n      swap2\n    tag_215:\n      pop\n      pop\n      pop\n      pop\n      pop\n      swap4\n      pop\n      dup2\n      dup1\n      sload\n      0x01\n      dup2\n      0x01\n      and\n      iszero\n      0x0100\n      mul\n      sub\n      and\n      0x02\n      swap1\n      div\n      dup1\n      0x1f\n      add\n      0x20\n      dup1\n      swap2\n      div\n      mul\n      0x20\n      add\n      mload(0x40)\n      swap1\n      dup2\n      add\n      0x40\n      mstore\n      dup1\n      swap3\n      swap2\n      swap1\n      dup2\n      dup2\n      mstore\n      0x20\n      add\n      dup3\n      dup1\n      sload\n      0x01\n      dup2\n      0x01\n      and\n      iszero\n      0x0100\n      mul\n      sub\n      and\n      0x02\n      swap1\n      div\n      dup1\n      iszero\n      tag_218\n      jumpi\n      dup1\n      0x1f\n      lt\n      tag_219\n      jumpi\n      0x0100\n      dup1\n      dup4\n      sload\n      div\n      mul\n      dup4\n      mstore\n      swap2\n      0x20\n      add\n      swap2\n      jump(tag_218)\n    tag_219:\n      dup3\n      add\n      swap2\n      swap1\n      0x00\n      mstore\n      keccak256(0x00, 0x20)\n      swap1\n    tag_220:\n      dup2\n      sload\n      dup2\n      mstore\n      swap1\n      0x01\n      add\n      swap1\n      0x20\n      add\n      dup1\n      dup4\n      gt\n      tag_220\n      jumpi\n      dup3\n      swap1\n      sub\n      0x1f\n      and\n      dup3\n      add\n      swap2\n    tag_218:\n      pop\n      pop\n      pop\n      pop\n      pop\n      swap2\n      pop\n      swap5\n      pop\n      swap5\n      pop\n      swap5\n      pop\n      swap5\n      pop\n      swap5\n      pop\n        /* \"xuanshang/jstask/app/Task.sol\":3975:4220  function qryOneTask(uint256 taskID)external view returns(string memory,string memory,uint256,string memory,uint8){... */\n      swap2\n      swap4\n      swap6\n      swap1\n      swap3\n      swap5\n      pop\n      jump\t// out\n        /* \"xuanshang/jstask/app/Task.sol\":975:1133  function transfer(string calldata _from,string calldata _to, uint256 _value) external returns (bool success){... */\n    tag_61:\n        /* \"xuanshang/jstask/app/Task.sol\":1070:1082  bool success */\n      0x00\n        /* \"xuanshang/jstask/app/Task.sol\":1093:1099  _token */\n      dup1\n      0x00\n      swap1\n      sload\n      swap1\n      0x0100\n      exp\n      swap1\n      div\n      0xffffffffffffffffffffffffffffffffffffffff\n      and\n        /* \"xuanshang/jstask/app/Task.sol\":1093:1108  _token.transfer */\n      0xffffffffffffffffffffffffffffffffffffffff\n      and\n      0x9b80b050\n        /* \"xuanshang/jstask/app/Task.sol\":1109:1114  _from */\n      dup8\n      dup8\n        /* \"xuanshang/jstask/app/Task.sol\":1115:1118  _to */\n      dup8\n      dup8\n        /* \"xuanshang/jstask/app/Task.sol\":1119:1125  _value */\n      dup8\n        /* \"xuanshang/jstask/app/Task.sol\":1093:1126  _token.transfer(_from,_to,_value) */\n      mload(0x40)\n      dup7\n      0xffffffff\n      and\n      0xe0\n      shl\n      dup2\n      mstore\n      0x04\n      add\n      tag_222\n      swap6\n      swap5\n      swap4\n      swap3\n      swap2\n      swap1\n      jump(tag_223)\n    tag_222:\n      0x20\n      mload(0x40)\n      dup1\n      dup4\n      sub\n      dup2\n      0x00\n      dup8\n      dup1\n      extcodesize\n      iszero\n      dup1\n      iszero\n      tag_224\n      jumpi\n      0x00\n      dup1\n      revert\n    tag_224:\n      pop\n      gas\n      call\n      iszero\n      dup1\n      iszero\n      tag_226\n      jumpi\n      returndatasize\n      0x00\n      dup1\n      returndatacopy\n      revert(0x00, returndatasize)\n    tag_226:\n      pop\n      pop\n      pop\n      pop\n      mload(0x40)\n      returndatasize\n      not(0x1f)\n      0x1f\n      dup3\n      add\n      and\n      dup3\n      add\n      dup1\n      0x40\n      mstore\n      pop\n      dup2\n      add\n      swap1\n      tag_227\n      swap2\n      swap1\n      jump(tag_102)\n    tag_227:\n      pop\n        /* \"xuanshang/jstask/app/Task.sol\":975:1133  function transfer(string calldata _from,string calldata _to, uint256 _value) external returns (bool success){... */\n      swap6\n      swap5\n      pop\n      pop\n      pop\n      pop\n      pop\n      jump\t// out\n        /* \"xuanshang/jstask/app/Task.sol\":3226:3949  function confirm(string calldata issuer,string calldata passwd,uint256 taskID,string calldata comment,uint8 status)external{... */\n    tag_66:\n        /* \"xuanshang/jstask/app/Task.sol\":3367:3372  _user */\n      0x01\n      0x00\n      swap1\n      sload\n      swap1\n      0x0100\n      exp\n      swap1\n      div\n      0xffffffffffffffffffffffffffffffffffffffff\n      and\n        /* \"xuanshang/jstask/app/Task.sol\":3367:3378  _user.login */\n      0xffffffffffffffffffffffffffffffffffffffff\n      and\n      0x58467dbc\n        /* \"xuanshang/jstask/app/Task.sol\":3379:3385  issuer */\n      dup10\n      dup10\n        /* \"xuanshang/jstask/app/Task.sol\":3386:3392  passwd */\n      dup10\n      dup10\n        /* \"xuanshang/jstask/app/Task.sol\":3367:3393  _user.login(issuer,passwd) */\n      mload(0x40)\n      dup6\n      0xffffffff\n      and\n      0xe0\n      shl\n      dup2\n      mstore\n      0x04\n      add\n      tag_229\n      swap5\n      swap4\n      swap3\n      swap2\n      swap1\n      jump(tag_92)\n    tag_229:\n      0x20\n      mload(0x40)\n      dup1\n      dup4\n      sub\n      dup2\n      dup7\n      dup1\n      extcodesize\n      iszero\n      dup1\n      iszero\n      tag_230\n      jumpi\n      0x00\n      dup1\n      revert\n    tag_230:\n      pop\n      gas\n      staticcall\n      iszero\n      dup1\n      iszero\n      tag_232\n      jumpi\n      returndatasize\n      0x00\n      dup1\n      returndatacopy\n      revert(0x00, returndatasize)\n    tag_232:\n      pop\n      pop\n      pop\n      pop\n      mload(0x40)\n      returndatasize\n      not(0x1f)\n      0x1f\n      dup3\n      add\n      and\n      dup3\n      add\n      dup1\n      0x40\n      mstore\n      pop\n      dup2\n      add\n      swap1\n      tag_233\n      swap2\n      swap1\n      jump(tag_102)\n    tag_233:\n        /* \"xuanshang/jstask/app/Task.sol\":3359:3423  require(_user.login(issuer,passwd),\"worker must have his right\") */\n      tag_234\n      jumpi\n      mload(0x40)\n      0x08c379a000000000000000000000000000000000000000000000000000000000\n      dup2\n      mstore\n      0x04\n      add\n      tag_235\n      swap1\n      jump(tag_111)\n    tag_235:\n      mload(0x40)\n      dup1\n      swap2\n      sub\n      swap1\n      revert\n    tag_234:\n        /* \"xuanshang/jstask/app/Task.sol\":3468:3469  0 */\n      0x00\n        /* \"xuanshang/jstask/app/Task.sol\":3441:3447  _tasks */\n      0x04\n        /* \"xuanshang/jstask/app/Task.sol\":3448:3454  taskID */\n      dup6\n        /* \"xuanshang/jstask/app/Task.sol\":3441:3455  _tasks[taskID] */\n      dup2\n      sload\n      dup2\n      lt\n      tag_236\n      jumpi\n      invalid\n    tag_236:\n      swap1\n      0x00\n      mstore\n      keccak256(0x00, 0x20)\n      swap1\n      0x07\n      mul\n      add\n        /* \"xuanshang/jstask/app/Task.sol\":3441:3465  _tasks[taskID].timestamp */\n      0x05\n      add\n      sload\n        /* \"xuanshang/jstask/app/Task.sol\":3441:3469  _tasks[taskID].timestamp > 0 */\n      gt\n        /* \"xuanshang/jstask/app/Task.sol\":3433:3489  require(_tasks[taskID].timestamp > 0,\"task must exists\") */\n      tag_238\n      jumpi\n      mload(0x40)\n      0x08c379a000000000000000000000000000000000000000000000000000000000\n      dup2\n      mstore\n      0x04\n      add\n      tag_239\n      swap1\n      jump(tag_116)\n    tag_239:\n      mload(0x40)\n      dup1\n      swap2\n      sub\n      swap1\n      revert\n    tag_238:\n        /* \"xuanshang/jstask/app/Task.sol\":3532:3533  2 */\n      0x02\n        /* \"xuanshang/jstask/app/Task.sol\":3507:3513  _tasks */\n      0x04\n        /* \"xuanshang/jstask/app/Task.sol\":3514:3520  taskID */\n      dup6\n        /* \"xuanshang/jstask/app/Task.sol\":3507:3521  _tasks[taskID] */\n      dup2\n      sload\n      dup2\n      lt\n      tag_240\n      jumpi\n      invalid\n    tag_240:\n      swap1\n      0x00\n      mstore\n      keccak256(0x00, 0x20)\n      swap1\n      0x07\n      mul\n      add\n        /* \"xuanshang/jstask/app/Task.sol\":3507:3528  _tasks[taskID].status */\n      0x04\n      add\n      0x00\n      swap1\n      sload\n      swap1\n      0x0100\n      exp\n      swap1\n      div\n      0xff\n      and\n        /* \"xuanshang/jstask/app/Task.sol\":3507:3533  _tasks[taskID].status == 2 */\n      0xff\n      and\n      eq\n        /* \"xuanshang/jstask/app/Task.sol\":3499:3560  require(_tasks[taskID].status == 2,\"task's status must == 2\") */\n      tag_242\n      jumpi\n      mload(0x40)\n      0x08c379a000000000000000000000000000000000000000000000000000000000\n      dup2\n      mstore\n      0x04\n      add\n      tag_243\n      swap1\n      jump(tag_244)\n    tag_243:\n      mload(0x40)\n      dup1\n      swap2\n      sub\n      swap1\n      revert\n    tag_242:\n        /* \"xuanshang/jstask/app/Task.sol\":3578:3615  issuer.isEqual(_tasks[taskID].issuer) */\n      tag_245\n        /* \"xuanshang/jstask/app/Task.sol\":3593:3599  _tasks */\n      0x04\n        /* \"xuanshang/jstask/app/Task.sol\":3600:3606  taskID */\n      dup6\n        /* \"xuanshang/jstask/app/Task.sol\":3593:3607  _tasks[taskID] */\n      dup2\n      sload\n      dup2\n      lt\n      tag_246\n      jumpi\n      invalid\n    tag_246:\n      swap1\n      0x00\n      mstore\n      keccak256(0x00, 0x20)\n      swap1\n      0x07\n      mul\n      add\n        /* \"xuanshang/jstask/app/Task.sol\":3593:3614  _tasks[taskID].issuer */\n      0x00\n      add\n        /* \"xuanshang/jstask/app/Task.sol\":3578:3615  issuer.isEqual(_tasks[taskID].issuer) */\n      dup1\n      sload\n      0x01\n      dup2\n      0x01\n      and\n      iszero\n      0x0100\n      mul\n      sub\n      and\n      0x02\n      swap1\n      div\n      dup1\n      0x1f\n      add\n      0x20\n      dup1\n      swap2\n      div\n      mul\n      0x20\n      add\n      mload(0x40)\n      swap1\n      dup2\n      add\n      0x40\n      mstore\n      dup1\n      swap3\n      swap2\n      swap1\n      dup2\n      dup2\n      mstore\n      0x20\n      add\n      dup3\n      dup1\n      sload\n      0x01\n      dup2\n      0x01\n      and\n      iszero\n      0x0100\n      mul\n      sub\n      and\n      0x02\n      swap1\n      div\n      dup1\n      iszero\n      tag_248\n      jumpi\n      dup1\n      0x1f\n      lt\n      tag_249\n      jumpi\n      0x0100\n      dup1\n      dup4\n      sload\n      div\n      mul\n      dup4\n      mstore\n      swap2\n      0x20\n      add\n      swap2\n      jump(tag_248)\n    tag_249:\n      dup3\n      add\n      swap2\n      swap1\n      0x00\n      mstore\n      keccak256(0x00, 0x20)\n      swap1\n    tag_250:\n      dup2\n      sload\n      dup2\n      mstore\n      swap1\n      0x01\n      add\n      swap1\n      0x20\n      add\n      dup1\n      dup4\n      gt\n      tag_250\n      jumpi\n      dup3\n      swap1\n      sub\n      0x1f\n      and\n      dup3\n      add\n      swap2\n    tag_248:\n      pop\n      pop\n      pop\n      pop\n      pop\n        /* \"xuanshang/jstask/app/Task.sol\":3578:3584  issuer */\n      dup10\n      dup10\n        /* \"xuanshang/jstask/app/Task.sol\":3578:3592  issuer.isEqual */\n      dup1\n      dup1\n      0x1f\n      add\n      0x20\n      dup1\n      swap2\n      div\n      mul\n      0x20\n      add\n      mload(0x40)\n      swap1\n      dup2\n      add\n      0x40\n      mstore\n      dup1\n      swap4\n      swap3\n      swap2\n      swap1\n      dup2\n      dup2\n      mstore\n      0x20\n      add\n      dup4\n      dup4\n      dup1\n      dup3\n      dup5\n      calldatacopy\n      0x00\n      dup2\n      dup5\n      add\n      mstore\n      not(0x1f)\n      0x1f\n      dup3\n      add\n      and\n      swap1\n      pop\n      dup1\n      dup4\n      add\n      swap3\n      pop\n      pop\n      pop\n      pop\n      pop\n      pop\n      pop\n      tag_179\n      swap1\n        /* \"xuanshang/jstask/app/Task.sol\":3578:3615  issuer.isEqual(_tasks[taskID].issuer) */\n      swap2\n      swap1\n      0xffffffff\n      and\n      jump\t// in\n    tag_245:\n        /* \"xuanshang/jstask/app/Task.sol\":3570:3647  require(issuer.isEqual(_tasks[taskID].issuer),\"task's issuer must is issuer\") */\n      tag_251\n      jumpi\n      mload(0x40)\n      0x08c379a000000000000000000000000000000000000000000000000000000000\n      dup2\n      mstore\n      0x04\n      add\n      tag_252\n      swap1\n      jump(tag_253)\n    tag_252:\n      mload(0x40)\n      dup1\n      swap2\n      sub\n      swap1\n      revert\n    tag_251:\n        /* \"xuanshang/jstask/app/Task.sol\":3675:3676  3 */\n      0x03\n        /* \"xuanshang/jstask/app/Task.sol\":3665:3671  status */\n      dup2\n        /* \"xuanshang/jstask/app/Task.sol\":3665:3676  status == 3 */\n      0xff\n      and\n      eq\n        /* \"xuanshang/jstask/app/Task.sol\":3665:3691  status == 3 || status == 1 */\n      dup1\n      tag_254\n      jumpi\n      pop\n        /* \"xuanshang/jstask/app/Task.sol\":3690:3691  1 */\n      0x01\n        /* \"xuanshang/jstask/app/Task.sol\":3680:3686  status */\n      dup2\n        /* \"xuanshang/jstask/app/Task.sol\":3680:3691  status == 1 */\n      0xff\n      and\n      eq\n        /* \"xuanshang/jstask/app/Task.sol\":3665:3691  status == 3 || status == 1 */\n    tag_254:\n        /* \"xuanshang/jstask/app/Task.sol\":3657:3692  require(status == 3 || status == 1) */\n      tag_255\n      jumpi\n      0x00\n      dup1\n      revert\n    tag_255:\n        /* \"xuanshang/jstask/app/Task.sol\":3726:3732  status */\n      dup1\n        /* \"xuanshang/jstask/app/Task.sol\":3702:3708  _tasks */\n      0x04\n        /* \"xuanshang/jstask/app/Task.sol\":3709:3715  taskID */\n      dup6\n        /* \"xuanshang/jstask/app/Task.sol\":3702:3716  _tasks[taskID] */\n      dup2\n      sload\n      dup2\n      lt\n      tag_256\n      jumpi\n      invalid\n    tag_256:\n      swap1\n      0x00\n      mstore\n      keccak256(0x00, 0x20)\n      swap1\n      0x07\n      mul\n      add\n        /* \"xuanshang/jstask/app/Task.sol\":3702:3723  _tasks[taskID].status */\n      0x04\n      add\n      0x00\n        /* \"xuanshang/jstask/app/Task.sol\":3702:3732  _tasks[taskID].status = status */\n      0x0100\n      exp\n      dup2\n      sload\n      dup2\n      0xff\n      mul\n      not\n      and\n      swap1\n      dup4\n      0xff\n      and\n      mul\n      or\n      swap1\n      sstore\n      pop\n        /* \"xuanshang/jstask/app/Task.sol\":3785:3792  comment */\n      dup3\n      dup3\n        /* \"xuanshang/jstask/app/Task.sol\":3760:3766  _tasks */\n      0x04\n        /* \"xuanshang/jstask/app/Task.sol\":3767:3773  taskID */\n      dup7\n        /* \"xuanshang/jstask/app/Task.sol\":3760:3774  _tasks[taskID] */\n      dup2\n      sload\n      dup2\n      lt\n      tag_258\n      jumpi\n      invalid\n    tag_258:\n      swap1\n      0x00\n      mstore\n      keccak256(0x00, 0x20)\n      swap1\n      0x07\n      mul\n      add\n        /* \"xuanshang/jstask/app/Task.sol\":3760:3782  _tasks[taskID].comment */\n      0x06\n      add\n        /* \"xuanshang/jstask/app/Task.sol\":3760:3792  _tasks[taskID].comment = comment */\n      swap2\n      swap1\n      tag_260\n      swap3\n      swap2\n      swap1\n      tag_125\n      jump\t// in\n    tag_260:\n      pop\n        /* \"xuanshang/jstask/app/Task.sol\":3816:3817  3 */\n      0x03\n        /* \"xuanshang/jstask/app/Task.sol\":3806:3812  status */\n      dup2\n        /* \"xuanshang/jstask/app/Task.sol\":3806:3817  status == 3 */\n      0xff\n      and\n      eq\n        /* \"xuanshang/jstask/app/Task.sol\":3802:3943  if (status == 3){... */\n      iszero\n      tag_261\n      jumpi\n        /* \"xuanshang/jstask/app/Task.sol\":3866:3872  _token */\n      0x00\n      dup1\n      swap1\n      sload\n      swap1\n      0x0100\n      exp\n      swap1\n      div\n      0xffffffffffffffffffffffffffffffffffffffff\n      and\n        /* \"xuanshang/jstask/app/Task.sol\":3866:3881  _token.transfer */\n      0xffffffffffffffffffffffffffffffffffffffff\n      and\n      0x9b80b050\n        /* \"xuanshang/jstask/app/Task.sol\":3882:3888  issuer */\n      dup10\n      dup10\n        /* \"xuanshang/jstask/app/Task.sol\":3889:3895  _tasks */\n      0x04\n        /* \"xuanshang/jstask/app/Task.sol\":3896:3902  taskID */\n      dup9\n        /* \"xuanshang/jstask/app/Task.sol\":3889:3903  _tasks[taskID] */\n      dup2\n      sload\n      dup2\n      lt\n      tag_262\n      jumpi\n      invalid\n    tag_262:\n      swap1\n      0x00\n      mstore\n      keccak256(0x00, 0x20)\n      swap1\n      0x07\n      mul\n      add\n        /* \"xuanshang/jstask/app/Task.sol\":3889:3910  _tasks[taskID].worker */\n      0x01\n      add\n        /* \"xuanshang/jstask/app/Task.sol\":3911:3917  _tasks */\n      0x04\n        /* \"xuanshang/jstask/app/Task.sol\":3918:3924  taskID */\n      dup10\n        /* \"xuanshang/jstask/app/Task.sol\":3911:3925  _tasks[taskID] */\n      dup2\n      sload\n      dup2\n      lt\n      tag_264\n      jumpi\n      invalid\n    tag_264:\n      swap1\n      0x00\n      mstore\n      keccak256(0x00, 0x20)\n      swap1\n      0x07\n      mul\n      add\n        /* \"xuanshang/jstask/app/Task.sol\":3911:3931  _tasks[taskID].bonus */\n      0x03\n      add\n      sload\n        /* \"xuanshang/jstask/app/Task.sol\":3866:3932  _token.transfer(issuer,_tasks[taskID].worker,_tasks[taskID].bonus) */\n      mload(0x40)\n      dup6\n      0xffffffff\n      and\n      0xe0\n      shl\n      dup2\n      mstore\n      0x04\n      add\n      tag_266\n      swap5\n      swap4\n      swap3\n      swap2\n      swap1\n      jump(tag_267)\n    tag_266:\n      0x20\n      mload(0x40)\n      dup1\n      dup4\n      sub\n      dup2\n      0x00\n      dup8\n      dup1\n      extcodesize\n      iszero\n      dup1\n      iszero\n      tag_268\n      jumpi\n      0x00\n      dup1\n      revert\n    tag_268:\n      pop\n      gas\n      call\n      iszero\n      dup1\n      iszero\n      tag_270\n      jumpi\n      returndatasize\n      0x00\n      dup1\n      returndatacopy\n      revert(0x00, returndatasize)\n    tag_270:\n      pop\n      pop\n      pop\n      pop\n      mload(0x40)\n      returndatasize\n      not(0x1f)\n      0x1f\n      dup3\n      add\n      and\n      dup3\n      add\n      dup1\n      0x40\n      mstore\n      pop\n      dup2\n      add\n      swap1\n      tag_271\n      swap2\n      swap1\n      jump(tag_102)\n    tag_271:\n      pop\n        /* \"xuanshang/jstask/app/Task.sol\":3802:3943  if (status == 3){... */\n    tag_261:\n        /* \"xuanshang/jstask/app/Task.sol\":3226:3949  function confirm(string calldata issuer,string calldata passwd,uint256 taskID,string calldata comment,uint8 status)external{... */\n      pop\n      pop\n      pop\n      pop\n      pop\n      pop\n      pop\n      pop\n      jump\t// out\n        /* \"xuanshang/jstask/app/strings.sol\":82:388  function isEqual(string memory a,string memory b)internal pure returns(bool){... */\n    tag_179:\n        /* \"xuanshang/jstask/app/strings.sol\":153:157  bool */\n      0x00\n        /* \"xuanshang/jstask/app/strings.sol\":260:273  bytes32 hashA */\n      dup1\n        /* \"xuanshang/jstask/app/strings.sol\":297:298  a */\n      dup4\n        /* \"xuanshang/jstask/app/strings.sol\":286:299  abi.encode(a) */\n      add(0x20, mload(0x40))\n      tag_273\n      swap2\n      swap1\n      jump(tag_274)\n    tag_273:\n      mload(0x40)\n      0x20\n      dup2\n      dup4\n      sub\n      sub\n      dup2\n      mstore\n      swap1\n      0x40\n      mstore\n        /* \"xuanshang/jstask/app/strings.sol\":276:300  keccak256(abi.encode(a)) */\n      dup1\n      mload\n      swap1\n      0x20\n      add\n      keccak256\n        /* \"xuanshang/jstask/app/strings.sol\":260:300  bytes32 hashA = keccak256(abi.encode(a)) */\n      swap1\n      pop\n        /* \"xuanshang/jstask/app/strings.sol\":310:323  bytes32 hashB */\n      0x00\n        /* \"xuanshang/jstask/app/strings.sol\":347:348  b */\n      dup4\n        /* \"xuanshang/jstask/app/strings.sol\":336:349  abi.encode(b) */\n      add(0x20, mload(0x40))\n      tag_275\n      swap2\n      swap1\n      jump(tag_274)\n    tag_275:\n      mload(0x40)\n      0x20\n      dup2\n      dup4\n      sub\n      sub\n      dup2\n      mstore\n      swap1\n      0x40\n      mstore\n        /* \"xuanshang/jstask/app/strings.sol\":326:350  keccak256(abi.encode(b)) */\n      dup1\n      mload\n      swap1\n      0x20\n      add\n      keccak256\n        /* \"xuanshang/jstask/app/strings.sol\":310:350  bytes32 hashB = keccak256(abi.encode(b)) */\n      swap1\n      pop\n        /* \"xuanshang/jstask/app/strings.sol\":376:381  hashB */\n      dup1\n        /* \"xuanshang/jstask/app/strings.sol\":367:372  hashA */\n      dup3\n        /* \"xuanshang/jstask/app/strings.sol\":367:381  hashA == hashB */\n      eq\n        /* \"xuanshang/jstask/app/strings.sol\":360:381  return hashA == hashB */\n      swap3\n      pop\n      pop\n      pop\n        /* \"xuanshang/jstask/app/strings.sol\":82:388  function isEqual(string memory a,string memory b)internal pure returns(bool){... */\n      swap3\n      swap2\n      pop\n      pop\n      jump\t// out\n    tag_125:\n      dup3\n      dup1\n      sload\n      0x01\n      dup2\n      0x01\n      and\n      iszero\n      0x0100\n      mul\n      sub\n      and\n      0x02\n      swap1\n      div\n      swap1\n      0x00\n      mstore\n      keccak256(0x00, 0x20)\n      swap1\n      0x1f\n      add\n      0x20\n      swap1\n      div\n      dup2\n      add\n      swap3\n      dup3\n      0x1f\n      lt\n      tag_277\n      jumpi\n      dup1\n      calldataload\n      not(0xff)\n      and\n      dup4\n      dup1\n      add\n      or\n      dup6\n      sstore\n      jump(tag_276)\n    tag_277:\n      dup3\n      dup1\n      add\n      0x01\n      add\n      dup6\n      sstore\n      dup3\n      iszero\n      tag_276\n      jumpi\n      swap2\n      dup3\n      add\n    tag_278:\n      dup3\n      dup2\n      gt\n      iszero\n      tag_279\n      jumpi\n      dup3\n      calldataload\n      dup3\n      sstore\n      swap2\n      0x20\n      add\n      swap2\n      swap1\n      0x01\n      add\n      swap1\n      jump(tag_278)\n    tag_279:\n    tag_276:\n      pop\n      swap1\n      pop\n      tag_280\n      swap2\n      swap1\n      tag_281\n      jump\t// in\n    tag_280:\n      pop\n      swap1\n      jump\t// out\n    tag_149:\n      mload(0x40)\n      dup1\n      0xe0\n      add\n      0x40\n      mstore\n      dup1\n      0x60\n      dup2\n      mstore\n      0x20\n      add\n      0x60\n      dup2\n      mstore\n      0x20\n      add\n      0x60\n      dup2\n      mstore\n      0x20\n      add\n      0x00\n      dup2\n      mstore\n      0x20\n      add\n      and(0xff, 0x00)\n      dup2\n      mstore\n      0x20\n      add\n      0x00\n      dup2\n      mstore\n      0x20\n      add\n      0x60\n      dup2\n      mstore\n      pop\n      swap1\n      jump\t// out\n    tag_152:\n      dup3\n      dup1\n      sload\n      0x01\n      dup2\n      0x01\n      and\n      iszero\n      0x0100\n      mul\n      sub\n      and\n      0x02\n      swap1\n      div\n      swap1\n      0x00\n      mstore\n      keccak256(0x00, 0x20)\n      swap1\n      0x1f\n      add\n      0x20\n      swap1\n      div\n      dup2\n      add\n      swap3\n      dup3\n      0x1f\n      lt\n      tag_283\n      jumpi\n      dup1\n      mload\n      not(0xff)\n      and\n      dup4\n      dup1\n      add\n      or\n      dup6\n      sstore\n      jump(tag_282)\n    tag_283:\n      dup3\n      dup1\n      add\n      0x01\n      add\n      dup6\n      sstore\n      dup3\n      iszero\n      tag_282\n      jumpi\n      swap2\n      dup3\n      add\n    tag_284:\n      dup3\n      dup2\n      gt\n      iszero\n      tag_285\n      jumpi\n      dup3\n      mload\n      dup3\n      sstore\n      swap2\n      0x20\n      add\n      swap2\n      swap1\n      0x01\n      add\n      swap1\n      jump(tag_284)\n    tag_285:\n    tag_282:\n      pop\n      swap1\n      pop\n      tag_286\n      swap2\n      swap1\n      tag_281\n      jump\t// in\n    tag_286:\n      pop\n      swap1\n      jump\t// out\n    tag_281:\n      tag_287\n      swap2\n      swap1\n    tag_288:\n      dup1\n      dup3\n      gt\n      iszero\n      tag_289\n      jumpi\n      0x00\n      dup2\n      0x00\n      swap1\n      sstore\n      pop\n      0x01\n      add\n      jump(tag_288)\n    tag_289:\n      pop\n      swap1\n      jump\n    tag_287:\n      swap1\n      jump\t// out\n        /* \"--CODEGEN--\":5:133   */\n    tag_291:\n      0x00\n        /* \"--CODEGEN--\":86:92   */\n      dup2\n        /* \"--CODEGEN--\":80:93   */\n      mload\n        /* \"--CODEGEN--\":71:93   */\n      swap1\n      pop\n        /* \"--CODEGEN--\":98:128   */\n      tag_293\n        /* \"--CODEGEN--\":122:127   */\n      dup2\n        /* \"--CODEGEN--\":98:128   */\n      jump(tag_294)\n    tag_293:\n        /* \"--CODEGEN--\":65:133   */\n      swap3\n      swap2\n      pop\n      pop\n      jump\n        /* \"--CODEGEN--\":155:492   */\n    tag_295:\n      0x00\n      dup1\n        /* \"--CODEGEN--\":270:273   */\n      dup4\n        /* \"--CODEGEN--\":263:267   */\n      0x1f\n        /* \"--CODEGEN--\":255:261   */\n      dup5\n        /* \"--CODEGEN--\":251:268   */\n      add\n        /* \"--CODEGEN--\":247:274   */\n      slt\n        /* \"--CODEGEN--\":237:239   */\n      tag_297\n      jumpi\n        /* \"--CODEGEN--\":288:289   */\n      0x00\n        /* \"--CODEGEN--\":285:286   */\n      dup1\n        /* \"--CODEGEN--\":278:290   */\n      revert\n        /* \"--CODEGEN--\":237:239   */\n    tag_297:\n        /* \"--CODEGEN--\":321:327   */\n      dup3\n        /* \"--CODEGEN--\":308:328   */\n      calldataload\n        /* \"--CODEGEN--\":298:328   */\n      swap1\n      pop\n        /* \"--CODEGEN--\":348:366   */\n      0xffffffffffffffff\n        /* \"--CODEGEN--\":340:346   */\n      dup2\n        /* \"--CODEGEN--\":337:367   */\n      gt\n        /* \"--CODEGEN--\":334:336   */\n      iszero\n      tag_298\n      jumpi\n        /* \"--CODEGEN--\":380:381   */\n      0x00\n        /* \"--CODEGEN--\":377:378   */\n      dup1\n        /* \"--CODEGEN--\":370:382   */\n      revert\n        /* \"--CODEGEN--\":334:336   */\n    tag_298:\n        /* \"--CODEGEN--\":414:418   */\n      0x20\n        /* \"--CODEGEN--\":406:412   */\n      dup4\n        /* \"--CODEGEN--\":402:419   */\n      add\n        /* \"--CODEGEN--\":390:419   */\n      swap2\n      pop\n        /* \"--CODEGEN--\":465:468   */\n      dup4\n        /* \"--CODEGEN--\":457:461   */\n      0x01\n        /* \"--CODEGEN--\":449:455   */\n      dup3\n        /* \"--CODEGEN--\":445:462   */\n      mul\n        /* \"--CODEGEN--\":435:443   */\n      dup4\n        /* \"--CODEGEN--\":431:463   */\n      add\n        /* \"--CODEGEN--\":428:469   */\n      gt\n        /* \"--CODEGEN--\":425:427   */\n      iszero\n      tag_299\n      jumpi\n        /* \"--CODEGEN--\":482:483   */\n      0x00\n        /* \"--CODEGEN--\":479:480   */\n      dup1\n        /* \"--CODEGEN--\":472:484   */\n      revert\n        /* \"--CODEGEN--\":425:427   */\n    tag_299:\n        /* \"--CODEGEN--\":230:492   */\n      swap3\n      pop\n      swap3\n      swap1\n      pop\n      jump\n        /* \"--CODEGEN--\":500:630   */\n    tag_300:\n      0x00\n        /* \"--CODEGEN--\":580:586   */\n      dup2\n        /* \"--CODEGEN--\":567:587   */\n      calldataload\n        /* \"--CODEGEN--\":558:587   */\n      swap1\n      pop\n        /* \"--CODEGEN--\":592:625   */\n      tag_302\n        /* \"--CODEGEN--\":619:624   */\n      dup2\n        /* \"--CODEGEN--\":592:625   */\n      jump(tag_303)\n    tag_302:\n        /* \"--CODEGEN--\":552:630   */\n      swap3\n      swap2\n      pop\n      pop\n      jump\n        /* \"--CODEGEN--\":637:771   */\n    tag_304:\n      0x00\n        /* \"--CODEGEN--\":721:727   */\n      dup2\n        /* \"--CODEGEN--\":715:728   */\n      mload\n        /* \"--CODEGEN--\":706:728   */\n      swap1\n      pop\n        /* \"--CODEGEN--\":733:766   */\n      tag_306\n        /* \"--CODEGEN--\":760:765   */\n      dup2\n        /* \"--CODEGEN--\":733:766   */\n      jump(tag_303)\n    tag_306:\n        /* \"--CODEGEN--\":700:771   */\n      swap3\n      swap2\n      pop\n      pop\n      jump\n        /* \"--CODEGEN--\":778:904   */\n    tag_307:\n      0x00\n        /* \"--CODEGEN--\":856:862   */\n      dup2\n        /* \"--CODEGEN--\":843:863   */\n      calldataload\n        /* \"--CODEGEN--\":834:863   */\n      swap1\n      pop\n        /* \"--CODEGEN--\":868:899   */\n      tag_309\n        /* \"--CODEGEN--\":893:898   */\n      dup2\n        /* \"--CODEGEN--\":868:899   */\n      jump(tag_310)\n    tag_309:\n        /* \"--CODEGEN--\":828:904   */\n      swap3\n      swap2\n      pop\n      pop\n      jump\n        /* \"--CODEGEN--\":911:1168   */\n    tag_102:\n      0x00\n        /* \"--CODEGEN--\":1023:1025   */\n      0x20\n        /* \"--CODEGEN--\":1011:1020   */\n      dup3\n        /* \"--CODEGEN--\":1002:1009   */\n      dup5\n        /* \"--CODEGEN--\":998:1021   */\n      sub\n        /* \"--CODEGEN--\":994:1026   */\n      slt\n        /* \"--CODEGEN--\":991:993   */\n      iszero\n      tag_312\n      jumpi\n        /* \"--CODEGEN--\":1039:1040   */\n      0x00\n        /* \"--CODEGEN--\":1036:1037   */\n      dup1\n        /* \"--CODEGEN--\":1029:1041   */\n      revert\n        /* \"--CODEGEN--\":991:993   */\n    tag_312:\n        /* \"--CODEGEN--\":1074:1075   */\n      0x00\n        /* \"--CODEGEN--\":1091:1152   */\n      tag_313\n        /* \"--CODEGEN--\":1144:1151   */\n      dup5\n        /* \"--CODEGEN--\":1135:1141   */\n      dup3\n        /* \"--CODEGEN--\":1124:1133   */\n      dup6\n        /* \"--CODEGEN--\":1120:1142   */\n      add\n        /* \"--CODEGEN--\":1091:1152   */\n      jump(tag_291)\n    tag_313:\n        /* \"--CODEGEN--\":1081:1152   */\n      swap2\n      pop\n        /* \"--CODEGEN--\":1053:1158   */\n      pop\n        /* \"--CODEGEN--\":985:1168   */\n      swap3\n      swap2\n      pop\n      pop\n      jump\n        /* \"--CODEGEN--\":1175:1542   */\n    tag_26:\n      0x00\n      dup1\n        /* \"--CODEGEN--\":1299:1301   */\n      0x20\n        /* \"--CODEGEN--\":1287:1296   */\n      dup4\n        /* \"--CODEGEN--\":1278:1285   */\n      dup6\n        /* \"--CODEGEN--\":1274:1297   */\n      sub\n        /* \"--CODEGEN--\":1270:1302   */\n      slt\n        /* \"--CODEGEN--\":1267:1269   */\n      iszero\n      tag_315\n      jumpi\n        /* \"--CODEGEN--\":1315:1316   */\n      0x00\n        /* \"--CODEGEN--\":1312:1313   */\n      dup1\n        /* \"--CODEGEN--\":1305:1317   */\n      revert\n        /* \"--CODEGEN--\":1267:1269   */\n    tag_315:\n        /* \"--CODEGEN--\":1378:1379   */\n      0x00\n        /* \"--CODEGEN--\":1367:1376   */\n      dup4\n        /* \"--CODEGEN--\":1363:1380   */\n      add\n        /* \"--CODEGEN--\":1350:1381   */\n      calldataload\n        /* \"--CODEGEN--\":1401:1419   */\n      0xffffffffffffffff\n        /* \"--CODEGEN--\":1393:1399   */\n      dup2\n        /* \"--CODEGEN--\":1390:1420   */\n      gt\n        /* \"--CODEGEN--\":1387:1389   */\n      iszero\n      tag_316\n      jumpi\n        /* \"--CODEGEN--\":1433:1434   */\n      0x00\n        /* \"--CODEGEN--\":1430:1431   */\n      dup1\n        /* \"--CODEGEN--\":1423:1435   */\n      revert\n        /* \"--CODEGEN--\":1387:1389   */\n    tag_316:\n        /* \"--CODEGEN--\":1461:1526   */\n      tag_317\n        /* \"--CODEGEN--\":1518:1525   */\n      dup6\n        /* \"--CODEGEN--\":1509:1515   */\n      dup3\n        /* \"--CODEGEN--\":1498:1507   */\n      dup7\n        /* \"--CODEGEN--\":1494:1516   */\n      add\n        /* \"--CODEGEN--\":1461:1526   */\n      jump(tag_295)\n    tag_317:\n        /* \"--CODEGEN--\":1451:1526   */\n      swap3\n      pop\n      swap3\n      pop\n        /* \"--CODEGEN--\":1329:1532   */\n      pop\n        /* \"--CODEGEN--\":1261:1542   */\n      swap3\n      pop\n      swap3\n      swap1\n      pop\n      jump\n        /* \"--CODEGEN--\":1549:2167   */\n    tag_31:\n      0x00\n      dup1\n      0x00\n      dup1\n        /* \"--CODEGEN--\":1710:1712   */\n      0x40\n        /* \"--CODEGEN--\":1698:1707   */\n      dup6\n        /* \"--CODEGEN--\":1689:1696   */\n      dup8\n        /* \"--CODEGEN--\":1685:1708   */\n      sub\n        /* \"--CODEGEN--\":1681:1713   */\n      slt\n        /* \"--CODEGEN--\":1678:1680   */\n      iszero\n      tag_319\n      jumpi\n        /* \"--CODEGEN--\":1726:1727   */\n      0x00\n        /* \"--CODEGEN--\":1723:1724   */\n      dup1\n        /* \"--CODEGEN--\":1716:1728   */\n      revert\n        /* \"--CODEGEN--\":1678:1680   */\n    tag_319:\n        /* \"--CODEGEN--\":1789:1790   */\n      0x00\n        /* \"--CODEGEN--\":1778:1787   */\n      dup6\n        /* \"--CODEGEN--\":1774:1791   */\n      add\n        /* \"--CODEGEN--\":1761:1792   */\n      calldataload\n        /* \"--CODEGEN--\":1812:1830   */\n      0xffffffffffffffff\n        /* \"--CODEGEN--\":1804:1810   */\n      dup2\n        /* \"--CODEGEN--\":1801:1831   */\n      gt\n        /* \"--CODEGEN--\":1798:1800   */\n      iszero\n      tag_320\n      jumpi\n        /* \"--CODEGEN--\":1844:1845   */\n      0x00\n        /* \"--CODEGEN--\":1841:1842   */\n      dup1\n        /* \"--CODEGEN--\":1834:1846   */\n      revert\n        /* \"--CODEGEN--\":1798:1800   */\n    tag_320:\n        /* \"--CODEGEN--\":1872:1937   */\n      tag_321\n        /* \"--CODEGEN--\":1929:1936   */\n      dup8\n        /* \"--CODEGEN--\":1920:1926   */\n      dup3\n        /* \"--CODEGEN--\":1909:1918   */\n      dup9\n        /* \"--CODEGEN--\":1905:1927   */\n      add\n        /* \"--CODEGEN--\":1872:1937   */\n      jump(tag_295)\n    tag_321:\n        /* \"--CODEGEN--\":1862:1937   */\n      swap5\n      pop\n      swap5\n      pop\n        /* \"--CODEGEN--\":1740:1943   */\n      pop\n        /* \"--CODEGEN--\":2002:2004   */\n      0x20\n        /* \"--CODEGEN--\":1991:2000   */\n      dup6\n        /* \"--CODEGEN--\":1987:2005   */\n      add\n        /* \"--CODEGEN--\":1974:2006   */\n      calldataload\n        /* \"--CODEGEN--\":2026:2044   */\n      0xffffffffffffffff\n        /* \"--CODEGEN--\":2018:2024   */\n      dup2\n        /* \"--CODEGEN--\":2015:2045   */\n      gt\n        /* \"--CODEGEN--\":2012:2014   */\n      iszero\n      tag_322\n      jumpi\n        /* \"--CODEGEN--\":2058:2059   */\n      0x00\n        /* \"--CODEGEN--\":2055:2056   */\n      dup1\n        /* \"--CODEGEN--\":2048:2060   */\n      revert\n        /* \"--CODEGEN--\":2012:2014   */\n    tag_322:\n        /* \"--CODEGEN--\":2086:2151   */\n      tag_323\n        /* \"--CODEGEN--\":2143:2150   */\n      dup8\n        /* \"--CODEGEN--\":2134:2140   */\n      dup3\n        /* \"--CODEGEN--\":2123:2132   */\n      dup9\n        /* \"--CODEGEN--\":2119:2141   */\n      add\n        /* \"--CODEGEN--\":2086:2151   */\n      jump(tag_295)\n    tag_323:\n        /* \"--CODEGEN--\":2076:2151   */\n      swap3\n      pop\n      swap3\n      pop\n        /* \"--CODEGEN--\":1953:2157   */\n      pop\n        /* \"--CODEGEN--\":1672:2167   */\n      swap3\n      swap6\n      swap2\n      swap5\n      pop\n      swap3\n      pop\n      jump\n        /* \"--CODEGEN--\":2174:3169   */\n    tag_44:\n      0x00\n      dup1\n      0x00\n      dup1\n      0x00\n      dup1\n      0x00\n        /* \"--CODEGEN--\":2389:2392   */\n      0x80\n        /* \"--CODEGEN--\":2377:2386   */\n      dup9\n        /* \"--CODEGEN--\":2368:2375   */\n      dup11\n        /* \"--CODEGEN--\":2364:2387   */\n      sub\n        /* \"--CODEGEN--\":2360:2393   */\n      slt\n        /* \"--CODEGEN--\":2357:2359   */\n      iszero\n      tag_325\n      jumpi\n        /* \"--CODEGEN--\":2406:2407   */\n      0x00\n        /* \"--CODEGEN--\":2403:2404   */\n      dup1\n        /* \"--CODEGEN--\":2396:2408   */\n      revert\n        /* \"--CODEGEN--\":2357:2359   */\n    tag_325:\n        /* \"--CODEGEN--\":2469:2470   */\n      0x00\n        /* \"--CODEGEN--\":2458:2467   */\n      dup9\n        /* \"--CODEGEN--\":2454:2471   */\n      add\n        /* \"--CODEGEN--\":2441:2472   */\n      calldataload\n        /* \"--CODEGEN--\":2492:2510   */\n      0xffffffffffffffff\n        /* \"--CODEGEN--\":2484:2490   */\n      dup2\n        /* \"--CODEGEN--\":2481:2511   */\n      gt\n        /* \"--CODEGEN--\":2478:2480   */\n      iszero\n      tag_326\n      jumpi\n        /* \"--CODEGEN--\":2524:2525   */\n      0x00\n        /* \"--CODEGEN--\":2521:2522   */\n      dup1\n        /* \"--CODEGEN--\":2514:2526   */\n      revert\n        /* \"--CODEGEN--\":2478:2480   */\n    tag_326:\n        /* \"--CODEGEN--\":2552:2617   */\n      tag_327\n        /* \"--CODEGEN--\":2609:2616   */\n      dup11\n        /* \"--CODEGEN--\":2600:2606   */\n      dup3\n        /* \"--CODEGEN--\":2589:2598   */\n      dup12\n        /* \"--CODEGEN--\":2585:2607   */\n      add\n        /* \"--CODEGEN--\":2552:2617   */\n      jump(tag_295)\n    tag_327:\n        /* \"--CODEGEN--\":2542:2617   */\n      swap8\n      pop\n      swap8\n      pop\n        /* \"--CODEGEN--\":2420:2623   */\n      pop\n        /* \"--CODEGEN--\":2682:2684   */\n      0x20\n        /* \"--CODEGEN--\":2671:2680   */\n      dup9\n        /* \"--CODEGEN--\":2667:2685   */\n      add\n        /* \"--CODEGEN--\":2654:2686   */\n      calldataload\n        /* \"--CODEGEN--\":2706:2724   */\n      0xffffffffffffffff\n        /* \"--CODEGEN--\":2698:2704   */\n      dup2\n        /* \"--CODEGEN--\":2695:2725   */\n      gt\n        /* \"--CODEGEN--\":2692:2694   */\n      iszero\n      tag_328\n      jumpi\n        /* \"--CODEGEN--\":2738:2739   */\n      0x00\n        /* \"--CODEGEN--\":2735:2736   */\n      dup1\n        /* \"--CODEGEN--\":2728:2740   */\n      revert\n        /* \"--CODEGEN--\":2692:2694   */\n    tag_328:\n        /* \"--CODEGEN--\":2766:2831   */\n      tag_329\n        /* \"--CODEGEN--\":2823:2830   */\n      dup11\n        /* \"--CODEGEN--\":2814:2820   */\n      dup3\n        /* \"--CODEGEN--\":2803:2812   */\n      dup12\n        /* \"--CODEGEN--\":2799:2821   */\n      add\n        /* \"--CODEGEN--\":2766:2831   */\n      jump(tag_295)\n    tag_329:\n        /* \"--CODEGEN--\":2756:2831   */\n      swap6\n      pop\n      swap6\n      pop\n        /* \"--CODEGEN--\":2633:2837   */\n      pop\n        /* \"--CODEGEN--\":2896:2898   */\n      0x40\n        /* \"--CODEGEN--\":2885:2894   */\n      dup9\n        /* \"--CODEGEN--\":2881:2899   */\n      add\n        /* \"--CODEGEN--\":2868:2900   */\n      calldataload\n        /* \"--CODEGEN--\":2920:2938   */\n      0xffffffffffffffff\n        /* \"--CODEGEN--\":2912:2918   */\n      dup2\n        /* \"--CODEGEN--\":2909:2939   */\n      gt\n        /* \"--CODEGEN--\":2906:2908   */\n      iszero\n      tag_330\n      jumpi\n        /* \"--CODEGEN--\":2952:2953   */\n      0x00\n        /* \"--CODEGEN--\":2949:2950   */\n      dup1\n        /* \"--CODEGEN--\":2942:2954   */\n      revert\n        /* \"--CODEGEN--\":2906:2908   */\n    tag_330:\n        /* \"--CODEGEN--\":2980:3045   */\n      tag_331\n        /* \"--CODEGEN--\":3037:3044   */\n      dup11\n        /* \"--CODEGEN--\":3028:3034   */\n      dup3\n        /* \"--CODEGEN--\":3017:3026   */\n      dup12\n        /* \"--CODEGEN--\":3013:3035   */\n      add\n        /* \"--CODEGEN--\":2980:3045   */\n      jump(tag_295)\n    tag_331:\n        /* \"--CODEGEN--\":2970:3045   */\n      swap4\n      pop\n      swap4\n      pop\n        /* \"--CODEGEN--\":2847:3051   */\n      pop\n        /* \"--CODEGEN--\":3082:3084   */\n      0x60\n        /* \"--CODEGEN--\":3100:3153   */\n      tag_332\n        /* \"--CODEGEN--\":3145:3152   */\n      dup11\n        /* \"--CODEGEN--\":3136:3142   */\n      dup3\n        /* \"--CODEGEN--\":3125:3134   */\n      dup12\n        /* \"--CODEGEN--\":3121:3143   */\n      add\n        /* \"--CODEGEN--\":3100:3153   */\n      jump(tag_300)\n    tag_332:\n        /* \"--CODEGEN--\":3090:3153   */\n      swap2\n      pop\n        /* \"--CODEGEN--\":3061:3159   */\n      pop\n        /* \"--CODEGEN--\":2351:3169   */\n      swap3\n      swap6\n      swap9\n      swap2\n      swap5\n      swap8\n      pop\n      swap3\n      swap6\n      pop\n      jump\n        /* \"--CODEGEN--\":3176:3919   */\n    tag_40:\n      0x00\n      dup1\n      0x00\n      dup1\n      0x00\n        /* \"--CODEGEN--\":3354:3356   */\n      0x60\n        /* \"--CODEGEN--\":3342:3351   */\n      dup7\n        /* \"--CODEGEN--\":3333:3340   */\n      dup9\n        /* \"--CODEGEN--\":3329:3352   */\n      sub\n        /* \"--CODEGEN--\":3325:3357   */\n      slt\n        /* \"--CODEGEN--\":3322:3324   */\n      iszero\n      tag_334\n      jumpi\n        /* \"--CODEGEN--\":3370:3371   */\n      0x00\n        /* \"--CODEGEN--\":3367:3368   */\n      dup1\n        /* \"--CODEGEN--\":3360:3372   */\n      revert\n        /* \"--CODEGEN--\":3322:3324   */\n    tag_334:\n        /* \"--CODEGEN--\":3433:3434   */\n      0x00\n        /* \"--CODEGEN--\":3422:3431   */\n      dup7\n        /* \"--CODEGEN--\":3418:3435   */\n      add\n        /* \"--CODEGEN--\":3405:3436   */\n      calldataload\n        /* \"--CODEGEN--\":3456:3474   */\n      0xffffffffffffffff\n        /* \"--CODEGEN--\":3448:3454   */\n      dup2\n        /* \"--CODEGEN--\":3445:3475   */\n      gt\n        /* \"--CODEGEN--\":3442:3444   */\n      iszero\n      tag_335\n      jumpi\n        /* \"--CODEGEN--\":3488:3489   */\n      0x00\n        /* \"--CODEGEN--\":3485:3486   */\n      dup1\n        /* \"--CODEGEN--\":3478:3490   */\n      revert\n        /* \"--CODEGEN--\":3442:3444   */\n    tag_335:\n        /* \"--CODEGEN--\":3516:3581   */\n      tag_336\n        /* \"--CODEGEN--\":3573:3580   */\n      dup9\n        /* \"--CODEGEN--\":3564:3570   */\n      dup3\n        /* \"--CODEGEN--\":3553:3562   */\n      dup10\n        /* \"--CODEGEN--\":3549:3571   */\n      add\n        /* \"--CODEGEN--\":3516:3581   */\n      jump(tag_295)\n    tag_336:\n        /* \"--CODEGEN--\":3506:3581   */\n      swap6\n      pop\n      swap6\n      pop\n        /* \"--CODEGEN--\":3384:3587   */\n      pop\n        /* \"--CODEGEN--\":3646:3648   */\n      0x20\n        /* \"--CODEGEN--\":3635:3644   */\n      dup7\n        /* \"--CODEGEN--\":3631:3649   */\n      add\n        /* \"--CODEGEN--\":3618:3650   */\n      calldataload\n        /* \"--CODEGEN--\":3670:3688   */\n      0xffffffffffffffff\n        /* \"--CODEGEN--\":3662:3668   */\n      dup2\n        /* \"--CODEGEN--\":3659:3689   */\n      gt\n        /* \"--CODEGEN--\":3656:3658   */\n      iszero\n      tag_337\n      jumpi\n        /* \"--CODEGEN--\":3702:3703   */\n      0x00\n        /* \"--CODEGEN--\":3699:3700   */\n      dup1\n        /* \"--CODEGEN--\":3692:3704   */\n      revert\n        /* \"--CODEGEN--\":3656:3658   */\n    tag_337:\n        /* \"--CODEGEN--\":3730:3795   */\n      tag_338\n        /* \"--CODEGEN--\":3787:3794   */\n      dup9\n        /* \"--CODEGEN--\":3778:3784   */\n      dup3\n        /* \"--CODEGEN--\":3767:3776   */\n      dup10\n        /* \"--CODEGEN--\":3763:3785   */\n      add\n        /* \"--CODEGEN--\":3730:3795   */\n      jump(tag_295)\n    tag_338:\n        /* \"--CODEGEN--\":3720:3795   */\n      swap4\n      pop\n      swap4\n      pop\n        /* \"--CODEGEN--\":3597:3801   */\n      pop\n        /* \"--CODEGEN--\":3832:3834   */\n      0x40\n        /* \"--CODEGEN--\":3850:3903   */\n      tag_339\n        /* \"--CODEGEN--\":3895:3902   */\n      dup9\n        /* \"--CODEGEN--\":3886:3892   */\n      dup3\n        /* \"--CODEGEN--\":3875:3884   */\n      dup10\n        /* \"--CODEGEN--\":3871:3893   */\n      add\n        /* \"--CODEGEN--\":3850:3903   */\n      jump(tag_300)\n    tag_339:\n        /* \"--CODEGEN--\":3840:3903   */\n      swap2\n      pop\n        /* \"--CODEGEN--\":3811:3909   */\n      pop\n        /* \"--CODEGEN--\":3316:3919   */\n      swap3\n      swap6\n      pop\n      swap3\n      swap6\n      swap1\n      swap4\n      pop\n      jump\n        /* \"--CODEGEN--\":3926:5043   */\n    tag_65:\n      0x00\n      dup1\n      0x00\n      dup1\n      0x00\n      dup1\n      0x00\n      dup1\n        /* \"--CODEGEN--\":4156:4159   */\n      0xa0\n        /* \"--CODEGEN--\":4144:4153   */\n      dup10\n        /* \"--CODEGEN--\":4135:4142   */\n      dup12\n        /* \"--CODEGEN--\":4131:4154   */\n      sub\n        /* \"--CODEGEN--\":4127:4160   */\n      slt\n        /* \"--CODEGEN--\":4124:4126   */\n      iszero\n      tag_341\n      jumpi\n        /* \"--CODEGEN--\":4173:4174   */\n      0x00\n        /* \"--CODEGEN--\":4170:4171   */\n      dup1\n        /* \"--CODEGEN--\":4163:4175   */\n      revert\n        /* \"--CODEGEN--\":4124:4126   */\n    tag_341:\n        /* \"--CODEGEN--\":4236:4237   */\n      0x00\n        /* \"--CODEGEN--\":4225:4234   */\n      dup10\n        /* \"--CODEGEN--\":4221:4238   */\n      add\n        /* \"--CODEGEN--\":4208:4239   */\n      calldataload\n        /* \"--CODEGEN--\":4259:4277   */\n      0xffffffffffffffff\n        /* \"--CODEGEN--\":4251:4257   */\n      dup2\n        /* \"--CODEGEN--\":4248:4278   */\n      gt\n        /* \"--CODEGEN--\":4245:4247   */\n      iszero\n      tag_342\n      jumpi\n        /* \"--CODEGEN--\":4291:4292   */\n      0x00\n        /* \"--CODEGEN--\":4288:4289   */\n      dup1\n        /* \"--CODEGEN--\":4281:4293   */\n      revert\n        /* \"--CODEGEN--\":4245:4247   */\n    tag_342:\n        /* \"--CODEGEN--\":4319:4384   */\n      tag_343\n        /* \"--CODEGEN--\":4376:4383   */\n      dup12\n        /* \"--CODEGEN--\":4367:4373   */\n      dup3\n        /* \"--CODEGEN--\":4356:4365   */\n      dup13\n        /* \"--CODEGEN--\":4352:4374   */\n      add\n        /* \"--CODEGEN--\":4319:4384   */\n      jump(tag_295)\n    tag_343:\n        /* \"--CODEGEN--\":4309:4384   */\n      swap9\n      pop\n      swap9\n      pop\n        /* \"--CODEGEN--\":4187:4390   */\n      pop\n        /* \"--CODEGEN--\":4449:4451   */\n      0x20\n        /* \"--CODEGEN--\":4438:4447   */\n      dup10\n        /* \"--CODEGEN--\":4434:4452   */\n      add\n        /* \"--CODEGEN--\":4421:4453   */\n      calldataload\n        /* \"--CODEGEN--\":4473:4491   */\n      0xffffffffffffffff\n        /* \"--CODEGEN--\":4465:4471   */\n      dup2\n        /* \"--CODEGEN--\":4462:4492   */\n      gt\n        /* \"--CODEGEN--\":4459:4461   */\n      iszero\n      tag_344\n      jumpi\n        /* \"--CODEGEN--\":4505:4506   */\n      0x00\n        /* \"--CODEGEN--\":4502:4503   */\n      dup1\n        /* \"--CODEGEN--\":4495:4507   */\n      revert\n        /* \"--CODEGEN--\":4459:4461   */\n    tag_344:\n        /* \"--CODEGEN--\":4533:4598   */\n      tag_345\n        /* \"--CODEGEN--\":4590:4597   */\n      dup12\n        /* \"--CODEGEN--\":4581:4587   */\n      dup3\n        /* \"--CODEGEN--\":4570:4579   */\n      dup13\n        /* \"--CODEGEN--\":4566:4588   */\n      add\n        /* \"--CODEGEN--\":4533:4598   */\n      jump(tag_295)\n    tag_345:\n        /* \"--CODEGEN--\":4523:4598   */\n      swap7\n      pop\n      swap7\n      pop\n        /* \"--CODEGEN--\":4400:4604   */\n      pop\n        /* \"--CODEGEN--\":4635:4637   */\n      0x40\n        /* \"--CODEGEN--\":4653:4706   */\n      tag_346\n        /* \"--CODEGEN--\":4698:4705   */\n      dup12\n        /* \"--CODEGEN--\":4689:4695   */\n      dup3\n        /* \"--CODEGEN--\":4678:4687   */\n      dup13\n        /* \"--CODEGEN--\":4674:4696   */\n      add\n        /* \"--CODEGEN--\":4653:4706   */\n      jump(tag_300)\n    tag_346:\n        /* \"--CODEGEN--\":4643:4706   */\n      swap5\n      pop\n        /* \"--CODEGEN--\":4614:4712   */\n      pop\n        /* \"--CODEGEN--\":4771:4773   */\n      0x60\n        /* \"--CODEGEN--\":4760:4769   */\n      dup10\n        /* \"--CODEGEN--\":4756:4774   */\n      add\n        /* \"--CODEGEN--\":4743:4775   */\n      calldataload\n        /* \"--CODEGEN--\":4795:4813   */\n      0xffffffffffffffff\n        /* \"--CODEGEN--\":4787:4793   */\n      dup2\n        /* \"--CODEGEN--\":4784:4814   */\n      gt\n        /* \"--CODEGEN--\":4781:4783   */\n      iszero\n      tag_347\n      jumpi\n        /* \"--CODEGEN--\":4827:4828   */\n      0x00\n        /* \"--CODEGEN--\":4824:4825   */\n      dup1\n        /* \"--CODEGEN--\":4817:4829   */\n      revert\n        /* \"--CODEGEN--\":4781:4783   */\n    tag_347:\n        /* \"--CODEGEN--\":4855:4920   */\n      tag_348\n        /* \"--CODEGEN--\":4912:4919   */\n      dup12\n        /* \"--CODEGEN--\":4903:4909   */\n      dup3\n        /* \"--CODEGEN--\":4892:4901   */\n      dup13\n        /* \"--CODEGEN--\":4888:4910   */\n      add\n        /* \"--CODEGEN--\":4855:4920   */\n      jump(tag_295)\n    tag_348:\n        /* \"--CODEGEN--\":4845:4920   */\n      swap4\n      pop\n      swap4\n      pop\n        /* \"--CODEGEN--\":4722:4926   */\n      pop\n        /* \"--CODEGEN--\":4957:4960   */\n      0x80\n        /* \"--CODEGEN--\":4976:5027   */\n      tag_349\n        /* \"--CODEGEN--\":5019:5026   */\n      dup12\n        /* \"--CODEGEN--\":5010:5016   */\n      dup3\n        /* \"--CODEGEN--\":4999:5008   */\n      dup13\n        /* \"--CODEGEN--\":4995:5017   */\n      add\n        /* \"--CODEGEN--\":4976:5027   */\n      jump(tag_307)\n    tag_349:\n        /* \"--CODEGEN--\":4966:5027   */\n      swap2\n      pop\n        /* \"--CODEGEN--\":4936:5033   */\n      pop\n        /* \"--CODEGEN--\":4118:5043   */\n      swap3\n      swap6\n      swap9\n      pop\n      swap3\n      swap6\n      swap9\n      swap1\n      swap4\n      swap7\n      pop\n      jump\n        /* \"--CODEGEN--\":5050:5542   */\n    tag_18:\n      0x00\n      dup1\n      0x00\n        /* \"--CODEGEN--\":5191:5193   */\n      0x40\n        /* \"--CODEGEN--\":5179:5188   */\n      dup5\n        /* \"--CODEGEN--\":5170:5177   */\n      dup7\n        /* \"--CODEGEN--\":5166:5189   */\n      sub\n        /* \"--CODEGEN--\":5162:5194   */\n      slt\n        /* \"--CODEGEN--\":5159:5161   */\n      iszero\n      tag_351\n      jumpi\n        /* \"--CODEGEN--\":5207:5208   */\n      0x00\n        /* \"--CODEGEN--\":5204:5205   */\n      dup1\n        /* \"--CODEGEN--\":5197:5209   */\n      revert\n        /* \"--CODEGEN--\":5159:5161   */\n    tag_351:\n        /* \"--CODEGEN--\":5270:5271   */\n      0x00\n        /* \"--CODEGEN--\":5259:5268   */\n      dup5\n        /* \"--CODEGEN--\":5255:5272   */\n      add\n        /* \"--CODEGEN--\":5242:5273   */\n      calldataload\n        /* \"--CODEGEN--\":5293:5311   */\n      0xffffffffffffffff\n        /* \"--CODEGEN--\":5285:5291   */\n      dup2\n        /* \"--CODEGEN--\":5282:5312   */\n      gt\n        /* \"--CODEGEN--\":5279:5281   */\n      iszero\n      tag_352\n      jumpi\n        /* \"--CODEGEN--\":5325:5326   */\n      0x00\n        /* \"--CODEGEN--\":5322:5323   */\n      dup1\n        /* \"--CODEGEN--\":5315:5327   */\n      revert\n        /* \"--CODEGEN--\":5279:5281   */\n    tag_352:\n        /* \"--CODEGEN--\":5353:5418   */\n      tag_353\n        /* \"--CODEGEN--\":5410:5417   */\n      dup7\n        /* \"--CODEGEN--\":5401:5407   */\n      dup3\n        /* \"--CODEGEN--\":5390:5399   */\n      dup8\n        /* \"--CODEGEN--\":5386:5408   */\n      add\n        /* \"--CODEGEN--\":5353:5418   */\n      jump(tag_295)\n    tag_353:\n        /* \"--CODEGEN--\":5343:5418   */\n      swap4\n      pop\n      swap4\n      pop\n        /* \"--CODEGEN--\":5221:5424   */\n      pop\n        /* \"--CODEGEN--\":5455:5457   */\n      0x20\n        /* \"--CODEGEN--\":5473:5526   */\n      tag_354\n        /* \"--CODEGEN--\":5518:5525   */\n      dup7\n        /* \"--CODEGEN--\":5509:5515   */\n      dup3\n        /* \"--CODEGEN--\":5498:5507   */\n      dup8\n        /* \"--CODEGEN--\":5494:5516   */\n      add\n        /* \"--CODEGEN--\":5473:5526   */\n      jump(tag_300)\n    tag_354:\n        /* \"--CODEGEN--\":5463:5526   */\n      swap2\n      pop\n        /* \"--CODEGEN--\":5434:5532   */\n      pop\n        /* \"--CODEGEN--\":5153:5542   */\n      swap3\n      pop\n      swap3\n      pop\n      swap3\n      jump\n        /* \"--CODEGEN--\":5549:5790   */\n    tag_55:\n      0x00\n        /* \"--CODEGEN--\":5653:5655   */\n      0x20\n        /* \"--CODEGEN--\":5641:5650   */\n      dup3\n        /* \"--CODEGEN--\":5632:5639   */\n      dup5\n        /* \"--CODEGEN--\":5628:5651   */\n      sub\n        /* \"--CODEGEN--\":5624:5656   */\n      slt\n        /* \"--CODEGEN--\":5621:5623   */\n      iszero\n      tag_356\n      jumpi\n        /* \"--CODEGEN--\":5669:5670   */\n      0x00\n        /* \"--CODEGEN--\":5666:5667   */\n      dup1\n        /* \"--CODEGEN--\":5659:5671   */\n      revert\n        /* \"--CODEGEN--\":5621:5623   */\n    tag_356:\n        /* \"--CODEGEN--\":5704:5705   */\n      0x00\n        /* \"--CODEGEN--\":5721:5774   */\n      tag_357\n        /* \"--CODEGEN--\":5766:5773   */\n      dup5\n        /* \"--CODEGEN--\":5757:5763   */\n      dup3\n        /* \"--CODEGEN--\":5746:5755   */\n      dup6\n        /* \"--CODEGEN--\":5742:5764   */\n      add\n        /* \"--CODEGEN--\":5721:5774   */\n      jump(tag_300)\n    tag_357:\n        /* \"--CODEGEN--\":5711:5774   */\n      swap2\n      pop\n        /* \"--CODEGEN--\":5683:5780   */\n      pop\n        /* \"--CODEGEN--\":5615:5790   */\n      swap3\n      swap2\n      pop\n      pop\n      jump\n        /* \"--CODEGEN--\":5797:6060   */\n    tag_82:\n      0x00\n        /* \"--CODEGEN--\":5912:5914   */\n      0x20\n        /* \"--CODEGEN--\":5900:5909   */\n      dup3\n        /* \"--CODEGEN--\":5891:5898   */\n      dup5\n        /* \"--CODEGEN--\":5887:5910   */\n      sub\n        /* \"--CODEGEN--\":5883:5915   */\n      slt\n        /* \"--CODEGEN--\":5880:5882   */\n      iszero\n      tag_359\n      jumpi\n        /* \"--CODEGEN--\":5928:5929   */\n      0x00\n        /* \"--CODEGEN--\":5925:5926   */\n      dup1\n        /* \"--CODEGEN--\":5918:5930   */\n      revert\n        /* \"--CODEGEN--\":5880:5882   */\n    tag_359:\n        /* \"--CODEGEN--\":5963:5964   */\n      0x00\n        /* \"--CODEGEN--\":5980:6044   */\n      tag_360\n        /* \"--CODEGEN--\":6036:6043   */\n      dup5\n        /* \"--CODEGEN--\":6027:6033   */\n      dup3\n        /* \"--CODEGEN--\":6016:6025   */\n      dup6\n        /* \"--CODEGEN--\":6012:6034   */\n      add\n        /* \"--CODEGEN--\":5980:6044   */\n      jump(tag_304)\n    tag_360:\n        /* \"--CODEGEN--\":5970:6044   */\n      swap2\n      pop\n        /* \"--CODEGEN--\":5942:6050   */\n      pop\n        /* \"--CODEGEN--\":5874:6060   */\n      swap3\n      swap2\n      pop\n      pop\n      jump\n        /* \"--CODEGEN--\":6068:6321   */\n    tag_361:\n      0x00\n        /* \"--CODEGEN--\":6219:6315   */\n      tag_363\n        /* \"--CODEGEN--\":6311:6314   */\n      dup4\n        /* \"--CODEGEN--\":6303:6309   */\n      dup4\n        /* \"--CODEGEN--\":6219:6315   */\n      jump(tag_364)\n    tag_363:\n        /* \"--CODEGEN--\":6205:6315   */\n      swap1\n      pop\n        /* \"--CODEGEN--\":6198:6321   */\n      swap3\n      swap2\n      pop\n      pop\n      jump\n        /* \"--CODEGEN--\":6376:7424   */\n    tag_365:\n      0x00\n        /* \"--CODEGEN--\":6571:6650   */\n      tag_367\n        /* \"--CODEGEN--\":6644:6649   */\n      dup3\n        /* \"--CODEGEN--\":6571:6650   */\n      jump(tag_368)\n    tag_367:\n        /* \"--CODEGEN--\":6663:6774   */\n      tag_369\n        /* \"--CODEGEN--\":6767:6773   */\n      dup2\n        /* \"--CODEGEN--\":6762:6765   */\n      dup6\n        /* \"--CODEGEN--\":6663:6774   */\n      jump(tag_370)\n    tag_369:\n        /* \"--CODEGEN--\":6656:6774   */\n      swap4\n      pop\n        /* \"--CODEGEN--\":6797:6800   */\n      dup4\n        /* \"--CODEGEN--\":6839:6843   */\n      0x20\n        /* \"--CODEGEN--\":6831:6837   */\n      dup3\n        /* \"--CODEGEN--\":6827:6844   */\n      mul\n        /* \"--CODEGEN--\":6822:6825   */\n      dup6\n        /* \"--CODEGEN--\":6818:6845   */\n      add\n        /* \"--CODEGEN--\":6866:6947   */\n      tag_371\n        /* \"--CODEGEN--\":6941:6946   */\n      dup6\n        /* \"--CODEGEN--\":6866:6947   */\n      jump(tag_372)\n    tag_371:\n        /* \"--CODEGEN--\":6967:6974   */\n      dup1\n        /* \"--CODEGEN--\":6995:6996   */\n      0x00\n        /* \"--CODEGEN--\":6980:7385   */\n    tag_373:\n        /* \"--CODEGEN--\":7005:7011   */\n      dup6\n        /* \"--CODEGEN--\":7002:7003   */\n      dup2\n        /* \"--CODEGEN--\":6999:7012   */\n      lt\n        /* \"--CODEGEN--\":6980:7385   */\n      iszero\n      tag_375\n      jumpi\n        /* \"--CODEGEN--\":7067:7076   */\n      dup5\n        /* \"--CODEGEN--\":7061:7065   */\n      dup5\n        /* \"--CODEGEN--\":7057:7077   */\n      sub\n        /* \"--CODEGEN--\":7052:7055   */\n      dup10\n        /* \"--CODEGEN--\":7045:7078   */\n      mstore\n        /* \"--CODEGEN--\":7112:7118   */\n      dup2\n        /* \"--CODEGEN--\":7106:7119   */\n      mload\n        /* \"--CODEGEN--\":7134:7248   */\n      tag_376\n        /* \"--CODEGEN--\":7243:7247   */\n      dup6\n        /* \"--CODEGEN--\":7228:7241   */\n      dup3\n        /* \"--CODEGEN--\":7134:7248   */\n      jump(tag_361)\n    tag_376:\n        /* \"--CODEGEN--\":7126:7248   */\n      swap5\n      pop\n        /* \"--CODEGEN--\":7265:7350   */\n      tag_377\n        /* \"--CODEGEN--\":7343:7349   */\n      dup4\n        /* \"--CODEGEN--\":7265:7350   */\n      jump(tag_378)\n    tag_377:\n        /* \"--CODEGEN--\":7255:7350   */\n      swap3\n      pop\n        /* \"--CODEGEN--\":7373:7377   */\n      0x20\n        /* \"--CODEGEN--\":7368:7371   */\n      dup11\n        /* \"--CODEGEN--\":7364:7378   */\n      add\n        /* \"--CODEGEN--\":7357:7378   */\n      swap10\n      pop\n        /* \"--CODEGEN--\":7037:7385   */\n      pop\n        /* \"--CODEGEN--\":7027:7028   */\n      0x01\n        /* \"--CODEGEN--\":7024:7025   */\n      dup2\n        /* \"--CODEGEN--\":7020:7029   */\n      add\n        /* \"--CODEGEN--\":7015:7029   */\n      swap1\n      pop\n        /* \"--CODEGEN--\":6980:7385   */\n      jump(tag_373)\n    tag_375:\n        /* \"--CODEGEN--\":6984:6998   */\n      pop\n        /* \"--CODEGEN--\":7398:7402   */\n      dup3\n        /* \"--CODEGEN--\":7391:7402   */\n      swap8\n      pop\n        /* \"--CODEGEN--\":7415:7418   */\n      dup8\n        /* \"--CODEGEN--\":7408:7418   */\n      swap6\n      pop\n        /* \"--CODEGEN--\":6550:7424   */\n      pop\n      pop\n      pop\n      pop\n      pop\n      swap3\n      swap2\n      pop\n      pop\n      jump\n        /* \"--CODEGEN--\":7432:7536   */\n    tag_379:\n        /* \"--CODEGEN--\":7509:7530   */\n      tag_381\n        /* \"--CODEGEN--\":7524:7529   */\n      dup2\n        /* \"--CODEGEN--\":7509:7530   */\n      jump(tag_382)\n    tag_381:\n        /* \"--CODEGEN--\":7504:7507   */\n      dup3\n        /* \"--CODEGEN--\":7497:7531   */\n      mstore\n        /* \"--CODEGEN--\":7491:7536   */\n      pop\n      pop\n      jump\n        /* \"--CODEGEN--\":7568:7868   */\n    tag_383:\n      0x00\n        /* \"--CODEGEN--\":7684:7755   */\n      tag_385\n        /* \"--CODEGEN--\":7748:7754   */\n      dup4\n        /* \"--CODEGEN--\":7743:7746   */\n      dup6\n        /* \"--CODEGEN--\":7684:7755   */\n      jump(tag_386)\n    tag_385:\n        /* \"--CODEGEN--\":7677:7755   */\n      swap4\n      pop\n        /* \"--CODEGEN--\":7767:7810   */\n      tag_387\n        /* \"--CODEGEN--\":7803:7809   */\n      dup4\n        /* \"--CODEGEN--\":7798:7801   */\n      dup6\n        /* \"--CODEGEN--\":7791:7796   */\n      dup5\n        /* \"--CODEGEN--\":7767:7810   */\n      jump(tag_388)\n    tag_387:\n        /* \"--CODEGEN--\":7832:7861   */\n      tag_389\n        /* \"--CODEGEN--\":7854:7860   */\n      dup4\n        /* \"--CODEGEN--\":7832:7861   */\n      jump(tag_390)\n    tag_389:\n        /* \"--CODEGEN--\":7827:7830   */\n      dup5\n        /* \"--CODEGEN--\":7823:7862   */\n      add\n        /* \"--CODEGEN--\":7816:7862   */\n      swap1\n      pop\n        /* \"--CODEGEN--\":7670:7868   */\n      swap4\n      swap3\n      pop\n      pop\n      pop\n      jump\n        /* \"--CODEGEN--\":7876:8203   */\n    tag_391:\n      0x00\n        /* \"--CODEGEN--\":7978:8017   */\n      tag_393\n        /* \"--CODEGEN--\":8011:8016   */\n      dup3\n        /* \"--CODEGEN--\":7978:8017   */\n      jump(tag_394)\n    tag_393:\n        /* \"--CODEGEN--\":8029:8090   */\n      tag_395\n        /* \"--CODEGEN--\":8083:8089   */\n      dup2\n        /* \"--CODEGEN--\":8078:8081   */\n      dup6\n        /* \"--CODEGEN--\":8029:8090   */\n      jump(tag_396)\n    tag_395:\n        /* \"--CODEGEN--\":8022:8090   */\n      swap4\n      pop\n        /* \"--CODEGEN--\":8095:8147   */\n      tag_397\n        /* \"--CODEGEN--\":8140:8146   */\n      dup2\n        /* \"--CODEGEN--\":8135:8138   */\n      dup6\n        /* \"--CODEGEN--\":8128:8132   */\n      0x20\n        /* \"--CODEGEN--\":8121:8126   */\n      dup7\n        /* \"--CODEGEN--\":8117:8133   */\n      add\n        /* \"--CODEGEN--\":8095:8147   */\n      jump(tag_398)\n    tag_397:\n        /* \"--CODEGEN--\":8168:8197   */\n      tag_399\n        /* \"--CODEGEN--\":8190:8196   */\n      dup2\n        /* \"--CODEGEN--\":8168:8197   */\n      jump(tag_390)\n    tag_399:\n        /* \"--CODEGEN--\":8163:8166   */\n      dup5\n        /* \"--CODEGEN--\":8159:8198   */\n      add\n        /* \"--CODEGEN--\":8152:8198   */\n      swap2\n      pop\n        /* \"--CODEGEN--\":7958:8203   */\n      pop\n      swap3\n      swap2\n      pop\n      pop\n      jump\n        /* \"--CODEGEN--\":8210:8557   */\n    tag_400:\n      0x00\n        /* \"--CODEGEN--\":8322:8361   */\n      tag_402\n        /* \"--CODEGEN--\":8355:8360   */\n      dup3\n        /* \"--CODEGEN--\":8322:8361   */\n      jump(tag_394)\n    tag_402:\n        /* \"--CODEGEN--\":8373:8444   */\n      tag_403\n        /* \"--CODEGEN--\":8437:8443   */\n      dup2\n        /* \"--CODEGEN--\":8432:8435   */\n      dup6\n        /* \"--CODEGEN--\":8373:8444   */\n      jump(tag_386)\n    tag_403:\n        /* \"--CODEGEN--\":8366:8444   */\n      swap4\n      pop\n        /* \"--CODEGEN--\":8449:8501   */\n      tag_404\n        /* \"--CODEGEN--\":8494:8500   */\n      dup2\n        /* \"--CODEGEN--\":8489:8492   */\n      dup6\n        /* \"--CODEGEN--\":8482:8486   */\n      0x20\n        /* \"--CODEGEN--\":8475:8480   */\n      dup7\n        /* \"--CODEGEN--\":8471:8487   */\n      add\n        /* \"--CODEGEN--\":8449:8501   */\n      jump(tag_398)\n    tag_404:\n        /* \"--CODEGEN--\":8522:8551   */\n      tag_405\n        /* \"--CODEGEN--\":8544:8550   */\n      dup2\n        /* \"--CODEGEN--\":8522:8551   */\n      jump(tag_390)\n    tag_405:\n        /* \"--CODEGEN--\":8517:8520   */\n      dup5\n        /* \"--CODEGEN--\":8513:8552   */\n      add\n        /* \"--CODEGEN--\":8506:8552   */\n      swap2\n      pop\n        /* \"--CODEGEN--\":8302:8557   */\n      pop\n      swap3\n      swap2\n      pop\n      pop\n      jump\n        /* \"--CODEGEN--\":8589:9412   */\n    tag_406:\n      0x00\n        /* \"--CODEGEN--\":8708:8713   */\n      dup2\n        /* \"--CODEGEN--\":8702:8714   */\n      sload\n        /* \"--CODEGEN--\":8742:8743   */\n      0x01\n        /* \"--CODEGEN--\":8731:8740   */\n      dup2\n        /* \"--CODEGEN--\":8727:8744   */\n      and\n        /* \"--CODEGEN--\":8755:8756   */\n      0x00\n        /* \"--CODEGEN--\":8750:8998   */\n      dup2\n      eq\n      tag_409\n      jumpi\n        /* \"--CODEGEN--\":9009:9010   */\n      0x01\n        /* \"--CODEGEN--\":9004:9406   */\n      dup2\n      eq\n      tag_410\n      jumpi\n        /* \"--CODEGEN--\":8720:9406   */\n      jump(tag_408)\n        /* \"--CODEGEN--\":8750:8998   */\n    tag_409:\n        /* \"--CODEGEN--\":8828:8832   */\n      0x7f\n        /* \"--CODEGEN--\":8824:8825   */\n      0x02\n        /* \"--CODEGEN--\":8813:8822   */\n      dup4\n        /* \"--CODEGEN--\":8809:8826   */\n      div\n        /* \"--CODEGEN--\":8805:8833   */\n      and\n        /* \"--CODEGEN--\":8847:8918   */\n      tag_411\n        /* \"--CODEGEN--\":8911:8917   */\n      dup2\n        /* \"--CODEGEN--\":8906:8909   */\n      dup8\n        /* \"--CODEGEN--\":8847:8918   */\n      jump(tag_386)\n    tag_411:\n        /* \"--CODEGEN--\":8840:8918   */\n      swap6\n      pop\n        /* \"--CODEGEN--\":8956:8960   */\n      0xff\n        /* \"--CODEGEN--\":8952:8961   */\n      not\n        /* \"--CODEGEN--\":8941:8950   */\n      dup4\n        /* \"--CODEGEN--\":8937:8962   */\n      and\n        /* \"--CODEGEN--\":8932:8935   */\n      dup7\n        /* \"--CODEGEN--\":8925:8963   */\n      mstore\n        /* \"--CODEGEN--\":8986:8990   */\n      0x20\n        /* \"--CODEGEN--\":8981:8984   */\n      dup7\n        /* \"--CODEGEN--\":8977:8991   */\n      add\n        /* \"--CODEGEN--\":8970:8991   */\n      swap4\n      pop\n        /* \"--CODEGEN--\":8757:8998   */\n      pop\n        /* \"--CODEGEN--\":8750:8998   */\n      jump(tag_408)\n        /* \"--CODEGEN--\":9004:9406   */\n    tag_410:\n        /* \"--CODEGEN--\":9073:9074   */\n      0x02\n        /* \"--CODEGEN--\":9062:9071   */\n      dup3\n        /* \"--CODEGEN--\":9058:9075   */\n      div\n        /* \"--CODEGEN--\":9089:9160   */\n      tag_412\n        /* \"--CODEGEN--\":9153:9159   */\n      dup2\n        /* \"--CODEGEN--\":9148:9151   */\n      dup8\n        /* \"--CODEGEN--\":9089:9160   */\n      jump(tag_386)\n    tag_412:\n        /* \"--CODEGEN--\":9082:9160   */\n      swap6\n      pop\n        /* \"--CODEGEN--\":9182:9220   */\n      tag_413\n        /* \"--CODEGEN--\":9214:9219   */\n      dup6\n        /* \"--CODEGEN--\":9182:9220   */\n      jump(tag_414)\n    tag_413:\n        /* \"--CODEGEN--\":9236:9237   */\n      0x00\n        /* \"--CODEGEN--\":9244:9374   */\n    tag_415:\n        /* \"--CODEGEN--\":9258:9264   */\n      dup3\n        /* \"--CODEGEN--\":9255:9256   */\n      dup2\n        /* \"--CODEGEN--\":9252:9265   */\n      lt\n        /* \"--CODEGEN--\":9244:9374   */\n      iszero\n      tag_417\n      jumpi\n        /* \"--CODEGEN--\":9323:9330   */\n      dup2\n        /* \"--CODEGEN--\":9317:9331   */\n      sload\n        /* \"--CODEGEN--\":9313:9314   */\n      dup2\n        /* \"--CODEGEN--\":9308:9311   */\n      dup10\n        /* \"--CODEGEN--\":9304:9315   */\n      add\n        /* \"--CODEGEN--\":9297:9332   */\n      mstore\n        /* \"--CODEGEN--\":9364:9365   */\n      0x01\n        /* \"--CODEGEN--\":9355:9362   */\n      dup3\n        /* \"--CODEGEN--\":9351:9366   */\n      add\n        /* \"--CODEGEN--\":9340:9366   */\n      swap2\n      pop\n        /* \"--CODEGEN--\":9280:9284   */\n      0x20\n        /* \"--CODEGEN--\":9277:9278   */\n      dup2\n        /* \"--CODEGEN--\":9273:9285   */\n      add\n        /* \"--CODEGEN--\":9268:9285   */\n      swap1\n      pop\n        /* \"--CODEGEN--\":9244:9374   */\n      jump(tag_415)\n    tag_417:\n        /* \"--CODEGEN--\":9397:9398   */\n      dup1\n        /* \"--CODEGEN--\":9392:9395   */\n      dup9\n        /* \"--CODEGEN--\":9388:9399   */\n      add\n        /* \"--CODEGEN--\":9381:9399   */\n      swap6\n      pop\n        /* \"--CODEGEN--\":9011:9406   */\n      pop\n      pop\n      pop\n        /* \"--CODEGEN--\":8720:9406   */\n    tag_408:\n      pop\n        /* \"--CODEGEN--\":8678:9412   */\n      pop\n      swap3\n      swap2\n      pop\n      pop\n      jump\n        /* \"--CODEGEN--\":9421:9744   */\n    tag_418:\n      0x00\n        /* \"--CODEGEN--\":9581:9648   */\n      tag_420\n        /* \"--CODEGEN--\":9645:9647   */\n      0x17\n        /* \"--CODEGEN--\":9640:9643   */\n      dup4\n        /* \"--CODEGEN--\":9581:9648   */\n      jump(tag_386)\n    tag_420:\n        /* \"--CODEGEN--\":9574:9648   */\n      swap2\n      pop\n        /* \"--CODEGEN--\":9681:9706   */\n      0x7461736b277320737461747573206d757374203d3d2031000000000000000000\n        /* \"--CODEGEN--\":9677:9678   */\n      0x00\n        /* \"--CODEGEN--\":9672:9675   */\n      dup4\n        /* \"--CODEGEN--\":9668:9679   */\n      add\n        /* \"--CODEGEN--\":9661:9707   */\n      mstore\n        /* \"--CODEGEN--\":9735:9737   */\n      0x20\n        /* \"--CODEGEN--\":9730:9733   */\n      dup3\n        /* \"--CODEGEN--\":9726:9738   */\n      add\n        /* \"--CODEGEN--\":9719:9738   */\n      swap1\n      pop\n        /* \"--CODEGEN--\":9567:9744   */\n      swap2\n      swap1\n      pop\n      jump\n        /* \"--CODEGEN--\":9753:10080   */\n    tag_421:\n      0x00\n        /* \"--CODEGEN--\":9913:9980   */\n      tag_423\n        /* \"--CODEGEN--\":9977:9979   */\n      0x1b\n        /* \"--CODEGEN--\":9972:9975   */\n      dup4\n        /* \"--CODEGEN--\":9913:9980   */\n      jump(tag_386)\n    tag_423:\n        /* \"--CODEGEN--\":9906:9980   */\n      swap2\n      pop\n        /* \"--CODEGEN--\":10013:10042   */\n      0x7461736b277320776f726b73206d75737420697320776f726b65720000000000\n        /* \"--CODEGEN--\":10009:10010   */\n      0x00\n        /* \"--CODEGEN--\":10004:10007   */\n      dup4\n        /* \"--CODEGEN--\":10000:10011   */\n      add\n        /* \"--CODEGEN--\":9993:10043   */\n      mstore\n        /* \"--CODEGEN--\":10071:10073   */\n      0x20\n        /* \"--CODEGEN--\":10066:10069   */\n      dup3\n        /* \"--CODEGEN--\":10062:10074   */\n      add\n        /* \"--CODEGEN--\":10055:10074   */\n      swap1\n      pop\n        /* \"--CODEGEN--\":9899:10080   */\n      swap2\n      swap1\n      pop\n      jump\n        /* \"--CODEGEN--\":10089:10405   */\n    tag_424:\n      0x00\n        /* \"--CODEGEN--\":10249:10316   */\n      tag_426\n        /* \"--CODEGEN--\":10313:10315   */\n      0x10\n        /* \"--CODEGEN--\":10308:10311   */\n      dup4\n        /* \"--CODEGEN--\":10249:10316   */\n      jump(tag_386)\n    tag_426:\n        /* \"--CODEGEN--\":10242:10316   */\n      swap2\n      pop\n        /* \"--CODEGEN--\":10349:10367   */\n      0x7461736b206d7573742065786973747300000000000000000000000000000000\n        /* \"--CODEGEN--\":10345:10346   */\n      0x00\n        /* \"--CODEGEN--\":10340:10343   */\n      dup4\n        /* \"--CODEGEN--\":10336:10347   */\n      add\n        /* \"--CODEGEN--\":10329:10368   */\n      mstore\n        /* \"--CODEGEN--\":10396:10398   */\n      0x20\n        /* \"--CODEGEN--\":10391:10394   */\n      dup3\n        /* \"--CODEGEN--\":10387:10399   */\n      add\n        /* \"--CODEGEN--\":10380:10399   */\n      swap1\n      pop\n        /* \"--CODEGEN--\":10235:10405   */\n      swap2\n      swap1\n      pop\n      jump\n        /* \"--CODEGEN--\":10414:10740   */\n    tag_427:\n      0x00\n        /* \"--CODEGEN--\":10574:10641   */\n      tag_429\n        /* \"--CODEGEN--\":10638:10640   */\n      0x1a\n        /* \"--CODEGEN--\":10633:10636   */\n      dup4\n        /* \"--CODEGEN--\":10574:10641   */\n      jump(tag_386)\n    tag_429:\n        /* \"--CODEGEN--\":10567:10641   */\n      swap2\n      pop\n        /* \"--CODEGEN--\":10674:10702   */\n      0x697373756572206d757374206861766520686973207269676874000000000000\n        /* \"--CODEGEN--\":10670:10671   */\n      0x00\n        /* \"--CODEGEN--\":10665:10668   */\n      dup4\n        /* \"--CODEGEN--\":10661:10672   */\n      add\n        /* \"--CODEGEN--\":10654:10703   */\n      mstore\n        /* \"--CODEGEN--\":10731:10733   */\n      0x20\n        /* \"--CODEGEN--\":10726:10729   */\n      dup3\n        /* \"--CODEGEN--\":10722:10734   */\n      add\n        /* \"--CODEGEN--\":10715:10734   */\n      swap1\n      pop\n        /* \"--CODEGEN--\":10560:10740   */\n      swap2\n      swap1\n      pop\n      jump\n        /* \"--CODEGEN--\":10749:11072   */\n    tag_430:\n      0x00\n        /* \"--CODEGEN--\":10909:10976   */\n      tag_432\n        /* \"--CODEGEN--\":10973:10975   */\n      0x17\n        /* \"--CODEGEN--\":10968:10971   */\n      dup4\n        /* \"--CODEGEN--\":10909:10976   */\n      jump(tag_386)\n    tag_432:\n        /* \"--CODEGEN--\":10902:10976   */\n      swap2\n      pop\n        /* \"--CODEGEN--\":11009:11034   */\n      0x7461736b277320737461747573206d757374203d3d2032000000000000000000\n        /* \"--CODEGEN--\":11005:11006   */\n      0x00\n        /* \"--CODEGEN--\":11000:11003   */\n      dup4\n        /* \"--CODEGEN--\":10996:11007   */\n      add\n        /* \"--CODEGEN--\":10989:11035   */\n      mstore\n        /* \"--CODEGEN--\":11063:11065   */\n      0x20\n        /* \"--CODEGEN--\":11058:11061   */\n      dup3\n        /* \"--CODEGEN--\":11054:11066   */\n      add\n        /* \"--CODEGEN--\":11047:11066   */\n      swap1\n      pop\n        /* \"--CODEGEN--\":10895:11072   */\n      swap2\n      swap1\n      pop\n      jump\n        /* \"--CODEGEN--\":11081:11407   */\n    tag_433:\n      0x00\n        /* \"--CODEGEN--\":11241:11308   */\n      tag_435\n        /* \"--CODEGEN--\":11305:11307   */\n      0x1a\n        /* \"--CODEGEN--\":11300:11303   */\n      dup4\n        /* \"--CODEGEN--\":11241:11308   */\n      jump(tag_386)\n    tag_435:\n        /* \"--CODEGEN--\":11234:11308   */\n      swap2\n      pop\n        /* \"--CODEGEN--\":11341:11369   */\n      0x776f726b6572206d757374206861766520686973207269676874000000000000\n        /* \"--CODEGEN--\":11337:11338   */\n      0x00\n        /* \"--CODEGEN--\":11332:11335   */\n      dup4\n        /* \"--CODEGEN--\":11328:11339   */\n      add\n        /* \"--CODEGEN--\":11321:11370   */\n      mstore\n        /* \"--CODEGEN--\":11398:11400   */\n      0x20\n        /* \"--CODEGEN--\":11393:11396   */\n      dup3\n        /* \"--CODEGEN--\":11389:11401   */\n      add\n        /* \"--CODEGEN--\":11382:11401   */\n      swap1\n      pop\n        /* \"--CODEGEN--\":11227:11407   */\n      swap2\n      swap1\n      pop\n      jump\n        /* \"--CODEGEN--\":11416:11744   */\n    tag_436:\n      0x00\n        /* \"--CODEGEN--\":11576:11643   */\n      tag_438\n        /* \"--CODEGEN--\":11640:11642   */\n      0x1c\n        /* \"--CODEGEN--\":11635:11638   */\n      dup4\n        /* \"--CODEGEN--\":11576:11643   */\n      jump(tag_386)\n    tag_438:\n        /* \"--CODEGEN--\":11569:11643   */\n      swap2\n      pop\n        /* \"--CODEGEN--\":11676:11706   */\n      0x7461736b277320697373756572206d7573742069732069737375657200000000\n        /* \"--CODEGEN--\":11672:11673   */\n      0x00\n        /* \"--CODEGEN--\":11667:11670   */\n      dup4\n        /* \"--CODEGEN--\":11663:11674   */\n      add\n        /* \"--CODEGEN--\":11656:11707   */\n      mstore\n        /* \"--CODEGEN--\":11735:11737   */\n      0x20\n        /* \"--CODEGEN--\":11730:11733   */\n      dup3\n        /* \"--CODEGEN--\":11726:11738   */\n      add\n        /* \"--CODEGEN--\":11719:11738   */\n      swap1\n      pop\n        /* \"--CODEGEN--\":11562:11744   */\n      swap2\n      swap1\n      pop\n      jump\n        /* \"--CODEGEN--\":11753:12076   */\n    tag_439:\n      0x00\n        /* \"--CODEGEN--\":11913:11980   */\n      tag_441\n        /* \"--CODEGEN--\":11977:11979   */\n      0x17\n        /* \"--CODEGEN--\":11972:11975   */\n      dup4\n        /* \"--CODEGEN--\":11913:11980   */\n      jump(tag_386)\n    tag_441:\n        /* \"--CODEGEN--\":11906:11980   */\n      swap2\n      pop\n        /* \"--CODEGEN--\":12013:12038   */\n      0x7461736b277320737461747573206d757374203d3d2030000000000000000000\n        /* \"--CODEGEN--\":12009:12010   */\n      0x00\n        /* \"--CODEGEN--\":12004:12007   */\n      dup4\n        /* \"--CODEGEN--\":12000:12011   */\n      add\n        /* \"--CODEGEN--\":11993:12039   */\n      mstore\n        /* \"--CODEGEN--\":12067:12069   */\n      0x20\n        /* \"--CODEGEN--\":12062:12065   */\n      dup3\n        /* \"--CODEGEN--\":12058:12070   */\n      add\n        /* \"--CODEGEN--\":12051:12070   */\n      swap1\n      pop\n        /* \"--CODEGEN--\":11899:12076   */\n      swap2\n      swap1\n      pop\n      jump\n        /* \"--CODEGEN--\":12085:12408   */\n    tag_442:\n      0x00\n        /* \"--CODEGEN--\":12245:12312   */\n      tag_444\n        /* \"--CODEGEN--\":12309:12311   */\n      0x17\n        /* \"--CODEGEN--\":12304:12307   */\n      dup4\n        /* \"--CODEGEN--\":12245:12312   */\n      jump(tag_386)\n    tag_444:\n        /* \"--CODEGEN--\":12238:12312   */\n      swap2\n      pop\n        /* \"--CODEGEN--\":12345:12370   */\n      0x4f6e6c792061646d696e2063616e20646f207468697321000000000000000000\n        /* \"--CODEGEN--\":12341:12342   */\n      0x00\n        /* \"--CODEGEN--\":12336:12339   */\n      dup4\n        /* \"--CODEGEN--\":12332:12343   */\n      add\n        /* \"--CODEGEN--\":12325:12371   */\n      mstore\n        /* \"--CODEGEN--\":12399:12401   */\n      0x20\n        /* \"--CODEGEN--\":12394:12397   */\n      dup3\n        /* \"--CODEGEN--\":12390:12402   */\n      add\n        /* \"--CODEGEN--\":12383:12402   */\n      swap1\n      pop\n        /* \"--CODEGEN--\":12231:12408   */\n      swap2\n      swap1\n      pop\n      jump\n        /* \"--CODEGEN--\":12417:12731   */\n    tag_445:\n      0x00\n        /* \"--CODEGEN--\":12577:12644   */\n      tag_447\n        /* \"--CODEGEN--\":12641:12643   */\n      0x0e\n        /* \"--CODEGEN--\":12636:12639   */\n      dup4\n        /* \"--CODEGEN--\":12577:12644   */\n      jump(tag_386)\n    tag_447:\n        /* \"--CODEGEN--\":12570:12644   */\n      swap2\n      pop\n        /* \"--CODEGEN--\":12677:12693   */\n      0x626f6e7573206d757374203e2030000000000000000000000000000000000000\n        /* \"--CODEGEN--\":12673:12674   */\n      0x00\n        /* \"--CODEGEN--\":12668:12671   */\n      dup4\n        /* \"--CODEGEN--\":12664:12675   */\n      add\n        /* \"--CODEGEN--\":12657:12694   */\n      mstore\n        /* \"--CODEGEN--\":12722:12724   */\n      0x20\n        /* \"--CODEGEN--\":12717:12720   */\n      dup3\n        /* \"--CODEGEN--\":12713:12725   */\n      add\n        /* \"--CODEGEN--\":12706:12725   */\n      swap1\n      pop\n        /* \"--CODEGEN--\":12563:12731   */\n      swap2\n      swap1\n      pop\n      jump\n        /* \"--CODEGEN--\":12740:13066   */\n    tag_448:\n      0x00\n        /* \"--CODEGEN--\":12900:12967   */\n      tag_450\n        /* \"--CODEGEN--\":12964:12966   */\n      0x1a\n        /* \"--CODEGEN--\":12959:12962   */\n      dup4\n        /* \"--CODEGEN--\":12900:12967   */\n      jump(tag_386)\n    tag_450:\n        /* \"--CODEGEN--\":12893:12967   */\n      swap2\n      pop\n        /* \"--CODEGEN--\":13000:13028   */\n      0x697373756572277320626f6e7573206d75737420656e6f756768000000000000\n        /* \"--CODEGEN--\":12996:12997   */\n      0x00\n        /* \"--CODEGEN--\":12991:12994   */\n      dup4\n        /* \"--CODEGEN--\":12987:12998   */\n      add\n        /* \"--CODEGEN--\":12980:13029   */\n      mstore\n        /* \"--CODEGEN--\":13057:13059   */\n      0x20\n        /* \"--CODEGEN--\":13052:13055   */\n      dup3\n        /* \"--CODEGEN--\":13048:13060   */\n      add\n        /* \"--CODEGEN--\":13041:13060   */\n      swap1\n      pop\n        /* \"--CODEGEN--\":12886:13066   */\n      swap2\n      swap1\n      pop\n      jump\n        /* \"--CODEGEN--\":13115:14685   */\n    tag_364:\n      0x00\n        /* \"--CODEGEN--\":13256:13260   */\n      0xe0\n        /* \"--CODEGEN--\":13251:13254   */\n      dup4\n        /* \"--CODEGEN--\":13247:13261   */\n      add\n        /* \"--CODEGEN--\":13341:13345   */\n      0x00\n        /* \"--CODEGEN--\":13334:13339   */\n      dup4\n        /* \"--CODEGEN--\":13330:13346   */\n      add\n        /* \"--CODEGEN--\":13324:13347   */\n      mload\n        /* \"--CODEGEN--\":13393:13396   */\n      dup5\n        /* \"--CODEGEN--\":13387:13391   */\n      dup3\n        /* \"--CODEGEN--\":13383:13397   */\n      sub\n        /* \"--CODEGEN--\":13376:13380   */\n      0x00\n        /* \"--CODEGEN--\":13371:13374   */\n      dup7\n        /* \"--CODEGEN--\":13367:13381   */\n      add\n        /* \"--CODEGEN--\":13360:13398   */\n      mstore\n        /* \"--CODEGEN--\":13413:13486   */\n      tag_452\n        /* \"--CODEGEN--\":13481:13485   */\n      dup3\n        /* \"--CODEGEN--\":13467:13479   */\n      dup3\n        /* \"--CODEGEN--\":13413:13486   */\n      jump(tag_391)\n    tag_452:\n        /* \"--CODEGEN--\":13405:13486   */\n      swap2\n      pop\n        /* \"--CODEGEN--\":13276:13498   */\n      pop\n        /* \"--CODEGEN--\":13573:13577   */\n      0x20\n        /* \"--CODEGEN--\":13566:13571   */\n      dup4\n        /* \"--CODEGEN--\":13562:13578   */\n      add\n        /* \"--CODEGEN--\":13556:13579   */\n      mload\n        /* \"--CODEGEN--\":13625:13628   */\n      dup5\n        /* \"--CODEGEN--\":13619:13623   */\n      dup3\n        /* \"--CODEGEN--\":13615:13629   */\n      sub\n        /* \"--CODEGEN--\":13608:13612   */\n      0x20\n        /* \"--CODEGEN--\":13603:13606   */\n      dup7\n        /* \"--CODEGEN--\":13599:13613   */\n      add\n        /* \"--CODEGEN--\":13592:13630   */\n      mstore\n        /* \"--CODEGEN--\":13645:13718   */\n      tag_453\n        /* \"--CODEGEN--\":13713:13717   */\n      dup3\n        /* \"--CODEGEN--\":13699:13711   */\n      dup3\n        /* \"--CODEGEN--\":13645:13718   */\n      jump(tag_391)\n    tag_453:\n        /* \"--CODEGEN--\":13637:13718   */\n      swap2\n      pop\n        /* \"--CODEGEN--\":13508:13730   */\n      pop\n        /* \"--CODEGEN--\":13803:13807   */\n      0x40\n        /* \"--CODEGEN--\":13796:13801   */\n      dup4\n        /* \"--CODEGEN--\":13792:13808   */\n      add\n        /* \"--CODEGEN--\":13786:13809   */\n      mload\n        /* \"--CODEGEN--\":13855:13858   */\n      dup5\n        /* \"--CODEGEN--\":13849:13853   */\n      dup3\n        /* \"--CODEGEN--\":13845:13859   */\n      sub\n        /* \"--CODEGEN--\":13838:13842   */\n      0x40\n        /* \"--CODEGEN--\":13833:13836   */\n      dup7\n        /* \"--CODEGEN--\":13829:13843   */\n      add\n        /* \"--CODEGEN--\":13822:13860   */\n      mstore\n        /* \"--CODEGEN--\":13875:13948   */\n      tag_454\n        /* \"--CODEGEN--\":13943:13947   */\n      dup3\n        /* \"--CODEGEN--\":13929:13941   */\n      dup3\n        /* \"--CODEGEN--\":13875:13948   */\n      jump(tag_391)\n    tag_454:\n        /* \"--CODEGEN--\":13867:13948   */\n      swap2\n      pop\n        /* \"--CODEGEN--\":13740:13960   */\n      pop\n        /* \"--CODEGEN--\":14034:14038   */\n      0x60\n        /* \"--CODEGEN--\":14027:14032   */\n      dup4\n        /* \"--CODEGEN--\":14023:14039   */\n      add\n        /* \"--CODEGEN--\":14017:14040   */\n      mload\n        /* \"--CODEGEN--\":14046:14109   */\n      tag_455\n        /* \"--CODEGEN--\":14103:14107   */\n      0x60\n        /* \"--CODEGEN--\":14098:14101   */\n      dup7\n        /* \"--CODEGEN--\":14094:14108   */\n      add\n        /* \"--CODEGEN--\":14080:14092   */\n      dup3\n        /* \"--CODEGEN--\":14046:14109   */\n      jump(tag_456)\n    tag_455:\n        /* \"--CODEGEN--\":13970:14115   */\n      pop\n        /* \"--CODEGEN--\":14190:14194   */\n      0x80\n        /* \"--CODEGEN--\":14183:14188   */\n      dup4\n        /* \"--CODEGEN--\":14179:14195   */\n      add\n        /* \"--CODEGEN--\":14173:14196   */\n      mload\n        /* \"--CODEGEN--\":14202:14261   */\n      tag_457\n        /* \"--CODEGEN--\":14255:14259   */\n      0x80\n        /* \"--CODEGEN--\":14250:14253   */\n      dup7\n        /* \"--CODEGEN--\":14246:14260   */\n      add\n        /* \"--CODEGEN--\":14232:14244   */\n      dup3\n        /* \"--CODEGEN--\":14202:14261   */\n      jump(tag_458)\n    tag_457:\n        /* \"--CODEGEN--\":14125:14267   */\n      pop\n        /* \"--CODEGEN--\":14345:14349   */\n      0xa0\n        /* \"--CODEGEN--\":14338:14343   */\n      dup4\n        /* \"--CODEGEN--\":14334:14350   */\n      add\n        /* \"--CODEGEN--\":14328:14351   */\n      mload\n        /* \"--CODEGEN--\":14357:14420   */\n      tag_459\n        /* \"--CODEGEN--\":14414:14418   */\n      0xa0\n        /* \"--CODEGEN--\":14409:14412   */\n      dup7\n        /* \"--CODEGEN--\":14405:14419   */\n      add\n        /* \"--CODEGEN--\":14391:14403   */\n      dup3\n        /* \"--CODEGEN--\":14357:14420   */\n      jump(tag_456)\n    tag_459:\n        /* \"--CODEGEN--\":14277:14426   */\n      pop\n        /* \"--CODEGEN--\":14502:14506   */\n      0xc0\n        /* \"--CODEGEN--\":14495:14500   */\n      dup4\n        /* \"--CODEGEN--\":14491:14507   */\n      add\n        /* \"--CODEGEN--\":14485:14508   */\n      mload\n        /* \"--CODEGEN--\":14554:14557   */\n      dup5\n        /* \"--CODEGEN--\":14548:14552   */\n      dup3\n        /* \"--CODEGEN--\":14544:14558   */\n      sub\n        /* \"--CODEGEN--\":14537:14541   */\n      0xc0\n        /* \"--CODEGEN--\":14532:14535   */\n      dup7\n        /* \"--CODEGEN--\":14528:14542   */\n      add\n        /* \"--CODEGEN--\":14521:14559   */\n      mstore\n        /* \"--CODEGEN--\":14574:14647   */\n      tag_460\n        /* \"--CODEGEN--\":14642:14646   */\n      dup3\n        /* \"--CODEGEN--\":14628:14640   */\n      dup3\n        /* \"--CODEGEN--\":14574:14647   */\n      jump(tag_391)\n    tag_460:\n        /* \"--CODEGEN--\":14566:14647   */\n      swap2\n      pop\n        /* \"--CODEGEN--\":14436:14659   */\n      pop\n        /* \"--CODEGEN--\":14676:14680   */\n      dup1\n        /* \"--CODEGEN--\":14669:14680   */\n      swap2\n      pop\n        /* \"--CODEGEN--\":13229:14685   */\n      pop\n      swap3\n      swap2\n      pop\n      pop\n      jump\n        /* \"--CODEGEN--\":14692:14795   */\n    tag_456:\n        /* \"--CODEGEN--\":14765:14789   */\n      tag_462\n        /* \"--CODEGEN--\":14783:14788   */\n      dup2\n        /* \"--CODEGEN--\":14765:14789   */\n      jump(tag_463)\n    tag_462:\n        /* \"--CODEGEN--\":14760:14763   */\n      dup3\n        /* \"--CODEGEN--\":14753:14790   */\n      mstore\n        /* \"--CODEGEN--\":14747:14795   */\n      pop\n      pop\n      jump\n        /* \"--CODEGEN--\":14802:14915   */\n    tag_464:\n        /* \"--CODEGEN--\":14885:14909   */\n      tag_466\n        /* \"--CODEGEN--\":14903:14908   */\n      dup2\n        /* \"--CODEGEN--\":14885:14909   */\n      jump(tag_463)\n    tag_466:\n        /* \"--CODEGEN--\":14880:14883   */\n      dup3\n        /* \"--CODEGEN--\":14873:14910   */\n      mstore\n        /* \"--CODEGEN--\":14867:14915   */\n      pop\n      pop\n      jump\n        /* \"--CODEGEN--\":14922:15019   */\n    tag_458:\n        /* \"--CODEGEN--\":14991:15013   */\n      tag_468\n        /* \"--CODEGEN--\":15007:15012   */\n      dup2\n        /* \"--CODEGEN--\":14991:15013   */\n      jump(tag_469)\n    tag_468:\n        /* \"--CODEGEN--\":14986:14989   */\n      dup3\n        /* \"--CODEGEN--\":14979:15014   */\n      mstore\n        /* \"--CODEGEN--\":14973:15019   */\n      pop\n      pop\n      jump\n        /* \"--CODEGEN--\":15026:15133   */\n    tag_470:\n        /* \"--CODEGEN--\":15105:15127   */\n      tag_472\n        /* \"--CODEGEN--\":15121:15126   */\n      dup2\n        /* \"--CODEGEN--\":15105:15127   */\n      jump(tag_469)\n    tag_472:\n        /* \"--CODEGEN--\":15100:15103   */\n      dup3\n        /* \"--CODEGEN--\":15093:15128   */\n      mstore\n        /* \"--CODEGEN--\":15087:15133   */\n      pop\n      pop\n      jump\n        /* \"--CODEGEN--\":15140:15610   */\n    tag_52:\n      0x00\n        /* \"--CODEGEN--\":15367:15369   */\n      0x20\n        /* \"--CODEGEN--\":15356:15365   */\n      dup3\n        /* \"--CODEGEN--\":15352:15370   */\n      add\n        /* \"--CODEGEN--\":15344:15370   */\n      swap1\n      pop\n        /* \"--CODEGEN--\":15417:15426   */\n      dup2\n        /* \"--CODEGEN--\":15411:15415   */\n      dup2\n        /* \"--CODEGEN--\":15407:15427   */\n      sub\n        /* \"--CODEGEN--\":15403:15404   */\n      0x00\n        /* \"--CODEGEN--\":15392:15401   */\n      dup4\n        /* \"--CODEGEN--\":15388:15405   */\n      add\n        /* \"--CODEGEN--\":15381:15428   */\n      mstore\n        /* \"--CODEGEN--\":15442:15600   */\n      tag_474\n        /* \"--CODEGEN--\":15595:15599   */\n      dup2\n        /* \"--CODEGEN--\":15586:15592   */\n      dup5\n        /* \"--CODEGEN--\":15442:15600   */\n      jump(tag_365)\n    tag_474:\n        /* \"--CODEGEN--\":15434:15600   */\n      swap1\n      pop\n        /* \"--CODEGEN--\":15338:15610   */\n      swap3\n      swap2\n      pop\n      pop\n      jump\n        /* \"--CODEGEN--\":15617:15827   */\n    tag_37:\n      0x00\n        /* \"--CODEGEN--\":15738:15740   */\n      0x20\n        /* \"--CODEGEN--\":15727:15736   */\n      dup3\n        /* \"--CODEGEN--\":15723:15741   */\n      add\n        /* \"--CODEGEN--\":15715:15741   */\n      swap1\n      pop\n        /* \"--CODEGEN--\":15752:15817   */\n      tag_476\n        /* \"--CODEGEN--\":15814:15815   */\n      0x00\n        /* \"--CODEGEN--\":15803:15812   */\n      dup4\n        /* \"--CODEGEN--\":15799:15816   */\n      add\n        /* \"--CODEGEN--\":15790:15796   */\n      dup5\n        /* \"--CODEGEN--\":15752:15817   */\n      jump(tag_379)\n    tag_476:\n        /* \"--CODEGEN--\":15709:15827   */\n      swap3\n      swap2\n      pop\n      pop\n      jump\n        /* \"--CODEGEN--\":15834:16164   */\n    tag_85:\n      0x00\n        /* \"--CODEGEN--\":15991:15993   */\n      0x20\n        /* \"--CODEGEN--\":15980:15989   */\n      dup3\n        /* \"--CODEGEN--\":15976:15994   */\n      add\n        /* \"--CODEGEN--\":15968:15994   */\n      swap1\n      pop\n        /* \"--CODEGEN--\":16041:16050   */\n      dup2\n        /* \"--CODEGEN--\":16035:16039   */\n      dup2\n        /* \"--CODEGEN--\":16031:16051   */\n      sub\n        /* \"--CODEGEN--\":16027:16028   */\n      0x00\n        /* \"--CODEGEN--\":16016:16025   */\n      dup4\n        /* \"--CODEGEN--\":16012:16029   */\n      add\n        /* \"--CODEGEN--\":16005:16052   */\n      mstore\n        /* \"--CODEGEN--\":16066:16154   */\n      tag_478\n        /* \"--CODEGEN--\":16149:16153   */\n      dup2\n        /* \"--CODEGEN--\":16140:16146   */\n      dup5\n        /* \"--CODEGEN--\":16132:16138   */\n      dup7\n        /* \"--CODEGEN--\":16066:16154   */\n      jump(tag_383)\n    tag_478:\n        /* \"--CODEGEN--\":16058:16154   */\n      swap1\n      pop\n        /* \"--CODEGEN--\":15962:16164   */\n      swap4\n      swap3\n      pop\n      pop\n      pop\n      jump\n        /* \"--CODEGEN--\":16171:16720   */\n    tag_92:\n      0x00\n        /* \"--CODEGEN--\":16386:16388   */\n      0x40\n        /* \"--CODEGEN--\":16375:16384   */\n      dup3\n        /* \"--CODEGEN--\":16371:16389   */\n      add\n        /* \"--CODEGEN--\":16363:16389   */\n      swap1\n      pop\n        /* \"--CODEGEN--\":16436:16445   */\n      dup2\n        /* \"--CODEGEN--\":16430:16434   */\n      dup2\n        /* \"--CODEGEN--\":16426:16446   */\n      sub\n        /* \"--CODEGEN--\":16422:16423   */\n      0x00\n        /* \"--CODEGEN--\":16411:16420   */\n      dup4\n        /* \"--CODEGEN--\":16407:16424   */\n      add\n        /* \"--CODEGEN--\":16400:16447   */\n      mstore\n        /* \"--CODEGEN--\":16461:16549   */\n      tag_480\n        /* \"--CODEGEN--\":16544:16548   */\n      dup2\n        /* \"--CODEGEN--\":16535:16541   */\n      dup7\n        /* \"--CODEGEN--\":16527:16533   */\n      dup9\n        /* \"--CODEGEN--\":16461:16549   */\n      jump(tag_383)\n    tag_480:\n        /* \"--CODEGEN--\":16453:16549   */\n      swap1\n      pop\n        /* \"--CODEGEN--\":16597:16606   */\n      dup2\n        /* \"--CODEGEN--\":16591:16595   */\n      dup2\n        /* \"--CODEGEN--\":16587:16607   */\n      sub\n        /* \"--CODEGEN--\":16582:16584   */\n      0x20\n        /* \"--CODEGEN--\":16571:16580   */\n      dup4\n        /* \"--CODEGEN--\":16567:16585   */\n      add\n        /* \"--CODEGEN--\":16560:16608   */\n      mstore\n        /* \"--CODEGEN--\":16622:16710   */\n      tag_481\n        /* \"--CODEGEN--\":16705:16709   */\n      dup2\n        /* \"--CODEGEN--\":16696:16702   */\n      dup5\n        /* \"--CODEGEN--\":16688:16694   */\n      dup7\n        /* \"--CODEGEN--\":16622:16710   */\n      jump(tag_383)\n    tag_481:\n        /* \"--CODEGEN--\":16614:16710   */\n      swap1\n      pop\n        /* \"--CODEGEN--\":16357:16720   */\n      swap6\n      swap5\n      pop\n      pop\n      pop\n      pop\n      pop\n      jump\n        /* \"--CODEGEN--\":16727:17387   */\n    tag_223:\n      0x00\n        /* \"--CODEGEN--\":16970:16972   */\n      0x60\n        /* \"--CODEGEN--\":16959:16968   */\n      dup3\n        /* \"--CODEGEN--\":16955:16973   */\n      add\n        /* \"--CODEGEN--\":16947:16973   */\n      swap1\n      pop\n        /* \"--CODEGEN--\":17020:17029   */\n      dup2\n        /* \"--CODEGEN--\":17014:17018   */\n      dup2\n        /* \"--CODEGEN--\":17010:17030   */\n      sub\n        /* \"--CODEGEN--\":17006:17007   */\n      0x00\n        /* \"--CODEGEN--\":16995:17004   */\n      dup4\n        /* \"--CODEGEN--\":16991:17008   */\n      add\n        /* \"--CODEGEN--\":16984:17031   */\n      mstore\n        /* \"--CODEGEN--\":17045:17133   */\n      tag_483\n        /* \"--CODEGEN--\":17128:17132   */\n      dup2\n        /* \"--CODEGEN--\":17119:17125   */\n      dup8\n        /* \"--CODEGEN--\":17111:17117   */\n      dup10\n        /* \"--CODEGEN--\":17045:17133   */\n      jump(tag_383)\n    tag_483:\n        /* \"--CODEGEN--\":17037:17133   */\n      swap1\n      pop\n        /* \"--CODEGEN--\":17181:17190   */\n      dup2\n        /* \"--CODEGEN--\":17175:17179   */\n      dup2\n        /* \"--CODEGEN--\":17171:17191   */\n      sub\n        /* \"--CODEGEN--\":17166:17168   */\n      0x20\n        /* \"--CODEGEN--\":17155:17164   */\n      dup4\n        /* \"--CODEGEN--\":17151:17169   */\n      add\n        /* \"--CODEGEN--\":17144:17192   */\n      mstore\n        /* \"--CODEGEN--\":17206:17294   */\n      tag_484\n        /* \"--CODEGEN--\":17289:17293   */\n      dup2\n        /* \"--CODEGEN--\":17280:17286   */\n      dup6\n        /* \"--CODEGEN--\":17272:17278   */\n      dup8\n        /* \"--CODEGEN--\":17206:17294   */\n      jump(tag_383)\n    tag_484:\n        /* \"--CODEGEN--\":17198:17294   */\n      swap1\n      pop\n        /* \"--CODEGEN--\":17305:17377   */\n      tag_485\n        /* \"--CODEGEN--\":17373:17375   */\n      0x40\n        /* \"--CODEGEN--\":17362:17371   */\n      dup4\n        /* \"--CODEGEN--\":17358:17376   */\n      add\n        /* \"--CODEGEN--\":17349:17355   */\n      dup5\n        /* \"--CODEGEN--\":17305:17377   */\n      jump(tag_464)\n    tag_485:\n        /* \"--CODEGEN--\":16941:17387   */\n      swap7\n      swap6\n      pop\n      pop\n      pop\n      pop\n      pop\n      pop\n      jump\n        /* \"--CODEGEN--\":17394:18028   */\n    tag_267:\n      0x00\n        /* \"--CODEGEN--\":17624:17626   */\n      0x60\n        /* \"--CODEGEN--\":17613:17622   */\n      dup3\n        /* \"--CODEGEN--\":17609:17627   */\n      add\n        /* \"--CODEGEN--\":17601:17627   */\n      swap1\n      pop\n        /* \"--CODEGEN--\":17674:17683   */\n      dup2\n        /* \"--CODEGEN--\":17668:17672   */\n      dup2\n        /* \"--CODEGEN--\":17664:17684   */\n      sub\n        /* \"--CODEGEN--\":17660:17661   */\n      0x00\n        /* \"--CODEGEN--\":17649:17658   */\n      dup4\n        /* \"--CODEGEN--\":17645:17662   */\n      add\n        /* \"--CODEGEN--\":17638:17685   */\n      mstore\n        /* \"--CODEGEN--\":17699:17787   */\n      tag_487\n        /* \"--CODEGEN--\":17782:17786   */\n      dup2\n        /* \"--CODEGEN--\":17773:17779   */\n      dup7\n        /* \"--CODEGEN--\":17765:17771   */\n      dup9\n        /* \"--CODEGEN--\":17699:17787   */\n      jump(tag_383)\n    tag_487:\n        /* \"--CODEGEN--\":17691:17787   */\n      swap1\n      pop\n        /* \"--CODEGEN--\":17835:17844   */\n      dup2\n        /* \"--CODEGEN--\":17829:17833   */\n      dup2\n        /* \"--CODEGEN--\":17825:17845   */\n      sub\n        /* \"--CODEGEN--\":17820:17822   */\n      0x20\n        /* \"--CODEGEN--\":17809:17818   */\n      dup4\n        /* \"--CODEGEN--\":17805:17823   */\n      add\n        /* \"--CODEGEN--\":17798:17846   */\n      mstore\n        /* \"--CODEGEN--\":17860:17935   */\n      tag_488\n        /* \"--CODEGEN--\":17930:17934   */\n      dup2\n        /* \"--CODEGEN--\":17921:17927   */\n      dup6\n        /* \"--CODEGEN--\":17860:17935   */\n      jump(tag_406)\n    tag_488:\n        /* \"--CODEGEN--\":17852:17935   */\n      swap1\n      pop\n        /* \"--CODEGEN--\":17946:18018   */\n      tag_489\n        /* \"--CODEGEN--\":18014:18016   */\n      0x40\n        /* \"--CODEGEN--\":18003:18012   */\n      dup4\n        /* \"--CODEGEN--\":17999:18017   */\n      add\n        /* \"--CODEGEN--\":17990:17996   */\n      dup5\n        /* \"--CODEGEN--\":17946:18018   */\n      jump(tag_464)\n    tag_489:\n        /* \"--CODEGEN--\":17595:18028   */\n      swap6\n      swap5\n      pop\n      pop\n      pop\n      pop\n      pop\n      jump\n        /* \"--CODEGEN--\":18035:18476   */\n    tag_73:\n      0x00\n        /* \"--CODEGEN--\":18220:18222   */\n      0x40\n        /* \"--CODEGEN--\":18209:18218   */\n      dup3\n        /* \"--CODEGEN--\":18205:18223   */\n      add\n        /* \"--CODEGEN--\":18197:18223   */\n      swap1\n      pop\n        /* \"--CODEGEN--\":18270:18279   */\n      dup2\n        /* \"--CODEGEN--\":18264:18268   */\n      dup2\n        /* \"--CODEGEN--\":18260:18280   */\n      sub\n        /* \"--CODEGEN--\":18256:18257   */\n      0x00\n        /* \"--CODEGEN--\":18245:18254   */\n      dup4\n        /* \"--CODEGEN--\":18241:18258   */\n      add\n        /* \"--CODEGEN--\":18234:18281   */\n      mstore\n        /* \"--CODEGEN--\":18295:18383   */\n      tag_491\n        /* \"--CODEGEN--\":18378:18382   */\n      dup2\n        /* \"--CODEGEN--\":18369:18375   */\n      dup6\n        /* \"--CODEGEN--\":18361:18367   */\n      dup8\n        /* \"--CODEGEN--\":18295:18383   */\n      jump(tag_383)\n    tag_491:\n        /* \"--CODEGEN--\":18287:18383   */\n      swap1\n      pop\n        /* \"--CODEGEN--\":18394:18466   */\n      tag_492\n        /* \"--CODEGEN--\":18462:18464   */\n      0x20\n        /* \"--CODEGEN--\":18451:18460   */\n      dup4\n        /* \"--CODEGEN--\":18447:18465   */\n      add\n        /* \"--CODEGEN--\":18438:18444   */\n      dup5\n        /* \"--CODEGEN--\":18394:18466   */\n      jump(tag_464)\n    tag_492:\n        /* \"--CODEGEN--\":18191:18476   */\n      swap5\n      swap4\n      pop\n      pop\n      pop\n      pop\n      jump\n        /* \"--CODEGEN--\":18483:18793   */\n    tag_274:\n      0x00\n        /* \"--CODEGEN--\":18630:18632   */\n      0x20\n        /* \"--CODEGEN--\":18619:18628   */\n      dup3\n        /* \"--CODEGEN--\":18615:18633   */\n      add\n        /* \"--CODEGEN--\":18607:18633   */\n      swap1\n      pop\n        /* \"--CODEGEN--\":18680:18689   */\n      dup2\n        /* \"--CODEGEN--\":18674:18678   */\n      dup2\n        /* \"--CODEGEN--\":18670:18690   */\n      sub\n        /* \"--CODEGEN--\":18666:18667   */\n      0x00\n        /* \"--CODEGEN--\":18655:18664   */\n      dup4\n        /* \"--CODEGEN--\":18651:18668   */\n      add\n        /* \"--CODEGEN--\":18644:18691   */\n      mstore\n        /* \"--CODEGEN--\":18705:18783   */\n      tag_494\n        /* \"--CODEGEN--\":18778:18782   */\n      dup2\n        /* \"--CODEGEN--\":18769:18775   */\n      dup5\n        /* \"--CODEGEN--\":18705:18783   */\n      jump(tag_400)\n    tag_494:\n        /* \"--CODEGEN--\":18697:18783   */\n      swap1\n      pop\n        /* \"--CODEGEN--\":18601:18793   */\n      swap3\n      swap2\n      pop\n      pop\n      jump\n        /* \"--CODEGEN--\":18800:19724   */\n    tag_58:\n      0x00\n        /* \"--CODEGEN--\":19095:19098   */\n      0xa0\n        /* \"--CODEGEN--\":19084:19093   */\n      dup3\n        /* \"--CODEGEN--\":19080:19099   */\n      add\n        /* \"--CODEGEN--\":19072:19099   */\n      swap1\n      pop\n        /* \"--CODEGEN--\":19146:19155   */\n      dup2\n        /* \"--CODEGEN--\":19140:19144   */\n      dup2\n        /* \"--CODEGEN--\":19136:19156   */\n      sub\n        /* \"--CODEGEN--\":19132:19133   */\n      0x00\n        /* \"--CODEGEN--\":19121:19130   */\n      dup4\n        /* \"--CODEGEN--\":19117:19134   */\n      add\n        /* \"--CODEGEN--\":19110:19157   */\n      mstore\n        /* \"--CODEGEN--\":19171:19249   */\n      tag_496\n        /* \"--CODEGEN--\":19244:19248   */\n      dup2\n        /* \"--CODEGEN--\":19235:19241   */\n      dup9\n        /* \"--CODEGEN--\":19171:19249   */\n      jump(tag_400)\n    tag_496:\n        /* \"--CODEGEN--\":19163:19249   */\n      swap1\n      pop\n        /* \"--CODEGEN--\":19297:19306   */\n      dup2\n        /* \"--CODEGEN--\":19291:19295   */\n      dup2\n        /* \"--CODEGEN--\":19287:19307   */\n      sub\n        /* \"--CODEGEN--\":19282:19284   */\n      0x20\n        /* \"--CODEGEN--\":19271:19280   */\n      dup4\n        /* \"--CODEGEN--\":19267:19285   */\n      add\n        /* \"--CODEGEN--\":19260:19308   */\n      mstore\n        /* \"--CODEGEN--\":19322:19400   */\n      tag_497\n        /* \"--CODEGEN--\":19395:19399   */\n      dup2\n        /* \"--CODEGEN--\":19386:19392   */\n      dup8\n        /* \"--CODEGEN--\":19322:19400   */\n      jump(tag_400)\n    tag_497:\n        /* \"--CODEGEN--\":19314:19400   */\n      swap1\n      pop\n        /* \"--CODEGEN--\":19411:19483   */\n      tag_498\n        /* \"--CODEGEN--\":19479:19481   */\n      0x40\n        /* \"--CODEGEN--\":19468:19477   */\n      dup4\n        /* \"--CODEGEN--\":19464:19482   */\n      add\n        /* \"--CODEGEN--\":19455:19461   */\n      dup7\n        /* \"--CODEGEN--\":19411:19483   */\n      jump(tag_464)\n    tag_498:\n        /* \"--CODEGEN--\":19531:19540   */\n      dup2\n        /* \"--CODEGEN--\":19525:19529   */\n      dup2\n        /* \"--CODEGEN--\":19521:19541   */\n      sub\n        /* \"--CODEGEN--\":19516:19518   */\n      0x60\n        /* \"--CODEGEN--\":19505:19514   */\n      dup4\n        /* \"--CODEGEN--\":19501:19519   */\n      add\n        /* \"--CODEGEN--\":19494:19542   */\n      mstore\n        /* \"--CODEGEN--\":19556:19634   */\n      tag_499\n        /* \"--CODEGEN--\":19629:19633   */\n      dup2\n        /* \"--CODEGEN--\":19620:19626   */\n      dup6\n        /* \"--CODEGEN--\":19556:19634   */\n      jump(tag_400)\n    tag_499:\n        /* \"--CODEGEN--\":19548:19634   */\n      swap1\n      pop\n        /* \"--CODEGEN--\":19645:19714   */\n      tag_500\n        /* \"--CODEGEN--\":19709:19712   */\n      0x80\n        /* \"--CODEGEN--\":19698:19707   */\n      dup4\n        /* \"--CODEGEN--\":19694:19713   */\n      add\n        /* \"--CODEGEN--\":19685:19691   */\n      dup5\n        /* \"--CODEGEN--\":19645:19714   */\n      jump(tag_470)\n    tag_500:\n        /* \"--CODEGEN--\":19066:19724   */\n      swap7\n      swap6\n      pop\n      pop\n      pop\n      pop\n      pop\n      pop\n      jump\n        /* \"--CODEGEN--\":19731:20147   */\n    tag_172:\n      0x00\n        /* \"--CODEGEN--\":19931:19933   */\n      0x20\n        /* \"--CODEGEN--\":19920:19929   */\n      dup3\n        /* \"--CODEGEN--\":19916:19934   */\n      add\n        /* \"--CODEGEN--\":19908:19934   */\n      swap1\n      pop\n        /* \"--CODEGEN--\":19981:19990   */\n      dup2\n        /* \"--CODEGEN--\":19975:19979   */\n      dup2\n        /* \"--CODEGEN--\":19971:19991   */\n      sub\n        /* \"--CODEGEN--\":19967:19968   */\n      0x00\n        /* \"--CODEGEN--\":19956:19965   */\n      dup4\n        /* \"--CODEGEN--\":19952:19969   */\n      add\n        /* \"--CODEGEN--\":19945:19992   */\n      mstore\n        /* \"--CODEGEN--\":20006:20137   */\n      tag_502\n        /* \"--CODEGEN--\":20132:20136   */\n      dup2\n        /* \"--CODEGEN--\":20006:20137   */\n      jump(tag_418)\n    tag_502:\n        /* \"--CODEGEN--\":19998:20137   */\n      swap1\n      pop\n        /* \"--CODEGEN--\":19902:20147   */\n      swap2\n      swap1\n      pop\n      jump\n        /* \"--CODEGEN--\":20154:20570   */\n    tag_182:\n      0x00\n        /* \"--CODEGEN--\":20354:20356   */\n      0x20\n        /* \"--CODEGEN--\":20343:20352   */\n      dup3\n        /* \"--CODEGEN--\":20339:20357   */\n      add\n        /* \"--CODEGEN--\":20331:20357   */\n      swap1\n      pop\n        /* \"--CODEGEN--\":20404:20413   */\n      dup2\n        /* \"--CODEGEN--\":20398:20402   */\n      dup2\n        /* \"--CODEGEN--\":20394:20414   */\n      sub\n        /* \"--CODEGEN--\":20390:20391   */\n      0x00\n        /* \"--CODEGEN--\":20379:20388   */\n      dup4\n        /* \"--CODEGEN--\":20375:20392   */\n      add\n        /* \"--CODEGEN--\":20368:20415   */\n      mstore\n        /* \"--CODEGEN--\":20429:20560   */\n      tag_504\n        /* \"--CODEGEN--\":20555:20559   */\n      dup2\n        /* \"--CODEGEN--\":20429:20560   */\n      jump(tag_421)\n    tag_504:\n        /* \"--CODEGEN--\":20421:20560   */\n      swap1\n      pop\n        /* \"--CODEGEN--\":20325:20570   */\n      swap2\n      swap1\n      pop\n      jump\n        /* \"--CODEGEN--\":20577:20993   */\n    tag_116:\n      0x00\n        /* \"--CODEGEN--\":20777:20779   */\n      0x20\n        /* \"--CODEGEN--\":20766:20775   */\n      dup3\n        /* \"--CODEGEN--\":20762:20780   */\n      add\n        /* \"--CODEGEN--\":20754:20780   */\n      swap1\n      pop\n        /* \"--CODEGEN--\":20827:20836   */\n      dup2\n        /* \"--CODEGEN--\":20821:20825   */\n      dup2\n        /* \"--CODEGEN--\":20817:20837   */\n      sub\n        /* \"--CODEGEN--\":20813:20814   */\n      0x00\n        /* \"--CODEGEN--\":20802:20811   */\n      dup4\n        /* \"--CODEGEN--\":20798:20815   */\n      add\n        /* \"--CODEGEN--\":20791:20838   */\n      mstore\n        /* \"--CODEGEN--\":20852:20983   */\n      tag_506\n        /* \"--CODEGEN--\":20978:20982   */\n      dup2\n        /* \"--CODEGEN--\":20852:20983   */\n      jump(tag_424)\n    tag_506:\n        /* \"--CODEGEN--\":20844:20983   */\n      swap1\n      pop\n        /* \"--CODEGEN--\":20748:20993   */\n      swap2\n      swap1\n      pop\n      jump\n        /* \"--CODEGEN--\":21000:21416   */\n    tag_136:\n      0x00\n        /* \"--CODEGEN--\":21200:21202   */\n      0x20\n        /* \"--CODEGEN--\":21189:21198   */\n      dup3\n        /* \"--CODEGEN--\":21185:21203   */\n      add\n        /* \"--CODEGEN--\":21177:21203   */\n      swap1\n      pop\n        /* \"--CODEGEN--\":21250:21259   */\n      dup2\n        /* \"--CODEGEN--\":21244:21248   */\n      dup2\n        /* \"--CODEGEN--\":21240:21260   */\n      sub\n        /* \"--CODEGEN--\":21236:21237   */\n      0x00\n        /* \"--CODEGEN--\":21225:21234   */\n      dup4\n        /* \"--CODEGEN--\":21221:21238   */\n      add\n        /* \"--CODEGEN--\":21214:21261   */\n      mstore\n        /* \"--CODEGEN--\":21275:21406   */\n      tag_508\n        /* \"--CODEGEN--\":21401:21405   */\n      dup2\n        /* \"--CODEGEN--\":21275:21406   */\n      jump(tag_427)\n    tag_508:\n        /* \"--CODEGEN--\":21267:21406   */\n      swap1\n      pop\n        /* \"--CODEGEN--\":21171:21416   */\n      swap2\n      swap1\n      pop\n      jump\n        /* \"--CODEGEN--\":21423:21839   */\n    tag_244:\n      0x00\n        /* \"--CODEGEN--\":21623:21625   */\n      0x20\n        /* \"--CODEGEN--\":21612:21621   */\n      dup3\n        /* \"--CODEGEN--\":21608:21626   */\n      add\n        /* \"--CODEGEN--\":21600:21626   */\n      swap1\n      pop\n        /* \"--CODEGEN--\":21673:21682   */\n      dup2\n        /* \"--CODEGEN--\":21667:21671   */\n      dup2\n        /* \"--CODEGEN--\":21663:21683   */\n      sub\n        /* \"--CODEGEN--\":21659:21660   */\n      0x00\n        /* \"--CODEGEN--\":21648:21657   */\n      dup4\n        /* \"--CODEGEN--\":21644:21661   */\n      add\n        /* \"--CODEGEN--\":21637:21684   */\n      mstore\n        /* \"--CODEGEN--\":21698:21829   */\n      tag_510\n        /* \"--CODEGEN--\":21824:21828   */\n      dup2\n        /* \"--CODEGEN--\":21698:21829   */\n      jump(tag_430)\n    tag_510:\n        /* \"--CODEGEN--\":21690:21829   */\n      swap1\n      pop\n        /* \"--CODEGEN--\":21594:21839   */\n      swap2\n      swap1\n      pop\n      jump\n        /* \"--CODEGEN--\":21846:22262   */\n    tag_111:\n      0x00\n        /* \"--CODEGEN--\":22046:22048   */\n      0x20\n        /* \"--CODEGEN--\":22035:22044   */\n      dup3\n        /* \"--CODEGEN--\":22031:22049   */\n      add\n        /* \"--CODEGEN--\":22023:22049   */\n      swap1\n      pop\n        /* \"--CODEGEN--\":22096:22105   */\n      dup2\n        /* \"--CODEGEN--\":22090:22094   */\n      dup2\n        /* \"--CODEGEN--\":22086:22106   */\n      sub\n        /* \"--CODEGEN--\":22082:22083   */\n      0x00\n        /* \"--CODEGEN--\":22071:22080   */\n      dup4\n        /* \"--CODEGEN--\":22067:22084   */\n      add\n        /* \"--CODEGEN--\":22060:22107   */\n      mstore\n        /* \"--CODEGEN--\":22121:22252   */\n      tag_512\n        /* \"--CODEGEN--\":22247:22251   */\n      dup2\n        /* \"--CODEGEN--\":22121:22252   */\n      jump(tag_433)\n    tag_512:\n        /* \"--CODEGEN--\":22113:22252   */\n      swap1\n      pop\n        /* \"--CODEGEN--\":22017:22262   */\n      swap2\n      swap1\n      pop\n      jump\n        /* \"--CODEGEN--\":22269:22685   */\n    tag_253:\n      0x00\n        /* \"--CODEGEN--\":22469:22471   */\n      0x20\n        /* \"--CODEGEN--\":22458:22467   */\n      dup3\n        /* \"--CODEGEN--\":22454:22472   */\n      add\n        /* \"--CODEGEN--\":22446:22472   */\n      swap1\n      pop\n        /* \"--CODEGEN--\":22519:22528   */\n      dup2\n        /* \"--CODEGEN--\":22513:22517   */\n      dup2\n        /* \"--CODEGEN--\":22509:22529   */\n      sub\n        /* \"--CODEGEN--\":22505:22506   */\n      0x00\n        /* \"--CODEGEN--\":22494:22503   */\n      dup4\n        /* \"--CODEGEN--\":22490:22507   */\n      add\n        /* \"--CODEGEN--\":22483:22530   */\n      mstore\n        /* \"--CODEGEN--\":22544:22675   */\n      tag_514\n        /* \"--CODEGEN--\":22670:22674   */\n      dup2\n        /* \"--CODEGEN--\":22544:22675   */\n      jump(tag_436)\n    tag_514:\n        /* \"--CODEGEN--\":22536:22675   */\n      swap1\n      pop\n        /* \"--CODEGEN--\":22440:22685   */\n      swap2\n      swap1\n      pop\n      jump\n        /* \"--CODEGEN--\":22692:23108   */\n    tag_121:\n      0x00\n        /* \"--CODEGEN--\":22892:22894   */\n      0x20\n        /* \"--CODEGEN--\":22881:22890   */\n      dup3\n        /* \"--CODEGEN--\":22877:22895   */\n      add\n        /* \"--CODEGEN--\":22869:22895   */\n      swap1\n      pop\n        /* \"--CODEGEN--\":22942:22951   */\n      dup2\n        /* \"--CODEGEN--\":22936:22940   */\n      dup2\n        /* \"--CODEGEN--\":22932:22952   */\n      sub\n        /* \"--CODEGEN--\":22928:22929   */\n      0x00\n        /* \"--CODEGEN--\":22917:22926   */\n      dup4\n        /* \"--CODEGEN--\":22913:22930   */\n      add\n        /* \"--CODEGEN--\":22906:22953   */\n      mstore\n        /* \"--CODEGEN--\":22967:23098   */\n      tag_516\n        /* \"--CODEGEN--\":23093:23097   */\n      dup2\n        /* \"--CODEGEN--\":22967:23098   */\n      jump(tag_439)\n    tag_516:\n        /* \"--CODEGEN--\":22959:23098   */\n      swap1\n      pop\n        /* \"--CODEGEN--\":22863:23108   */\n      swap2\n      swap1\n      pop\n      jump\n        /* \"--CODEGEN--\":23115:23531   */\n    tag_71:\n      0x00\n        /* \"--CODEGEN--\":23315:23317   */\n      0x20\n        /* \"--CODEGEN--\":23304:23313   */\n      dup3\n        /* \"--CODEGEN--\":23300:23318   */\n      add\n        /* \"--CODEGEN--\":23292:23318   */\n      swap1\n      pop\n        /* \"--CODEGEN--\":23365:23374   */\n      dup2\n        /* \"--CODEGEN--\":23359:23363   */\n      dup2\n        /* \"--CODEGEN--\":23355:23375   */\n      sub\n        /* \"--CODEGEN--\":23351:23352   */\n      0x00\n        /* \"--CODEGEN--\":23340:23349   */\n      dup4\n        /* \"--CODEGEN--\":23336:23353   */\n      add\n        /* \"--CODEGEN--\":23329:23376   */\n      mstore\n        /* \"--CODEGEN--\":23390:23521   */\n      tag_518\n        /* \"--CODEGEN--\":23516:23520   */\n      dup2\n        /* \"--CODEGEN--\":23390:23521   */\n      jump(tag_442)\n    tag_518:\n        /* \"--CODEGEN--\":23382:23521   */\n      swap1\n      pop\n        /* \"--CODEGEN--\":23286:23531   */\n      swap2\n      swap1\n      pop\n      jump\n        /* \"--CODEGEN--\":23538:23954   */\n    tag_139:\n      0x00\n        /* \"--CODEGEN--\":23738:23740   */\n      0x20\n        /* \"--CODEGEN--\":23727:23736   */\n      dup3\n        /* \"--CODEGEN--\":23723:23741   */\n      add\n        /* \"--CODEGEN--\":23715:23741   */\n      swap1\n      pop\n        /* \"--CODEGEN--\":23788:23797   */\n      dup2\n        /* \"--CODEGEN--\":23782:23786   */\n      dup2\n        /* \"--CODEGEN--\":23778:23798   */\n      sub\n        /* \"--CODEGEN--\":23774:23775   */\n      0x00\n        /* \"--CODEGEN--\":23763:23772   */\n      dup4\n        /* \"--CODEGEN--\":23759:23776   */\n      add\n        /* \"--CODEGEN--\":23752:23799   */\n      mstore\n        /* \"--CODEGEN--\":23813:23944   */\n      tag_520\n        /* \"--CODEGEN--\":23939:23943   */\n      dup2\n        /* \"--CODEGEN--\":23813:23944   */\n      jump(tag_445)\n    tag_520:\n        /* \"--CODEGEN--\":23805:23944   */\n      swap1\n      pop\n        /* \"--CODEGEN--\":23709:23954   */\n      swap2\n      swap1\n      pop\n      jump\n        /* \"--CODEGEN--\":23961:24377   */\n    tag_147:\n      0x00\n        /* \"--CODEGEN--\":24161:24163   */\n      0x20\n        /* \"--CODEGEN--\":24150:24159   */\n      dup3\n        /* \"--CODEGEN--\":24146:24164   */\n      add\n        /* \"--CODEGEN--\":24138:24164   */\n      swap1\n      pop\n        /* \"--CODEGEN--\":24211:24220   */\n      dup2\n        /* \"--CODEGEN--\":24205:24209   */\n      dup2\n        /* \"--CODEGEN--\":24201:24221   */\n      sub\n        /* \"--CODEGEN--\":24197:24198   */\n      0x00\n        /* \"--CODEGEN--\":24186:24195   */\n      dup4\n        /* \"--CODEGEN--\":24182:24199   */\n      add\n        /* \"--CODEGEN--\":24175:24222   */\n      mstore\n        /* \"--CODEGEN--\":24236:24367   */\n      tag_522\n        /* \"--CODEGEN--\":24362:24366   */\n      dup2\n        /* \"--CODEGEN--\":24236:24367   */\n      jump(tag_448)\n    tag_522:\n        /* \"--CODEGEN--\":24228:24367   */\n      swap1\n      pop\n        /* \"--CODEGEN--\":24132:24377   */\n      swap2\n      swap1\n      pop\n      jump\n        /* \"--CODEGEN--\":24384:24606   */\n    tag_23:\n      0x00\n        /* \"--CODEGEN--\":24511:24513   */\n      0x20\n        /* \"--CODEGEN--\":24500:24509   */\n      dup3\n        /* \"--CODEGEN--\":24496:24514   */\n      add\n        /* \"--CODEGEN--\":24488:24514   */\n      swap1\n      pop\n        /* \"--CODEGEN--\":24525:24596   */\n      tag_524\n        /* \"--CODEGEN--\":24593:24594   */\n      0x00\n        /* \"--CODEGEN--\":24582:24591   */\n      dup4\n        /* \"--CODEGEN--\":24578:24595   */\n      add\n        /* \"--CODEGEN--\":24569:24575   */\n      dup5\n        /* \"--CODEGEN--\":24525:24596   */\n      jump(tag_464)\n    tag_524:\n        /* \"--CODEGEN--\":24482:24606   */\n      swap3\n      swap2\n      pop\n      pop\n      jump\n        /* \"--CODEGEN--\":24613:24789   */\n    tag_372:\n      0x00\n        /* \"--CODEGEN--\":24724:24727   */\n      dup2\n        /* \"--CODEGEN--\":24716:24727   */\n      swap1\n      pop\n        /* \"--CODEGEN--\":24762:24766   */\n      0x20\n        /* \"--CODEGEN--\":24757:24760   */\n      dup3\n        /* \"--CODEGEN--\":24753:24767   */\n      add\n        /* \"--CODEGEN--\":24745:24767   */\n      swap1\n      pop\n        /* \"--CODEGEN--\":24710:24789   */\n      swap2\n      swap1\n      pop\n      jump\n        /* \"--CODEGEN--\":24796:24954   */\n    tag_414:\n      0x00\n        /* \"--CODEGEN--\":24864:24867   */\n      dup2\n        /* \"--CODEGEN--\":24856:24867   */\n      swap1\n      pop\n        /* \"--CODEGEN--\":24901:24904   */\n      dup2\n        /* \"--CODEGEN--\":24898:24899   */\n      0x00\n        /* \"--CODEGEN--\":24891:24905   */\n      mstore\n        /* \"--CODEGEN--\":24933:24937   */\n      0x20\n        /* \"--CODEGEN--\":24930:24931   */\n      0x00\n        /* \"--CODEGEN--\":24920:24938   */\n      keccak256\n        /* \"--CODEGEN--\":24912:24938   */\n      swap1\n      pop\n        /* \"--CODEGEN--\":24850:24954   */\n      swap2\n      swap1\n      pop\n      jump\n        /* \"--CODEGEN--\":24961:25123   */\n    tag_368:\n      0x00\n        /* \"--CODEGEN--\":25095:25100   */\n      dup2\n        /* \"--CODEGEN--\":25089:25101   */\n      mload\n        /* \"--CODEGEN--\":25079:25101   */\n      swap1\n      pop\n        /* \"--CODEGEN--\":25060:25123   */\n      swap2\n      swap1\n      pop\n      jump\n        /* \"--CODEGEN--\":25130:25252   */\n    tag_394:\n      0x00\n        /* \"--CODEGEN--\":25224:25229   */\n      dup2\n        /* \"--CODEGEN--\":25218:25230   */\n      mload\n        /* \"--CODEGEN--\":25208:25230   */\n      swap1\n      pop\n        /* \"--CODEGEN--\":25189:25252   */\n      swap2\n      swap1\n      pop\n      jump\n        /* \"--CODEGEN--\":25259:25392   */\n    tag_378:\n      0x00\n        /* \"--CODEGEN--\":25382:25386   */\n      0x20\n        /* \"--CODEGEN--\":25377:25380   */\n      dup3\n        /* \"--CODEGEN--\":25373:25387   */\n      add\n        /* \"--CODEGEN--\":25365:25387   */\n      swap1\n      pop\n        /* \"--CODEGEN--\":25359:25392   */\n      swap2\n      swap1\n      pop\n      jump\n        /* \"--CODEGEN--\":25400:25603   */\n    tag_370:\n      0x00\n        /* \"--CODEGEN--\":25555:25561   */\n      dup3\n        /* \"--CODEGEN--\":25550:25553   */\n      dup3\n        /* \"--CODEGEN--\":25543:25562   */\n      mstore\n        /* \"--CODEGEN--\":25592:25596   */\n      0x20\n        /* \"--CODEGEN--\":25587:25590   */\n      dup3\n        /* \"--CODEGEN--\":25583:25597   */\n      add\n        /* \"--CODEGEN--\":25568:25597   */\n      swap1\n      pop\n        /* \"--CODEGEN--\":25536:25603   */\n      swap3\n      swap2\n      pop\n      pop\n      jump\n        /* \"--CODEGEN--\":25612:25765   */\n    tag_396:\n      0x00\n        /* \"--CODEGEN--\":25717:25723   */\n      dup3\n        /* \"--CODEGEN--\":25712:25715   */\n      dup3\n        /* \"--CODEGEN--\":25705:25724   */\n      mstore\n        /* \"--CODEGEN--\":25754:25758   */\n      0x20\n        /* \"--CODEGEN--\":25749:25752   */\n      dup3\n        /* \"--CODEGEN--\":25745:25759   */\n      add\n        /* \"--CODEGEN--\":25730:25759   */\n      swap1\n      pop\n        /* \"--CODEGEN--\":25698:25765   */\n      swap3\n      swap2\n      pop\n      pop\n      jump\n        /* \"--CODEGEN--\":25774:25937   */\n    tag_386:\n      0x00\n        /* \"--CODEGEN--\":25889:25895   */\n      dup3\n        /* \"--CODEGEN--\":25884:25887   */\n      dup3\n        /* \"--CODEGEN--\":25877:25896   */\n      mstore\n        /* \"--CODEGEN--\":25926:25930   */\n      0x20\n        /* \"--CODEGEN--\":25921:25924   */\n      dup3\n        /* \"--CODEGEN--\":25917:25931   */\n      add\n        /* \"--CODEGEN--\":25902:25931   */\n      swap1\n      pop\n        /* \"--CODEGEN--\":25870:25937   */\n      swap3\n      swap2\n      pop\n      pop\n      jump\n        /* \"--CODEGEN--\":25945:26030   */\n    tag_382:\n      0x00\n        /* \"--CODEGEN--\":26018:26023   */\n      dup2\n        /* \"--CODEGEN--\":26011:26024   */\n      iszero\n        /* \"--CODEGEN--\":26004:26025   */\n      iszero\n        /* \"--CODEGEN--\":25993:26025   */\n      swap1\n      pop\n        /* \"--CODEGEN--\":25987:26030   */\n      swap2\n      swap1\n      pop\n      jump\n        /* \"--CODEGEN--\":26037:26109   */\n    tag_463:\n      0x00\n        /* \"--CODEGEN--\":26099:26104   */\n      dup2\n        /* \"--CODEGEN--\":26088:26104   */\n      swap1\n      pop\n        /* \"--CODEGEN--\":26082:26109   */\n      swap2\n      swap1\n      pop\n      jump\n        /* \"--CODEGEN--\":26116:26197   */\n    tag_469:\n      0x00\n        /* \"--CODEGEN--\":26187:26191   */\n      0xff\n        /* \"--CODEGEN--\":26180:26185   */\n      dup3\n        /* \"--CODEGEN--\":26176:26192   */\n      and\n        /* \"--CODEGEN--\":26165:26192   */\n      swap1\n      pop\n        /* \"--CODEGEN--\":26159:26197   */\n      swap2\n      swap1\n      pop\n      jump\n        /* \"--CODEGEN--\":26205:26350   */\n    tag_388:\n        /* \"--CODEGEN--\":26286:26292   */\n      dup3\n        /* \"--CODEGEN--\":26281:26284   */\n      dup2\n        /* \"--CODEGEN--\":26276:26279   */\n      dup4\n        /* \"--CODEGEN--\":26263:26293   */\n      calldatacopy\n        /* \"--CODEGEN--\":26342:26343   */\n      0x00\n        /* \"--CODEGEN--\":26333:26339   */\n      dup4\n        /* \"--CODEGEN--\":26328:26331   */\n      dup4\n        /* \"--CODEGEN--\":26324:26340   */\n      add\n        /* \"--CODEGEN--\":26317:26344   */\n      mstore\n        /* \"--CODEGEN--\":26256:26350   */\n      pop\n      pop\n      pop\n      jump\n        /* \"--CODEGEN--\":26359:26627   */\n    tag_398:\n        /* \"--CODEGEN--\":26424:26425   */\n      0x00\n        /* \"--CODEGEN--\":26431:26532   */\n    tag_538:\n        /* \"--CODEGEN--\":26445:26451   */\n      dup4\n        /* \"--CODEGEN--\":26442:26443   */\n      dup2\n        /* \"--CODEGEN--\":26439:26452   */\n      lt\n        /* \"--CODEGEN--\":26431:26532   */\n      iszero\n      tag_540\n      jumpi\n        /* \"--CODEGEN--\":26521:26522   */\n      dup1\n        /* \"--CODEGEN--\":26516:26519   */\n      dup3\n        /* \"--CODEGEN--\":26512:26523   */\n      add\n        /* \"--CODEGEN--\":26506:26524   */\n      mload\n        /* \"--CODEGEN--\":26502:26503   */\n      dup2\n        /* \"--CODEGEN--\":26497:26500   */\n      dup5\n        /* \"--CODEGEN--\":26493:26504   */\n      add\n        /* \"--CODEGEN--\":26486:26525   */\n      mstore\n        /* \"--CODEGEN--\":26467:26469   */\n      0x20\n        /* \"--CODEGEN--\":26464:26465   */\n      dup2\n        /* \"--CODEGEN--\":26460:26470   */\n      add\n        /* \"--CODEGEN--\":26455:26470   */\n      swap1\n      pop\n        /* \"--CODEGEN--\":26431:26532   */\n      jump(tag_538)\n    tag_540:\n        /* \"--CODEGEN--\":26547:26553   */\n      dup4\n        /* \"--CODEGEN--\":26544:26545   */\n      dup2\n        /* \"--CODEGEN--\":26541:26554   */\n      gt\n        /* \"--CODEGEN--\":26538:26540   */\n      iszero\n      tag_541\n      jumpi\n        /* \"--CODEGEN--\":26612:26613   */\n      0x00\n        /* \"--CODEGEN--\":26603:26609   */\n      dup5\n        /* \"--CODEGEN--\":26598:26601   */\n      dup5\n        /* \"--CODEGEN--\":26594:26610   */\n      add\n        /* \"--CODEGEN--\":26587:26614   */\n      mstore\n        /* \"--CODEGEN--\":26538:26540   */\n    tag_541:\n        /* \"--CODEGEN--\":26408:26627   */\n      pop\n      pop\n      pop\n      pop\n      jump\n        /* \"--CODEGEN--\":26635:26732   */\n    tag_390:\n      0x00\n        /* \"--CODEGEN--\":26723:26725   */\n      0x1f\n        /* \"--CODEGEN--\":26719:26726   */\n      not\n        /* \"--CODEGEN--\":26714:26716   */\n      0x1f\n        /* \"--CODEGEN--\":26707:26712   */\n      dup4\n        /* \"--CODEGEN--\":26703:26717   */\n      add\n        /* \"--CODEGEN--\":26699:26727   */\n      and\n        /* \"--CODEGEN--\":26689:26727   */\n      swap1\n      pop\n        /* \"--CODEGEN--\":26683:26732   */\n      swap2\n      swap1\n      pop\n      jump\n        /* \"--CODEGEN--\":26740:26851   */\n    tag_294:\n        /* \"--CODEGEN--\":26806:26827   */\n      tag_544\n        /* \"--CODEGEN--\":26821:26826   */\n      dup2\n        /* \"--CODEGEN--\":26806:26827   */\n      jump(tag_382)\n    tag_544:\n        /* \"--CODEGEN--\":26799:26804   */\n      dup2\n        /* \"--CODEGEN--\":26796:26828   */\n      eq\n        /* \"--CODEGEN--\":26786:26788   */\n      tag_545\n      jumpi\n        /* \"--CODEGEN--\":26842:26843   */\n      0x00\n        /* \"--CODEGEN--\":26839:26840   */\n      dup1\n        /* \"--CODEGEN--\":26832:26844   */\n      revert\n        /* \"--CODEGEN--\":26786:26788   */\n    tag_545:\n        /* \"--CODEGEN--\":26780:26851   */\n      pop\n      jump\n        /* \"--CODEGEN--\":26858:26975   */\n    tag_303:\n        /* \"--CODEGEN--\":26927:26951   */\n      tag_547\n        /* \"--CODEGEN--\":26945:26950   */\n      dup2\n        /* \"--CODEGEN--\":26927:26951   */\n      jump(tag_463)\n    tag_547:\n        /* \"--CODEGEN--\":26920:26925   */\n      dup2\n        /* \"--CODEGEN--\":26917:26952   */\n      eq\n        /* \"--CODEGEN--\":26907:26909   */\n      tag_548\n      jumpi\n        /* \"--CODEGEN--\":26966:26967   */\n      0x00\n        /* \"--CODEGEN--\":26963:26964   */\n      dup1\n        /* \"--CODEGEN--\":26956:26968   */\n      revert\n        /* \"--CODEGEN--\":26907:26909   */\n    tag_548:\n        /* \"--CODEGEN--\":26901:26975   */\n      pop\n      jump\n        /* \"--CODEGEN--\":26982:27095   */\n    tag_310:\n        /* \"--CODEGEN--\":27049:27071   */\n      tag_550\n        /* \"--CODEGEN--\":27065:27070   */\n      dup2\n        /* \"--CODEGEN--\":27049:27071   */\n      jump(tag_469)\n    tag_550:\n        /* \"--CODEGEN--\":27042:27047   */\n      dup2\n        /* \"--CODEGEN--\":27039:27072   */\n      eq\n        /* \"--CODEGEN--\":27029:27031   */\n      tag_551\n      jumpi\n        /* \"--CODEGEN--\":27086:27087   */\n      0x00\n        /* \"--CODEGEN--\":27083:27084   */\n      dup1\n        /* \"--CODEGEN--\":27076:27088   */\n      revert\n        /* \"--CODEGEN--\":27029:27031   */\n    tag_551:\n        /* \"--CODEGEN--\":27023:27095   */\n      pop\n      jump\n\n    auxdata: 0xa2646970667358221220f127f6baf3a4979d1ca236d91aaa7c37687be46693e671fd7fe8d5663017ef5764736f6c634300060a0033\n}\n\nsub_1: assembly {\n        /* \"xuanshang/jstask/app/Token.sol\":136:1626  contract Token is IERC2000{... */\n      mstore(0x40, 0x80)\n        /* \"xuanshang/jstask/app/Token.sol\":315:397  constructor() public {... */\n      callvalue\n      dup1\n      iszero\n      tag_1\n      jumpi\n      0x00\n      dup1\n      revert\n    tag_1:\n      pop\n        /* \"xuanshang/jstask/app/Token.sol\":361:362  0 */\n      0x00\n        /* \"xuanshang/jstask/app/Token.sol\":346:358  _totalSupply */\n      dup1\n        /* \"xuanshang/jstask/app/Token.sol\":346:362  _totalSupply = 0 */\n      dup2\n      swap1\n      sstore\n      pop\n        /* \"xuanshang/jstask/app/Token.sol\":380:390  msg.sender */\n      caller\n        /* \"xuanshang/jstask/app/Token.sol\":372:377  admin */\n      0x01\n      0x00\n        /* \"xuanshang/jstask/app/Token.sol\":372:390  admin = msg.sender */\n      0x0100\n      exp\n      dup2\n      sload\n      dup2\n      0xffffffffffffffffffffffffffffffffffffffff\n      mul\n      not\n      and\n      swap1\n      dup4\n      0xffffffffffffffffffffffffffffffffffffffff\n      and\n      mul\n      or\n      swap1\n      sstore\n      pop\n        /* \"xuanshang/jstask/app/Token.sol\":136:1626  contract Token is IERC2000{... */\n      dataSize(sub_0)\n      dup1\n      dataOffset(sub_0)\n      0x00\n      codecopy\n      0x00\n      return\n    stop\n\n    sub_0: assembly {\n            /* \"xuanshang/jstask/app/Token.sol\":136:1626  contract Token is IERC2000{... */\n          mstore(0x40, 0x80)\n          callvalue\n          dup1\n          iszero\n          tag_1\n          jumpi\n          0x00\n          dup1\n          revert\n        tag_1:\n          pop\n          jumpi(tag_2, lt(calldatasize, 0x04))\n          shr(0xe0, calldataload(0x00))\n          dup1\n          0x056b01ce\n          eq\n          tag_3\n          jumpi\n          dup1\n          0x18160ddd\n          eq\n          tag_4\n          jumpi\n          dup1\n          0x35ee5f87\n          eq\n          tag_5\n          jumpi\n          dup1\n          0x9b80b050\n          eq\n          tag_6\n          jumpi\n        tag_2:\n          0x00\n          dup1\n          revert\n            /* \"xuanshang/jstask/app/Token.sol\":1244:1619  function mint(string calldata _to, uint256 _value)external{... */\n        tag_3:\n          tag_7\n          0x04\n          dup1\n          calldatasize\n          sub\n          0x40\n          dup2\n          lt\n          iszero\n          tag_8\n          jumpi\n          0x00\n          dup1\n          revert\n        tag_8:\n          dup2\n          add\n          swap1\n          dup1\n          dup1\n          calldataload\n          swap1\n          0x20\n          add\n          swap1\n          0x0100000000\n          dup2\n          gt\n          iszero\n          tag_9\n          jumpi\n          0x00\n          dup1\n          revert\n        tag_9:\n          dup3\n          add\n          dup4\n          0x20\n          dup3\n          add\n          gt\n          iszero\n          tag_10\n          jumpi\n          0x00\n          dup1\n          revert\n        tag_10:\n          dup1\n          calldataload\n          swap1\n          0x20\n          add\n          swap2\n          dup5\n          0x01\n          dup4\n          mul\n          dup5\n          add\n          gt\n          0x0100000000\n          dup4\n          gt\n          or\n          iszero\n          tag_11\n          jumpi\n          0x00\n          dup1\n          revert\n        tag_11:\n          swap1\n          swap2\n          swap3\n          swap4\n          swap2\n          swap3\n          swap4\n          swap1\n          dup1\n          calldataload\n          swap1\n          0x20\n          add\n          swap1\n          swap3\n          swap2\n          swap1\n          pop\n          pop\n          pop\n          tag_12\n          jump\t// in\n        tag_7:\n          stop\n            /* \"xuanshang/jstask/app/Token.sol\":425:523  function totalSupply()override external view returns (uint256){... */\n        tag_4:\n          tag_13\n          tag_14\n          jump\t// in\n        tag_13:\n          mload(0x40)\n          dup1\n          dup3\n          dup2\n          mstore\n          0x20\n          add\n          swap2\n          pop\n          pop\n          mload(0x40)\n          dup1\n          swap2\n          sub\n          swap1\n          return\n            /* \"xuanshang/jstask/app/Token.sol\":548:679  function balanceOf(string calldata _owner)override external view returns (uint256 balance){... */\n        tag_5:\n          tag_15\n          0x04\n          dup1\n          calldatasize\n          sub\n          0x20\n          dup2\n          lt\n          iszero\n          tag_16\n          jumpi\n          0x00\n          dup1\n          revert\n        tag_16:\n          dup2\n          add\n          swap1\n          dup1\n          dup1\n          calldataload\n          swap1\n          0x20\n          add\n          swap1\n          0x0100000000\n          dup2\n          gt\n          iszero\n          tag_17\n          jumpi\n          0x00\n          dup1\n          revert\n        tag_17:\n          dup3\n          add\n          dup4\n          0x20\n          dup3\n          add\n          gt\n          iszero\n          tag_18\n          jumpi\n          0x00\n          dup1\n          revert\n        tag_18:\n          dup1\n          calldataload\n          swap1\n          0x20\n          add\n          swap2\n          dup5\n          0x01\n          dup4\n          mul\n          dup5\n          add\n          gt\n          0x0100000000\n          dup4\n          gt\n          or\n          iszero\n          tag_19\n          jumpi\n          0x00\n          dup1\n          revert\n        tag_19:\n          swap1\n          swap2\n          swap3\n          swap4\n          swap2\n          swap3\n          swap4\n          swap1\n          pop\n          pop\n          pop\n          tag_20\n          jump\t// in\n        tag_15:\n          mload(0x40)\n          dup1\n          dup3\n          dup2\n          mstore\n          0x20\n          add\n          swap2\n          pop\n          pop\n          mload(0x40)\n          dup1\n          swap2\n          sub\n          swap1\n          return\n            /* \"xuanshang/jstask/app/Token.sol\":698:1141  function transfer(string calldata _from,string calldata _to, uint256 _value) external override returns (bool success){... */\n        tag_6:\n          tag_21\n          0x04\n          dup1\n          calldatasize\n          sub\n          0x60\n          dup2\n          lt\n          iszero\n          tag_22\n          jumpi\n          0x00\n          dup1\n          revert\n        tag_22:\n          dup2\n          add\n          swap1\n          dup1\n          dup1\n          calldataload\n          swap1\n          0x20\n          add\n          swap1\n          0x0100000000\n          dup2\n          gt\n          iszero\n          tag_23\n          jumpi\n          0x00\n          dup1\n          revert\n        tag_23:\n          dup3\n          add\n          dup4\n          0x20\n          dup3\n          add\n          gt\n          iszero\n          tag_24\n          jumpi\n          0x00\n          dup1\n          revert\n        tag_24:\n          dup1\n          calldataload\n          swap1\n          0x20\n          add\n          swap2\n          dup5\n          0x01\n          dup4\n          mul\n          dup5\n          add\n          gt\n          0x0100000000\n          dup4\n          gt\n          or\n          iszero\n          tag_25\n          jumpi\n          0x00\n          dup1\n          revert\n        tag_25:\n          swap1\n          swap2\n          swap3\n          swap4\n          swap2\n          swap3\n          swap4\n          swap1\n          dup1\n          calldataload\n          swap1\n          0x20\n          add\n          swap1\n          0x0100000000\n          dup2\n          gt\n          iszero\n          tag_26\n          jumpi\n          0x00\n          dup1\n          revert\n        tag_26:\n          dup3\n          add\n          dup4\n          0x20\n          dup3\n          add\n          gt\n          iszero\n          tag_27\n          jumpi\n          0x00\n          dup1\n          revert\n        tag_27:\n          dup1\n          calldataload\n          swap1\n          0x20\n          add\n          swap2\n          dup5\n          0x01\n          dup4\n          mul\n          dup5\n          add\n          gt\n          0x0100000000\n          dup4\n          gt\n          or\n          iszero\n          tag_28\n          jumpi\n          0x00\n          dup1\n          revert\n        tag_28:\n          swap1\n          swap2\n          swap3\n          swap4\n          swap2\n          swap3\n          swap4\n          swap1\n          dup1\n          calldataload\n          swap1\n          0x20\n          add\n          swap1\n          swap3\n          swap2\n          swap1\n          pop\n          pop\n          pop\n          tag_29\n          jump\t// in\n        tag_21:\n          mload(0x40)\n          dup1\n          dup3\n          iszero\n          iszero\n          iszero\n          iszero\n          dup2\n          mstore\n          0x20\n          add\n          swap2\n          pop\n          pop\n          mload(0x40)\n          dup1\n          swap2\n          sub\n          swap1\n          return\n            /* \"xuanshang/jstask/app/Token.sol\":1244:1619  function mint(string calldata _to, uint256 _value)external{... */\n        tag_12:\n            /* \"xuanshang/jstask/app/Token.sol\":1329:1339  msg.sender */\n          caller\n            /* \"xuanshang/jstask/app/Token.sol\":1320:1339  admin == msg.sender */\n          0xffffffffffffffffffffffffffffffffffffffff\n          and\n            /* \"xuanshang/jstask/app/Token.sol\":1320:1325  admin */\n          0x01\n          0x00\n          swap1\n          sload\n          swap1\n          0x0100\n          exp\n          swap1\n          div\n          0xffffffffffffffffffffffffffffffffffffffff\n          and\n            /* \"xuanshang/jstask/app/Token.sol\":1320:1339  admin == msg.sender */\n          0xffffffffffffffffffffffffffffffffffffffff\n          and\n          eq\n            /* \"xuanshang/jstask/app/Token.sol\":1312:1366  require(admin == msg.sender,\"Only admin can do this!\") */\n          tag_31\n          jumpi\n          mload(0x40)\n          0x08c379a000000000000000000000000000000000000000000000000000000000\n          dup2\n          mstore\n          0x04\n          add\n          dup1\n          dup1\n          0x20\n          add\n          dup3\n          dup2\n          sub\n          dup3\n          mstore\n          0x17\n          dup2\n          mstore\n          0x20\n          add\n          dup1\n          0x4f6e6c792061646d696e2063616e20646f207468697321000000000000000000\n          dup2\n          mstore\n          pop\n          0x20\n          add\n          swap2\n          pop\n          pop\n          mload(0x40)\n          dup1\n          swap2\n          sub\n          swap1\n          revert\n        tag_31:\n            /* \"xuanshang/jstask/app/Token.sol\":1385:1400  _to.isEqual(\"\") */\n          tag_32\n          mload(0x40)\n          dup1\n          0x20\n          add\n          0x40\n          mstore\n          dup1\n          0x00\n          dup2\n          mstore\n          pop\n            /* \"xuanshang/jstask/app/Token.sol\":1385:1388  _to */\n          dup5\n          dup5\n            /* \"xuanshang/jstask/app/Token.sol\":1385:1396  _to.isEqual */\n          dup1\n          dup1\n          0x1f\n          add\n          0x20\n          dup1\n          swap2\n          div\n          mul\n          0x20\n          add\n          mload(0x40)\n          swap1\n          dup2\n          add\n          0x40\n          mstore\n          dup1\n          swap4\n          swap3\n          swap2\n          swap1\n          dup2\n          dup2\n          mstore\n          0x20\n          add\n          dup4\n          dup4\n          dup1\n          dup3\n          dup5\n          calldatacopy\n          0x00\n          dup2\n          dup5\n          add\n          mstore\n          not(0x1f)\n          0x1f\n          dup3\n          add\n          and\n          swap1\n          pop\n          dup1\n          dup4\n          add\n          swap3\n          pop\n          pop\n          pop\n          pop\n          pop\n          pop\n          pop\n          tag_33\n          swap1\n            /* \"xuanshang/jstask/app/Token.sol\":1385:1400  _to.isEqual(\"\") */\n          swap2\n          swap1\n          0xffffffff\n          and\n          jump\t// in\n        tag_32:\n            /* \"xuanshang/jstask/app/Token.sol\":1384:1400  !_to.isEqual(\"\") */\n          iszero\n            /* \"xuanshang/jstask/app/Token.sol\":1376:1419  require(!_to.isEqual(\"\"),\"To must exists.\") */\n          tag_34\n          jumpi\n          mload(0x40)\n          0x08c379a000000000000000000000000000000000000000000000000000000000\n          dup2\n          mstore\n          0x04\n          add\n          dup1\n          dup1\n          0x20\n          add\n          dup3\n          dup2\n          sub\n          dup3\n          mstore\n          0x0f\n          dup2\n          mstore\n          0x20\n          add\n          dup1\n          0x546f206d757374206578697374732e0000000000000000000000000000000000\n          dup2\n          mstore\n          pop\n          0x20\n          add\n          swap2\n          pop\n          pop\n          mload(0x40)\n          dup1\n          swap2\n          sub\n          swap1\n          revert\n        tag_34:\n            /* \"xuanshang/jstask/app/Token.sol\":1446:1447  0 */\n          0x00\n            /* \"xuanshang/jstask/app/Token.sol\":1437:1443  _value */\n          dup2\n            /* \"xuanshang/jstask/app/Token.sol\":1437:1447  _value > 0 */\n          gt\n            /* \"xuanshang/jstask/app/Token.sol\":1429:1466  require(_value > 0,\"Value must > 0.\") */\n          tag_35\n          jumpi\n          mload(0x40)\n          0x08c379a000000000000000000000000000000000000000000000000000000000\n          dup2\n          mstore\n          0x04\n          add\n          dup1\n          dup1\n          0x20\n          add\n          dup3\n          dup2\n          sub\n          dup3\n          mstore\n          0x0f\n          dup2\n          mstore\n          0x20\n          add\n          dup1\n          0x56616c7565206d757374203e20302e0000000000000000000000000000000000\n          dup2\n          mstore\n          pop\n          0x20\n          add\n          swap2\n          pop\n          pop\n          mload(0x40)\n          dup1\n          swap2\n          sub\n          swap1\n          revert\n        tag_35:\n            /* \"xuanshang/jstask/app/Token.sol\":1491:1515  _totalSupply.add(_value) */\n          tag_36\n            /* \"xuanshang/jstask/app/Token.sol\":1508:1514  _value */\n          dup2\n            /* \"xuanshang/jstask/app/Token.sol\":1491:1503  _totalSupply */\n          sload(0x00)\n            /* \"xuanshang/jstask/app/Token.sol\":1491:1507  _totalSupply.add */\n          tag_37\n          swap1\n            /* \"xuanshang/jstask/app/Token.sol\":1491:1515  _totalSupply.add(_value) */\n          swap2\n          swap1\n          0xffffffff\n          and\n          jump\t// in\n        tag_36:\n            /* \"xuanshang/jstask/app/Token.sol\":1476:1488  _totalSupply */\n          0x00\n            /* \"xuanshang/jstask/app/Token.sol\":1476:1515  _totalSupply = _totalSupply.add(_value) */\n          dup2\n          swap1\n          sstore\n          pop\n            /* \"xuanshang/jstask/app/Token.sol\":1542:1568  _balances[_to].add(_value) */\n          tag_38\n            /* \"xuanshang/jstask/app/Token.sol\":1561:1567  _value */\n          dup2\n            /* \"xuanshang/jstask/app/Token.sol\":1542:1551  _balances */\n          0x02\n            /* \"xuanshang/jstask/app/Token.sol\":1552:1555  _to */\n          dup6\n          dup6\n            /* \"xuanshang/jstask/app/Token.sol\":1542:1556  _balances[_to] */\n          mload(0x40)\n          dup1\n          dup4\n          dup4\n          dup1\n          dup3\n          dup5\n          calldatacopy\n          dup1\n          dup4\n          add\n          swap3\n          pop\n          pop\n          pop\n          swap3\n          pop\n          pop\n          pop\n          swap1\n          dup2\n          mstore\n          0x20\n          add\n          mload(0x40)\n          dup1\n          swap2\n          sub\n          swap1\n          keccak256\n          sload\n            /* \"xuanshang/jstask/app/Token.sol\":1542:1560  _balances[_to].add */\n          tag_37\n          swap1\n            /* \"xuanshang/jstask/app/Token.sol\":1542:1568  _balances[_to].add(_value) */\n          swap2\n          swap1\n          0xffffffff\n          and\n          jump\t// in\n        tag_38:\n            /* \"xuanshang/jstask/app/Token.sol\":1525:1534  _balances */\n          0x02\n            /* \"xuanshang/jstask/app/Token.sol\":1535:1538  _to */\n          dup5\n          dup5\n            /* \"xuanshang/jstask/app/Token.sol\":1525:1539  _balances[_to] */\n          mload(0x40)\n          dup1\n          dup4\n          dup4\n          dup1\n          dup3\n          dup5\n          calldatacopy\n          dup1\n          dup4\n          add\n          swap3\n          pop\n          pop\n          pop\n          swap3\n          pop\n          pop\n          pop\n          swap1\n          dup2\n          mstore\n          0x20\n          add\n          mload(0x40)\n          dup1\n          swap2\n          sub\n          swap1\n          keccak256\n            /* \"xuanshang/jstask/app/Token.sol\":1525:1568  _balances[_to] = _balances[_to].add(_value) */\n          dup2\n          swap1\n          sstore\n          pop\n            /* \"xuanshang/jstask/app/Token.sol\":1601:1604  _to */\n          dup3\n          dup3\n            /* \"xuanshang/jstask/app/Token.sol\":1583:1612  Transfer(\"system\",_to,_value) */\n          mload(0x40)\n          dup1\n          dup4\n          dup4\n          dup1\n          dup3\n          dup5\n          calldatacopy\n          dup1\n          dup4\n          add\n          swap3\n          pop\n          pop\n          pop\n          swap3\n          pop\n          pop\n          pop\n          mload(0x40)\n          dup1\n          swap2\n          sub\n          swap1\n          keccak256\n          mload(0x40)\n          dup1\n          dup1\n          0x73797374656d0000000000000000000000000000000000000000000000000000\n          dup2\n          mstore\n          pop\n          0x06\n          add\n          swap1\n          pop\n          mload(0x40)\n          dup1\n          swap2\n          sub\n          swap1\n          keccak256\n          0x5358be4df107be4d9b023fc323f41d7109610225c6ef211b9d375b9fbd7ccc4f\n            /* \"xuanshang/jstask/app/Token.sol\":1605:1611  _value */\n          dup4\n            /* \"xuanshang/jstask/app/Token.sol\":1583:1612  Transfer(\"system\",_to,_value) */\n          mload(0x40)\n          dup1\n          dup3\n          dup2\n          mstore\n          0x20\n          add\n          swap2\n          pop\n          pop\n          mload(0x40)\n          dup1\n          swap2\n          sub\n          swap1\n          log3\n            /* \"xuanshang/jstask/app/Token.sol\":1244:1619  function mint(string calldata _to, uint256 _value)external{... */\n          pop\n          pop\n          pop\n          jump\t// out\n            /* \"xuanshang/jstask/app/Token.sol\":425:523  function totalSupply()override external view returns (uint256){... */\n        tag_14:\n            /* \"xuanshang/jstask/app/Token.sol\":479:486  uint256 */\n          0x00\n            /* \"xuanshang/jstask/app/Token.sol\":504:516  _totalSupply */\n          dup1\n          sload\n            /* \"xuanshang/jstask/app/Token.sol\":497:516  return _totalSupply */\n          swap1\n          pop\n            /* \"xuanshang/jstask/app/Token.sol\":425:523  function totalSupply()override external view returns (uint256){... */\n          swap1\n          jump\t// out\n            /* \"xuanshang/jstask/app/Token.sol\":548:679  function balanceOf(string calldata _owner)override external view returns (uint256 balance){... */\n        tag_20:\n            /* \"xuanshang/jstask/app/Token.sol\":622:637  uint256 balance */\n          0x00\n            /* \"xuanshang/jstask/app/Token.sol\":655:664  _balances */\n          0x02\n            /* \"xuanshang/jstask/app/Token.sol\":665:671  _owner */\n          dup4\n          dup4\n            /* \"xuanshang/jstask/app/Token.sol\":655:672  _balances[_owner] */\n          mload(0x40)\n          dup1\n          dup4\n          dup4\n          dup1\n          dup3\n          dup5\n          calldatacopy\n          dup1\n          dup4\n          add\n          swap3\n          pop\n          pop\n          pop\n          swap3\n          pop\n          pop\n          pop\n          swap1\n          dup2\n          mstore\n          0x20\n          add\n          mload(0x40)\n          dup1\n          swap2\n          sub\n          swap1\n          keccak256\n          sload\n            /* \"xuanshang/jstask/app/Token.sol\":648:672  return _balances[_owner] */\n          swap1\n          pop\n            /* \"xuanshang/jstask/app/Token.sol\":548:679  function balanceOf(string calldata _owner)override external view returns (uint256 balance){... */\n          swap3\n          swap2\n          pop\n          pop\n          jump\t// out\n            /* \"xuanshang/jstask/app/Token.sol\":698:1141  function transfer(string calldata _from,string calldata _to, uint256 _value) external override returns (bool success){... */\n        tag_29:\n            /* \"xuanshang/jstask/app/Token.sol\":802:814  bool success */\n          0x00\n            /* \"xuanshang/jstask/app/Token.sol\":834:849  _to.isEqual(\"\") */\n          tag_42\n          mload(0x40)\n          dup1\n          0x20\n          add\n          0x40\n          mstore\n          dup1\n          0x00\n          dup2\n          mstore\n          pop\n            /* \"xuanshang/jstask/app/Token.sol\":834:837  _to */\n          dup6\n          dup6\n            /* \"xuanshang/jstask/app/Token.sol\":834:845  _to.isEqual */\n          dup1\n          dup1\n          0x1f\n          add\n          0x20\n          dup1\n          swap2\n          div\n          mul\n          0x20\n          add\n          mload(0x40)\n          swap1\n          dup2\n          add\n          0x40\n          mstore\n          dup1\n          swap4\n          swap3\n          swap2\n          swap1\n          dup2\n          dup2\n          mstore\n          0x20\n          add\n          dup4\n          dup4\n          dup1\n          dup3\n          dup5\n          calldatacopy\n          0x00\n          dup2\n          dup5\n          add\n          mstore\n          not(0x1f)\n          0x1f\n          dup3\n          add\n          and\n          swap1\n          pop\n          dup1\n          dup4\n          add\n          swap3\n          pop\n          pop\n          pop\n          pop\n          pop\n          pop\n          pop\n          tag_33\n          swap1\n            /* \"xuanshang/jstask/app/Token.sol\":834:849  _to.isEqual(\"\") */\n          swap2\n          swap1\n          0xffffffff\n          and\n          jump\t// in\n        tag_42:\n            /* \"xuanshang/jstask/app/Token.sol\":833:849  !_to.isEqual(\"\") */\n          iszero\n            /* \"xuanshang/jstask/app/Token.sol\":825:868  require(!_to.isEqual(\"\"),\"To must exists.\") */\n          tag_43\n          jumpi\n          mload(0x40)\n          0x08c379a000000000000000000000000000000000000000000000000000000000\n          dup2\n          mstore\n          0x04\n          add\n          dup1\n          dup1\n          0x20\n          add\n          dup3\n          dup2\n          sub\n          dup3\n          mstore\n          0x0f\n          dup2\n          mstore\n          0x20\n          add\n          dup1\n          0x546f206d757374206578697374732e0000000000000000000000000000000000\n          dup2\n          mstore\n          pop\n          0x20\n          add\n          swap2\n          pop\n          pop\n          mload(0x40)\n          dup1\n          swap2\n          sub\n          swap1\n          revert\n        tag_43:\n            /* \"xuanshang/jstask/app/Token.sol\":895:896  0 */\n          0x00\n            /* \"xuanshang/jstask/app/Token.sol\":886:892  _value */\n          dup3\n            /* \"xuanshang/jstask/app/Token.sol\":886:896  _value > 0 */\n          gt\n            /* \"xuanshang/jstask/app/Token.sol\":878:915  require(_value > 0,\"Value must > 0.\") */\n          tag_44\n          jumpi\n          mload(0x40)\n          0x08c379a000000000000000000000000000000000000000000000000000000000\n          dup2\n          mstore\n          0x04\n          add\n          dup1\n          dup1\n          0x20\n          add\n          dup3\n          dup2\n          sub\n          dup3\n          mstore\n          0x0f\n          dup2\n          mstore\n          0x20\n          add\n          dup1\n          0x56616c7565206d757374203e20302e0000000000000000000000000000000000\n          dup2\n          mstore\n          pop\n          0x20\n          add\n          swap2\n          pop\n          pop\n          mload(0x40)\n          dup1\n          swap2\n          sub\n          swap1\n          revert\n        tag_44:\n            /* \"xuanshang/jstask/app/Token.sol\":953:959  _value */\n          dup2\n            /* \"xuanshang/jstask/app/Token.sol\":933:942  _balances */\n          0x02\n            /* \"xuanshang/jstask/app/Token.sol\":943:948  _from */\n          dup8\n          dup8\n            /* \"xuanshang/jstask/app/Token.sol\":933:949  _balances[_from] */\n          mload(0x40)\n          dup1\n          dup4\n          dup4\n          dup1\n          dup3\n          dup5\n          calldatacopy\n          dup1\n          dup4\n          add\n          swap3\n          pop\n          pop\n          pop\n          swap3\n          pop\n          pop\n          pop\n          swap1\n          dup2\n          mstore\n          0x20\n          add\n          mload(0x40)\n          dup1\n          swap2\n          sub\n          swap1\n          keccak256\n          sload\n            /* \"xuanshang/jstask/app/Token.sol\":933:959  _balances[_from] >= _value */\n          lt\n          iszero\n            /* \"xuanshang/jstask/app/Token.sol\":925:983  require(_balances[_from] >= _value,\"Balance must enough.\") */\n          tag_45\n          jumpi\n          mload(0x40)\n          0x08c379a000000000000000000000000000000000000000000000000000000000\n          dup2\n          mstore\n          0x04\n          add\n          dup1\n          dup1\n          0x20\n          add\n          dup3\n          dup2\n          sub\n          dup3\n          mstore\n          0x14\n          dup2\n          mstore\n          0x20\n          add\n          dup1\n          0x42616c616e6365206d75737420656e6f7567682e000000000000000000000000\n          dup2\n          mstore\n          pop\n          0x20\n          add\n          swap2\n          pop\n          pop\n          mload(0x40)\n          dup1\n          swap2\n          sub\n          swap1\n          revert\n        tag_45:\n            /* \"xuanshang/jstask/app/Token.sol\":1012:1040  _balances[_from].sub(_value) */\n          tag_46\n            /* \"xuanshang/jstask/app/Token.sol\":1033:1039  _value */\n          dup3\n            /* \"xuanshang/jstask/app/Token.sol\":1012:1021  _balances */\n          0x02\n            /* \"xuanshang/jstask/app/Token.sol\":1022:1027  _from */\n          dup9\n          dup9\n            /* \"xuanshang/jstask/app/Token.sol\":1012:1028  _balances[_from] */\n          mload(0x40)\n          dup1\n          dup4\n          dup4\n          dup1\n          dup3\n          dup5\n          calldatacopy\n          dup1\n          dup4\n          add\n          swap3\n          pop\n          pop\n          pop\n          swap3\n          pop\n          pop\n          pop\n          swap1\n          dup2\n          mstore\n          0x20\n          add\n          mload(0x40)\n          dup1\n          swap2\n          sub\n          swap1\n          keccak256\n          sload\n            /* \"xuanshang/jstask/app/Token.sol\":1012:1032  _balances[_from].sub */\n          tag_47\n          swap1\n            /* \"xuanshang/jstask/app/Token.sol\":1012:1040  _balances[_from].sub(_value) */\n          swap2\n          swap1\n          0xffffffff\n          and\n          jump\t// in\n        tag_46:\n            /* \"xuanshang/jstask/app/Token.sol\":993:1002  _balances */\n          0x02\n            /* \"xuanshang/jstask/app/Token.sol\":1003:1008  _from */\n          dup8\n          dup8\n            /* \"xuanshang/jstask/app/Token.sol\":993:1009  _balances[_from] */\n          mload(0x40)\n          dup1\n          dup4\n          dup4\n          dup1\n          dup3\n          dup5\n          calldatacopy\n          dup1\n          dup4\n          add\n          swap3\n          pop\n          pop\n          pop\n          swap3\n          pop\n          pop\n          pop\n          swap1\n          dup2\n          mstore\n          0x20\n          add\n          mload(0x40)\n          dup1\n          swap2\n          sub\n          swap1\n          keccak256\n            /* \"xuanshang/jstask/app/Token.sol\":993:1040  _balances[_from] = _balances[_from].sub(_value) */\n          dup2\n          swap1\n          sstore\n          pop\n            /* \"xuanshang/jstask/app/Token.sol\":1067:1093  _balances[_to].add(_value) */\n          tag_48\n            /* \"xuanshang/jstask/app/Token.sol\":1086:1092  _value */\n          dup3\n            /* \"xuanshang/jstask/app/Token.sol\":1067:1076  _balances */\n          0x02\n            /* \"xuanshang/jstask/app/Token.sol\":1077:1080  _to */\n          dup7\n          dup7\n            /* \"xuanshang/jstask/app/Token.sol\":1067:1081  _balances[_to] */\n          mload(0x40)\n          dup1\n          dup4\n          dup4\n          dup1\n          dup3\n          dup5\n          calldatacopy\n          dup1\n          dup4\n          add\n          swap3\n          pop\n          pop\n          pop\n          swap3\n          pop\n          pop\n          pop\n          swap1\n          dup2\n          mstore\n          0x20\n          add\n          mload(0x40)\n          dup1\n          swap2\n          sub\n          swap1\n          keccak256\n          sload\n            /* \"xuanshang/jstask/app/Token.sol\":1067:1085  _balances[_to].add */\n          tag_37\n          swap1\n            /* \"xuanshang/jstask/app/Token.sol\":1067:1093  _balances[_to].add(_value) */\n          swap2\n          swap1\n          0xffffffff\n          and\n          jump\t// in\n        tag_48:\n            /* \"xuanshang/jstask/app/Token.sol\":1050:1059  _balances */\n          0x02\n            /* \"xuanshang/jstask/app/Token.sol\":1060:1063  _to */\n          dup6\n          dup6\n            /* \"xuanshang/jstask/app/Token.sol\":1050:1064  _balances[_to] */\n          mload(0x40)\n          dup1\n          dup4\n          dup4\n          dup1\n          dup3\n          dup5\n          calldatacopy\n          dup1\n          dup4\n          add\n          swap3\n          pop\n          pop\n          pop\n          swap3\n          pop\n          pop\n          pop\n          swap1\n          dup2\n          mstore\n          0x20\n          add\n          mload(0x40)\n          dup1\n          swap2\n          sub\n          swap1\n          keccak256\n            /* \"xuanshang/jstask/app/Token.sol\":1050:1093  _balances[_to] = _balances[_to].add(_value) */\n          dup2\n          swap1\n          sstore\n          pop\n            /* \"xuanshang/jstask/app/Token.sol\":1123:1126  _to */\n          dup4\n          dup4\n            /* \"xuanshang/jstask/app/Token.sol\":1108:1134  Transfer(_from,_to,_value) */\n          mload(0x40)\n          dup1\n          dup4\n          dup4\n          dup1\n          dup3\n          dup5\n          calldatacopy\n          dup1\n          dup4\n          add\n          swap3\n          pop\n          pop\n          pop\n          swap3\n          pop\n          pop\n          pop\n          mload(0x40)\n          dup1\n          swap2\n          sub\n          swap1\n          keccak256\n            /* \"xuanshang/jstask/app/Token.sol\":1117:1122  _from */\n          dup7\n          dup7\n            /* \"xuanshang/jstask/app/Token.sol\":1108:1134  Transfer(_from,_to,_value) */\n          mload(0x40)\n          dup1\n          dup4\n          dup4\n          dup1\n          dup3\n          dup5\n          calldatacopy\n          dup1\n          dup4\n          add\n          swap3\n          pop\n          pop\n          pop\n          swap3\n          pop\n          pop\n          pop\n          mload(0x40)\n          dup1\n          swap2\n          sub\n          swap1\n          keccak256\n          0x5358be4df107be4d9b023fc323f41d7109610225c6ef211b9d375b9fbd7ccc4f\n            /* \"xuanshang/jstask/app/Token.sol\":1127:1133  _value */\n          dup5\n            /* \"xuanshang/jstask/app/Token.sol\":1108:1134  Transfer(_from,_to,_value) */\n          mload(0x40)\n          dup1\n          dup3\n          dup2\n          mstore\n          0x20\n          add\n          swap2\n          pop\n          pop\n          mload(0x40)\n          dup1\n          swap2\n          sub\n          swap1\n          log3\n            /* \"xuanshang/jstask/app/Token.sol\":698:1141  function transfer(string calldata _from,string calldata _to, uint256 _value) external override returns (bool success){... */\n          swap6\n          swap5\n          pop\n          pop\n          pop\n          pop\n          pop\n          jump\t// out\n            /* \"xuanshang/jstask/app/strings.sol\":82:388  function isEqual(string memory a,string memory b)internal pure returns(bool){... */\n        tag_33:\n            /* \"xuanshang/jstask/app/strings.sol\":153:157  bool */\n          0x00\n            /* \"xuanshang/jstask/app/strings.sol\":260:273  bytes32 hashA */\n          dup1\n            /* \"xuanshang/jstask/app/strings.sol\":297:298  a */\n          dup4\n            /* \"xuanshang/jstask/app/strings.sol\":286:299  abi.encode(a) */\n          add(0x20, mload(0x40))\n          dup1\n          dup1\n          0x20\n          add\n          dup3\n          dup2\n          sub\n          dup3\n          mstore\n          dup4\n          dup2\n          dup2\n          mload\n          dup2\n          mstore\n          0x20\n          add\n          swap2\n          pop\n          dup1\n          mload\n          swap1\n          0x20\n          add\n          swap1\n          dup1\n          dup4\n          dup4\n          0x00\n        tag_50:\n          dup4\n          dup2\n          lt\n          iszero\n          tag_52\n          jumpi\n          dup1\n          dup3\n          add\n          mload\n          dup2\n          dup5\n          add\n          mstore\n          0x20\n          dup2\n          add\n          swap1\n          pop\n          jump(tag_50)\n        tag_52:\n          pop\n          pop\n          pop\n          pop\n          swap1\n          pop\n          swap1\n          dup2\n          add\n          swap1\n          0x1f\n          and\n          dup1\n          iszero\n          tag_53\n          jumpi\n          dup1\n          dup3\n          sub\n          dup1\n          mload\n          0x01\n          dup4\n          0x20\n          sub\n          0x0100\n          exp\n          sub\n          not\n          and\n          dup2\n          mstore\n          0x20\n          add\n          swap2\n          pop\n        tag_53:\n          pop\n          swap3\n          pop\n          pop\n          pop\n          mload(0x40)\n          0x20\n          dup2\n          dup4\n          sub\n          sub\n          dup2\n          mstore\n          swap1\n          0x40\n          mstore\n            /* \"xuanshang/jstask/app/strings.sol\":276:300  keccak256(abi.encode(a)) */\n          dup1\n          mload\n          swap1\n          0x20\n          add\n          keccak256\n            /* \"xuanshang/jstask/app/strings.sol\":260:300  bytes32 hashA = keccak256(abi.encode(a)) */\n          swap1\n          pop\n            /* \"xuanshang/jstask/app/strings.sol\":310:323  bytes32 hashB */\n          0x00\n            /* \"xuanshang/jstask/app/strings.sol\":347:348  b */\n          dup4\n            /* \"xuanshang/jstask/app/strings.sol\":336:349  abi.encode(b) */\n          add(0x20, mload(0x40))\n          dup1\n          dup1\n          0x20\n          add\n          dup3\n          dup2\n          sub\n          dup3\n          mstore\n          dup4\n          dup2\n          dup2\n          mload\n          dup2\n          mstore\n          0x20\n          add\n          swap2\n          pop\n          dup1\n          mload\n          swap1\n          0x20\n          add\n          swap1\n          dup1\n          dup4\n          dup4\n          0x00\n        tag_54:\n          dup4\n          dup2\n          lt\n          iszero\n          tag_56\n          jumpi\n          dup1\n          dup3\n          add\n          mload\n          dup2\n          dup5\n          add\n          mstore\n          0x20\n          dup2\n          add\n          swap1\n          pop\n          jump(tag_54)\n        tag_56:\n          pop\n          pop\n          pop\n          pop\n          swap1\n          pop\n          swap1\n          dup2\n          add\n          swap1\n          0x1f\n          and\n          dup1\n          iszero\n          tag_57\n          jumpi\n          dup1\n          dup3\n          sub\n          dup1\n          mload\n          0x01\n          dup4\n          0x20\n          sub\n          0x0100\n          exp\n          sub\n          not\n          and\n          dup2\n          mstore\n          0x20\n          add\n          swap2\n          pop\n        tag_57:\n          pop\n          swap3\n          pop\n          pop\n          pop\n          mload(0x40)\n          0x20\n          dup2\n          dup4\n          sub\n          sub\n          dup2\n          mstore\n          swap1\n          0x40\n          mstore\n            /* \"xuanshang/jstask/app/strings.sol\":326:350  keccak256(abi.encode(b)) */\n          dup1\n          mload\n          swap1\n          0x20\n          add\n          keccak256\n            /* \"xuanshang/jstask/app/strings.sol\":310:350  bytes32 hashB = keccak256(abi.encode(b)) */\n          swap1\n          pop\n            /* \"xuanshang/jstask/app/strings.sol\":376:381  hashB */\n          dup1\n            /* \"xuanshang/jstask/app/strings.sol\":367:372  hashA */\n          dup3\n            /* \"xuanshang/jstask/app/strings.sol\":367:381  hashA == hashB */\n          eq\n            /* \"xuanshang/jstask/app/strings.sol\":360:381  return hashA == hashB */\n          swap3\n          pop\n          pop\n          pop\n            /* \"xuanshang/jstask/app/strings.sol\":82:388  function isEqual(string memory a,string memory b)internal pure returns(bool){... */\n          swap3\n          swap2\n          pop\n          pop\n          jump\t// out\n            /* \"xuanshang/jstask/app/SafeMath.sol\":1306:1437  function add(uint256 a, uint256 b) internal pure returns (uint256) {... */\n        tag_37:\n            /* \"xuanshang/jstask/app/SafeMath.sol\":1364:1371  uint256 */\n          0x00\n            /* \"xuanshang/jstask/app/SafeMath.sol\":1379:1388  uint256 c */\n          dup1\n            /* \"xuanshang/jstask/app/SafeMath.sol\":1395:1396  b */\n          dup3\n            /* \"xuanshang/jstask/app/SafeMath.sol\":1391:1392  a */\n          dup5\n            /* \"xuanshang/jstask/app/SafeMath.sol\":1391:1396  a + b */\n          add\n            /* \"xuanshang/jstask/app/SafeMath.sol\":1379:1396  uint256 c = a + b */\n          swap1\n          pop\n            /* \"xuanshang/jstask/app/SafeMath.sol\":1415:1416  a */\n          dup4\n            /* \"xuanshang/jstask/app/SafeMath.sol\":1410:1411  c */\n          dup2\n            /* \"xuanshang/jstask/app/SafeMath.sol\":1410:1416  c >= a */\n          lt\n          iszero\n            /* \"xuanshang/jstask/app/SafeMath.sol\":1402:1417  require(c >= a) */\n          tag_59\n          jumpi\n          0x00\n          dup1\n          revert\n        tag_59:\n            /* \"xuanshang/jstask/app/SafeMath.sol\":1431:1432  c */\n          dup1\n            /* \"xuanshang/jstask/app/SafeMath.sol\":1424:1432  return c */\n          swap2\n          pop\n          pop\n            /* \"xuanshang/jstask/app/SafeMath.sol\":1306:1437  function add(uint256 a, uint256 b) internal pure returns (uint256) {... */\n          swap3\n          swap2\n          pop\n          pop\n          jump\t// out\n            /* \"xuanshang/jstask/app/SafeMath.sol\":1112:1243  function sub(uint256 a, uint256 b) internal pure returns (uint256) {... */\n        tag_47:\n            /* \"xuanshang/jstask/app/SafeMath.sol\":1170:1177  uint256 */\n          0x00\n            /* \"xuanshang/jstask/app/SafeMath.sol\":1198:1199  a */\n          dup3\n            /* \"xuanshang/jstask/app/SafeMath.sol\":1193:1194  b */\n          dup3\n            /* \"xuanshang/jstask/app/SafeMath.sol\":1193:1199  b <= a */\n          gt\n          iszero\n            /* \"xuanshang/jstask/app/SafeMath.sol\":1185:1200  require(b <= a) */\n          tag_61\n          jumpi\n          0x00\n          dup1\n          revert\n        tag_61:\n            /* \"xuanshang/jstask/app/SafeMath.sol\":1206:1215  uint256 c */\n          0x00\n            /* \"xuanshang/jstask/app/SafeMath.sol\":1222:1223  b */\n          dup3\n            /* \"xuanshang/jstask/app/SafeMath.sol\":1218:1219  a */\n          dup5\n            /* \"xuanshang/jstask/app/SafeMath.sol\":1218:1223  a - b */\n          sub\n            /* \"xuanshang/jstask/app/SafeMath.sol\":1206:1223  uint256 c = a - b */\n          swap1\n          pop\n            /* \"xuanshang/jstask/app/SafeMath.sol\":1237:1238  c */\n          dup1\n            /* \"xuanshang/jstask/app/SafeMath.sol\":1230:1238  return c */\n          swap2\n          pop\n          pop\n            /* \"xuanshang/jstask/app/SafeMath.sol\":1112:1243  function sub(uint256 a, uint256 b) internal pure returns (uint256) {... */\n          swap3\n          swap2\n          pop\n          pop\n          jump\t// out\n\n        auxdata: 0xa26469706673582212204896e69efbd315f41af338bfa2e6da6216a4239db062b154bc71ae8b1c4a390864736f6c634300060a0033\n    }\n}\n\nsub_2: assembly {\n        /* \"xuanshang/jstask/app/User.sol\":108:1175  contract User is IUSER{... */\n      mstore(0x40, 0x80)\n        /* \"xuanshang/jstask/app/User.sol\":276:330  constructor()public{... */\n      callvalue\n      dup1\n      iszero\n      tag_1\n      jumpi\n      0x00\n      dup1\n      revert\n    tag_1:\n      pop\n        /* \"xuanshang/jstask/app/User.sol\":313:323  msg.sender */\n      caller\n        /* \"xuanshang/jstask/app/User.sol\":305:310  admin */\n      0x01\n      0x00\n        /* \"xuanshang/jstask/app/User.sol\":305:323  admin = msg.sender */\n      0x0100\n      exp\n      dup2\n      sload\n      dup2\n      0xffffffffffffffffffffffffffffffffffffffff\n      mul\n      not\n      and\n      swap1\n      dup4\n      0xffffffffffffffffffffffffffffffffffffffff\n      and\n      mul\n      or\n      swap1\n      sstore\n      pop\n        /* \"xuanshang/jstask/app/User.sol\":108:1175  contract User is IUSER{... */\n      dataSize(sub_0)\n      dup1\n      dataOffset(sub_0)\n      0x00\n      codecopy\n      0x00\n      return\n    stop\n\n    sub_0: assembly {\n            /* \"xuanshang/jstask/app/User.sol\":108:1175  contract User is IUSER{... */\n          mstore(0x40, 0x80)\n          callvalue\n          dup1\n          iszero\n          tag_1\n          jumpi\n          0x00\n          dup1\n          revert\n        tag_1:\n          pop\n          jumpi(tag_2, lt(calldatasize, 0x04))\n          shr(0xe0, calldataload(0x00))\n          dup1\n          0x3ffbd47f\n          eq\n          tag_3\n          jumpi\n          dup1\n          0x58467dbc\n          eq\n          tag_4\n          jumpi\n        tag_2:\n          0x00\n          dup1\n          revert\n            /* \"xuanshang/jstask/app/User.sol\":362:760  function register(string calldata username,string calldata passwd)override external{... */\n        tag_3:\n          tag_5\n          0x04\n          dup1\n          calldatasize\n          sub\n          0x40\n          dup2\n          lt\n          iszero\n          tag_6\n          jumpi\n          0x00\n          dup1\n          revert\n        tag_6:\n          dup2\n          add\n          swap1\n          dup1\n          dup1\n          calldataload\n          swap1\n          0x20\n          add\n          swap1\n          0x0100000000\n          dup2\n          gt\n          iszero\n          tag_7\n          jumpi\n          0x00\n          dup1\n          revert\n        tag_7:\n          dup3\n          add\n          dup4\n          0x20\n          dup3\n          add\n          gt\n          iszero\n          tag_8\n          jumpi\n          0x00\n          dup1\n          revert\n        tag_8:\n          dup1\n          calldataload\n          swap1\n          0x20\n          add\n          swap2\n          dup5\n          0x01\n          dup4\n          mul\n          dup5\n          add\n          gt\n          0x0100000000\n          dup4\n          gt\n          or\n          iszero\n          tag_9\n          jumpi\n          0x00\n          dup1\n          revert\n        tag_9:\n          swap1\n          swap2\n          swap3\n          swap4\n          swap2\n          swap3\n          swap4\n          swap1\n          dup1\n          calldataload\n          swap1\n          0x20\n          add\n          swap1\n          0x0100000000\n          dup2\n          gt\n          iszero\n          tag_10\n          jumpi\n          0x00\n          dup1\n          revert\n        tag_10:\n          dup3\n          add\n          dup4\n          0x20\n          dup3\n          add\n          gt\n          iszero\n          tag_11\n          jumpi\n          0x00\n          dup1\n          revert\n        tag_11:\n          dup1\n          calldataload\n          swap1\n          0x20\n          add\n          swap2\n          dup5\n          0x01\n          dup4\n          mul\n          dup5\n          add\n          gt\n          0x0100000000\n          dup4\n          gt\n          or\n          iszero\n          tag_12\n          jumpi\n          0x00\n          dup1\n          revert\n        tag_12:\n          swap1\n          swap2\n          swap3\n          swap4\n          swap2\n          swap3\n          swap4\n          swap1\n          pop\n          pop\n          pop\n          tag_13\n          jump\t// in\n        tag_5:\n          stop\n            /* \"xuanshang/jstask/app/User.sol\":791:1173  function login(string calldata username,string calldata passwd)override external view returns(bool){... */\n        tag_4:\n          tag_14\n          0x04\n          dup1\n          calldatasize\n          sub\n          0x40\n          dup2\n          lt\n          iszero\n          tag_15\n          jumpi\n          0x00\n          dup1\n          revert\n        tag_15:\n          dup2\n          add\n          swap1\n          dup1\n          dup1\n          calldataload\n          swap1\n          0x20\n          add\n          swap1\n          0x0100000000\n          dup2\n          gt\n          iszero\n          tag_16\n          jumpi\n          0x00\n          dup1\n          revert\n        tag_16:\n          dup3\n          add\n          dup4\n          0x20\n          dup3\n          add\n          gt\n          iszero\n          tag_17\n          jumpi\n          0x00\n          dup1\n          revert\n        tag_17:\n          dup1\n          calldataload\n          swap1\n          0x20\n          add\n          swap2\n          dup5\n          0x01\n          dup4\n          mul\n          dup5\n          add\n          gt\n          0x0100000000\n          dup4\n          gt\n          or\n          iszero\n          tag_18\n          jumpi\n          0x00\n          dup1\n          revert\n        tag_18:\n          swap1\n          swap2\n          swap3\n          swap4\n          swap2\n          swap3\n          swap4\n          swap1\n          dup1\n          calldataload\n          swap1\n          0x20\n          add\n          swap1\n          0x0100000000\n          dup2\n          gt\n          iszero\n          tag_19\n          jumpi\n          0x00\n          dup1\n          revert\n        tag_19:\n          dup3\n          add\n          dup4\n          0x20\n          dup3\n          add\n          gt\n          iszero\n          tag_20\n          jumpi\n          0x00\n          dup1\n          revert\n        tag_20:\n          dup1\n          calldataload\n          swap1\n          0x20\n          add\n          swap2\n          dup5\n          0x01\n          dup4\n          mul\n          dup5\n          add\n          gt\n          0x0100000000\n          dup4\n          gt\n          or\n          iszero\n          tag_21\n          jumpi\n          0x00\n          dup1\n          revert\n        tag_21:\n          swap1\n          swap2\n          swap3\n          swap4\n          swap2\n          swap3\n          swap4\n          swap1\n          pop\n          pop\n          pop\n          tag_22\n          jump\t// in\n        tag_14:\n          mload(0x40)\n          dup1\n          dup3\n          iszero\n          iszero\n          iszero\n          iszero\n          dup2\n          mstore\n          0x20\n          add\n          swap2\n          pop\n          pop\n          mload(0x40)\n          dup1\n          swap2\n          sub\n          swap1\n          return\n            /* \"xuanshang/jstask/app/User.sol\":362:760  function register(string calldata username,string calldata passwd)override external{... */\n        tag_13:\n            /* \"xuanshang/jstask/app/User.sol\":539:559  username.isEqual(\"\") */\n          tag_24\n          mload(0x40)\n          dup1\n          0x20\n          add\n          0x40\n          mstore\n          dup1\n          0x00\n          dup2\n          mstore\n          pop\n            /* \"xuanshang/jstask/app/User.sol\":539:547  username */\n          dup6\n          dup6\n            /* \"xuanshang/jstask/app/User.sol\":539:555  username.isEqual */\n          dup1\n          dup1\n          0x1f\n          add\n          0x20\n          dup1\n          swap2\n          div\n          mul\n          0x20\n          add\n          mload(0x40)\n          swap1\n          dup2\n          add\n          0x40\n          mstore\n          dup1\n          swap4\n          swap3\n          swap2\n          swap1\n          dup2\n          dup2\n          mstore\n          0x20\n          add\n          dup4\n          dup4\n          dup1\n          dup3\n          dup5\n          calldatacopy\n          0x00\n          dup2\n          dup5\n          add\n          mstore\n          not(0x1f)\n          0x1f\n          dup3\n          add\n          and\n          swap1\n          pop\n          dup1\n          dup4\n          add\n          swap3\n          pop\n          pop\n          pop\n          pop\n          pop\n          pop\n          pop\n          tag_25\n          swap1\n            /* \"xuanshang/jstask/app/User.sol\":539:559  username.isEqual(\"\") */\n          swap2\n          swap1\n          0xffffffff\n          and\n          jump\t// in\n        tag_24:\n            /* \"xuanshang/jstask/app/User.sol\":538:559  !username.isEqual(\"\") */\n          iszero\n            /* \"xuanshang/jstask/app/User.sol\":530:586  require(!username.isEqual(\"\"),\"Username must not null.\") */\n          tag_26\n          jumpi\n          mload(0x40)\n          0x08c379a000000000000000000000000000000000000000000000000000000000\n          dup2\n          mstore\n          0x04\n          add\n          dup1\n          dup1\n          0x20\n          add\n          dup3\n          dup2\n          sub\n          dup3\n          mstore\n          0x17\n          dup2\n          mstore\n          0x20\n          add\n          dup1\n          0x557365726e616d65206d757374206e6f74206e756c6c2e000000000000000000\n          dup2\n          mstore\n          pop\n          0x20\n          add\n          swap2\n          pop\n          pop\n          mload(0x40)\n          dup1\n          swap2\n          sub\n          swap1\n          revert\n        tag_26:\n            /* \"xuanshang/jstask/app/User.sol\":605:623  passwd.isEqual(\"\") */\n          tag_27\n          mload(0x40)\n          dup1\n          0x20\n          add\n          0x40\n          mstore\n          dup1\n          0x00\n          dup2\n          mstore\n          pop\n            /* \"xuanshang/jstask/app/User.sol\":605:611  passwd */\n          dup4\n          dup4\n            /* \"xuanshang/jstask/app/User.sol\":605:619  passwd.isEqual */\n          dup1\n          dup1\n          0x1f\n          add\n          0x20\n          dup1\n          swap2\n          div\n          mul\n          0x20\n          add\n          mload(0x40)\n          swap1\n          dup2\n          add\n          0x40\n          mstore\n          dup1\n          swap4\n          swap3\n          swap2\n          swap1\n          dup2\n          dup2\n          mstore\n          0x20\n          add\n          dup4\n          dup4\n          dup1\n          dup3\n          dup5\n          calldatacopy\n          0x00\n          dup2\n          dup5\n          add\n          mstore\n          not(0x1f)\n          0x1f\n          dup3\n          add\n          and\n          swap1\n          pop\n          dup1\n          dup4\n          add\n          swap3\n          pop\n          pop\n          pop\n          pop\n          pop\n          pop\n          pop\n          tag_25\n          swap1\n            /* \"xuanshang/jstask/app/User.sol\":605:623  passwd.isEqual(\"\") */\n          swap2\n          swap1\n          0xffffffff\n          and\n          jump\t// in\n        tag_27:\n            /* \"xuanshang/jstask/app/User.sol\":604:623  !passwd.isEqual(\"\") */\n          iszero\n            /* \"xuanshang/jstask/app/User.sol\":596:648  require(!passwd.isEqual(\"\"),\"Passwd must not null.\") */\n          tag_28\n          jumpi\n          mload(0x40)\n          0x08c379a000000000000000000000000000000000000000000000000000000000\n          dup2\n          mstore\n          0x04\n          add\n          dup1\n          dup1\n          0x20\n          add\n          dup3\n          dup2\n          sub\n          dup3\n          mstore\n          0x15\n          dup2\n          mstore\n          0x20\n          add\n          dup1\n          0x506173737764206d757374206e6f74206e756c6c2e0000000000000000000000\n          dup2\n          mstore\n          pop\n          0x20\n          add\n          swap2\n          pop\n          pop\n          mload(0x40)\n          dup1\n          swap2\n          sub\n          swap1\n          revert\n        tag_28:\n            /* \"xuanshang/jstask/app/User.sol\":666:694  _users[username].isEqual(\"\") */\n          tag_29\n          mload(0x40)\n          dup1\n          0x20\n          add\n          0x40\n          mstore\n          dup1\n          0x00\n          dup2\n          mstore\n          pop\n            /* \"xuanshang/jstask/app/User.sol\":666:672  _users */\n          0x00\n            /* \"xuanshang/jstask/app/User.sol\":673:681  username */\n          dup7\n          dup7\n            /* \"xuanshang/jstask/app/User.sol\":666:682  _users[username] */\n          mload(0x40)\n          dup1\n          dup4\n          dup4\n          dup1\n          dup3\n          dup5\n          calldatacopy\n          dup1\n          dup4\n          add\n          swap3\n          pop\n          pop\n          pop\n          swap3\n          pop\n          pop\n          pop\n          swap1\n          dup2\n          mstore\n          0x20\n          add\n          mload(0x40)\n          dup1\n          swap2\n          sub\n          swap1\n          keccak256\n            /* \"xuanshang/jstask/app/User.sol\":666:690  _users[username].isEqual */\n          dup1\n          sload\n          0x01\n          dup2\n          0x01\n          and\n          iszero\n          0x0100\n          mul\n          sub\n          and\n          0x02\n          swap1\n          div\n          dup1\n          0x1f\n          add\n          0x20\n          dup1\n          swap2\n          div\n          mul\n          0x20\n          add\n          mload(0x40)\n          swap1\n          dup2\n          add\n          0x40\n          mstore\n          dup1\n          swap3\n          swap2\n          swap1\n          dup2\n          dup2\n          mstore\n          0x20\n          add\n          dup3\n          dup1\n          sload\n          0x01\n          dup2\n          0x01\n          and\n          iszero\n          0x0100\n          mul\n          sub\n          and\n          0x02\n          swap1\n          div\n          dup1\n          iszero\n          tag_30\n          jumpi\n          dup1\n          0x1f\n          lt\n          tag_31\n          jumpi\n          0x0100\n          dup1\n          dup4\n          sload\n          div\n          mul\n          dup4\n          mstore\n          swap2\n          0x20\n          add\n          swap2\n          jump(tag_30)\n        tag_31:\n          dup3\n          add\n          swap2\n          swap1\n          0x00\n          mstore\n          keccak256(0x00, 0x20)\n          swap1\n        tag_32:\n          dup2\n          sload\n          dup2\n          mstore\n          swap1\n          0x01\n          add\n          swap1\n          0x20\n          add\n          dup1\n          dup4\n          gt\n          tag_32\n          jumpi\n          dup3\n          swap1\n          sub\n          0x1f\n          and\n          dup3\n          add\n          swap2\n        tag_30:\n          pop\n          pop\n          pop\n          pop\n          pop\n          tag_25\n          swap1\n            /* \"xuanshang/jstask/app/User.sol\":666:694  _users[username].isEqual(\"\") */\n          swap2\n          swap1\n          0xffffffff\n          and\n          jump\t// in\n        tag_29:\n            /* \"xuanshang/jstask/app/User.sol\":658:718  require(_users[username].isEqual(\"\"),\"User must not exist.\") */\n          tag_33\n          jumpi\n          mload(0x40)\n          0x08c379a000000000000000000000000000000000000000000000000000000000\n          dup2\n          mstore\n          0x04\n          add\n          dup1\n          dup1\n          0x20\n          add\n          dup3\n          dup2\n          sub\n          dup3\n          mstore\n          0x14\n          dup2\n          mstore\n          0x20\n          add\n          dup1\n          0x55736572206d757374206e6f742065786973742e000000000000000000000000\n          dup2\n          mstore\n          pop\n          0x20\n          add\n          swap2\n          pop\n          pop\n          mload(0x40)\n          dup1\n          swap2\n          sub\n          swap1\n          revert\n        tag_33:\n            /* \"xuanshang/jstask/app/User.sol\":747:753  passwd */\n          dup2\n          dup2\n            /* \"xuanshang/jstask/app/User.sol\":728:734  _users */\n          0x00\n            /* \"xuanshang/jstask/app/User.sol\":735:743  username */\n          dup7\n          dup7\n            /* \"xuanshang/jstask/app/User.sol\":728:744  _users[username] */\n          mload(0x40)\n          dup1\n          dup4\n          dup4\n          dup1\n          dup3\n          dup5\n          calldatacopy\n          dup1\n          dup4\n          add\n          swap3\n          pop\n          pop\n          pop\n          swap3\n          pop\n          pop\n          pop\n          swap1\n          dup2\n          mstore\n          0x20\n          add\n          mload(0x40)\n          dup1\n          swap2\n          sub\n          swap1\n          keccak256\n            /* \"xuanshang/jstask/app/User.sol\":728:753  _users[username] = passwd */\n          swap2\n          swap1\n          tag_34\n          swap3\n          swap2\n          swap1\n          tag_35\n          jump\t// in\n        tag_34:\n          pop\n            /* \"xuanshang/jstask/app/User.sol\":362:760  function register(string calldata username,string calldata passwd)override external{... */\n          pop\n          pop\n          pop\n          pop\n          jump\t// out\n            /* \"xuanshang/jstask/app/User.sol\":791:1173  function login(string calldata username,string calldata passwd)override external view returns(bool){... */\n        tag_22:\n            /* \"xuanshang/jstask/app/User.sol\":885:889  bool */\n          0x00\n            /* \"xuanshang/jstask/app/User.sol\":1038:1058  username.isEqual(\"\") */\n          tag_37\n          mload(0x40)\n          dup1\n          0x20\n          add\n          0x40\n          mstore\n          dup1\n          0x00\n          dup2\n          mstore\n          pop\n            /* \"xuanshang/jstask/app/User.sol\":1038:1046  username */\n          dup7\n          dup7\n            /* \"xuanshang/jstask/app/User.sol\":1038:1054  username.isEqual */\n          dup1\n          dup1\n          0x1f\n          add\n          0x20\n          dup1\n          swap2\n          div\n          mul\n          0x20\n          add\n          mload(0x40)\n          swap1\n          dup2\n          add\n          0x40\n          mstore\n          dup1\n          swap4\n          swap3\n          swap2\n          swap1\n          dup2\n          dup2\n          mstore\n          0x20\n          add\n          dup4\n          dup4\n          dup1\n          dup3\n          dup5\n          calldatacopy\n          0x00\n          dup2\n          dup5\n          add\n          mstore\n          not(0x1f)\n          0x1f\n          dup3\n          add\n          and\n          swap1\n          pop\n          dup1\n          dup4\n          add\n          swap3\n          pop\n          pop\n          pop\n          pop\n          pop\n          pop\n          pop\n          tag_25\n          swap1\n            /* \"xuanshang/jstask/app/User.sol\":1038:1058  username.isEqual(\"\") */\n          swap2\n          swap1\n          0xffffffff\n          and\n          jump\t// in\n        tag_37:\n            /* \"xuanshang/jstask/app/User.sol\":1038:1080  username.isEqual(\"\") || passwd.isEqual(\"\") */\n          dup1\n          tag_38\n          jumpi\n          pop\n            /* \"xuanshang/jstask/app/User.sol\":1062:1080  passwd.isEqual(\"\") */\n          tag_39\n          mload(0x40)\n          dup1\n          0x20\n          add\n          0x40\n          mstore\n          dup1\n          0x00\n          dup2\n          mstore\n          pop\n            /* \"xuanshang/jstask/app/User.sol\":1062:1068  passwd */\n          dup5\n          dup5\n            /* \"xuanshang/jstask/app/User.sol\":1062:1076  passwd.isEqual */\n          dup1\n          dup1\n          0x1f\n          add\n          0x20\n          dup1\n          swap2\n          div\n          mul\n          0x20\n          add\n          mload(0x40)\n          swap1\n          dup2\n          add\n          0x40\n          mstore\n          dup1\n          swap4\n          swap3\n          swap2\n          swap1\n          dup2\n          dup2\n          mstore\n          0x20\n          add\n          dup4\n          dup4\n          dup1\n          dup3\n          dup5\n          calldatacopy\n          0x00\n          dup2\n          dup5\n          add\n          mstore\n          not(0x1f)\n          0x1f\n          dup3\n          add\n          and\n          swap1\n          pop\n          dup1\n          dup4\n          add\n          swap3\n          pop\n          pop\n          pop\n          pop\n          pop\n          pop\n          pop\n          tag_25\n          swap1\n            /* \"xuanshang/jstask/app/User.sol\":1062:1080  passwd.isEqual(\"\") */\n          swap2\n          swap1\n          0xffffffff\n          and\n          jump\t// in\n        tag_39:\n            /* \"xuanshang/jstask/app/User.sol\":1038:1080  username.isEqual(\"\") || passwd.isEqual(\"\") */\n        tag_38:\n            /* \"xuanshang/jstask/app/User.sol\":1034:1118  if (username.isEqual(\"\") || passwd.isEqual(\"\")){... */\n          iszero\n          tag_40\n          jumpi\n            /* \"xuanshang/jstask/app/User.sol\":1102:1107  false */\n          0x00\n            /* \"xuanshang/jstask/app/User.sol\":1095:1107  return false */\n          swap1\n          pop\n          jump(tag_36)\n            /* \"xuanshang/jstask/app/User.sol\":1034:1118  if (username.isEqual(\"\") || passwd.isEqual(\"\")){... */\n        tag_40:\n            /* \"xuanshang/jstask/app/User.sol\":1134:1166  _users[username].isEqual(passwd) */\n          tag_41\n            /* \"xuanshang/jstask/app/User.sol\":1159:1165  passwd */\n          dup4\n          dup4\n            /* \"xuanshang/jstask/app/User.sol\":1134:1166  _users[username].isEqual(passwd) */\n          dup1\n          dup1\n          0x1f\n          add\n          0x20\n          dup1\n          swap2\n          div\n          mul\n          0x20\n          add\n          mload(0x40)\n          swap1\n          dup2\n          add\n          0x40\n          mstore\n          dup1\n          swap4\n          swap3\n          swap2\n          swap1\n          dup2\n          dup2\n          mstore\n          0x20\n          add\n          dup4\n          dup4\n          dup1\n          dup3\n          dup5\n          calldatacopy\n          0x00\n          dup2\n          dup5\n          add\n          mstore\n          not(0x1f)\n          0x1f\n          dup3\n          add\n          and\n          swap1\n          pop\n          dup1\n          dup4\n          add\n          swap3\n          pop\n          pop\n          pop\n          pop\n          pop\n          pop\n          pop\n            /* \"xuanshang/jstask/app/User.sol\":1134:1140  _users */\n          0x00\n            /* \"xuanshang/jstask/app/User.sol\":1141:1149  username */\n          dup8\n          dup8\n            /* \"xuanshang/jstask/app/User.sol\":1134:1150  _users[username] */\n          mload(0x40)\n          dup1\n          dup4\n          dup4\n          dup1\n          dup3\n          dup5\n          calldatacopy\n          dup1\n          dup4\n          add\n          swap3\n          pop\n          pop\n          pop\n          swap3\n          pop\n          pop\n          pop\n          swap1\n          dup2\n          mstore\n          0x20\n          add\n          mload(0x40)\n          dup1\n          swap2\n          sub\n          swap1\n          keccak256\n            /* \"xuanshang/jstask/app/User.sol\":1134:1158  _users[username].isEqual */\n          dup1\n          sload\n          0x01\n          dup2\n          0x01\n          and\n          iszero\n          0x0100\n          mul\n          sub\n          and\n          0x02\n          swap1\n          div\n          dup1\n          0x1f\n          add\n          0x20\n          dup1\n          swap2\n          div\n          mul\n          0x20\n          add\n          mload(0x40)\n          swap1\n          dup2\n          add\n          0x40\n          mstore\n          dup1\n          swap3\n          swap2\n          swap1\n          dup2\n          dup2\n          mstore\n          0x20\n          add\n          dup3\n          dup1\n          sload\n          0x01\n          dup2\n          0x01\n          and\n          iszero\n          0x0100\n          mul\n          sub\n          and\n          0x02\n          swap1\n          div\n          dup1\n          iszero\n          tag_42\n          jumpi\n          dup1\n          0x1f\n          lt\n          tag_43\n          jumpi\n          0x0100\n          dup1\n          dup4\n          sload\n          div\n          mul\n          dup4\n          mstore\n          swap2\n          0x20\n          add\n          swap2\n          jump(tag_42)\n        tag_43:\n          dup3\n          add\n          swap2\n          swap1\n          0x00\n          mstore\n          keccak256(0x00, 0x20)\n          swap1\n        tag_44:\n          dup2\n          sload\n          dup2\n          mstore\n          swap1\n          0x01\n          add\n          swap1\n          0x20\n          add\n          dup1\n          dup4\n          gt\n          tag_44\n          jumpi\n          dup3\n          swap1\n          sub\n          0x1f\n          and\n          dup3\n          add\n          swap2\n        tag_42:\n          pop\n          pop\n          pop\n          pop\n          pop\n          tag_25\n          swap1\n            /* \"xuanshang/jstask/app/User.sol\":1134:1166  _users[username].isEqual(passwd) */\n          swap2\n          swap1\n          0xffffffff\n          and\n          jump\t// in\n        tag_41:\n            /* \"xuanshang/jstask/app/User.sol\":1127:1166  return _users[username].isEqual(passwd) */\n          swap1\n          pop\n            /* \"xuanshang/jstask/app/User.sol\":791:1173  function login(string calldata username,string calldata passwd)override external view returns(bool){... */\n        tag_36:\n          swap5\n          swap4\n          pop\n          pop\n          pop\n          pop\n          jump\t// out\n            /* \"xuanshang/jstask/app/strings.sol\":82:388  function isEqual(string memory a,string memory b)internal pure returns(bool){... */\n        tag_25:\n            /* \"xuanshang/jstask/app/strings.sol\":153:157  bool */\n          0x00\n            /* \"xuanshang/jstask/app/strings.sol\":260:273  bytes32 hashA */\n          dup1\n            /* \"xuanshang/jstask/app/strings.sol\":297:298  a */\n          dup4\n            /* \"xuanshang/jstask/app/strings.sol\":286:299  abi.encode(a) */\n          add(0x20, mload(0x40))\n          dup1\n          dup1\n          0x20\n          add\n          dup3\n          dup2\n          sub\n          dup3\n          mstore\n          dup4\n          dup2\n          dup2\n          mload\n          dup2\n          mstore\n          0x20\n          add\n          swap2\n          pop\n          dup1\n          mload\n          swap1\n          0x20\n          add\n          swap1\n          dup1\n          dup4\n          dup4\n          0x00\n        tag_46:\n          dup4\n          dup2\n          lt\n          iszero\n          tag_48\n          jumpi\n          dup1\n          dup3\n          add\n          mload\n          dup2\n          dup5\n          add\n          mstore\n          0x20\n          dup2\n          add\n          swap1\n          pop\n          jump(tag_46)\n        tag_48:\n          pop\n          pop\n          pop\n          pop\n          swap1\n          pop\n          swap1\n          dup2\n          add\n          swap1\n          0x1f\n          and\n          dup1\n          iszero\n          tag_49\n          jumpi\n          dup1\n          dup3\n          sub\n          dup1\n          mload\n          0x01\n          dup4\n          0x20\n          sub\n          0x0100\n          exp\n          sub\n          not\n          and\n          dup2\n          mstore\n          0x20\n          add\n          swap2\n          pop\n        tag_49:\n          pop\n          swap3\n          pop\n          pop\n          pop\n          mload(0x40)\n          0x20\n          dup2\n          dup4\n          sub\n          sub\n          dup2\n          mstore\n          swap1\n          0x40\n          mstore\n            /* \"xuanshang/jstask/app/strings.sol\":276:300  keccak256(abi.encode(a)) */\n          dup1\n          mload\n          swap1\n          0x20\n          add\n          keccak256\n            /* \"xuanshang/jstask/app/strings.sol\":260:300  bytes32 hashA = keccak256(abi.encode(a)) */\n          swap1\n          pop\n            /* \"xuanshang/jstask/app/strings.sol\":310:323  bytes32 hashB */\n          0x00\n            /* \"xuanshang/jstask/app/strings.sol\":347:348  b */\n          dup4\n            /* \"xuanshang/jstask/app/strings.sol\":336:349  abi.encode(b) */\n          add(0x20, mload(0x40))\n          dup1\n          dup1\n          0x20\n          add\n          dup3\n          dup2\n          sub\n          dup3\n          mstore\n          dup4\n          dup2\n          dup2\n          mload\n          dup2\n          mstore\n          0x20\n          add\n          swap2\n          pop\n          dup1\n          mload\n          swap1\n          0x20\n          add\n          swap1\n          dup1\n          dup4\n          dup4\n          0x00\n        tag_50:\n          dup4\n          dup2\n          lt\n          iszero\n          tag_52\n          jumpi\n          dup1\n          dup3\n          add\n          mload\n          dup2\n          dup5\n          add\n          mstore\n          0x20\n          dup2\n          add\n          swap1\n          pop\n          jump(tag_50)\n        tag_52:\n          pop\n          pop\n          pop\n          pop\n          swap1\n          pop\n          swap1\n          dup2\n          add\n          swap1\n          0x1f\n          and\n          dup1\n          iszero\n          tag_53\n          jumpi\n          dup1\n          dup3\n          sub\n          dup1\n          mload\n          0x01\n          dup4\n          0x20\n          sub\n          0x0100\n          exp\n          sub\n          not\n          and\n          dup2\n          mstore\n          0x20\n          add\n          swap2\n          pop\n        tag_53:\n          pop\n          swap3\n          pop\n          pop\n          pop\n          mload(0x40)\n          0x20\n          dup2\n          dup4\n          sub\n          sub\n          dup2\n          mstore\n          swap1\n          0x40\n          mstore\n            /* \"xuanshang/jstask/app/strings.sol\":326:350  keccak256(abi.encode(b)) */\n          dup1\n          mload\n          swap1\n          0x20\n          add\n          keccak256\n            /* \"xuanshang/jstask/app/strings.sol\":310:350  bytes32 hashB = keccak256(abi.encode(b)) */\n          swap1\n          pop\n            /* \"xuanshang/jstask/app/strings.sol\":376:381  hashB */\n          dup1\n            /* \"xuanshang/jstask/app/strings.sol\":367:372  hashA */\n          dup3\n            /* \"xuanshang/jstask/app/strings.sol\":367:381  hashA == hashB */\n          eq\n            /* \"xuanshang/jstask/app/strings.sol\":360:381  return hashA == hashB */\n          swap3\n          pop\n          pop\n          pop\n            /* \"xuanshang/jstask/app/strings.sol\":82:388  function isEqual(string memory a,string memory b)internal pure returns(bool){... */\n          swap3\n          swap2\n          pop\n          pop\n          jump\t// out\n        tag_35:\n          dup3\n          dup1\n          sload\n          0x01\n          dup2\n          0x01\n          and\n          iszero\n          0x0100\n          mul\n          sub\n          and\n          0x02\n          swap1\n          div\n          swap1\n          0x00\n          mstore\n          keccak256(0x00, 0x20)\n          swap1\n          0x1f\n          add\n          0x20\n          swap1\n          div\n          dup2\n          add\n          swap3\n          dup3\n          0x1f\n          lt\n          tag_55\n          jumpi\n          dup1\n          calldataload\n          not(0xff)\n          and\n          dup4\n          dup1\n          add\n          or\n          dup6\n          sstore\n          jump(tag_54)\n        tag_55:\n          dup3\n          dup1\n          add\n          0x01\n          add\n          dup6\n          sstore\n          dup3\n          iszero\n          tag_54\n          jumpi\n          swap2\n          dup3\n          add\n        tag_56:\n          dup3\n          dup2\n          gt\n          iszero\n          tag_57\n          jumpi\n          dup3\n          calldataload\n          dup3\n          sstore\n          swap2\n          0x20\n          add\n          swap2\n          swap1\n          0x01\n          add\n          swap1\n          jump(tag_56)\n        tag_57:\n        tag_54:\n          pop\n          swap1\n          pop\n          tag_58\n          swap2\n          swap1\n          tag_59\n          jump\t// in\n        tag_58:\n          pop\n          swap1\n          jump\t// out\n        tag_59:\n          tag_60\n          swap2\n          swap1\n        tag_61:\n          dup1\n          dup3\n          gt\n          iszero\n          tag_62\n          jumpi\n          0x00\n          dup2\n          0x00\n          swap1\n          sstore\n          pop\n          0x01\n          add\n          jump(tag_61)\n        tag_62:\n          pop\n          swap1\n          jump\n        tag_60:\n          swap1\n          jump\t// out\n\n        auxdata: 0xa2646970667358221220a2bad42c5c336f7b6c8983a4480e6e24951aee101baabac458e1bb09f3f8a13d64736f6c634300060a0033\n    }\n}\n",
				"bytecode": {
					"linkReferences": {},
					"object": "60806040523480156200001157600080fd5b506040516200423d3803806200423d8339818101604052810190620000379190620001ca565b33600260006101000a81548173ffffffffffffffffffffffffffffffffffffffff021916908373ffffffffffffffffffffffffffffffffffffffff16021790555080600360006101000a81548173ffffffffffffffffffffffffffffffffffffffff021916908373ffffffffffffffffffffffffffffffffffffffff160217905550604051620000c79062000197565b604051809103906000f080158015620000e4573d6000803e3d6000fd5b506000806101000a81548173ffffffffffffffffffffffffffffffffffffffff021916908373ffffffffffffffffffffffffffffffffffffffff1602179055506040516200013290620001a5565b604051809103906000f0801580156200014f573d6000803e3d6000fd5b50600160006101000a81548173ffffffffffffffffffffffffffffffffffffffff021916908373ffffffffffffffffffffffffffffffffffffffff1602179055505062000244565b610b0e8062002d9083390190565b61099f806200389e83390190565b600081519050620001c4816200022a565b92915050565b600060208284031215620001dd57600080fd5b6000620001ed84828501620001b3565b91505092915050565b600062000203826200020a565b9050919050565b600073ffffffffffffffffffffffffffffffffffffffff82169050919050565b6200023581620001f6565b81146200024157600080fd5b50565b612b3c80620002546000396000f3fe608060405234801561001057600080fd5b50600436106100b45760003560e01c8063679a5e1411610071578063679a5e141461018b57806389dc99d2146101a75780638a3f7bb3146101c35780639b3add75146101e15780639b80b05014610215578063fc18cb6214610245576100b4565b8063056b01ce146100b957806318160ddd146100d557806335ee5f87146100f35780633ffbd47f1461012357806358467dbc1461013f5780635b4c0b541461016f575b600080fd5b6100d360048036038101906100ce9190612050565b610261565b005b6100dd6103de565b6040516100ea91906129b5565b60405180910390f35b61010d60048036038101906101089190611d88565b610484565b60405161011a91906129b5565b60405180910390f35b61013d60048036038101906101389190611dcd565b61053a565b005b61015960048036038101906101549190611dcd565b6105d3565b604051610166919061268f565b60405180910390f35b61018960048036038101906101849190611efb565b610690565b005b6101a560048036038101906101a09190611e42565b6108bf565b005b6101c160048036038101906101bc9190611efb565b610ca8565b005b6101cb610ff5565b6040516101d8919061266d565b60405180910390f35b6101fb60048036038101906101f691906120a8565b61130d565b60405161020c9594939291906127ed565b60405180910390f35b61022f600480360381019061022a9190611efb565b6115a2565b60405161023c919061268f565b60405180910390f35b61025f600480360381019061025a9190611f84565b611662565b005b3373ffffffffffffffffffffffffffffffffffffffff16600260009054906101000a900473ffffffffffffffffffffffffffffffffffffffff1673ffffffffffffffffffffffffffffffffffffffff16148061030a57503373ffffffffffffffffffffffffffffffffffffffff16600360009054906101000a900473ffffffffffffffffffffffffffffffffffffffff1673ffffffffffffffffffffffffffffffffffffffff16145b610349576040517f08c379a000000000000000000000000000000000000000000000000000000000815260040161034090612955565b60405180910390fd5b6000809054906101000a900473ffffffffffffffffffffffffffffffffffffffff1673ffffffffffffffffffffffffffffffffffffffff1663056b01ce8484846040518463ffffffff1660e01b81526004016103a793929190612799565b600060405180830381600087803b1580156103c157600080fd5b505af11580156103d5573d6000803e3d6000fd5b50505050505050565b60008060009054906101000a900473ffffffffffffffffffffffffffffffffffffffff1673ffffffffffffffffffffffffffffffffffffffff166318160ddd6040518163ffffffff1660e01b815260040160206040518083038186803b15801561044757600080fd5b505afa15801561045b573d6000803e3d6000fd5b505050506040513d601f19601f8201168201806040525081019061047f91906120d1565b905090565b60008060009054906101000a900473ffffffffffffffffffffffffffffffffffffffff1673ffffffffffffffffffffffffffffffffffffffff166335ee5f8784846040518363ffffffff1660e01b81526004016104e29291906126aa565b60206040518083038186803b1580156104fa57600080fd5b505afa15801561050e573d6000803e3d6000fd5b505050506040513d601f19601f8201168201806040525081019061053291906120d1565b905092915050565b600160009054906101000a900473ffffffffffffffffffffffffffffffffffffffff1673ffffffffffffffffffffffffffffffffffffffff16633ffbd47f858585856040518563ffffffff1660e01b815260040161059b94939291906126ce565b600060405180830381600087803b1580156105b557600080fd5b505af11580156105c9573d6000803e3d6000fd5b5050505050505050565b6000600160009054906101000a900473ffffffffffffffffffffffffffffffffffffffff1673ffffffffffffffffffffffffffffffffffffffff166358467dbc868686866040518563ffffffff1660e01b815260040161063694939291906126ce565b60206040518083038186803b15801561064e57600080fd5b505afa158015610662573d6000803e3d6000fd5b505050506040513d601f19601f820116820180604052508101906106869190611d5f565b9050949350505050565b600160009054906101000a900473ffffffffffffffffffffffffffffffffffffffff1673ffffffffffffffffffffffffffffffffffffffff166358467dbc868686866040518563ffffffff1660e01b81526004016106f194939291906126ce565b60206040518083038186803b15801561070957600080fd5b505afa15801561071d573d6000803e3d6000fd5b505050506040513d601f19601f820116820180604052508101906107419190611d5f565b610780576040517f08c379a0000000000000000000000000000000000000000000000000000000008152600401610777906128f5565b60405180910390fd5b60006004828154811061078f57fe5b906000526020600020906007020160050154116107e1576040517f08c379a00000000000000000000000000000000000000000000000000000000081526004016107d890612895565b60405180910390fd5b6000600482815481106107f057fe5b906000526020600020906007020160040160009054906101000a900460ff1660ff1614610852576040517f08c379a000000000000000000000000000000000000000000000000000000000815260040161084990612935565b60405180910390fd5b84846004838154811061086157fe5b9060005260206000209060070201600101919061087f929190611b5c565b5060016004828154811061088f57fe5b906000526020600020906007020160040160006101000a81548160ff021916908360ff1602179055505050505050565b600160009054906101000a900473ffffffffffffffffffffffffffffffffffffffff1673ffffffffffffffffffffffffffffffffffffffff166358467dbc888888886040518563ffffffff1660e01b815260040161092094939291906126ce565b60206040518083038186803b15801561093857600080fd5b505afa15801561094c573d6000803e3d6000fd5b505050506040513d601f19601f820116820180604052508101906109709190611d5f565b6109af576040517f08c379a00000000000000000000000000000000000000000000000000000000081526004016109a6906128b5565b60405180910390fd5b600081116109f2576040517f08c379a00000000000000000000000000000000000000000000000000000000081526004016109e990612975565b60405180910390fd5b806000809054906101000a900473ffffffffffffffffffffffffffffffffffffffff1673ffffffffffffffffffffffffffffffffffffffff166335ee5f8789896040518363ffffffff1660e01b8152600401610a4f9291906126aa565b60206040518083038186803b158015610a6757600080fd5b505afa158015610a7b573d6000803e3d6000fd5b505050506040513d601f19601f82011682018060405250810190610a9f91906120d1565b1015610ae0576040517f08c379a0000000000000000000000000000000000000000000000000000000008152600401610ad790612995565b60405180910390fd5b610ae8611bdc565b6040518060e0016040528089898080601f016020809104026020016040519081016040528093929190818152602001838380828437600081840152601f19601f82011690508083019250505050505050815260200160405180602001604052806000815250815260200185858080601f016020809104026020016040519081016040528093929190818152602001838380828437600081840152601f19601f820116905080830192505050505050508152602001838152602001600060ff16815260200142815260200160405180602001604052806000815250815250905060048190806001815401808255809150506001900390600052602060002090600702016000909190919091506000820151816000019080519060200190610c0f929190611c1c565b506020820151816001019080519060200190610c2c929190611c1c565b506040820151816002019080519060200190610c49929190611c1c565b506060820151816003015560808201518160040160006101000a81548160ff021916908360ff16021790555060a0820151816005015560c0820151816006019080519060200190610c9b929190611c1c565b5050505050505050505050565b600160009054906101000a900473ffffffffffffffffffffffffffffffffffffffff1673ffffffffffffffffffffffffffffffffffffffff166358467dbc868686866040518563ffffffff1660e01b8152600401610d0994939291906126ce565b60206040518083038186803b158015610d2157600080fd5b505afa158015610d35573d6000803e3d6000fd5b505050506040513d601f19601f82011682018060405250810190610d599190611d5f565b610d98576040517f08c379a0000000000000000000000000000000000000000000000000000000008152600401610d8f906128f5565b60405180910390fd5b600060048281548110610da757fe5b90600052602060002090600702016005015411610df9576040517f08c379a0000000000000000000000000000000000000000000000000000000008152600401610df090612895565b60405180910390fd5b600160048281548110610e0857fe5b906000526020600020906007020160040160009054906101000a900460ff1660ff1614610e6a576040517f08c379a0000000000000000000000000000000000000000000000000000000008152600401610e6190612855565b60405180910390fd5b610f7760048281548110610e7a57fe5b90600052602060002090600702016001018054600181600116156101000203166002900480601f016020809104026020016040519081016040528092919081815260200182805460018160011615610100020316600290048015610f1f5780601f10610ef457610100808354040283529160200191610f1f565b820191906000526020600020905b815481529060010190602001808311610f0257829003601f168201915b505050505086868080601f016020809104026020016040519081016040528093929190818152602001838380828437600081840152601f19601f82011690508083019250505050505050611af890919063ffffffff16565b610fb6576040517f08c379a0000000000000000000000000000000000000000000000000000000008152600401610fad90612875565b60405180910390fd5b600260048281548110610fc557fe5b906000526020600020906007020160040160006101000a81548160ff021916908360ff1602179055505050505050565b60606004805480602002602001604051908101604052809291908181526020016000905b8282101561130457838290600052602060002090600702016040518060e0016040529081600082018054600181600116156101000203166002900480601f0160208091040260200160405190810160405280929190818152602001828054600181600116156101000203166002900480156110d55780601f106110aa576101008083540402835291602001916110d5565b820191906000526020600020905b8154815290600101906020018083116110b857829003601f168201915b50505050508152602001600182018054600181600116156101000203166002900480601f0160208091040260200160405190810160405280929190818152602001828054600181600116156101000203166002900480156111775780601f1061114c57610100808354040283529160200191611177565b820191906000526020600020905b81548152906001019060200180831161115a57829003601f168201915b50505050508152602001600282018054600181600116156101000203166002900480601f0160208091040260200160405190810160405280929190818152602001828054600181600116156101000203166002900480156112195780601f106111ee57610100808354040283529160200191611219565b820191906000526020600020905b8154815290600101906020018083116111fc57829003601f168201915b50505050508152602001600382015481526020016004820160009054906101000a900460ff1660ff1660ff16815260200160058201548152602001600682018054600181600116156101000203166002900480601f0160208091040260200160405190810160405280929190818152602001828054600181600116156101000203166002900480156112ec5780601f106112c1576101008083540402835291602001916112ec565b820191906000526020600020905b8154815290600101906020018083116112cf57829003601f168201915b50505050508152505081526020019060010190611019565b50505050905090565b6060806000606060006004868154811061132357fe5b90600052602060002090600702016000016004878154811061134157fe5b90600052602060002090600702016002016004888154811061135f57fe5b9060005260206000209060070201600301546004898154811061137e57fe5b906000526020600020906007020160010160048a8154811061139c57fe5b906000526020600020906007020160040160009054906101000a900460ff16848054600181600116156101000203166002900480601f0160208091040260200160405190810160405280929190818152602001828054600181600116156101000203166002900480156114505780601f1061142557610100808354040283529160200191611450565b820191906000526020600020905b81548152906001019060200180831161143357829003601f168201915b50505050509450838054600181600116156101000203166002900480601f0160208091040260200160405190810160405280929190818152602001828054600181600116156101000203166002900480156114ec5780601f106114c1576101008083540402835291602001916114ec565b820191906000526020600020905b8154815290600101906020018083116114cf57829003601f168201915b50505050509350818054600181600116156101000203166002900480601f0160208091040260200160405190810160405280929190818152602001828054600181600116156101000203166002900480156115885780601f1061155d57610100808354040283529160200191611588565b820191906000526020600020905b81548152906001019060200180831161156b57829003601f168201915b505050505091509450945094509450945091939590929450565b60008060009054906101000a900473ffffffffffffffffffffffffffffffffffffffff1673ffffffffffffffffffffffffffffffffffffffff16639b80b05087878787876040518663ffffffff1660e01b8152600401611606959493929190612709565b602060405180830381600087803b15801561162057600080fd5b505af1158015611634573d6000803e3d6000fd5b505050506040513d601f19601f820116820180604052508101906116589190611d5f565b5095945050505050565b600160009054906101000a900473ffffffffffffffffffffffffffffffffffffffff1673ffffffffffffffffffffffffffffffffffffffff166358467dbc898989896040518563ffffffff1660e01b81526004016116c394939291906126ce565b60206040518083038186803b1580156116db57600080fd5b505afa1580156116ef573d6000803e3d6000fd5b505050506040513d601f19601f820116820180604052508101906117139190611d5f565b611752576040517f08c379a0000000000000000000000000000000000000000000000000000000008152600401611749906128f5565b60405180910390fd5b60006004858154811061176157fe5b906000526020600020906007020160050154116117b3576040517f08c379a00000000000000000000000000000000000000000000000000000000081526004016117aa90612895565b60405180910390fd5b6002600485815481106117c257fe5b906000526020600020906007020160040160009054906101000a900460ff1660ff1614611824576040517f08c379a000000000000000000000000000000000000000000000000000000000815260040161181b906128d5565b60405180910390fd5b6119316004858154811061183457fe5b90600052602060002090600702016000018054600181600116156101000203166002900480601f0160208091040260200160405190810160405280929190818152602001828054600181600116156101000203166002900480156118d95780601f106118ae576101008083540402835291602001916118d9565b820191906000526020600020905b8154815290600101906020018083116118bc57829003601f168201915b505050505089898080601f016020809104026020016040519081016040528093929190818152602001838380828437600081840152601f19601f82011690508083019250505050505050611af890919063ffffffff16565b611970576040517f08c379a000000000000000000000000000000000000000000000000000000000815260040161196790612915565b60405180910390fd5b60038160ff161480611985575060018160ff16145b61198e57600080fd5b806004858154811061199c57fe5b906000526020600020906007020160040160006101000a81548160ff021916908360ff1602179055508282600486815481106119d457fe5b906000526020600020906007020160060191906119f2929190611b5c565b5060038160ff161415611aee576000809054906101000a900473ffffffffffffffffffffffffffffffffffffffff1673ffffffffffffffffffffffffffffffffffffffff16639b80b050898960048881548110611a4b57fe5b906000526020600020906007020160010160048981548110611a6957fe5b9060005260206000209060070201600301546040518563ffffffff1660e01b8152600401611a9a9493929190612752565b602060405180830381600087803b158015611ab457600080fd5b505af1158015611ac8573d6000803e3d6000fd5b505050506040513d601f19601f82011682018060405250810190611aec9190611d5f565b505b5050505050505050565b60008083604051602001611b0c91906127cb565b604051602081830303815290604052805190602001209050600083604051602001611b3791906127cb565b6040516020818303038152906040528051906020012090508082149250505092915050565b828054600181600116156101000203166002900490600052602060002090601f016020900481019282601f10611b9d57803560ff1916838001178555611bcb565b82800160010185558215611bcb579182015b82811115611bca578235825591602001919060010190611baf565b5b509050611bd89190611c9c565b5090565b6040518060e0016040528060608152602001606081526020016060815260200160008152602001600060ff16815260200160008152602001606081525090565b828054600181600116156101000203166002900490600052602060002090601f016020900481019282601f10611c5d57805160ff1916838001178555611c8b565b82800160010185558215611c8b579182015b82811115611c8a578251825591602001919060010190611c6f565b5b509050611c989190611c9c565b5090565b611cbe91905b80821115611cba576000816000905550600101611ca2565b5090565b90565b600081519050611cd081612ac1565b92915050565b60008083601f840112611ce857600080fd5b8235905067ffffffffffffffff811115611d0157600080fd5b602083019150836001820283011115611d1957600080fd5b9250929050565b600081359050611d2f81612ad8565b92915050565b600081519050611d4481612ad8565b92915050565b600081359050611d5981612aef565b92915050565b600060208284031215611d7157600080fd5b6000611d7f84828501611cc1565b91505092915050565b60008060208385031215611d9b57600080fd5b600083013567ffffffffffffffff811115611db557600080fd5b611dc185828601611cd6565b92509250509250929050565b60008060008060408587031215611de357600080fd5b600085013567ffffffffffffffff811115611dfd57600080fd5b611e0987828801611cd6565b9450945050602085013567ffffffffffffffff811115611e2857600080fd5b611e3487828801611cd6565b925092505092959194509250565b60008060008060008060006080888a031215611e5d57600080fd5b600088013567ffffffffffffffff811115611e7757600080fd5b611e838a828b01611cd6565b9750975050602088013567ffffffffffffffff811115611ea257600080fd5b611eae8a828b01611cd6565b9550955050604088013567ffffffffffffffff811115611ecd57600080fd5b611ed98a828b01611cd6565b93509350506060611eec8a828b01611d20565b91505092959891949750929550565b600080600080600060608688031215611f1357600080fd5b600086013567ffffffffffffffff811115611f2d57600080fd5b611f3988828901611cd6565b9550955050602086013567ffffffffffffffff811115611f5857600080fd5b611f6488828901611cd6565b93509350506040611f7788828901611d20565b9150509295509295909350565b60008060008060008060008060a0898b031215611fa057600080fd5b600089013567ffffffffffffffff811115611fba57600080fd5b611fc68b828c01611cd6565b9850985050602089013567ffffffffffffffff811115611fe557600080fd5b611ff18b828c01611cd6565b965096505060406120048b828c01611d20565b945050606089013567ffffffffffffffff81111561202157600080fd5b61202d8b828c01611cd6565b935093505060806120408b828c01611d4a565b9150509295985092959890939650565b60008060006040848603121561206557600080fd5b600084013567ffffffffffffffff81111561207f57600080fd5b61208b86828701611cd6565b9350935050602061209e86828701611d20565b9150509250925092565b6000602082840312156120ba57600080fd5b60006120c884828501611d20565b91505092915050565b6000602082840312156120e357600080fd5b60006120f184828501611d35565b91505092915050565b60006121068383612580565b905092915050565b6000612119826129f5565b6121238185612a18565b935083602082028501612135856129d0565b8060005b85811015612171578484038952815161215285826120fa565b945061215d83612a0b565b925060208a01995050600181019050612139565b50829750879550505050505092915050565b61218c81612a4b565b82525050565b600061219e8385612a3a565b93506121ab838584612a6e565b6121b483612ab0565b840190509392505050565b60006121ca82612a00565b6121d48185612a29565b93506121e4818560208601612a7d565b6121ed81612ab0565b840191505092915050565b600061220382612a00565b61220d8185612a3a565b935061221d818560208601612a7d565b61222681612ab0565b840191505092915050565b60008154600181166000811461224e5760018114612274576122b8565b607f600283041661225f8187612a3a565b955060ff1983168652602086019350506122b8565b600282046122828187612a3a565b955061228d856129e0565b60005b828110156122af57815481890152600182019150602081019050612290565b80880195505050505b505092915050565b60006122cd601783612a3a565b91507f7461736b277320737461747573206d757374203d3d20310000000000000000006000830152602082019050919050565b600061230d601b83612a3a565b91507f7461736b277320776f726b73206d75737420697320776f726b657200000000006000830152602082019050919050565b600061234d601083612a3a565b91507f7461736b206d75737420657869737473000000000000000000000000000000006000830152602082019050919050565b600061238d601a83612a3a565b91507f697373756572206d7573742068617665206869732072696768740000000000006000830152602082019050919050565b60006123cd601783612a3a565b91507f7461736b277320737461747573206d757374203d3d20320000000000000000006000830152602082019050919050565b600061240d601a83612a3a565b91507f776f726b6572206d7573742068617665206869732072696768740000000000006000830152602082019050919050565b600061244d601c83612a3a565b91507f7461736b277320697373756572206d75737420697320697373756572000000006000830152602082019050919050565b600061248d601783612a3a565b91507f7461736b277320737461747573206d757374203d3d20300000000000000000006000830152602082019050919050565b60006124cd601783612a3a565b91507f4f6e6c792061646d696e2063616e20646f2074686973210000000000000000006000830152602082019050919050565b600061250d600e83612a3a565b91507f626f6e7573206d757374203e20300000000000000000000000000000000000006000830152602082019050919050565b600061254d601a83612a3a565b91507f697373756572277320626f6e7573206d75737420656e6f7567680000000000006000830152602082019050919050565b600060e083016000830151848203600086015261259d82826121bf565b915050602083015184820360208601526125b782826121bf565b915050604083015184820360408601526125d182826121bf565b91505060608301516125e66060860182612631565b5060808301516125f9608086018261264f565b5060a083015161260c60a0860182612631565b5060c083015184820360c086015261262482826121bf565b9150508091505092915050565b61263a81612a57565b82525050565b61264981612a57565b82525050565b61265881612a61565b82525050565b61266781612a61565b82525050565b60006020820190508181036000830152612687818461210e565b905092915050565b60006020820190506126a46000830184612183565b92915050565b600060208201905081810360008301526126c5818486612192565b90509392505050565b600060408201905081810360008301526126e9818688612192565b905081810360208301526126fe818486612192565b905095945050505050565b60006060820190508181036000830152612724818789612192565b90508181036020830152612739818587612192565b90506127486040830184612640565b9695505050505050565b6000606082019050818103600083015261276d818688612192565b905081810360208301526127818185612231565b90506127906040830184612640565b95945050505050565b600060408201905081810360008301526127b4818587612192565b90506127c36020830184612640565b949350505050565b600060208201905081810360008301526127e581846121f8565b905092915050565b600060a082019050818103600083015261280781886121f8565b9050818103602083015261281b81876121f8565b905061282a6040830186612640565b818103606083015261283c81856121f8565b905061284b608083018461265e565b9695505050505050565b6000602082019050818103600083015261286e816122c0565b9050919050565b6000602082019050818103600083015261288e81612300565b9050919050565b600060208201905081810360008301526128ae81612340565b9050919050565b600060208201905081810360008301526128ce81612380565b9050919050565b600060208201905081810360008301526128ee816123c0565b9050919050565b6000602082019050818103600083015261290e81612400565b9050919050565b6000602082019050818103600083015261292e81612440565b9050919050565b6000602082019050818103600083015261294e81612480565b9050919050565b6000602082019050818103600083015261296e816124c0565b9050919050565b6000602082019050818103600083015261298e81612500565b9050919050565b600060208201905081810360008301526129ae81612540565b9050919050565b60006020820190506129ca6000830184612640565b92915050565b6000819050602082019050919050565b60008190508160005260206000209050919050565b600081519050919050565b600081519050919050565b6000602082019050919050565b600082825260208201905092915050565b600082825260208201905092915050565b600082825260208201905092915050565b60008115159050919050565b6000819050919050565b600060ff82169050919050565b82818337600083830152505050565b60005b83811015612a9b578082015181840152602081019050612a80565b83811115612aaa576000848401525b50505050565b6000601f19601f8301169050919050565b612aca81612a4b565b8114612ad557600080fd5b50565b612ae181612a57565b8114612aec57600080fd5b50565b612af881612a61565b8114612b0357600080fd5b5056fea2646970667358221220f127f6baf3a4979d1ca236d91aaa7c37687be46693e671fd7fe8d5663017ef5764736f6c634300060a0033608060405234801561001057600080fd5b506000808190555033600160006101000a81548173ffffffffffffffffffffffffffffffffffffffff021916908373ffffffffffffffffffffffffffffffffffffffff160217905550610aa6806100686000396000f3fe608060405234801561001057600080fd5b506004361061004c5760003560e01c8063056b01ce1461005157806318160ddd146100d457806335ee5f87146100f25780639b80b0501461017f575b600080fd5b6100d26004803603604081101561006757600080fd5b810190808035906020019064010000000081111561008457600080fd5b82018360208201111561009657600080fd5b803590602001918460018302840111640100000000831117156100b857600080fd5b90919293919293908035906020019092919050505061026f565b005b6100dc610592565b6040518082815260200191505060405180910390f35b6101696004803603602081101561010857600080fd5b810190808035906020019064010000000081111561012557600080fd5b82018360208201111561013757600080fd5b8035906020019184600183028401116401000000008311171561015957600080fd5b909192939192939050505061059b565b6040518082815260200191505060405180910390f35b6102556004803603606081101561019557600080fd5b81019080803590602001906401000000008111156101b257600080fd5b8201836020820111156101c457600080fd5b803590602001918460018302840111640100000000831117156101e657600080fd5b90919293919293908035906020019064010000000081111561020757600080fd5b82018360208201111561021957600080fd5b8035906020019184600183028401116401000000008311171561023b57600080fd5b9091929391929390803590602001909291905050506105cd565b604051808215151515815260200191505060405180910390f35b3373ffffffffffffffffffffffffffffffffffffffff16600160009054906101000a900473ffffffffffffffffffffffffffffffffffffffff1673ffffffffffffffffffffffffffffffffffffffff1614610332576040517f08c379a00000000000000000000000000000000000000000000000000000000081526004018080602001828103825260178152602001807f4f6e6c792061646d696e2063616e20646f20746869732100000000000000000081525060200191505060405180910390fd5b6103986040518060200160405280600081525084848080601f016020809104026020016040519081016040528093929190818152602001838380828437600081840152601f19601f8201169050808301925050505050505061090390919063ffffffff16565b1561040b576040517f08c379a000000000000000000000000000000000000000000000000000000000815260040180806020018281038252600f8152602001807f546f206d757374206578697374732e000000000000000000000000000000000081525060200191505060405180910390fd5b60008111610481576040517f08c379a000000000000000000000000000000000000000000000000000000000815260040180806020018281038252600f8152602001807f56616c7565206d757374203e20302e000000000000000000000000000000000081525060200191505060405180910390fd5b61049681600054610a3190919063ffffffff16565b6000819055506104d68160028585604051808383808284378083019250505092505050908152602001604051809103902054610a3190919063ffffffff16565b600284846040518083838082843780830192505050925050509081526020016040518091039020819055508282604051808383808284378083019250505092505050604051809103902060405180807f73797374656d0000000000000000000000000000000000000000000000000000815250600601905060405180910390207f5358be4df107be4d9b023fc323f41d7109610225c6ef211b9d375b9fbd7ccc4f836040518082815260200191505060405180910390a3505050565b60008054905090565b600060028383604051808383808284378083019250505092505050908152602001604051809103902054905092915050565b60006106356040518060200160405280600081525085858080601f016020809104026020016040519081016040528093929190818152602001838380828437600081840152601f19601f8201169050808301925050505050505061090390919063ffffffff16565b156106a8576040517f08c379a000000000000000000000000000000000000000000000000000000000815260040180806020018281038252600f8152602001807f546f206d757374206578697374732e000000000000000000000000000000000081525060200191505060405180910390fd5b6000821161071e576040517f08c379a000000000000000000000000000000000000000000000000000000000815260040180806020018281038252600f8152602001807f56616c7565206d757374203e20302e000000000000000000000000000000000081525060200191505060405180910390fd5b816002878760405180838380828437808301925050509250505090815260200160405180910390205410156107bb576040517f08c379a00000000000000000000000000000000000000000000000000000000081526004018080602001828103825260148152602001807f42616c616e6365206d75737420656e6f7567682e00000000000000000000000081525060200191505060405180910390fd5b6107f58260028888604051808383808284378083019250505092505050908152602001604051809103902054610a5090919063ffffffff16565b6002878760405180838380828437808301925050509250505090815260200160405180910390208190555061085a8260028686604051808383808284378083019250505092505050908152602001604051809103902054610a3190919063ffffffff16565b6002858560405180838380828437808301925050509250505090815260200160405180910390208190555083836040518083838082843780830192505050925050506040518091039020868660405180838380828437808301925050509250505060405180910390207f5358be4df107be4d9b023fc323f41d7109610225c6ef211b9d375b9fbd7ccc4f846040518082815260200191505060405180910390a395945050505050565b600080836040516020018080602001828103825283818151815260200191508051906020019080838360005b8381101561094a57808201518184015260208101905061092f565b50505050905090810190601f1680156109775780820380516001836020036101000a031916815260200191505b50925050506040516020818303038152906040528051906020012090506000836040516020018080602001828103825283818151815260200191508051906020019080838360005b838110156109da5780820151818401526020810190506109bf565b50505050905090810190601f168015610a075780820380516001836020036101000a031916815260200191505b50925050506040516020818303038152906040528051906020012090508082149250505092915050565b600080828401905083811015610a4657600080fd5b8091505092915050565b600082821115610a5f57600080fd5b60008284039050809150509291505056fea26469706673582212204896e69efbd315f41af338bfa2e6da6216a4239db062b154bc71ae8b1c4a390864736f6c634300060a0033608060405234801561001057600080fd5b5033600160006101000a81548173ffffffffffffffffffffffffffffffffffffffff021916908373ffffffffffffffffffffffffffffffffffffffff16021790555061093e806100616000396000f3fe608060405234801561001057600080fd5b50600436106100365760003560e01c80633ffbd47f1461003b57806358467dbc14610109575b600080fd5b6101076004803603604081101561005157600080fd5b810190808035906020019064010000000081111561006e57600080fd5b82018360208201111561008057600080fd5b803590602001918460018302840111640100000000831117156100a257600080fd5b9091929391929390803590602001906401000000008111156100c357600080fd5b8201836020820111156100d557600080fd5b803590602001918460018302840111640100000000831117156100f757600080fd5b90919293919293905050506101ef565b005b6101d56004803603604081101561011f57600080fd5b810190808035906020019064010000000081111561013c57600080fd5b82018360208201111561014e57600080fd5b8035906020019184600183028401116401000000008311171561017057600080fd5b90919293919293908035906020019064010000000081111561019157600080fd5b8201836020820111156101a357600080fd5b803590602001918460018302840111640100000000831117156101c557600080fd5b9091929391929390505050610531565b604051808215151515815260200191505060405180910390f35b6102556040518060200160405280600081525085858080601f016020809104026020016040519081016040528093929190818152602001838380828437600081840152601f19601f8201169050808301925050505050505061073590919063ffffffff16565b156102c8576040517f08c379a00000000000000000000000000000000000000000000000000000000081526004018080602001828103825260178152602001807f557365726e616d65206d757374206e6f74206e756c6c2e00000000000000000081525060200191505060405180910390fd5b61032e6040518060200160405280600081525083838080601f016020809104026020016040519081016040528093929190818152602001838380828437600081840152601f19601f8201169050808301925050505050505061073590919063ffffffff16565b156103a1576040517f08c379a00000000000000000000000000000000000000000000000000000000081526004018080602001828103825260158152602001807f506173737764206d757374206e6f74206e756c6c2e000000000000000000000081525060200191505060405180910390fd5b610482604051806020016040528060008152506000868660405180838380828437808301925050509250505090815260200160405180910390208054600181600116156101000203166002900480601f01602080910402602001604051908101604052809291908181526020018280546001816001161561010002031660029004801561046f5780601f106104445761010080835404028352916020019161046f565b820191906000526020600020905b81548152906001019060200180831161045257829003601f168201915b505050505061073590919063ffffffff16565b6104f4576040517f08c379a00000000000000000000000000000000000000000000000000000000081526004018080602001828103825260148152602001807f55736572206d757374206e6f742065786973742e00000000000000000000000081525060200191505060405180910390fd5b8181600086866040518083838082843780830192505050925050509081526020016040518091039020919061052a929190610863565b5050505050565b60006105996040518060200160405280600081525086868080601f016020809104026020016040519081016040528093929190818152602001838380828437600081840152601f19601f8201169050808301925050505050505061073590919063ffffffff16565b8061060657506106056040518060200160405280600081525084848080601f016020809104026020016040519081016040528093929190818152602001838380828437600081840152601f19601f8201169050808301925050505050505061073590919063ffffffff16565b5b15610614576000905061072d565b61072a83838080601f016020809104026020016040519081016040528093929190818152602001838380828437600081840152601f19601f820116905080830192505050505050506000878760405180838380828437808301925050509250505090815260200160405180910390208054600181600116156101000203166002900480601f0160208091040260200160405190810160405280929190818152602001828054600181600116156101000203166002900480156107175780601f106106ec57610100808354040283529160200191610717565b820191906000526020600020905b8154815290600101906020018083116106fa57829003601f168201915b505050505061073590919063ffffffff16565b90505b949350505050565b600080836040516020018080602001828103825283818151815260200191508051906020019080838360005b8381101561077c578082015181840152602081019050610761565b50505050905090810190601f1680156107a95780820380516001836020036101000a031916815260200191505b50925050506040516020818303038152906040528051906020012090506000836040516020018080602001828103825283818151815260200191508051906020019080838360005b8381101561080c5780820151818401526020810190506107f1565b50505050905090810190601f1680156108395780820380516001836020036101000a031916815260200191505b50925050506040516020818303038152906040528051906020012090508082149250505092915050565b828054600181600116156101000203166002900490600052602060002090601f016020900481019282601f106108a457803560ff19168380011785556108d2565b828001600101855582156108d2579182015b828111156108d15782358255916020019190600101906108b6565b5b5090506108df91906108e3565b5090565b61090591905b808211156109015760008160009055506001016108e9565b5090565b9056fea2646970667358221220a2bad42c5c336f7b6c8983a4480e6e24951aee101baabac458e1bb09f3f8a13d64736f6c634300060a0033",
					"opcodes": "PUSH1 0x80 PUSH1 0x40 MSTORE CALLVALUE DUP1 ISZERO PUSH3 0x11 JUMPI PUSH1 0x0 DUP1 REVERT JUMPDEST POP PUSH1 0x40 MLOAD PUSH3 0x423D CODESIZE SUB DUP1 PUSH3 0x423D DUP4 CODECOPY DUP2 DUP2 ADD PUSH1 0x40 MSTORE DUP2 ADD SWAP1 PUSH3 0x37 SWAP2 SWAP1 PUSH3 0x1CA JUMP JUMPDEST CALLER PUSH1 0x2 PUSH1 0x0 PUSH2 0x100 EXP DUP2 SLOAD DUP2 PUSH20 0xFFFFFFFFFFFFFFFFFFFFFFFFFFFFFFFFFFFFFFFF MUL NOT AND SWAP1 DUP4 PUSH20 0xFFFFFFFFFFFFFFFFFFFFFFFFFFFFFFFFFFFFFFFF AND MUL OR SWAP1 SSTORE POP DUP1 PUSH1 0x3 PUSH1 0x0 PUSH2 0x100 EXP DUP2 SLOAD DUP2 PUSH20 0xFFFFFFFFFFFFFFFFFFFFFFFFFFFFFFFFFFFFFFFF MUL NOT AND SWAP1 DUP4 PUSH20 0xFFFFFFFFFFFFFFFFFFFFFFFFFFFFFFFFFFFFFFFF AND MUL OR SWAP1 SSTORE POP PUSH1 0x40 MLOAD PUSH3 0xC7 SWAP1 PUSH3 0x197 JUMP JUMPDEST PUSH1 0x40 MLOAD DUP1 SWAP2 SUB SWAP1 PUSH1 0x0 CREATE DUP1 ISZERO DUP1 ISZERO PUSH3 0xE4 JUMPI RETURNDATASIZE PUSH1 0x0 DUP1 RETURNDATACOPY RETURNDATASIZE PUSH1 0x0 REVERT JUMPDEST POP PUSH1 0x0 DUP1 PUSH2 0x100 EXP DUP2 SLOAD DUP2 PUSH20 0xFFFFFFFFFFFFFFFFFFFFFFFFFFFFFFFFFFFFFFFF MUL NOT AND SWAP1 DUP4 PUSH20 0xFFFFFFFFFFFFFFFFFFFFFFFFFFFFFFFFFFFFFFFF AND MUL OR SWAP1 SSTORE POP PUSH1 0x40 MLOAD PUSH3 0x132 SWAP1 PUSH3 0x1A5 JUMP JUMPDEST PUSH1 0x40 MLOAD DUP1 SWAP2 SUB SWAP1 PUSH1 0x0 CREATE DUP1 ISZERO DUP1 ISZERO PUSH3 0x14F JUMPI RETURNDATASIZE PUSH1 0x0 DUP1 RETURNDATACOPY RETURNDATASIZE PUSH1 0x0 REVERT JUMPDEST POP PUSH1 0x1 PUSH1 0x0 PUSH2 0x100 EXP DUP2 SLOAD DUP2 PUSH20 0xFFFFFFFFFFFFFFFFFFFFFFFFFFFFFFFFFFFFFFFF MUL NOT AND SWAP1 DUP4 PUSH20 0xFFFFFFFFFFFFFFFFFFFFFFFFFFFFFFFFFFFFFFFF AND MUL OR SWAP1 SSTORE POP POP PUSH3 0x244 JUMP JUMPDEST PUSH2 0xB0E DUP1 PUSH3 0x2D90 DUP4 CODECOPY ADD SWAP1 JUMP JUMPDEST PUSH2 0x99F DUP1 PUSH3 0x389E DUP4 CODECOPY ADD SWAP1 JUMP JUMPDEST PUSH1 0x0 DUP2 MLOAD SWAP1 POP PUSH3 0x1C4 DUP2 PUSH3 0x22A JUMP JUMPDEST SWAP3 SWAP2 POP POP JUMP JUMPDEST PUSH1 0x0 PUSH1 0x20 DUP3 DUP5 SUB SLT ISZERO PUSH3 0x1DD JUMPI PUSH1 0x0 DUP1 REVERT JUMPDEST PUSH1 0x0 PUSH3 0x1ED DUP5 DUP3 DUP6 ADD PUSH3 0x1B3 JUMP JUMPDEST SWAP2 POP POP SWAP3 SWAP2 POP POP JUMP JUMPDEST PUSH1 0x0 PUSH3 0x203 DUP3 PUSH3 0x20A JUMP JUMPDEST SWAP1 POP SWAP2 SWAP1 POP JUMP JUMPDEST PUSH1 0x0 PUSH20 0xFFFFFFFFFFFFFFFFFFFFFFFFFFFFFFFFFFFFFFFF DUP3 AND SWAP1 POP SWAP2 SWAP1 POP JUMP JUMPDEST PUSH3 0x235 DUP2 PUSH3 0x1F6 JUMP JUMPDEST DUP2 EQ PUSH3 0x241 JUMPI PUSH1 0x0 DUP1 REVERT JUMPDEST POP JUMP JUMPDEST PUSH2 0x2B3C DUP1 PUSH3 0x254 PUSH1 0x0 CODECOPY PUSH1 0x0 RETURN INVALID PUSH1 0x80 PUSH1 0x40 MSTORE CALLVALUE DUP1 ISZERO PUSH2 0x10 JUMPI PUSH1 0x0 DUP1 REVERT JUMPDEST POP PUSH1 0x4 CALLDATASIZE LT PUSH2 0xB4 JUMPI PUSH1 0x0 CALLDATALOAD PUSH1 0xE0 SHR DUP1 PUSH4 0x679A5E14 GT PUSH2 0x71 JUMPI DUP1 PUSH4 0x679A5E14 EQ PUSH2 0x18B JUMPI DUP1 PUSH4 0x89DC99D2 EQ PUSH2 0x1A7 JUMPI DUP1 PUSH4 0x8A3F7BB3 EQ PUSH2 0x1C3 JUMPI DUP1 PUSH4 0x9B3ADD75 EQ PUSH2 0x1E1 JUMPI DUP1 PUSH4 0x9B80B050 EQ PUSH2 0x215 JUMPI DUP1 PUSH4 0xFC18CB62 EQ PUSH2 0x245 JUMPI PUSH2 0xB4 JUMP JUMPDEST DUP1 PUSH4 0x56B01CE EQ PUSH2 0xB9 JUMPI DUP1 PUSH4 0x18160DDD EQ PUSH2 0xD5 JUMPI DUP1 PUSH4 0x35EE5F87 EQ PUSH2 0xF3 JUMPI DUP1 PUSH4 0x3FFBD47F EQ PUSH2 0x123 JUMPI DUP1 PUSH4 0x58467DBC EQ PUSH2 0x13F JUMPI DUP1 PUSH4 0x5B4C0B54 EQ PUSH2 0x16F JUMPI JUMPDEST PUSH1 0x0 DUP1 REVERT JUMPDEST PUSH2 0xD3 PUSH1 0x4 DUP1 CALLDATASIZE SUB DUP2 ADD SWAP1 PUSH2 0xCE SWAP2 SWAP1 PUSH2 0x2050 JUMP JUMPDEST PUSH2 0x261 JUMP JUMPDEST STOP JUMPDEST PUSH2 0xDD PUSH2 0x3DE JUMP JUMPDEST PUSH1 0x40 MLOAD PUSH2 0xEA SWAP2 SWAP1 PUSH2 0x29B5 JUMP JUMPDEST PUSH1 0x40 MLOAD DUP1 SWAP2 SUB SWAP1 RETURN JUMPDEST PUSH2 0x10D PUSH1 0x4 DUP1 CALLDATASIZE SUB DUP2 ADD SWAP1 PUSH2 0x108 SWAP2 SWAP1 PUSH2 0x1D88 JUMP JUMPDEST PUSH2 0x484 JUMP JUMPDEST PUSH1 0x40 MLOAD PUSH2 0x11A SWAP2 SWAP1 PUSH2 0x29B5 JUMP JUMPDEST PUSH1 0x40 MLOAD DUP1 SWAP2 SUB SWAP1 RETURN JUMPDEST PUSH2 0x13D PUSH1 0x4 DUP1 CALLDATASIZE SUB DUP2 ADD SWAP1 PUSH2 0x138 SWAP2 SWAP1 PUSH2 0x1DCD JUMP JUMPDEST PUSH2 0x53A JUMP JUMPDEST STOP JUMPDEST PUSH2 0x159 PUSH1 0x4 DUP1 CALLDATASIZE SUB DUP2 ADD SWAP1 PUSH2 0x154 SWAP2 SWAP1 PUSH2 0x1DCD JUMP JUMPDEST PUSH2 0x5D3 JUMP JUMPDEST PUSH1 0x40 MLOAD PUSH2 0x166 SWAP2 SWAP1 PUSH2 0x268F JUMP JUMPDEST PUSH1 0x40 MLOAD DUP1 SWAP2 SUB SWAP1 RETURN JUMPDEST PUSH2 0x189 PUSH1 0x4 DUP1 CALLDATASIZE SUB DUP2 ADD SWAP1 PUSH2 0x184 SWAP2 SWAP1 PUSH2 0x1EFB JUMP JUMPDEST PUSH2 0x690 JUMP JUMPDEST STOP JUMPDEST PUSH2 0x1A5 PUSH1 0x4 DUP1 CALLDATASIZE SUB DUP2 ADD SWAP1 PUSH2 0x1A0 SWAP2 SWAP1 PUSH2 0x1E42 JUMP JUMPDEST PUSH2 0x8BF JUMP JUMPDEST STOP JUMPDEST PUSH2 0x1C1 PUSH1 0x4 DUP1 CALLDATASIZE SUB DUP2 ADD SWAP1 PUSH2 0x1BC SWAP2 SWAP1 PUSH2 0x1EFB JUMP JUMPDEST PUSH2 0xCA8 JUMP JUMPDEST STOP JUMPDEST PUSH2 0x1CB PUSH2 0xFF5 JUMP JUMPDEST PUSH1 0x40 MLOAD PUSH2 0x1D8 SWAP2 SWAP1 PUSH2 0x266D JUMP JUMPDEST PUSH1 0x40 MLOAD DUP1 SWAP2 SUB SWAP1 RETURN JUMPDEST PUSH2 0x1FB PUSH1 0x4 DUP1 CALLDATASIZE SUB DUP2 ADD SWAP1 PUSH2 0x1F6 SWAP2 SWAP1 PUSH2 0x20A8 JUMP JUMPDEST PUSH2 0x130D JUMP JUMPDEST PUSH1 0x40 MLOAD PUSH2 0x20C SWAP6 SWAP5 SWAP4 SWAP3 SWAP2 SWAP1 PUSH2 0x27ED JUMP JUMPDEST PUSH1 0x40 MLOAD DUP1 SWAP2 SUB SWAP1 RETURN JUMPDEST PUSH2 0x22F PUSH1 0x4 DUP1 CALLDATASIZE SUB DUP2 ADD SWAP1 PUSH2 0x22A SWAP2 SWAP1 PUSH2 0x1EFB JUMP JUMPDEST PUSH2 0x15A2 JUMP JUMPDEST PUSH1 0x40 MLOAD PUSH2 0x23C SWAP2 SWAP1 PUSH2 0x268F JUMP JUMPDEST PUSH1 0x40 MLOAD DUP1 SWAP2 SUB SWAP1 RETURN JUMPDEST PUSH2 0x25F PUSH1 0x4 DUP1 CALLDATASIZE SUB DUP2 ADD SWAP1 PUSH2 0x25A SWAP2 SWAP1 PUSH2 0x1F84 JUMP JUMPDEST PUSH2 0x1662 JUMP JUMPDEST STOP JUMPDEST CALLER PUSH20 0xFFFFFFFFFFFFFFFFFFFFFFFFFFFFFFFFFFFFFFFF AND PUSH1 0x2 PUSH1 0x0 SWAP1 SLOAD SWAP1 PUSH2 0x100 EXP SWAP1 DIV PUSH20 0xFFFFFFFFFFFFFFFFFFFFFFFFFFFFFFFFFFFFFFFF AND PUSH20 0xFFFFFFFFFFFFFFFFFFFFFFFFFFFFFFFFFFFFFFFF AND EQ DUP1 PUSH2 0x30A JUMPI POP CALLER PUSH20 0xFFFFFFFFFFFFFFFFFFFFFFFFFFFFFFFFFFFFFFFF AND PUSH1 0x3 PUSH1 0x0 SWAP1 SLOAD SWAP1 PUSH2 0x100 EXP SWAP1 DIV PUSH20 0xFFFFFFFFFFFFFFFFFFFFFFFFFFFFFFFFFFFFFFFF AND PUSH20 0xFFFFFFFFFFFFFFFFFFFFFFFFFFFFFFFFFFFFFFFF AND EQ JUMPDEST PUSH2 0x349 JUMPI PUSH1 0x40 MLOAD PUSH32 0x8C379A000000000000000000000000000000000000000000000000000000000 DUP2 MSTORE PUSH1 0x4 ADD PUSH2 0x340 SWAP1 PUSH2 0x2955 JUMP JUMPDEST PUSH1 0x40 MLOAD DUP1 SWAP2 SUB SWAP1 REVERT JUMPDEST PUSH1 0x0 DUP1 SWAP1 SLOAD SWAP1 PUSH2 0x100 EXP SWAP1 DIV PUSH20 0xFFFFFFFFFFFFFFFFFFFFFFFFFFFFFFFFFFFFFFFF AND PUSH20 0xFFFFFFFFFFFFFFFFFFFFFFFFFFFFFFFFFFFFFFFF AND PUSH4 0x56B01CE DUP5 DUP5 DUP5 PUSH1 0x40 MLOAD DUP5 PUSH4 0xFFFFFFFF AND PUSH1 0xE0 SHL DUP2 MSTORE PUSH1 0x4 ADD PUSH2 0x3A7 SWAP4 SWAP3 SWAP2 SWAP1 PUSH2 0x2799 JUMP JUMPDEST PUSH1 0x0 PUSH1 0x40 MLOAD DUP1 DUP4 SUB DUP2 PUSH1 0x0 DUP8 DUP1 EXTCODESIZE ISZERO DUP1 ISZERO PUSH2 0x3C1 JUMPI PUSH1 0x0 DUP1 REVERT JUMPDEST POP GAS CALL ISZERO DUP1 ISZERO PUSH2 0x3D5 JUMPI RETURNDATASIZE PUSH1 0x0 DUP1 RETURNDATACOPY RETURNDATASIZE PUSH1 0x0 REVERT JUMPDEST POP POP POP POP POP POP POP JUMP JUMPDEST PUSH1 0x0 DUP1 PUSH1 0x0 SWAP1 SLOAD SWAP1 PUSH2 0x100 EXP SWAP1 DIV PUSH20 0xFFFFFFFFFFFFFFFFFFFFFFFFFFFFFFFFFFFFFFFF AND PUSH20 0xFFFFFFFFFFFFFFFFFFFFFFFFFFFFFFFFFFFFFFFF AND PUSH4 0x18160DDD PUSH1 0x40 MLOAD DUP2 PUSH4 0xFFFFFFFF AND PUSH1 0xE0 SHL DUP2 MSTORE PUSH1 0x4 ADD PUSH1 0x20 PUSH1 0x40 MLOAD DUP1 DUP4 SUB DUP2 DUP7 DUP1 EXTCODESIZE ISZERO DUP1 ISZERO PUSH2 0x447 JUMPI PUSH1 0x0 DUP1 REVERT JUMPDEST POP GAS STATICCALL ISZERO DUP1 ISZERO PUSH2 0x45B JUMPI RETURNDATASIZE PUSH1 0x0 DUP1 RETURNDATACOPY RETURNDATASIZE PUSH1 0x0 REVERT JUMPDEST POP POP POP POP PUSH1 0x40 MLOAD RETURNDATASIZE PUSH1 0x1F NOT PUSH1 0x1F DUP3 ADD AND DUP3 ADD DUP1 PUSH1 0x40 MSTORE POP DUP2 ADD SWAP1 PUSH2 0x47F SWAP2 SWAP1 PUSH2 0x20D1 JUMP JUMPDEST SWAP1 POP SWAP1 JUMP JUMPDEST PUSH1 0x0 DUP1 PUSH1 0x0 SWAP1 SLOAD SWAP1 PUSH2 0x100 EXP SWAP1 DIV PUSH20 0xFFFFFFFFFFFFFFFFFFFFFFFFFFFFFFFFFFFFFFFF AND PUSH20 0xFFFFFFFFFFFFFFFFFFFFFFFFFFFFFFFFFFFFFFFF AND PUSH4 0x35EE5F87 DUP5 DUP5 PUSH1 0x40 MLOAD DUP4 PUSH4 0xFFFFFFFF AND PUSH1 0xE0 SHL DUP2 MSTORE PUSH1 0x4 ADD PUSH2 0x4E2 SWAP3 SWAP2 SWAP1 PUSH2 0x26AA JUMP JUMPDEST PUSH1 0x20 PUSH1 0x40 MLOAD DUP1 DUP4 SUB DUP2 DUP7 DUP1 EXTCODESIZE ISZERO DUP1 ISZERO PUSH2 0x4FA JUMPI PUSH1 0x0 DUP1 REVERT JUMPDEST POP GAS STATICCALL ISZERO DUP1 ISZERO PUSH2 0x50E JUMPI RETURNDATASIZE PUSH1 0x0 DUP1 RETURNDATACOPY RETURNDATASIZE PUSH1 0x0 REVERT JUMPDEST POP POP POP POP PUSH1 0x40 MLOAD RETURNDATASIZE PUSH1 0x1F NOT PUSH1 0x1F DUP3 ADD AND DUP3 ADD DUP1 PUSH1 0x40 MSTORE POP DUP2 ADD SWAP1 PUSH2 0x532 SWAP2 SWAP1 PUSH2 0x20D1 JUMP JUMPDEST SWAP1 POP SWAP3 SWAP2 POP POP JUMP JUMPDEST PUSH1 0x1 PUSH1 0x0 SWAP1 SLOAD SWAP1 PUSH2 0x100 EXP SWAP1 DIV PUSH20 0xFFFFFFFFFFFFFFFFFFFFFFFFFFFFFFFFFFFFFFFF AND PUSH20 0xFFFFFFFFFFFFFFFFFFFFFFFFFFFFFFFFFFFFFFFF AND PUSH4 0x3FFBD47F DUP6 DUP6 DUP6 DUP6 PUSH1 0x40 MLOAD DUP6 PUSH4 0xFFFFFFFF AND PUSH1 0xE0 SHL DUP2 MSTORE PUSH1 0x4 ADD PUSH2 0x59B SWAP5 SWAP4 SWAP3 SWAP2 SWAP1 PUSH2 0x26CE JUMP JUMPDEST PUSH1 0x0 PUSH1 0x40 MLOAD DUP1 DUP4 SUB DUP2 PUSH1 0x0 DUP8 DUP1 EXTCODESIZE ISZERO DUP1 ISZERO PUSH2 0x5B5 JUMPI PUSH1 0x0 DUP1 REVERT JUMPDEST POP GAS CALL ISZERO DUP1 ISZERO PUSH2 0x5C9 JUMPI RETURNDATASIZE PUSH1 0x0 DUP1 RETURNDATACOPY RETURNDATASIZE PUSH1 0x0 REVERT JUMPDEST POP POP POP POP POP POP POP POP JUMP JUMPDEST PUSH1 0x0 PUSH1 0x1 PUSH1 0x0 SWAP1 SLOAD SWAP1 PUSH2 0x100 EXP SWAP1 DIV PUSH20 0xFFFFFFFFFFFFFFFFFFFFFFFFFFFFFFFFFFFFFFFF AND PUSH20 0xFFFFFFFFFFFFFFFFFFFFFFFFFFFFFFFFFFFFFFFF AND PUSH4 0x58467DBC DUP7 DUP7 DUP7 DUP7 PUSH1 0x40 MLOAD DUP6 PUSH4 0xFFFFFFFF AND PUSH1 0xE0 SHL DUP2 MSTORE PUSH1 0x4 ADD PUSH2 0x636 SWAP5 SWAP4 SWAP3 SWAP2 SWAP1 PUSH2 0x26CE JUMP JUMPDEST PUSH1 0x20 PUSH1 0x40 MLOAD DUP1 DUP4 SUB DUP2 DUP7 DUP1 EXTCODESIZE ISZERO DUP1 ISZERO PUSH2 0x64E JUMPI PUSH1 0x0 DUP1 REVERT JUMPDEST POP GAS STATICCALL ISZERO DUP1 ISZERO PUSH2 0x662 JUMPI RETURNDATASIZE PUSH1 0x0 DUP1 RETURNDATACOPY RETURNDATASIZE PUSH1 0x0 REVERT JUMPDEST POP POP POP POP PUSH1 0x40 MLOAD RETURNDATASIZE PUSH1 0x1F NOT PUSH1 0x1F DUP3 ADD AND DUP3 ADD DUP1 PUSH1 0x40 MSTORE POP DUP2 ADD SWAP1 PUSH2 0x686 SWAP2 SWAP1 PUSH2 0x1D5F JUMP JUMPDEST SWAP1 POP SWAP5 SWAP4 POP POP POP POP JUMP JUMPDEST PUSH1 0x1 PUSH1 0x0 SWAP1 SLOAD SWAP1 PUSH2 0x100 EXP SWAP1 DIV PUSH20 0xFFFFFFFFFFFFFFFFFFFFFFFFFFFFFFFFFFFFFFFF AND PUSH20 0xFFFFFFFFFFFFFFFFFFFFFFFFFFFFFFFFFFFFFFFF AND PUSH4 0x58467DBC DUP7 DUP7 DUP7 DUP7 PUSH1 0x40 MLOAD DUP6 PUSH4 0xFFFFFFFF AND PUSH1 0xE0 SHL DUP2 MSTORE PUSH1 0x4 ADD PUSH2 0x6F1 SWAP5 SWAP4 SWAP3 SWAP2 SWAP1 PUSH2 0x26CE JUMP JUMPDEST PUSH1 0x20 PUSH1 0x40 MLOAD DUP1 DUP4 SUB DUP2 DUP7 DUP1 EXTCODESIZE ISZERO DUP1 ISZERO PUSH2 0x709 JUMPI PUSH1 0x0 DUP1 REVERT JUMPDEST POP GAS STATICCALL ISZERO DUP1 ISZERO PUSH2 0x71D JUMPI RETURNDATASIZE PUSH1 0x0 DUP1 RETURNDATACOPY RETURNDATASIZE PUSH1 0x0 REVERT JUMPDEST POP POP POP POP PUSH1 0x40 MLOAD RETURNDATASIZE PUSH1 0x1F NOT PUSH1 0x1F DUP3 ADD AND DUP3 ADD DUP1 PUSH1 0x40 MSTORE POP DUP2 ADD SWAP1 PUSH2 0x741 SWAP2 SWAP1 PUSH2 0x1D5F JUMP JUMPDEST PUSH2 0x780 JUMPI PUSH1 0x40 MLOAD PUSH32 0x8C379A000000000000000000000000000000000000000000000000000000000 DUP2 MSTORE PUSH1 0x4 ADD PUSH2 0x777 SWAP1 PUSH2 0x28F5 JUMP JUMPDEST PUSH1 0x40 MLOAD DUP1 SWAP2 SUB SWAP1 REVERT JUMPDEST PUSH1 0x0 PUSH1 0x4 DUP3 DUP2 SLOAD DUP2 LT PUSH2 0x78F JUMPI INVALID JUMPDEST SWAP1 PUSH1 0x0 MSTORE PUSH1 0x20 PUSH1 0x0 KECCAK256 SWAP1 PUSH1 0x7 MUL ADD PUSH1 0x5 ADD SLOAD GT PUSH2 0x7E1 JUMPI PUSH1 0x40 MLOAD PUSH32 0x8C379A000000000000000000000000000000000000000000000000000000000 DUP2 MSTORE PUSH1 0x4 ADD PUSH2 0x7D8 SWAP1 PUSH2 0x2895 JUMP JUMPDEST PUSH1 0x40 MLOAD DUP1 SWAP2 SUB SWAP1 REVERT JUMPDEST PUSH1 0x0 PUSH1 0x4 DUP3 DUP2 SLOAD DUP2 LT PUSH2 0x7F0 JUMPI INVALID JUMPDEST SWAP1 PUSH1 0x0 MSTORE PUSH1 0x20 PUSH1 0x0 KECCAK256 SWAP1 PUSH1 0x7 MUL ADD PUSH1 0x4 ADD PUSH1 0x0 SWAP1 SLOAD SWAP1 PUSH2 0x100 EXP SWAP1 DIV PUSH1 0xFF AND PUSH1 0xFF AND EQ PUSH2 0x852 JUMPI PUSH1 0x40 MLOAD PUSH32 0x8C379A000000000000000000000000000000000000000000000000000000000 DUP2 MSTORE PUSH1 0x4 ADD PUSH2 0x849 SWAP1 PUSH2 0x2935 JUMP JUMPDEST PUSH1 0x40 MLOAD DUP1 SWAP2 SUB SWAP1 REVERT JUMPDEST DUP5 DUP5 PUSH1 0x4 DUP4 DUP2 SLOAD DUP2 LT PUSH2 0x861 JUMPI INVALID JUMPDEST SWAP1 PUSH1 0x0 MSTORE PUSH1 0x20 PUSH1 0x0 KECCAK256 SWAP1 PUSH1 0x7 MUL ADD PUSH1 0x1 ADD SWAP2 SWAP1 PUSH2 0x87F SWAP3 SWAP2 SWAP1 PUSH2 0x1B5C JUMP JUMPDEST POP PUSH1 0x1 PUSH1 0x4 DUP3 DUP2 SLOAD DUP2 LT PUSH2 0x88F JUMPI INVALID JUMPDEST SWAP1 PUSH1 0x0 MSTORE PUSH1 0x20 PUSH1 0x0 KECCAK256 SWAP1 PUSH1 0x7 MUL ADD PUSH1 0x4 ADD PUSH1 0x0 PUSH2 0x100 EXP DUP2 SLOAD DUP2 PUSH1 0xFF MUL NOT AND SWAP1 DUP4 PUSH1 0xFF AND MUL OR SWAP1 SSTORE POP POP POP POP POP POP JUMP JUMPDEST PUSH1 0x1 PUSH1 0x0 SWAP1 SLOAD SWAP1 PUSH2 0x100 EXP SWAP1 DIV PUSH20 0xFFFFFFFFFFFFFFFFFFFFFFFFFFFFFFFFFFFFFFFF AND PUSH20 0xFFFFFFFFFFFFFFFFFFFFFFFFFFFFFFFFFFFFFFFF AND PUSH4 0x58467DBC DUP9 DUP9 DUP9 DUP9 PUSH1 0x40 MLOAD DUP6 PUSH4 0xFFFFFFFF AND PUSH1 0xE0 SHL DUP2 MSTORE PUSH1 0x4 ADD PUSH2 0x920 SWAP5 SWAP4 SWAP3 SWAP2 SWAP1 PUSH2 0x26CE JUMP JUMPDEST PUSH1 0x20 PUSH1 0x40 MLOAD DUP1 DUP4 SUB DUP2 DUP7 DUP1 EXTCODESIZE ISZERO DUP1 ISZERO PUSH2 0x938 JUMPI PUSH1 0x0 DUP1 REVERT JUMPDEST POP GAS STATICCALL ISZERO DUP1 ISZERO PUSH2 0x94C JUMPI RETURNDATASIZE PUSH1 0x0 DUP1 RETURNDATACOPY RETURNDATASIZE PUSH1 0x0 REVERT JUMPDEST POP POP POP POP PUSH1 0x40 MLOAD RETURNDATASIZE PUSH1 0x1F NOT PUSH1 0x1F DUP3 ADD AND DUP3 ADD DUP1 PUSH1 0x40 MSTORE POP DUP2 ADD SWAP1 PUSH2 0x970 SWAP2 SWAP1 PUSH2 0x1D5F JUMP JUMPDEST PUSH2 0x9AF JUMPI PUSH1 0x40 MLOAD PUSH32 0x8C379A000000000000000000000000000000000000000000000000000000000 DUP2 MSTORE PUSH1 0x4 ADD PUSH2 0x9A6 SWAP1 PUSH2 0x28B5 JUMP JUMPDEST PUSH1 0x40 MLOAD DUP1 SWAP2 SUB SWAP1 REVERT JUMPDEST PUSH1 0x0 DUP2 GT PUSH2 0x9F2 JUMPI PUSH1 0x40 MLOAD PUSH32 0x8C379A000000000000000000000000000000000000000000000000000000000 DUP2 MSTORE PUSH1 0x4 ADD PUSH2 0x9E9 SWAP1 PUSH2 0x2975 JUMP JUMPDEST PUSH1 0x40 MLOAD DUP1 SWAP2 SUB SWAP1 REVERT JUMPDEST DUP1 PUSH1 0x0 DUP1 SWAP1 SLOAD SWAP1 PUSH2 0x100 EXP SWAP1 DIV PUSH20 0xFFFFFFFFFFFFFFFFFFFFFFFFFFFFFFFFFFFFFFFF AND PUSH20 0xFFFFFFFFFFFFFFFFFFFFFFFFFFFFFFFFFFFFFFFF AND PUSH4 0x35EE5F87 DUP10 DUP10 PUSH1 0x40 MLOAD DUP4 PUSH4 0xFFFFFFFF AND PUSH1 0xE0 SHL DUP2 MSTORE PUSH1 0x4 ADD PUSH2 0xA4F SWAP3 SWAP2 SWAP1 PUSH2 0x26AA JUMP JUMPDEST PUSH1 0x20 PUSH1 0x40 MLOAD DUP1 DUP4 SUB DUP2 DUP7 DUP1 EXTCODESIZE ISZERO DUP1 ISZERO PUSH2 0xA67 JUMPI PUSH1 0x0 DUP1 REVERT JUMPDEST POP GAS STATICCALL ISZERO DUP1 ISZERO PUSH2 0xA7B JUMPI RETURNDATASIZE PUSH1 0x0 DUP1 RETURNDATACOPY RETURNDATASIZE PUSH1 0x0 REVERT JUMPDEST POP POP POP POP PUSH1 0x40 MLOAD RETURNDATASIZE PUSH1 0x1F NOT PUSH1 0x1F DUP3 ADD AND DUP3 ADD DUP1 PUSH1 0x40 MSTORE POP DUP2 ADD SWAP1 PUSH2 0xA9F SWAP2 SWAP1 PUSH2 0x20D1 JUMP JUMPDEST LT ISZERO PUSH2 0xAE0 JUMPI PUSH1 0x40 MLOAD PUSH32 0x8C379A000000000000000000000000000000000000000000000000000000000 DUP2 MSTORE PUSH1 0x4 ADD PUSH2 0xAD7 SWAP1 PUSH2 0x2995 JUMP JUMPDEST PUSH1 0x40 MLOAD DUP1 SWAP2 SUB SWAP1 REVERT JUMPDEST PUSH2 0xAE8 PUSH2 0x1BDC JUMP JUMPDEST PUSH1 0x40 MLOAD DUP1 PUSH1 0xE0 ADD PUSH1 0x40 MSTORE DUP1 DUP10 DUP10 DUP1 DUP1 PUSH1 0x1F ADD PUSH1 0x20 DUP1 SWAP2 DIV MUL PUSH1 0x20 ADD PUSH1 0x40 MLOAD SWAP1 DUP2 ADD PUSH1 0x40 MSTORE DUP1 SWAP4 SWAP3 SWAP2 SWAP1 DUP2 DUP2 MSTORE PUSH1 0x20 ADD DUP4 DUP4 DUP1 DUP3 DUP5 CALLDATACOPY PUSH1 0x0 DUP2 DUP5 ADD MSTORE PUSH1 0x1F NOT PUSH1 0x1F DUP3 ADD AND SWAP1 POP DUP1 DUP4 ADD SWAP3 POP POP POP POP POP POP POP DUP2 MSTORE PUSH1 0x20 ADD PUSH1 0x40 MLOAD DUP1 PUSH1 0x20 ADD PUSH1 0x40 MSTORE DUP1 PUSH1 0x0 DUP2 MSTORE POP DUP2 MSTORE PUSH1 0x20 ADD DUP6 DUP6 DUP1 DUP1 PUSH1 0x1F ADD PUSH1 0x20 DUP1 SWAP2 DIV MUL PUSH1 0x20 ADD PUSH1 0x40 MLOAD SWAP1 DUP2 ADD PUSH1 0x40 MSTORE DUP1 SWAP4 SWAP3 SWAP2 SWAP1 DUP2 DUP2 MSTORE PUSH1 0x20 ADD DUP4 DUP4 DUP1 DUP3 DUP5 CALLDATACOPY PUSH1 0x0 DUP2 DUP5 ADD MSTORE PUSH1 0x1F NOT PUSH1 0x1F DUP3 ADD AND SWAP1 POP DUP1 DUP4 ADD SWAP3 POP POP POP POP POP POP POP DUP2 MSTORE PUSH1 0x20 ADD DUP4 DUP2 MSTORE PUSH1 0x20 ADD PUSH1 0x0 PUSH1 0xFF AND DUP2 MSTORE PUSH1 0x20 ADD TIMESTAMP DUP2 MSTORE PUSH1 0x20 ADD PUSH1 0x40 MLOAD DUP1 PUSH1 0x20 ADD PUSH1 0x40 MSTORE DUP1 PUSH1 0x0 DUP2 MSTORE POP DUP2 MSTORE POP SWAP1 POP PUSH1 0x4 DUP2 SWAP1 DUP1 PUSH1 0x1 DUP2 SLOAD ADD DUP1 DUP3 SSTORE DUP1 SWAP2 POP POP PUSH1 0x1 SWAP1 SUB SWAP1 PUSH1 0x0 MSTORE PUSH1 0x20 PUSH1 0x0 KECCAK256 SWAP1 PUSH1 0x7 MUL ADD PUSH1 0x0 SWAP1 SWAP2 SWAP1 SWAP2 SWAP1 SWAP2 POP PUSH1 0x0 DUP3 ADD MLOAD DUP2 PUSH1 0x0 ADD SWAP1 DUP1 MLOAD SWAP1 PUSH1 0x20 ADD SWAP1 PUSH2 0xC0F SWAP3 SWAP2 SWAP1 PUSH2 0x1C1C JUMP JUMPDEST POP PUSH1 0x20 DUP3 ADD MLOAD DUP2 PUSH1 0x1 ADD SWAP1 DUP1 MLOAD SWAP1 PUSH1 0x20 ADD SWAP1 PUSH2 0xC2C SWAP3 SWAP2 SWAP1 PUSH2 0x1C1C JUMP JUMPDEST POP PUSH1 0x40 DUP3 ADD MLOAD DUP2 PUSH1 0x2 ADD SWAP1 DUP1 MLOAD SWAP1 PUSH1 0x20 ADD SWAP1 PUSH2 0xC49 SWAP3 SWAP2 SWAP1 PUSH2 0x1C1C JUMP JUMPDEST POP PUSH1 0x60 DUP3 ADD MLOAD DUP2 PUSH1 0x3 ADD SSTORE PUSH1 0x80 DUP3 ADD MLOAD DUP2 PUSH1 0x4 ADD PUSH1 0x0 PUSH2 0x100 EXP DUP2 SLOAD DUP2 PUSH1 0xFF MUL NOT AND SWAP1 DUP4 PUSH1 0xFF AND MUL OR SWAP1 SSTORE POP PUSH1 0xA0 DUP3 ADD MLOAD DUP2 PUSH1 0x5 ADD SSTORE PUSH1 0xC0 DUP3 ADD MLOAD DUP2 PUSH1 0x6 ADD SWAP1 DUP1 MLOAD SWAP1 PUSH1 0x20 ADD SWAP1 PUSH2 0xC9B SWAP3 SWAP2 SWAP1 PUSH2 0x1C1C JUMP JUMPDEST POP POP POP POP POP POP POP POP POP POP POP JUMP JUMPDEST PUSH1 0x1 PUSH1 0x0 SWAP1 SLOAD SWAP1 PUSH2 0x100 EXP SWAP1 DIV PUSH20 0xFFFFFFFFFFFFFFFFFFFFFFFFFFFFFFFFFFFFFFFF AND PUSH20 0xFFFFFFFFFFFFFFFFFFFFFFFFFFFFFFFFFFFFFFFF AND PUSH4 0x58467DBC DUP7 DUP7 DUP7 DUP7 PUSH1 0x40 MLOAD DUP6 PUSH4 0xFFFFFFFF AND PUSH1 0xE0 SHL DUP2 MSTORE PUSH1 0x4 ADD PUSH2 0xD09 SWAP5 SWAP4 SWAP3 SWAP2 SWAP1 PUSH2 0x26CE JUMP JUMPDEST PUSH1 0x20 PUSH1 0x40 MLOAD DUP1 DUP4 SUB DUP2 DUP7 DUP1 EXTCODESIZE ISZERO DUP1 ISZERO PUSH2 0xD21 JUMPI PUSH1 0x0 DUP1 REVERT JUMPDEST POP GAS STATICCALL ISZERO DUP1 ISZERO PUSH2 0xD35 JUMPI RETURNDATASIZE PUSH1 0x0 DUP1 RETURNDATACOPY RETURNDATASIZE PUSH1 0x0 REVERT JUMPDEST POP POP POP POP PUSH1 0x40 MLOAD RETURNDATASIZE PUSH1 0x1F NOT PUSH1 0x1F DUP3 ADD AND DUP3 ADD DUP1 PUSH1 0x40 MSTORE POP DUP2 ADD SWAP1 PUSH2 0xD59 SWAP2 SWAP1 PUSH2 0x1D5F JUMP JUMPDEST PUSH2 0xD98 JUMPI PUSH1 0x40 MLOAD PUSH32 0x8C379A000000000000000000000000000000000000000000000000000000000 DUP2 MSTORE PUSH1 0x4 ADD PUSH2 0xD8F SWAP1 PUSH2 0x28F5 JUMP JUMPDEST PUSH1 0x40 MLOAD DUP1 SWAP2 SUB SWAP1 REVERT JUMPDEST PUSH1 0x0 PUSH1 0x4 DUP3 DUP2 SLOAD DUP2 LT PUSH2 0xDA7 JUMPI INVALID JUMPDEST SWAP1 PUSH1 0x0 MSTORE PUSH1 0x20 PUSH1 0x0 KECCAK256 SWAP1 PUSH1 0x7 MUL ADD PUSH1 0x5 ADD SLOAD GT PUSH2 0xDF9 JUMPI PUSH1 0x40 MLOAD PUSH32 0x8C379A000000000000000000000000000000000000000000000000000000000 DUP2 MSTORE PUSH1 0x4 ADD PUSH2 0xDF0 SWAP1 PUSH2 0x2895 JUMP JUMPDEST PUSH1 0x40 MLOAD DUP1 SWAP2 SUB SWAP1 REVERT JUMPDEST PUSH1 0x1 PUSH1 0x4 DUP3 DUP2 SLOAD DUP2 LT PUSH2 0xE08 JUMPI INVALID JUMPDEST SWAP1 PUSH1 0x0 MSTORE PUSH1 0x20 PUSH1 0x0 KECCAK256 SWAP1 PUSH1 0x7 MUL ADD PUSH1 0x4 ADD PUSH1 0x0 SWAP1 SLOAD SWAP1 PUSH2 0x100 EXP SWAP1 DIV PUSH1 0xFF AND PUSH1 0xFF AND EQ PUSH2 0xE6A JUMPI PUSH1 0x40 MLOAD PUSH32 0x8C379A000000000000000000000000000000000000000000000000000000000 DUP2 MSTORE PUSH1 0x4 ADD PUSH2 0xE61 SWAP1 PUSH2 0x2855 JUMP JUMPDEST PUSH1 0x40 MLOAD DUP1 SWAP2 SUB SWAP1 REVERT JUMPDEST PUSH2 0xF77 PUSH1 0x4 DUP3 DUP2 SLOAD DUP2 LT PUSH2 0xE7A JUMPI INVALID JUMPDEST SWAP1 PUSH1 0x0 MSTORE PUSH1 0x20 PUSH1 0x0 KECCAK256 SWAP1 PUSH1 0x7 MUL ADD PUSH1 0x1 ADD DUP1 SLOAD PUSH1 0x1 DUP2 PUSH1 0x1 AND ISZERO PUSH2 0x100 MUL SUB AND PUSH1 0x2 SWAP1 DIV DUP1 PUSH1 0x1F ADD PUSH1 0x20 DUP1 SWAP2 DIV MUL PUSH1 0x20 ADD PUSH1 0x40 MLOAD SWAP1 DUP2 ADD PUSH1 0x40 MSTORE DUP1 SWAP3 SWAP2 SWAP1 DUP2 DUP2 MSTORE PUSH1 0x20 ADD DUP3 DUP1 SLOAD PUSH1 0x1 DUP2 PUSH1 0x1 AND ISZERO PUSH2 0x100 MUL SUB AND PUSH1 0x2 SWAP1 DIV DUP1 ISZERO PUSH2 0xF1F JUMPI DUP1 PUSH1 0x1F LT PUSH2 0xEF4 JUMPI PUSH2 0x100 DUP1 DUP4 SLOAD DIV MUL DUP4 MSTORE SWAP2 PUSH1 0x20 ADD SWAP2 PUSH2 0xF1F JUMP JUMPDEST DUP3 ADD SWAP2 SWAP1 PUSH1 0x0 MSTORE PUSH1 0x20 PUSH1 0x0 KECCAK256 SWAP1 JUMPDEST DUP2 SLOAD DUP2 MSTORE SWAP1 PUSH1 0x1 ADD SWAP1 PUSH1 0x20 ADD DUP1 DUP4 GT PUSH2 0xF02 JUMPI DUP3 SWAP1 SUB PUSH1 0x1F AND DUP3 ADD SWAP2 JUMPDEST POP POP POP POP POP DUP7 DUP7 DUP1 DUP1 PUSH1 0x1F ADD PUSH1 0x20 DUP1 SWAP2 DIV MUL PUSH1 0x20 ADD PUSH1 0x40 MLOAD SWAP1 DUP2 ADD PUSH1 0x40 MSTORE DUP1 SWAP4 SWAP3 SWAP2 SWAP1 DUP2 DUP2 MSTORE PUSH1 0x20 ADD DUP4 DUP4 DUP1 DUP3 DUP5 CALLDATACOPY PUSH1 0x0 DUP2 DUP5 ADD MSTORE PUSH1 0x1F NOT PUSH1 0x1F DUP3 ADD AND SWAP1 POP DUP1 DUP4 ADD SWAP3 POP POP POP POP POP POP POP PUSH2 0x1AF8 SWAP1 SWAP2 SWAP1 PUSH4 0xFFFFFFFF AND JUMP JUMPDEST PUSH2 0xFB6 JUMPI PUSH1 0x40 MLOAD PUSH32 0x8C379A000000000000000000000000000000000000000000000000000000000 DUP2 MSTORE PUSH1 0x4 ADD PUSH2 0xFAD SWAP1 PUSH2 0x2875 JUMP JUMPDEST PUSH1 0x40 MLOAD DUP1 SWAP2 SUB SWAP1 REVERT JUMPDEST PUSH1 0x2 PUSH1 0x4 DUP3 DUP2 SLOAD DUP2 LT PUSH2 0xFC5 JUMPI INVALID JUMPDEST SWAP1 PUSH1 0x0 MSTORE PUSH1 0x20 PUSH1 0x0 KECCAK256 SWAP1 PUSH1 0x7 MUL ADD PUSH1 0x4 ADD PUSH1 0x0 PUSH2 0x100 EXP DUP2 SLOAD DUP2 PUSH1 0xFF MUL NOT AND SWAP1 DUP4 PUSH1 0xFF AND MUL OR SWAP1 SSTORE POP POP POP POP POP POP JUMP JUMPDEST PUSH1 0x60 PUSH1 0x4 DUP1 SLOAD DUP1 PUSH1 0x20 MUL PUSH1 0x20 ADD PUSH1 0x40 MLOAD SWAP1 DUP2 ADD PUSH1 0x40 MSTORE DUP1 SWAP3 SWAP2 SWAP1 DUP2 DUP2 MSTORE PUSH1 0x20 ADD PUSH1 0x0 SWAP1 JUMPDEST DUP3 DUP3 LT ISZERO PUSH2 0x1304 JUMPI DUP4 DUP3 SWAP1 PUSH1 0x0 MSTORE PUSH1 0x20 PUSH1 0x0 KECCAK256 SWAP1 PUSH1 0x7 MUL ADD PUSH1 0x40 MLOAD DUP1 PUSH1 0xE0 ADD PUSH1 0x40 MSTORE SWAP1 DUP2 PUSH1 0x0 DUP3 ADD DUP1 SLOAD PUSH1 0x1 DUP2 PUSH1 0x1 AND ISZERO PUSH2 0x100 MUL SUB AND PUSH1 0x2 SWAP1 DIV DUP1 PUSH1 0x1F ADD PUSH1 0x20 DUP1 SWAP2 DIV MUL PUSH1 0x20 ADD PUSH1 0x40 MLOAD SWAP1 DUP2 ADD PUSH1 0x40 MSTORE DUP1 SWAP3 SWAP2 SWAP1 DUP2 DUP2 MSTORE PUSH1 0x20 ADD DUP3 DUP1 SLOAD PUSH1 0x1 DUP2 PUSH1 0x1 AND ISZERO PUSH2 0x100 MUL SUB AND PUSH1 0x2 SWAP1 DIV DUP1 ISZERO PUSH2 0x10D5 JUMPI DUP1 PUSH1 0x1F LT PUSH2 0x10AA JUMPI PUSH2 0x100 DUP1 DUP4 SLOAD DIV MUL DUP4 MSTORE SWAP2 PUSH1 0x20 ADD SWAP2 PUSH2 0x10D5 JUMP JUMPDEST DUP3 ADD SWAP2 SWAP1 PUSH1 0x0 MSTORE PUSH1 0x20 PUSH1 0x0 KECCAK256 SWAP1 JUMPDEST DUP2 SLOAD DUP2 MSTORE SWAP1 PUSH1 0x1 ADD SWAP1 PUSH1 0x20 ADD DUP1 DUP4 GT PUSH2 0x10B8 JUMPI DUP3 SWAP1 SUB PUSH1 0x1F AND DUP3 ADD SWAP2 JUMPDEST POP POP POP POP POP DUP2 MSTORE PUSH1 0x20 ADD PUSH1 0x1 DUP3 ADD DUP1 SLOAD PUSH1 0x1 DUP2 PUSH1 0x1 AND ISZERO PUSH2 0x100 MUL SUB AND PUSH1 0x2 SWAP1 DIV DUP1 PUSH1 0x1F ADD PUSH1 0x20 DUP1 SWAP2 DIV MUL PUSH1 0x20 ADD PUSH1 0x40 MLOAD SWAP1 DUP2 ADD PUSH1 0x40 MSTORE DUP1 SWAP3 SWAP2 SWAP1 DUP2 DUP2 MSTORE PUSH1 0x20 ADD DUP3 DUP1 SLOAD PUSH1 0x1 DUP2 PUSH1 0x1 AND ISZERO PUSH2 0x100 MUL SUB AND PUSH1 0x2 SWAP1 DIV DUP1 ISZERO PUSH2 0x1177 JUMPI DUP1 PUSH1 0x1F LT PUSH2 0x114C JUMPI PUSH2 0x100 DUP1 DUP4 SLOAD DIV MUL DUP4 MSTORE SWAP2 PUSH1 0x20 ADD SWAP2 PUSH2 0x1177 JUMP JUMPDEST DUP3 ADD SWAP2 SWAP1 PUSH1 0x0 MSTORE PUSH1 0x20 PUSH1 0x0 KECCAK256 SWAP1 JUMPDEST DUP2 SLOAD DUP2 MSTORE SWAP1 PUSH1 0x1 ADD SWAP1 PUSH1 0x20 ADD DUP1 DUP4 GT PUSH2 0x115A JUMPI DUP3 SWAP1 SUB PUSH1 0x1F AND DUP3 ADD SWAP2 JUMPDEST POP POP POP POP POP DUP2 MSTORE PUSH1 0x20 ADD PUSH1 0x2 DUP3 ADD DUP1 SLOAD PUSH1 0x1 DUP2 PUSH1 0x1 AND ISZERO PUSH2 0x100 MUL SUB AND PUSH1 0x2 SWAP1 DIV DUP1 PUSH1 0x1F ADD PUSH1 0x20 DUP1 SWAP2 DIV MUL PUSH1 0x20 ADD PUSH1 0x40 MLOAD SWAP1 DUP2 ADD PUSH1 0x40 MSTORE DUP1 SWAP3 SWAP2 SWAP1 DUP2 DUP2 MSTORE PUSH1 0x20 ADD DUP3 DUP1 SLOAD PUSH1 0x1 DUP2 PUSH1 0x1 AND ISZERO PUSH2 0x100 MUL SUB AND PUSH1 0x2 SWAP1 DIV DUP1 ISZERO PUSH2 0x1219 JUMPI DUP1 PUSH1 0x1F LT PUSH2 0x11EE JUMPI PUSH2 0x100 DUP1 DUP4 SLOAD DIV MUL DUP4 MSTORE SWAP2 PUSH1 0x20 ADD SWAP2 PUSH2 0x1219 JUMP JUMPDEST DUP3 ADD SWAP2 SWAP1 PUSH1 0x0 MSTORE PUSH1 0x20 PUSH1 0x0 KECCAK256 SWAP1 JUMPDEST DUP2 SLOAD DUP2 MSTORE SWAP1 PUSH1 0x1 ADD SWAP1 PUSH1 0x20 ADD DUP1 DUP4 GT PUSH2 0x11FC JUMPI DUP3 SWAP1 SUB PUSH1 0x1F AND DUP3 ADD SWAP2 JUMPDEST POP POP POP POP POP DUP2 MSTORE PUSH1 0x20 ADD PUSH1 0x3 DUP3 ADD SLOAD DUP2 MSTORE PUSH1 0x20 ADD PUSH1 0x4 DUP3 ADD PUSH1 0x0 SWAP1 SLOAD SWAP1 PUSH2 0x100 EXP SWAP1 DIV PUSH1 0xFF AND PUSH1 0xFF AND PUSH1 0xFF AND DUP2 MSTORE PUSH1 0x20 ADD PUSH1 0x5 DUP3 ADD SLOAD DUP2 MSTORE PUSH1 0x20 ADD PUSH1 0x6 DUP3 ADD DUP1 SLOAD PUSH1 0x1 DUP2 PUSH1 0x1 AND ISZERO PUSH2 0x100 MUL SUB AND PUSH1 0x2 SWAP1 DIV DUP1 PUSH1 0x1F ADD PUSH1 0x20 DUP1 SWAP2 DIV MUL PUSH1 0x20 ADD PUSH1 0x40 MLOAD SWAP1 DUP2 ADD PUSH1 0x40 MSTORE DUP1 SWAP3 SWAP2 SWAP1 DUP2 DUP2 MSTORE PUSH1 0x20 ADD DUP3 DUP1 SLOAD PUSH1 0x1 DUP2 PUSH1 0x1 AND ISZERO PUSH2 0x100 MUL SUB AND PUSH1 0x2 SWAP1 DIV DUP1 ISZERO PUSH2 0x12EC JUMPI DUP1 PUSH1 0x1F LT PUSH2 0x12C1 JUMPI PUSH2 0x100 DUP1 DUP4 SLOAD DIV MUL DUP4 MSTORE SWAP2 PUSH1 0x20 ADD SWAP2 PUSH2 0x12EC JUMP JUMPDEST DUP3 ADD SWAP2 SWAP1 PUSH1 0x0 MSTORE PUSH1 0x20 PUSH1 0x0 KECCAK256 SWAP1 JUMPDEST DUP2 SLOAD DUP2 MSTORE SWAP1 PUSH1 0x1 ADD SWAP1 PUSH1 0x20 ADD DUP1 DUP4 GT PUSH2 0x12CF JUMPI DUP3 SWAP1 SUB PUSH1 0x1F AND DUP3 ADD SWAP2 JUMPDEST POP POP POP POP POP DUP2 MSTORE POP POP DUP2 MSTORE PUSH1 0x20 ADD SWAP1 PUSH1 0x1 ADD SWAP1 PUSH2 0x1019 JUMP JUMPDEST POP POP POP POP SWAP1 POP SWAP1 JUMP JUMPDEST PUSH1 0x60 DUP1 PUSH1 0x0 PUSH1 0x60 PUSH1 0x0 PUSH1 0x4 DUP7 DUP2 SLOAD DUP2 LT PUSH2 0x1323 JUMPI INVALID JUMPDEST SWAP1 PUSH1 0x0 MSTORE PUSH1 0x20 PUSH1 0x0 KECCAK256 SWAP1 PUSH1 0x7 MUL ADD PUSH1 0x0 ADD PUSH1 0x4 DUP8 DUP2 SLOAD DUP2 LT PUSH2 0x1341 JUMPI INVALID JUMPDEST SWAP1 PUSH1 0x0 MSTORE PUSH1 0x20 PUSH1 0x0 KECCAK256 SWAP1 PUSH1 0x7 MUL ADD PUSH1 0x2 ADD PUSH1 0x4 DUP9 DUP2 SLOAD DUP2 LT PUSH2 0x135F JUMPI INVALID JUMPDEST SWAP1 PUSH1 0x0 MSTORE PUSH1 0x20 PUSH1 0x0 KECCAK256 SWAP1 PUSH1 0x7 MUL ADD PUSH1 0x3 ADD SLOAD PUSH1 0x4 DUP10 DUP2 SLOAD DUP2 LT PUSH2 0x137E JUMPI INVALID JUMPDEST SWAP1 PUSH1 0x0 MSTORE PUSH1 0x20 PUSH1 0x0 KECCAK256 SWAP1 PUSH1 0x7 MUL ADD PUSH1 0x1 ADD PUSH1 0x4 DUP11 DUP2 SLOAD DUP2 LT PUSH2 0x139C JUMPI INVALID JUMPDEST SWAP1 PUSH1 0x0 MSTORE PUSH1 0x20 PUSH1 0x0 KECCAK256 SWAP1 PUSH1 0x7 MUL ADD PUSH1 0x4 ADD PUSH1 0x0 SWAP1 SLOAD SWAP1 PUSH2 0x100 EXP SWAP1 DIV PUSH1 0xFF AND DUP5 DUP1 SLOAD PUSH1 0x1 DUP2 PUSH1 0x1 AND ISZERO PUSH2 0x100 MUL SUB AND PUSH1 0x2 SWAP1 DIV DUP1 PUSH1 0x1F ADD PUSH1 0x20 DUP1 SWAP2 DIV MUL PUSH1 0x20 ADD PUSH1 0x40 MLOAD SWAP1 DUP2 ADD PUSH1 0x40 MSTORE DUP1 SWAP3 SWAP2 SWAP1 DUP2 DUP2 MSTORE PUSH1 0x20 ADD DUP3 DUP1 SLOAD PUSH1 0x1 DUP2 PUSH1 0x1 AND ISZERO PUSH2 0x100 MUL SUB AND PUSH1 0x2 SWAP1 DIV DUP1 ISZERO PUSH2 0x1450 JUMPI DUP1 PUSH1 0x1F LT PUSH2 0x1425 JUMPI PUSH2 0x100 DUP1 DUP4 SLOAD DIV MUL DUP4 MSTORE SWAP2 PUSH1 0x20 ADD SWAP2 PUSH2 0x1450 JUMP JUMPDEST DUP3 ADD SWAP2 SWAP1 PUSH1 0x0 MSTORE PUSH1 0x20 PUSH1 0x0 KECCAK256 SWAP1 JUMPDEST DUP2 SLOAD DUP2 MSTORE SWAP1 PUSH1 0x1 ADD SWAP1 PUSH1 0x20 ADD DUP1 DUP4 GT PUSH2 0x1433 JUMPI DUP3 SWAP1 SUB PUSH1 0x1F AND DUP3 ADD SWAP2 JUMPDEST POP POP POP POP POP SWAP5 POP DUP4 DUP1 SLOAD PUSH1 0x1 DUP2 PUSH1 0x1 AND ISZERO PUSH2 0x100 MUL SUB AND PUSH1 0x2 SWAP1 DIV DUP1 PUSH1 0x1F ADD PUSH1 0x20 DUP1 SWAP2 DIV MUL PUSH1 0x20 ADD PUSH1 0x40 MLOAD SWAP1 DUP2 ADD PUSH1 0x40 MSTORE DUP1 SWAP3 SWAP2 SWAP1 DUP2 DUP2 MSTORE PUSH1 0x20 ADD DUP3 DUP1 SLOAD PUSH1 0x1 DUP2 PUSH1 0x1 AND ISZERO PUSH2 0x100 MUL SUB AND PUSH1 0x2 SWAP1 DIV DUP1 ISZERO PUSH2 0x14EC JUMPI DUP1 PUSH1 0x1F LT PUSH2 0x14C1 JUMPI PUSH2 0x100 DUP1 DUP4 SLOAD DIV MUL DUP4 MSTORE SWAP2 PUSH1 0x20 ADD SWAP2 PUSH2 0x14EC JUMP JUMPDEST DUP3 ADD SWAP2 SWAP1 PUSH1 0x0 MSTORE PUSH1 0x20 PUSH1 0x0 KECCAK256 SWAP1 JUMPDEST DUP2 SLOAD DUP2 MSTORE SWAP1 PUSH1 0x1 ADD SWAP1 PUSH1 0x20 ADD DUP1 DUP4 GT PUSH2 0x14CF JUMPI DUP3 SWAP1 SUB PUSH1 0x1F AND DUP3 ADD SWAP2 JUMPDEST POP POP POP POP POP SWAP4 POP DUP2 DUP1 SLOAD PUSH1 0x1 DUP2 PUSH1 0x1 AND ISZERO PUSH2 0x100 MUL SUB AND PUSH1 0x2 SWAP1 DIV DUP1 PUSH1 0x1F ADD PUSH1 0x20 DUP1 SWAP2 DIV MUL PUSH1 0x20 ADD PUSH1 0x40 MLOAD SWAP1 DUP2 ADD PUSH1 0x40 MSTORE DUP1 SWAP3 SWAP2 SWAP1 DUP2 DUP2 MSTORE PUSH1 0x20 ADD DUP3 DUP1 SLOAD PUSH1 0x1 DUP2 PUSH1 0x1 AND ISZERO PUSH2 0x100 MUL SUB AND PUSH1 0x2 SWAP1 DIV DUP1 ISZERO PUSH2 0x1588 JUMPI DUP1 PUSH1 0x1F LT PUSH2 0x155D JUMPI PUSH2 0x100 DUP1 DUP4 SLOAD DIV MUL DUP4 MSTORE SWAP2 PUSH1 0x20 ADD SWAP2 PUSH2 0x1588 JUMP JUMPDEST DUP3 ADD SWAP2 SWAP1 PUSH1 0x0 MSTORE PUSH1 0x20 PUSH1 0x0 KECCAK256 SWAP1 JUMPDEST DUP2 SLOAD DUP2 MSTORE SWAP1 PUSH1 0x1 ADD SWAP1 PUSH1 0x20 ADD DUP1 DUP4 GT PUSH2 0x156B JUMPI DUP3 SWAP1 SUB PUSH1 0x1F AND DUP3 ADD SWAP2 JUMPDEST POP POP POP POP POP SWAP2 POP SWAP5 POP SWAP5 POP SWAP5 POP SWAP5 POP SWAP5 POP SWAP2 SWAP4 SWAP6 SWAP1 SWAP3 SWAP5 POP JUMP JUMPDEST PUSH1 0x0 DUP1 PUSH1 0x0 SWAP1 SLOAD SWAP1 PUSH2 0x100 EXP SWAP1 DIV PUSH20 0xFFFFFFFFFFFFFFFFFFFFFFFFFFFFFFFFFFFFFFFF AND PUSH20 0xFFFFFFFFFFFFFFFFFFFFFFFFFFFFFFFFFFFFFFFF AND PUSH4 0x9B80B050 DUP8 DUP8 DUP8 DUP8 DUP8 PUSH1 0x40 MLOAD DUP7 PUSH4 0xFFFFFFFF AND PUSH1 0xE0 SHL DUP2 MSTORE PUSH1 0x4 ADD PUSH2 0x1606 SWAP6 SWAP5 SWAP4 SWAP3 SWAP2 SWAP1 PUSH2 0x2709 JUMP JUMPDEST PUSH1 0x20 PUSH1 0x40 MLOAD DUP1 DUP4 SUB DUP2 PUSH1 0x0 DUP8 DUP1 EXTCODESIZE ISZERO DUP1 ISZERO PUSH2 0x1620 JUMPI PUSH1 0x0 DUP1 REVERT JUMPDEST POP GAS CALL ISZERO DUP1 ISZERO PUSH2 0x1634 JUMPI RETURNDATASIZE PUSH1 0x0 DUP1 RETURNDATACOPY RETURNDATASIZE PUSH1 0x0 REVERT JUMPDEST POP POP POP POP PUSH1 0x40 MLOAD RETURNDATASIZE PUSH1 0x1F NOT PUSH1 0x1F DUP3 ADD AND DUP3 ADD DUP1 PUSH1 0x40 MSTORE POP DUP2 ADD SWAP1 PUSH2 0x1658 SWAP2 SWAP1 PUSH2 0x1D5F JUMP JUMPDEST POP SWAP6 SWAP5 POP POP POP POP POP JUMP JUMPDEST PUSH1 0x1 PUSH1 0x0 SWAP1 SLOAD SWAP1 PUSH2 0x100 EXP SWAP1 DIV PUSH20 0xFFFFFFFFFFFFFFFFFFFFFFFFFFFFFFFFFFFFFFFF AND PUSH20 0xFFFFFFFFFFFFFFFFFFFFFFFFFFFFFFFFFFFFFFFF AND PUSH4 0x58467DBC DUP10 DUP10 DUP10 DUP10 PUSH1 0x40 MLOAD DUP6 PUSH4 0xFFFFFFFF AND PUSH1 0xE0 SHL DUP2 MSTORE PUSH1 0x4 ADD PUSH2 0x16C3 SWAP5 SWAP4 SWAP3 SWAP2 SWAP1 PUSH2 0x26CE JUMP JUMPDEST PUSH1 0x20 PUSH1 0x40 MLOAD DUP1 DUP4 SUB DUP2 DUP7 DUP1 EXTCODESIZE ISZERO DUP1 ISZERO PUSH2 0x16DB JUMPI PUSH1 0x0 DUP1 REVERT JUMPDEST POP GAS STATICCALL ISZERO DUP1 ISZERO PUSH2 0x16EF JUMPI RETURNDATASIZE PUSH1 0x0 DUP1 RETURNDATACOPY RETURNDATASIZE PUSH1 0x0 REVERT JUMPDEST POP POP POP POP PUSH1 0x40 MLOAD RETURNDATASIZE PUSH1 0x1F NOT PUSH1 0x1F DUP3 ADD AND DUP3 ADD DUP1 PUSH1 0x40 MSTORE POP DUP2 ADD SWAP1 PUSH2 0x1713 SWAP2 SWAP1 PUSH2 0x1D5F JUMP JUMPDEST PUSH2 0x1752 JUMPI PUSH1 0x40 MLOAD PUSH32 0x8C379A000000000000000000000000000000000000000000000000000000000 DUP2 MSTORE PUSH1 0x4 ADD PUSH2 0x1749 SWAP1 PUSH2 0x28F5 JUMP JUMPDEST PUSH1 0x40 MLOAD DUP1 SWAP2 SUB SWAP1 REVERT JUMPDEST PUSH1 0x0 PUSH1 0x4 DUP6 DUP2 SLOAD DUP2 LT PUSH2 0x1761 JUMPI INVALID JUMPDEST SWAP1 PUSH1 0x0 MSTORE PUSH1 0x20 PUSH1 0x0 KECCAK256 SWAP1 PUSH1 0x7 MUL ADD PUSH1 0x5 ADD SLOAD GT PUSH2 0x17B3 JUMPI PUSH1 0x40 MLOAD PUSH32 0x8C379A000000000000000000000000000000000000000000000000000000000 DUP2 MSTORE PUSH1 0x4 ADD PUSH2 0x17AA SWAP1 PUSH2 0x2895 JUMP JUMPDEST PUSH1 0x40 MLOAD DUP1 SWAP2 SUB SWAP1 REVERT JUMPDEST PUSH1 0x2 PUSH1 0x4 DUP6 DUP2 SLOAD DUP2 LT PUSH2 0x17C2 JUMPI INVALID JUMPDEST SWAP1 PUSH1 0x0 MSTORE PUSH1 0x20 PUSH1 0x0 KECCAK256 SWAP1 PUSH1 0x7 MUL ADD PUSH1 0x4 ADD PUSH1 0x0 SWAP1 SLOAD SWAP1 PUSH2 0x100 EXP SWAP1 DIV PUSH1 0xFF AND PUSH1 0xFF AND EQ PUSH2 0x1824 JUMPI PUSH1 0x40 MLOAD PUSH32 0x8C379A000000000000000000000000000000000000000000000000000000000 DUP2 MSTORE PUSH1 0x4 ADD PUSH2 0x181B SWAP1 PUSH2 0x28D5 JUMP JUMPDEST PUSH1 0x40 MLOAD DUP1 SWAP2 SUB SWAP1 REVERT JUMPDEST PUSH2 0x1931 PUSH1 0x4 DUP6 DUP2 SLOAD DUP2 LT PUSH2 0x1834 JUMPI INVALID JUMPDEST SWAP1 PUSH1 0x0 MSTORE PUSH1 0x20 PUSH1 0x0 KECCAK256 SWAP1 PUSH1 0x7 MUL ADD PUSH1 0x0 ADD DUP1 SLOAD PUSH1 0x1 DUP2 PUSH1 0x1 AND ISZERO PUSH2 0x100 MUL SUB AND PUSH1 0x2 SWAP1 DIV DUP1 PUSH1 0x1F ADD PUSH1 0x20 DUP1 SWAP2 DIV MUL PUSH1 0x20 ADD PUSH1 0x40 MLOAD SWAP1 DUP2 ADD PUSH1 0x40 MSTORE DUP1 SWAP3 SWAP2 SWAP1 DUP2 DUP2 MSTORE PUSH1 0x20 ADD DUP3 DUP1 SLOAD PUSH1 0x1 DUP2 PUSH1 0x1 AND ISZERO PUSH2 0x100 MUL SUB AND PUSH1 0x2 SWAP1 DIV DUP1 ISZERO PUSH2 0x18D9 JUMPI DUP1 PUSH1 0x1F LT PUSH2 0x18AE JUMPI PUSH2 0x100 DUP1 DUP4 SLOAD DIV MUL DUP4 MSTORE SWAP2 PUSH1 0x20 ADD SWAP2 PUSH2 0x18D9 JUMP JUMPDEST DUP3 ADD SWAP2 SWAP1 PUSH1 0x0 MSTORE PUSH1 0x20 PUSH1 0x0 KECCAK256 SWAP1 JUMPDEST DUP2 SLOAD DUP2 MSTORE SWAP1 PUSH1 0x1 ADD SWAP1 PUSH1 0x20 ADD DUP1 DUP4 GT PUSH2 0x18BC JUMPI DUP3 SWAP1 SUB PUSH1 0x1F AND DUP3 ADD SWAP2 JUMPDEST POP POP POP POP POP DUP10 DUP10 DUP1 DUP1 PUSH1 0x1F ADD PUSH1 0x20 DUP1 SWAP2 DIV MUL PUSH1 0x20 ADD PUSH1 0x40 MLOAD SWAP1 DUP2 ADD PUSH1 0x40 MSTORE DUP1 SWAP4 SWAP3 SWAP2 SWAP1 DUP2 DUP2 MSTORE PUSH1 0x20 ADD DUP4 DUP4 DUP1 DUP3 DUP5 CALLDATACOPY PUSH1 0x0 DUP2 DUP5 ADD MSTORE PUSH1 0x1F NOT PUSH1 0x1F DUP3 ADD AND SWAP1 POP DUP1 DUP4 ADD SWAP3 POP POP POP POP POP POP POP PUSH2 0x1AF8 SWAP1 SWAP2 SWAP1 PUSH4 0xFFFFFFFF AND JUMP JUMPDEST PUSH2 0x1970 JUMPI PUSH1 0x40 MLOAD PUSH32 0x8C379A000000000000000000000000000000000000000000000000000000000 DUP2 MSTORE PUSH1 0x4 ADD PUSH2 0x1967 SWAP1 PUSH2 0x2915 JUMP JUMPDEST PUSH1 0x40 MLOAD DUP1 SWAP2 SUB SWAP1 REVERT JUMPDEST PUSH1 0x3 DUP2 PUSH1 0xFF AND EQ DUP1 PUSH2 0x1985 JUMPI POP PUSH1 0x1 DUP2 PUSH1 0xFF AND EQ JUMPDEST PUSH2 0x198E JUMPI PUSH1 0x0 DUP1 REVERT JUMPDEST DUP1 PUSH1 0x4 DUP6 DUP2 SLOAD DUP2 LT PUSH2 0x199C JUMPI INVALID JUMPDEST SWAP1 PUSH1 0x0 MSTORE PUSH1 0x20 PUSH1 0x0 KECCAK256 SWAP1 PUSH1 0x7 MUL ADD PUSH1 0x4 ADD PUSH1 0x0 PUSH2 0x100 EXP DUP2 SLOAD DUP2 PUSH1 0xFF MUL NOT AND SWAP1 DUP4 PUSH1 0xFF AND MUL OR SWAP1 SSTORE POP DUP3 DUP3 PUSH1 0x4 DUP7 DUP2 SLOAD DUP2 LT PUSH2 0x19D4 JUMPI INVALID JUMPDEST SWAP1 PUSH1 0x0 MSTORE PUSH1 0x20 PUSH1 0x0 KECCAK256 SWAP1 PUSH1 0x7 MUL ADD PUSH1 0x6 ADD SWAP2 SWAP1 PUSH2 0x19F2 SWAP3 SWAP2 SWAP1 PUSH2 0x1B5C JUMP JUMPDEST POP PUSH1 0x3 DUP2 PUSH1 0xFF AND EQ ISZERO PUSH2 0x1AEE JUMPI PUSH1 0x0 DUP1 SWAP1 SLOAD SWAP1 PUSH2 0x100 EXP SWAP1 DIV PUSH20 0xFFFFFFFFFFFFFFFFFFFFFFFFFFFFFFFFFFFFFFFF AND PUSH20 0xFFFFFFFFFFFFFFFFFFFFFFFFFFFFFFFFFFFFFFFF AND PUSH4 0x9B80B050 DUP10 DUP10 PUSH1 0x4 DUP9 DUP2 SLOAD DUP2 LT PUSH2 0x1A4B JUMPI INVALID JUMPDEST SWAP1 PUSH1 0x0 MSTORE PUSH1 0x20 PUSH1 0x0 KECCAK256 SWAP1 PUSH1 0x7 MUL ADD PUSH1 0x1 ADD PUSH1 0x4 DUP10 DUP2 SLOAD DUP2 LT PUSH2 0x1A69 JUMPI INVALID JUMPDEST SWAP1 PUSH1 0x0 MSTORE PUSH1 0x20 PUSH1 0x0 KECCAK256 SWAP1 PUSH1 0x7 MUL ADD PUSH1 0x3 ADD SLOAD PUSH1 0x40 MLOAD DUP6 PUSH4 0xFFFFFFFF AND PUSH1 0xE0 SHL DUP2 MSTORE PUSH1 0x4 ADD PUSH2 0x1A9A SWAP5 SWAP4 SWAP3 SWAP2 SWAP1 PUSH2 0x2752 JUMP JUMPDEST PUSH1 0x20 PUSH1 0x40 MLOAD DUP1 DUP4 SUB DUP2 PUSH1 0x0 DUP8 DUP1 EXTCODESIZE ISZERO DUP1 ISZERO PUSH2 0x1AB4 JUMPI PUSH1 0x0 DUP1 REVERT JUMPDEST POP GAS CALL ISZERO DUP1 ISZERO PUSH2 0x1AC8 JUMPI RETURNDATASIZE PUSH1 0x0 DUP1 RETURNDATACOPY RETURNDATASIZE PUSH1 0x0 REVERT JUMPDEST POP POP POP POP PUSH1 0x40 MLOAD RETURNDATASIZE PUSH1 0x1F NOT PUSH1 0x1F DUP3 ADD AND DUP3 ADD DUP1 PUSH1 0x40 MSTORE POP DUP2 ADD SWAP1 PUSH2 0x1AEC SWAP2 SWAP1 PUSH2 0x1D5F JUMP JUMPDEST POP JUMPDEST POP POP POP POP POP POP POP POP JUMP JUMPDEST PUSH1 0x0 DUP1 DUP4 PUSH1 0x40 MLOAD PUSH1 0x20 ADD PUSH2 0x1B0C SWAP2 SWAP1 PUSH2 0x27CB JUMP JUMPDEST PUSH1 0x40 MLOAD PUSH1 0x20 DUP2 DUP4 SUB SUB DUP2 MSTORE SWAP1 PUSH1 0x40 MSTORE DUP1 MLOAD SWAP1 PUSH1 0x20 ADD KECCAK256 SWAP1 POP PUSH1 0x0 DUP4 PUSH1 0x40 MLOAD PUSH1 0x20 ADD PUSH2 0x1B37 SWAP2 SWAP1 PUSH2 0x27CB JUMP JUMPDEST PUSH1 0x40 MLOAD PUSH1 0x20 DUP2 DUP4 SUB SUB DUP2 MSTORE SWAP1 PUSH1 0x40 MSTORE DUP1 MLOAD SWAP1 PUSH1 0x20 ADD KECCAK256 SWAP1 POP DUP1 DUP3 EQ SWAP3 POP POP POP SWAP3 SWAP2 POP POP JUMP JUMPDEST DUP3 DUP1 SLOAD PUSH1 0x1 DUP2 PUSH1 0x1 AND ISZERO PUSH2 0x100 MUL SUB AND PUSH1 0x2 SWAP1 DIV SWAP1 PUSH1 0x0 MSTORE PUSH1 0x20 PUSH1 0x0 KECCAK256 SWAP1 PUSH1 0x1F ADD PUSH1 0x20 SWAP1 DIV DUP2 ADD SWAP3 DUP3 PUSH1 0x1F LT PUSH2 0x1B9D JUMPI DUP1 CALLDATALOAD PUSH1 0xFF NOT AND DUP4 DUP1 ADD OR DUP6 SSTORE PUSH2 0x1BCB JUMP JUMPDEST DUP3 DUP1 ADD PUSH1 0x1 ADD DUP6 SSTORE DUP3 ISZERO PUSH2 0x1BCB JUMPI SWAP2 DUP3 ADD JUMPDEST DUP3 DUP2 GT ISZERO PUSH2 0x1BCA JUMPI DUP3 CALLDATALOAD DUP3 SSTORE SWAP2 PUSH1 0x20 ADD SWAP2 SWAP1 PUSH1 0x1 ADD SWAP1 PUSH2 0x1BAF JUMP JUMPDEST JUMPDEST POP SWAP1 POP PUSH2 0x1BD8 SWAP2 SWAP1 PUSH2 0x1C9C JUMP JUMPDEST POP SWAP1 JUMP JUMPDEST PUSH1 0x40 MLOAD DUP1 PUSH1 0xE0 ADD PUSH1 0x40 MSTORE DUP1 PUSH1 0x60 DUP2 MSTORE PUSH1 0x20 ADD PUSH1 0x60 DUP2 MSTORE PUSH1 0x20 ADD PUSH1 0x60 DUP2 MSTORE PUSH1 0x20 ADD PUSH1 0x0 DUP2 MSTORE PUSH1 0x20 ADD PUSH1 0x0 PUSH1 0xFF AND DUP2 MSTORE PUSH1 0x20 ADD PUSH1 0x0 DUP2 MSTORE PUSH1 0x20 ADD PUSH1 0x60 DUP2 MSTORE POP SWAP1 JUMP JUMPDEST DUP3 DUP1 SLOAD PUSH1 0x1 DUP2 PUSH1 0x1 AND ISZERO PUSH2 0x100 MUL SUB AND PUSH1 0x2 SWAP1 DIV SWAP1 PUSH1 0x0 MSTORE PUSH1 0x20 PUSH1 0x0 KECCAK256 SWAP1 PUSH1 0x1F ADD PUSH1 0x20 SWAP1 DIV DUP2 ADD SWAP3 DUP3 PUSH1 0x1F LT PUSH2 0x1C5D JUMPI DUP1 MLOAD PUSH1 0xFF NOT AND DUP4 DUP1 ADD OR DUP6 SSTORE PUSH2 0x1C8B JUMP JUMPDEST DUP3 DUP1 ADD PUSH1 0x1 ADD DUP6 SSTORE DUP3 ISZERO PUSH2 0x1C8B JUMPI SWAP2 DUP3 ADD JUMPDEST DUP3 DUP2 GT ISZERO PUSH2 0x1C8A JUMPI DUP3 MLOAD DUP3 SSTORE SWAP2 PUSH1 0x20 ADD SWAP2 SWAP1 PUSH1 0x1 ADD SWAP1 PUSH2 0x1C6F JUMP JUMPDEST JUMPDEST POP SWAP1 POP PUSH2 0x1C98 SWAP2 SWAP1 PUSH2 0x1C9C JUMP JUMPDEST POP SWAP1 JUMP JUMPDEST PUSH2 0x1CBE SWAP2 SWAP1 JUMPDEST DUP1 DUP3 GT ISZERO PUSH2 0x1CBA JUMPI PUSH1 0x0 DUP2 PUSH1 0x0 SWAP1 SSTORE POP PUSH1 0x1 ADD PUSH2 0x1CA2 JUMP JUMPDEST POP SWAP1 JUMP JUMPDEST SWAP1 JUMP JUMPDEST PUSH1 0x0 DUP2 MLOAD SWAP1 POP PUSH2 0x1CD0 DUP2 PUSH2 0x2AC1 JUMP JUMPDEST SWAP3 SWAP2 POP POP JUMP JUMPDEST PUSH1 0x0 DUP1 DUP4 PUSH1 0x1F DUP5 ADD SLT PUSH2 0x1CE8 JUMPI PUSH1 0x0 DUP1 REVERT JUMPDEST DUP3 CALLDATALOAD SWAP1 POP PUSH8 0xFFFFFFFFFFFFFFFF DUP2 GT ISZERO PUSH2 0x1D01 JUMPI PUSH1 0x0 DUP1 REVERT JUMPDEST PUSH1 0x20 DUP4 ADD SWAP2 POP DUP4 PUSH1 0x1 DUP3 MUL DUP4 ADD GT ISZERO PUSH2 0x1D19 JUMPI PUSH1 0x0 DUP1 REVERT JUMPDEST SWAP3 POP SWAP3 SWAP1 POP JUMP JUMPDEST PUSH1 0x0 DUP2 CALLDATALOAD SWAP1 POP PUSH2 0x1D2F DUP2 PUSH2 0x2AD8 JUMP JUMPDEST SWAP3 SWAP2 POP POP JUMP JUMPDEST PUSH1 0x0 DUP2 MLOAD SWAP1 POP PUSH2 0x1D44 DUP2 PUSH2 0x2AD8 JUMP JUMPDEST SWAP3 SWAP2 POP POP JUMP JUMPDEST PUSH1 0x0 DUP2 CALLDATALOAD SWAP1 POP PUSH2 0x1D59 DUP2 PUSH2 0x2AEF JUMP JUMPDEST SWAP3 SWAP2 POP POP JUMP JUMPDEST PUSH1 0x0 PUSH1 0x20 DUP3 DUP5 SUB SLT ISZERO PUSH2 0x1D71 JUMPI PUSH1 0x0 DUP1 REVERT JUMPDEST PUSH1 0x0 PUSH2 0x1D7F DUP5 DUP3 DUP6 ADD PUSH2 0x1CC1 JUMP JUMPDEST SWAP2 POP POP SWAP3 SWAP2 POP POP JUMP JUMPDEST PUSH1 0x0 DUP1 PUSH1 0x20 DUP4 DUP6 SUB SLT ISZERO PUSH2 0x1D9B JUMPI PUSH1 0x0 DUP1 REVERT JUMPDEST PUSH1 0x0 DUP4 ADD CALLDATALOAD PUSH8 0xFFFFFFFFFFFFFFFF DUP2 GT ISZERO PUSH2 0x1DB5 JUMPI PUSH1 0x0 DUP1 REVERT JUMPDEST PUSH2 0x1DC1 DUP6 DUP3 DUP7 ADD PUSH2 0x1CD6 JUMP JUMPDEST SWAP3 POP SWAP3 POP POP SWAP3 POP SWAP3 SWAP1 POP JUMP JUMPDEST PUSH1 0x0 DUP1 PUSH1 0x0 DUP1 PUSH1 0x40 DUP6 DUP8 SUB SLT ISZERO PUSH2 0x1DE3 JUMPI PUSH1 0x0 DUP1 REVERT JUMPDEST PUSH1 0x0 DUP6 ADD CALLDATALOAD PUSH8 0xFFFFFFFFFFFFFFFF DUP2 GT ISZERO PUSH2 0x1DFD JUMPI PUSH1 0x0 DUP1 REVERT JUMPDEST PUSH2 0x1E09 DUP8 DUP3 DUP9 ADD PUSH2 0x1CD6 JUMP JUMPDEST SWAP5 POP SWAP5 POP POP PUSH1 0x20 DUP6 ADD CALLDATALOAD PUSH8 0xFFFFFFFFFFFFFFFF DUP2 GT ISZERO PUSH2 0x1E28 JUMPI PUSH1 0x0 DUP1 REVERT JUMPDEST PUSH2 0x1E34 DUP8 DUP3 DUP9 ADD PUSH2 0x1CD6 JUMP JUMPDEST SWAP3 POP SWAP3 POP POP SWAP3 SWAP6 SWAP2 SWAP5 POP SWAP3 POP JUMP JUMPDEST PUSH1 0x0 DUP1 PUSH1 0x0 DUP1 PUSH1 0x0 DUP1 PUSH1 0x0 PUSH1 0x80 DUP9 DUP11 SUB SLT ISZERO PUSH2 0x1E5D JUMPI PUSH1 0x0 DUP1 REVERT JUMPDEST PUSH1 0x0 DUP9 ADD CALLDATALOAD PUSH8 0xFFFFFFFFFFFFFFFF DUP2 GT ISZERO PUSH2 0x1E77 JUMPI PUSH1 0x0 DUP1 REVERT JUMPDEST PUSH2 0x1E83 DUP11 DUP3 DUP12 ADD PUSH2 0x1CD6 JUMP JUMPDEST SWAP8 POP SWAP8 POP POP PUSH1 0x20 DUP9 ADD CALLDATALOAD PUSH8 0xFFFFFFFFFFFFFFFF DUP2 GT ISZERO PUSH2 0x1EA2 JUMPI PUSH1 0x0 DUP1 REVERT JUMPDEST PUSH2 0x1EAE DUP11 DUP3 DUP12 ADD PUSH2 0x1CD6 JUMP JUMPDEST SWAP6 POP SWAP6 POP POP PUSH1 0x40 DUP9 ADD CALLDATALOAD PUSH8 0xFFFFFFFFFFFFFFFF DUP2 GT ISZERO PUSH2 0x1ECD JUMPI PUSH1 0x0 DUP1 REVERT JUMPDEST PUSH2 0x1ED9 DUP11 DUP3 DUP12 ADD PUSH2 0x1CD6 JUMP JUMPDEST SWAP4 POP SWAP4 POP POP PUSH1 0x60 PUSH2 0x1EEC DUP11 DUP3 DUP12 ADD PUSH2 0x1D20 JUMP JUMPDEST SWAP2 POP POP SWAP3 SWAP6 SWAP9 SWAP2 SWAP5 SWAP8 POP SWAP3 SWAP6 POP JUMP JUMPDEST PUSH1 0x0 DUP1 PUSH1 0x0 DUP1 PUSH1 0x0 PUSH1 0x60 DUP7 DUP9 SUB SLT ISZERO PUSH2 0x1F13 JUMPI PUSH1 0x0 DUP1 REVERT JUMPDEST PUSH1 0x0 DUP7 ADD CALLDATALOAD PUSH8 0xFFFFFFFFFFFFFFFF DUP2 GT ISZERO PUSH2 0x1F2D JUMPI PUSH1 0x0 DUP1 REVERT JUMPDEST PUSH2 0x1F39 DUP9 DUP3 DUP10 ADD PUSH2 0x1CD6 JUMP JUMPDEST SWAP6 POP SWAP6 POP POP PUSH1 0x20 DUP7 ADD CALLDATALOAD PUSH8 0xFFFFFFFFFFFFFFFF DUP2 GT ISZERO PUSH2 0x1F58 JUMPI PUSH1 0x0 DUP1 REVERT JUMPDEST PUSH2 0x1F64 DUP9 DUP3 DUP10 ADD PUSH2 0x1CD6 JUMP JUMPDEST SWAP4 POP SWAP4 POP POP PUSH1 0x40 PUSH2 0x1F77 DUP9 DUP3 DUP10 ADD PUSH2 0x1D20 JUMP JUMPDEST SWAP2 POP POP SWAP3 SWAP6 POP SWAP3 SWAP6 SWAP1 SWAP4 POP JUMP JUMPDEST PUSH1 0x0 DUP1 PUSH1 0x0 DUP1 PUSH1 0x0 DUP1 PUSH1 0x0 DUP1 PUSH1 0xA0 DUP10 DUP12 SUB SLT ISZERO PUSH2 0x1FA0 JUMPI PUSH1 0x0 DUP1 REVERT JUMPDEST PUSH1 0x0 DUP10 ADD CALLDATALOAD PUSH8 0xFFFFFFFFFFFFFFFF DUP2 GT ISZERO PUSH2 0x1FBA JUMPI PUSH1 0x0 DUP1 REVERT JUMPDEST PUSH2 0x1FC6 DUP12 DUP3 DUP13 ADD PUSH2 0x1CD6 JUMP JUMPDEST SWAP9 POP SWAP9 POP POP PUSH1 0x20 DUP10 ADD CALLDATALOAD PUSH8 0xFFFFFFFFFFFFFFFF DUP2 GT ISZERO PUSH2 0x1FE5 JUMPI PUSH1 0x0 DUP1 REVERT JUMPDEST PUSH2 0x1FF1 DUP12 DUP3 DUP13 ADD PUSH2 0x1CD6 JUMP JUMPDEST SWAP7 POP SWAP7 POP POP PUSH1 0x40 PUSH2 0x2004 DUP12 DUP3 DUP13 ADD PUSH2 0x1D20 JUMP JUMPDEST SWAP5 POP POP PUSH1 0x60 DUP10 ADD CALLDATALOAD PUSH8 0xFFFFFFFFFFFFFFFF DUP2 GT ISZERO PUSH2 0x2021 JUMPI PUSH1 0x0 DUP1 REVERT JUMPDEST PUSH2 0x202D DUP12 DUP3 DUP13 ADD PUSH2 0x1CD6 JUMP JUMPDEST SWAP4 POP SWAP4 POP POP PUSH1 0x80 PUSH2 0x2040 DUP12 DUP3 DUP13 ADD PUSH2 0x1D4A JUMP JUMPDEST SWAP2 POP POP SWAP3 SWAP6 SWAP9 POP SWAP3 SWAP6 SWAP9 SWAP1 SWAP4 SWAP7 POP JUMP JUMPDEST PUSH1 0x0 DUP1 PUSH1 0x0 PUSH1 0x40 DUP5 DUP7 SUB SLT ISZERO PUSH2 0x2065 JUMPI PUSH1 0x0 DUP1 REVERT JUMPDEST PUSH1 0x0 DUP5 ADD CALLDATALOAD PUSH8 0xFFFFFFFFFFFFFFFF DUP2 GT ISZERO PUSH2 0x207F JUMPI PUSH1 0x0 DUP1 REVERT JUMPDEST PUSH2 0x208B DUP7 DUP3 DUP8 ADD PUSH2 0x1CD6 JUMP JUMPDEST SWAP4 POP SWAP4 POP POP PUSH1 0x20 PUSH2 0x209E DUP7 DUP3 DUP8 ADD PUSH2 0x1D20 JUMP JUMPDEST SWAP2 POP POP SWAP3 POP SWAP3 POP SWAP3 JUMP JUMPDEST PUSH1 0x0 PUSH1 0x20 DUP3 DUP5 SUB SLT ISZERO PUSH2 0x20BA JUMPI PUSH1 0x0 DUP1 REVERT JUMPDEST PUSH1 0x0 PUSH2 0x20C8 DUP5 DUP3 DUP6 ADD PUSH2 0x1D20 JUMP JUMPDEST SWAP2 POP POP SWAP3 SWAP2 POP POP JUMP JUMPDEST PUSH1 0x0 PUSH1 0x20 DUP3 DUP5 SUB SLT ISZERO PUSH2 0x20E3 JUMPI PUSH1 0x0 DUP1 REVERT JUMPDEST PUSH1 0x0 PUSH2 0x20F1 DUP5 DUP3 DUP6 ADD PUSH2 0x1D35 JUMP JUMPDEST SWAP2 POP POP SWAP3 SWAP2 POP POP JUMP JUMPDEST PUSH1 0x0 PUSH2 0x2106 DUP4 DUP4 PUSH2 0x2580 JUMP JUMPDEST SWAP1 POP SWAP3 SWAP2 POP POP JUMP JUMPDEST PUSH1 0x0 PUSH2 0x2119 DUP3 PUSH2 0x29F5 JUMP JUMPDEST PUSH2 0x2123 DUP2 DUP6 PUSH2 0x2A18 JUMP JUMPDEST SWAP4 POP DUP4 PUSH1 0x20 DUP3 MUL DUP6 ADD PUSH2 0x2135 DUP6 PUSH2 0x29D0 JUMP JUMPDEST DUP1 PUSH1 0x0 JUMPDEST DUP6 DUP2 LT ISZERO PUSH2 0x2171 JUMPI DUP5 DUP5 SUB DUP10 MSTORE DUP2 MLOAD PUSH2 0x2152 DUP6 DUP3 PUSH2 0x20FA JUMP JUMPDEST SWAP5 POP PUSH2 0x215D DUP4 PUSH2 0x2A0B JUMP JUMPDEST SWAP3 POP PUSH1 0x20 DUP11 ADD SWAP10 POP POP PUSH1 0x1 DUP2 ADD SWAP1 POP PUSH2 0x2139 JUMP JUMPDEST POP DUP3 SWAP8 POP DUP8 SWAP6 POP POP POP POP POP POP SWAP3 SWAP2 POP POP JUMP JUMPDEST PUSH2 0x218C DUP2 PUSH2 0x2A4B JUMP JUMPDEST DUP3 MSTORE POP POP JUMP JUMPDEST PUSH1 0x0 PUSH2 0x219E DUP4 DUP6 PUSH2 0x2A3A JUMP JUMPDEST SWAP4 POP PUSH2 0x21AB DUP4 DUP6 DUP5 PUSH2 0x2A6E JUMP JUMPDEST PUSH2 0x21B4 DUP4 PUSH2 0x2AB0 JUMP JUMPDEST DUP5 ADD SWAP1 POP SWAP4 SWAP3 POP POP POP JUMP JUMPDEST PUSH1 0x0 PUSH2 0x21CA DUP3 PUSH2 0x2A00 JUMP JUMPDEST PUSH2 0x21D4 DUP2 DUP6 PUSH2 0x2A29 JUMP JUMPDEST SWAP4 POP PUSH2 0x21E4 DUP2 DUP6 PUSH1 0x20 DUP7 ADD PUSH2 0x2A7D JUMP JUMPDEST PUSH2 0x21ED DUP2 PUSH2 0x2AB0 JUMP JUMPDEST DUP5 ADD SWAP2 POP POP SWAP3 SWAP2 POP POP JUMP JUMPDEST PUSH1 0x0 PUSH2 0x2203 DUP3 PUSH2 0x2A00 JUMP JUMPDEST PUSH2 0x220D DUP2 DUP6 PUSH2 0x2A3A JUMP JUMPDEST SWAP4 POP PUSH2 0x221D DUP2 DUP6 PUSH1 0x20 DUP7 ADD PUSH2 0x2A7D JUMP JUMPDEST PUSH2 0x2226 DUP2 PUSH2 0x2AB0 JUMP JUMPDEST DUP5 ADD SWAP2 POP POP SWAP3 SWAP2 POP POP JUMP JUMPDEST PUSH1 0x0 DUP2 SLOAD PUSH1 0x1 DUP2 AND PUSH1 0x0 DUP2 EQ PUSH2 0x224E JUMPI PUSH1 0x1 DUP2 EQ PUSH2 0x2274 JUMPI PUSH2 0x22B8 JUMP JUMPDEST PUSH1 0x7F PUSH1 0x2 DUP4 DIV AND PUSH2 0x225F DUP2 DUP8 PUSH2 0x2A3A JUMP JUMPDEST SWAP6 POP PUSH1 0xFF NOT DUP4 AND DUP7 MSTORE PUSH1 0x20 DUP7 ADD SWAP4 POP POP PUSH2 0x22B8 JUMP JUMPDEST PUSH1 0x2 DUP3 DIV PUSH2 0x2282 DUP2 DUP8 PUSH2 0x2A3A JUMP JUMPDEST SWAP6 POP PUSH2 0x228D DUP6 PUSH2 0x29E0 JUMP JUMPDEST PUSH1 0x0 JUMPDEST DUP3 DUP2 LT ISZERO PUSH2 0x22AF JUMPI DUP2 SLOAD DUP2 DUP10 ADD MSTORE PUSH1 0x1 DUP3 ADD SWAP2 POP PUSH1 0x20 DUP2 ADD SWAP1 POP PUSH2 0x2290 JUMP JUMPDEST DUP1 DUP9 ADD SWAP6 POP POP POP POP JUMPDEST POP POP SWAP3 SWAP2 POP POP JUMP JUMPDEST PUSH1 0x0 PUSH2 0x22CD PUSH1 0x17 DUP4 PUSH2 0x2A3A JUMP JUMPDEST SWAP2 POP PUSH32 0x7461736B277320737461747573206D757374203D3D2031000000000000000000 PUSH1 0x0 DUP4 ADD MSTORE PUSH1 0x20 DUP3 ADD SWAP1 POP SWAP2 SWAP1 POP JUMP JUMPDEST PUSH1 0x0 PUSH2 0x230D PUSH1 0x1B DUP4 PUSH2 0x2A3A JUMP JUMPDEST SWAP2 POP PUSH32 0x7461736B277320776F726B73206D75737420697320776F726B65720000000000 PUSH1 0x0 DUP4 ADD MSTORE PUSH1 0x20 DUP3 ADD SWAP1 POP SWAP2 SWAP1 POP JUMP JUMPDEST PUSH1 0x0 PUSH2 0x234D PUSH1 0x10 DUP4 PUSH2 0x2A3A JUMP JUMPDEST SWAP2 POP PUSH32 0x7461736B206D7573742065786973747300000000000000000000000000000000 PUSH1 0x0 DUP4 ADD MSTORE PUSH1 0x20 DUP3 ADD SWAP1 POP SWAP2 SWAP1 POP JUMP JUMPDEST PUSH1 0x0 PUSH2 0x238D PUSH1 0x1A DUP4 PUSH2 0x2A3A JUMP JUMPDEST SWAP2 POP PUSH32 0x697373756572206D757374206861766520686973207269676874000000000000 PUSH1 0x0 DUP4 ADD MSTORE PUSH1 0x20 DUP3 ADD SWAP1 POP SWAP2 SWAP1 POP JUMP JUMPDEST PUSH1 0x0 PUSH2 0x23CD PUSH1 0x17 DUP4 PUSH2 0x2A3A JUMP JUMPDEST SWAP2 POP PUSH32 0x7461736B277320737461747573206D757374203D3D2032000000000000000000 PUSH1 0x0 DUP4 ADD MSTORE PUSH1 0x20 DUP3 ADD SWAP1 POP SWAP2 SWAP1 POP JUMP JUMPDEST PUSH1 0x0 PUSH2 0x240D PUSH1 0x1A DUP4 PUSH2 0x2A3A JUMP JUMPDEST SWAP2 POP PUSH32 0x776F726B6572206D757374206861766520686973207269676874000000000000 PUSH1 0x0 DUP4 ADD MSTORE PUSH1 0x20 DUP3 ADD SWAP1 POP SWAP2 SWAP1 POP JUMP JUMPDEST PUSH1 0x0 PUSH2 0x244D PUSH1 0x1C DUP4 PUSH2 0x2A3A JUMP JUMPDEST SWAP2 POP PUSH32 0x7461736B277320697373756572206D7573742069732069737375657200000000 PUSH1 0x0 DUP4 ADD MSTORE PUSH1 0x20 DUP3 ADD SWAP1 POP SWAP2 SWAP1 POP JUMP JUMPDEST PUSH1 0x0 PUSH2 0x248D PUSH1 0x17 DUP4 PUSH2 0x2A3A JUMP JUMPDEST SWAP2 POP PUSH32 0x7461736B277320737461747573206D757374203D3D2030000000000000000000 PUSH1 0x0 DUP4 ADD MSTORE PUSH1 0x20 DUP3 ADD SWAP1 POP SWAP2 SWAP1 POP JUMP JUMPDEST PUSH1 0x0 PUSH2 0x24CD PUSH1 0x17 DUP4 PUSH2 0x2A3A JUMP JUMPDEST SWAP2 POP PUSH32 0x4F6E6C792061646D696E2063616E20646F207468697321000000000000000000 PUSH1 0x0 DUP4 ADD MSTORE PUSH1 0x20 DUP3 ADD SWAP1 POP SWAP2 SWAP1 POP JUMP JUMPDEST PUSH1 0x0 PUSH2 0x250D PUSH1 0xE DUP4 PUSH2 0x2A3A JUMP JUMPDEST SWAP2 POP PUSH32 0x626F6E7573206D757374203E2030000000000000000000000000000000000000 PUSH1 0x0 DUP4 ADD MSTORE PUSH1 0x20 DUP3 ADD SWAP1 POP SWAP2 SWAP1 POP JUMP JUMPDEST PUSH1 0x0 PUSH2 0x254D PUSH1 0x1A DUP4 PUSH2 0x2A3A JUMP JUMPDEST SWAP2 POP PUSH32 0x697373756572277320626F6E7573206D75737420656E6F756768000000000000 PUSH1 0x0 DUP4 ADD MSTORE PUSH1 0x20 DUP3 ADD SWAP1 POP SWAP2 SWAP1 POP JUMP JUMPDEST PUSH1 0x0 PUSH1 0xE0 DUP4 ADD PUSH1 0x0 DUP4 ADD MLOAD DUP5 DUP3 SUB PUSH1 0x0 DUP7 ADD MSTORE PUSH2 0x259D DUP3 DUP3 PUSH2 0x21BF JUMP JUMPDEST SWAP2 POP POP PUSH1 0x20 DUP4 ADD MLOAD DUP5 DUP3 SUB PUSH1 0x20 DUP7 ADD MSTORE PUSH2 0x25B7 DUP3 DUP3 PUSH2 0x21BF JUMP JUMPDEST SWAP2 POP POP PUSH1 0x40 DUP4 ADD MLOAD DUP5 DUP3 SUB PUSH1 0x40 DUP7 ADD MSTORE PUSH2 0x25D1 DUP3 DUP3 PUSH2 0x21BF JUMP JUMPDEST SWAP2 POP POP PUSH1 0x60 DUP4 ADD MLOAD PUSH2 0x25E6 PUSH1 0x60 DUP7 ADD DUP3 PUSH2 0x2631 JUMP JUMPDEST POP PUSH1 0x80 DUP4 ADD MLOAD PUSH2 0x25F9 PUSH1 0x80 DUP7 ADD DUP3 PUSH2 0x264F JUMP JUMPDEST POP PUSH1 0xA0 DUP4 ADD MLOAD PUSH2 0x260C PUSH1 0xA0 DUP7 ADD DUP3 PUSH2 0x2631 JUMP JUMPDEST POP PUSH1 0xC0 DUP4 ADD MLOAD DUP5 DUP3 SUB PUSH1 0xC0 DUP7 ADD MSTORE PUSH2 0x2624 DUP3 DUP3 PUSH2 0x21BF JUMP JUMPDEST SWAP2 POP POP DUP1 SWAP2 POP POP SWAP3 SWAP2 POP POP JUMP JUMPDEST PUSH2 0x263A DUP2 PUSH2 0x2A57 JUMP JUMPDEST DUP3 MSTORE POP POP JUMP JUMPDEST PUSH2 0x2649 DUP2 PUSH2 0x2A57 JUMP JUMPDEST DUP3 MSTORE POP POP JUMP JUMPDEST PUSH2 0x2658 DUP2 PUSH2 0x2A61 JUMP JUMPDEST DUP3 MSTORE POP POP JUMP JUMPDEST PUSH2 0x2667 DUP2 PUSH2 0x2A61 JUMP JUMPDEST DUP3 MSTORE POP POP JUMP JUMPDEST PUSH1 0x0 PUSH1 0x20 DUP3 ADD SWAP1 POP DUP2 DUP2 SUB PUSH1 0x0 DUP4 ADD MSTORE PUSH2 0x2687 DUP2 DUP5 PUSH2 0x210E JUMP JUMPDEST SWAP1 POP SWAP3 SWAP2 POP POP JUMP JUMPDEST PUSH1 0x0 PUSH1 0x20 DUP3 ADD SWAP1 POP PUSH2 0x26A4 PUSH1 0x0 DUP4 ADD DUP5 PUSH2 0x2183 JUMP JUMPDEST SWAP3 SWAP2 POP POP JUMP JUMPDEST PUSH1 0x0 PUSH1 0x20 DUP3 ADD SWAP1 POP DUP2 DUP2 SUB PUSH1 0x0 DUP4 ADD MSTORE PUSH2 0x26C5 DUP2 DUP5 DUP7 PUSH2 0x2192 JUMP JUMPDEST SWAP1 POP SWAP4 SWAP3 POP POP POP JUMP JUMPDEST PUSH1 0x0 PUSH1 0x40 DUP3 ADD SWAP1 POP DUP2 DUP2 SUB PUSH1 0x0 DUP4 ADD MSTORE PUSH2 0x26E9 DUP2 DUP7 DUP9 PUSH2 0x2192 JUMP JUMPDEST SWAP1 POP DUP2 DUP2 SUB PUSH1 0x20 DUP4 ADD MSTORE PUSH2 0x26FE DUP2 DUP5 DUP7 PUSH2 0x2192 JUMP JUMPDEST SWAP1 POP SWAP6 SWAP5 POP POP POP POP POP JUMP JUMPDEST PUSH1 0x0 PUSH1 0x60 DUP3 ADD SWAP1 POP DUP2 DUP2 SUB PUSH1 0x0 DUP4 ADD MSTORE PUSH2 0x2724 DUP2 DUP8 DUP10 PUSH2 0x2192 JUMP JUMPDEST SWAP1 POP DUP2 DUP2 SUB PUSH1 0x20 DUP4 ADD MSTORE PUSH2 0x2739 DUP2 DUP6 DUP8 PUSH2 0x2192 JUMP JUMPDEST SWAP1 POP PUSH2 0x2748 PUSH1 0x40 DUP4 ADD DUP5 PUSH2 0x2640 JUMP JUMPDEST SWAP7 SWAP6 POP POP POP POP POP POP JUMP JUMPDEST PUSH1 0x0 PUSH1 0x60 DUP3 ADD SWAP1 POP DUP2 DUP2 SUB PUSH1 0x0 DUP4 ADD MSTORE PUSH2 0x276D DUP2 DUP7 DUP9 PUSH2 0x2192 JUMP JUMPDEST SWAP1 POP DUP2 DUP2 SUB PUSH1 0x20 DUP4 ADD MSTORE PUSH2 0x2781 DUP2 DUP6 PUSH2 0x2231 JUMP JUMPDEST SWAP1 POP PUSH2 0x2790 PUSH1 0x40 DUP4 ADD DUP5 PUSH2 0x2640 JUMP JUMPDEST SWAP6 SWAP5 POP POP POP POP POP JUMP JUMPDEST PUSH1 0x0 PUSH1 0x40 DUP3 ADD SWAP1 POP DUP2 DUP2 SUB PUSH1 0x0 DUP4 ADD MSTORE PUSH2 0x27B4 DUP2 DUP6 DUP8 PUSH2 0x2192 JUMP JUMPDEST SWAP1 POP PUSH2 0x27C3 PUSH1 0x20 DUP4 ADD DUP5 PUSH2 0x2640 JUMP JUMPDEST SWAP5 SWAP4 POP POP POP POP JUMP JUMPDEST PUSH1 0x0 PUSH1 0x20 DUP3 ADD SWAP1 POP DUP2 DUP2 SUB PUSH1 0x0 DUP4 ADD MSTORE PUSH2 0x27E5 DUP2 DUP5 PUSH2 0x21F8 JUMP JUMPDEST SWAP1 POP SWAP3 SWAP2 POP POP JUMP JUMPDEST PUSH1 0x0 PUSH1 0xA0 DUP3 ADD SWAP1 POP DUP2 DUP2 SUB PUSH1 0x0 DUP4 ADD MSTORE PUSH2 0x2807 DUP2 DUP9 PUSH2 0x21F8 JUMP JUMPDEST SWAP1 POP DUP2 DUP2 SUB PUSH1 0x20 DUP4 ADD MSTORE PUSH2 0x281B DUP2 DUP8 PUSH2 0x21F8 JUMP JUMPDEST SWAP1 POP PUSH2 0x282A PUSH1 0x40 DUP4 ADD DUP7 PUSH2 0x2640 JUMP JUMPDEST DUP2 DUP2 SUB PUSH1 0x60 DUP4 ADD MSTORE PUSH2 0x283C DUP2 DUP6 PUSH2 0x21F8 JUMP JUMPDEST SWAP1 POP PUSH2 0x284B PUSH1 0x80 DUP4 ADD DUP5 PUSH2 0x265E JUMP JUMPDEST SWAP7 SWAP6 POP POP POP POP POP POP JUMP JUMPDEST PUSH1 0x0 PUSH1 0x20 DUP3 ADD SWAP1 POP DUP2 DUP2 SUB PUSH1 0x0 DUP4 ADD MSTORE PUSH2 0x286E DUP2 PUSH2 0x22C0 JUMP JUMPDEST SWAP1 POP SWAP2 SWAP1 POP JUMP JUMPDEST PUSH1 0x0 PUSH1 0x20 DUP3 ADD SWAP1 POP DUP2 DUP2 SUB PUSH1 0x0 DUP4 ADD MSTORE PUSH2 0x288E DUP2 PUSH2 0x2300 JUMP JUMPDEST SWAP1 POP SWAP2 SWAP1 POP JUMP JUMPDEST PUSH1 0x0 PUSH1 0x20 DUP3 ADD SWAP1 POP DUP2 DUP2 SUB PUSH1 0x0 DUP4 ADD MSTORE PUSH2 0x28AE DUP2 PUSH2 0x2340 JUMP JUMPDEST SWAP1 POP SWAP2 SWAP1 POP JUMP JUMPDEST PUSH1 0x0 PUSH1 0x20 DUP3 ADD SWAP1 POP DUP2 DUP2 SUB PUSH1 0x0 DUP4 ADD MSTORE PUSH2 0x28CE DUP2 PUSH2 0x2380 JUMP JUMPDEST SWAP1 POP SWAP2 SWAP1 POP JUMP JUMPDEST PUSH1 0x0 PUSH1 0x20 DUP3 ADD SWAP1 POP DUP2 DUP2 SUB PUSH1 0x0 DUP4 ADD MSTORE PUSH2 0x28EE DUP2 PUSH2 0x23C0 JUMP JUMPDEST SWAP1 POP SWAP2 SWAP1 POP JUMP JUMPDEST PUSH1 0x0 PUSH1 0x20 DUP3 ADD SWAP1 POP DUP2 DUP2 SUB PUSH1 0x0 DUP4 ADD MSTORE PUSH2 0x290E DUP2 PUSH2 0x2400 JUMP JUMPDEST SWAP1 POP SWAP2 SWAP1 POP JUMP JUMPDEST PUSH1 0x0 PUSH1 0x20 DUP3 ADD SWAP1 POP DUP2 DUP2 SUB PUSH1 0x0 DUP4 ADD MSTORE PUSH2 0x292E DUP2 PUSH2 0x2440 JUMP JUMPDEST SWAP1 POP SWAP2 SWAP1 POP JUMP JUMPDEST PUSH1 0x0 PUSH1 0x20 DUP3 ADD SWAP1 POP DUP2 DUP2 SUB PUSH1 0x0 DUP4 ADD MSTORE PUSH2 0x294E DUP2 PUSH2 0x2480 JUMP JUMPDEST SWAP1 POP SWAP2 SWAP1 POP JUMP JUMPDEST PUSH1 0x0 PUSH1 0x20 DUP3 ADD SWAP1 POP DUP2 DUP2 SUB PUSH1 0x0 DUP4 ADD MSTORE PUSH2 0x296E DUP2 PUSH2 0x24C0 JUMP JUMPDEST SWAP1 POP SWAP2 SWAP1 POP JUMP JUMPDEST PUSH1 0x0 PUSH1 0x20 DUP3 ADD SWAP1 POP DUP2 DUP2 SUB PUSH1 0x0 DUP4 ADD MSTORE PUSH2 0x298E DUP2 PUSH2 0x2500 JUMP JUMPDEST SWAP1 POP SWAP2 SWAP1 POP JUMP JUMPDEST PUSH1 0x0 PUSH1 0x20 DUP3 ADD SWAP1 POP DUP2 DUP2 SUB PUSH1 0x0 DUP4 ADD MSTORE PUSH2 0x29AE DUP2 PUSH2 0x2540 JUMP JUMPDEST SWAP1 POP SWAP2 SWAP1 POP JUMP JUMPDEST PUSH1 0x0 PUSH1 0x20 DUP3 ADD SWAP1 POP PUSH2 0x29CA PUSH1 0x0 DUP4 ADD DUP5 PUSH2 0x2640 JUMP JUMPDEST SWAP3 SWAP2 POP POP JUMP JUMPDEST PUSH1 0x0 DUP2 SWAP1 POP PUSH1 0x20 DUP3 ADD SWAP1 POP SWAP2 SWAP1 POP JUMP JUMPDEST PUSH1 0x0 DUP2 SWAP1 POP DUP2 PUSH1 0x0 MSTORE PUSH1 0x20 PUSH1 0x0 KECCAK256 SWAP1 POP SWAP2 SWAP1 POP JUMP JUMPDEST PUSH1 0x0 DUP2 MLOAD SWAP1 POP SWAP2 SWAP1 POP JUMP JUMPDEST PUSH1 0x0 DUP2 MLOAD SWAP1 POP SWAP2 SWAP1 POP JUMP JUMPDEST PUSH1 0x0 PUSH1 0x20 DUP3 ADD SWAP1 POP SWAP2 SWAP1 POP JUMP JUMPDEST PUSH1 0x0 DUP3 DUP3 MSTORE PUSH1 0x20 DUP3 ADD SWAP1 POP SWAP3 SWAP2 POP POP JUMP JUMPDEST PUSH1 0x0 DUP3 DUP3 MSTORE PUSH1 0x20 DUP3 ADD SWAP1 POP SWAP3 SWAP2 POP POP JUMP JUMPDEST PUSH1 0x0 DUP3 DUP3 MSTORE PUSH1 0x20 DUP3 ADD SWAP1 POP SWAP3 SWAP2 POP POP JUMP JUMPDEST PUSH1 0x0 DUP2 ISZERO ISZERO SWAP1 POP SWAP2 SWAP1 POP JUMP JUMPDEST PUSH1 0x0 DUP2 SWAP1 POP SWAP2 SWAP1 POP JUMP JUMPDEST PUSH1 0x0 PUSH1 0xFF DUP3 AND SWAP1 POP SWAP2 SWAP1 POP JUMP JUMPDEST DUP3 DUP2 DUP4 CALLDATACOPY PUSH1 0x0 DUP4 DUP4 ADD MSTORE POP POP POP JUMP JUMPDEST PUSH1 0x0 JUMPDEST DUP4 DUP2 LT ISZERO PUSH2 0x2A9B JUMPI DUP1 DUP3 ADD MLOAD DUP2 DUP5 ADD MSTORE PUSH1 0x20 DUP2 ADD SWAP1 POP PUSH2 0x2A80 JUMP JUMPDEST DUP4 DUP2 GT ISZERO PUSH2 0x2AAA JUMPI PUSH1 0x0 DUP5 DUP5 ADD MSTORE JUMPDEST POP POP POP POP JUMP JUMPDEST PUSH1 0x0 PUSH1 0x1F NOT PUSH1 0x1F DUP4 ADD AND SWAP1 POP SWAP2 SWAP1 POP JUMP JUMPDEST PUSH2 0x2ACA DUP2 PUSH2 0x2A4B JUMP JUMPDEST DUP2 EQ PUSH2 0x2AD5 JUMPI PUSH1 0x0 DUP1 REVERT JUMPDEST POP JUMP JUMPDEST PUSH2 0x2AE1 DUP2 PUSH2 0x2A57 JUMP JUMPDEST DUP2 EQ PUSH2 0x2AEC JUMPI PUSH1 0x0 DUP1 REVERT JUMPDEST POP JUMP JUMPDEST PUSH2 0x2AF8 DUP2 PUSH2 0x2A61 JUMP JUMPDEST DUP2 EQ PUSH2 0x2B03 JUMPI PUSH1 0x0 DUP1 REVERT JUMPDEST POP JUMP INVALID LOG2 PUSH5 0x6970667358 0x22 SLT KECCAK256 CALL 0x27 0xF6 0xBA RETURN LOG4 SWAP8 SWAP14 SHR LOG2 CALLDATASIZE 0xD9 BYTE 0xAA PUSH29 0x37687BE46693E671FD7FE8D5663017EF5764736F6C634300060A003360 DUP1 PUSH1 0x40 MSTORE CALLVALUE DUP1 ISZERO PUSH2 0x10 JUMPI PUSH1 0x0 DUP1 REVERT JUMPDEST POP PUSH1 0x0 DUP1 DUP2 SWAP1 SSTORE POP CALLER PUSH1 0x1 PUSH1 0x0 PUSH2 0x100 EXP DUP2 SLOAD DUP2 PUSH20 0xFFFFFFFFFFFFFFFFFFFFFFFFFFFFFFFFFFFFFFFF MUL NOT AND SWAP1 DUP4 PUSH20 0xFFFFFFFFFFFFFFFFFFFFFFFFFFFFFFFFFFFFFFFF AND MUL OR SWAP1 SSTORE POP PUSH2 0xAA6 DUP1 PUSH2 0x68 PUSH1 0x0 CODECOPY PUSH1 0x0 RETURN INVALID PUSH1 0x80 PUSH1 0x40 MSTORE CALLVALUE DUP1 ISZERO PUSH2 0x10 JUMPI PUSH1 0x0 DUP1 REVERT JUMPDEST POP PUSH1 0x4 CALLDATASIZE LT PUSH2 0x4C JUMPI PUSH1 0x0 CALLDATALOAD PUSH1 0xE0 SHR DUP1 PUSH4 0x56B01CE EQ PUSH2 0x51 JUMPI DUP1 PUSH4 0x18160DDD EQ PUSH2 0xD4 JUMPI DUP1 PUSH4 0x35EE5F87 EQ PUSH2 0xF2 JUMPI DUP1 PUSH4 0x9B80B050 EQ PUSH2 0x17F JUMPI JUMPDEST PUSH1 0x0 DUP1 REVERT JUMPDEST PUSH2 0xD2 PUSH1 0x4 DUP1 CALLDATASIZE SUB PUSH1 0x40 DUP2 LT ISZERO PUSH2 0x67 JUMPI PUSH1 0x0 DUP1 REVERT JUMPDEST DUP2 ADD SWAP1 DUP1 DUP1 CALLDATALOAD SWAP1 PUSH1 0x20 ADD SWAP1 PUSH5 0x100000000 DUP2 GT ISZERO PUSH2 0x84 JUMPI PUSH1 0x0 DUP1 REVERT JUMPDEST DUP3 ADD DUP4 PUSH1 0x20 DUP3 ADD GT ISZERO PUSH2 0x96 JUMPI PUSH1 0x0 DUP1 REVERT JUMPDEST DUP1 CALLDATALOAD SWAP1 PUSH1 0x20 ADD SWAP2 DUP5 PUSH1 0x1 DUP4 MUL DUP5 ADD GT PUSH5 0x100000000 DUP4 GT OR ISZERO PUSH2 0xB8 JUMPI PUSH1 0x0 DUP1 REVERT JUMPDEST SWAP1 SWAP2 SWAP3 SWAP4 SWAP2 SWAP3 SWAP4 SWAP1 DUP1 CALLDATALOAD SWAP1 PUSH1 0x20 ADD SWAP1 SWAP3 SWAP2 SWAP1 POP POP POP PUSH2 0x26F JUMP JUMPDEST STOP JUMPDEST PUSH2 0xDC PUSH2 0x592 JUMP JUMPDEST PUSH1 0x40 MLOAD DUP1 DUP3 DUP2 MSTORE PUSH1 0x20 ADD SWAP2 POP POP PUSH1 0x40 MLOAD DUP1 SWAP2 SUB SWAP1 RETURN JUMPDEST PUSH2 0x169 PUSH1 0x4 DUP1 CALLDATASIZE SUB PUSH1 0x20 DUP2 LT ISZERO PUSH2 0x108 JUMPI PUSH1 0x0 DUP1 REVERT JUMPDEST DUP2 ADD SWAP1 DUP1 DUP1 CALLDATALOAD SWAP1 PUSH1 0x20 ADD SWAP1 PUSH5 0x100000000 DUP2 GT ISZERO PUSH2 0x125 JUMPI PUSH1 0x0 DUP1 REVERT JUMPDEST DUP3 ADD DUP4 PUSH1 0x20 DUP3 ADD GT ISZERO PUSH2 0x137 JUMPI PUSH1 0x0 DUP1 REVERT JUMPDEST DUP1 CALLDATALOAD SWAP1 PUSH1 0x20 ADD SWAP2 DUP5 PUSH1 0x1 DUP4 MUL DUP5 ADD GT PUSH5 0x100000000 DUP4 GT OR ISZERO PUSH2 0x159 JUMPI PUSH1 0x0 DUP1 REVERT JUMPDEST SWAP1 SWAP2 SWAP3 SWAP4 SWAP2 SWAP3 SWAP4 SWAP1 POP POP POP PUSH2 0x59B JUMP JUMPDEST PUSH1 0x40 MLOAD DUP1 DUP3 DUP2 MSTORE PUSH1 0x20 ADD SWAP2 POP POP PUSH1 0x40 MLOAD DUP1 SWAP2 SUB SWAP1 RETURN JUMPDEST PUSH2 0x255 PUSH1 0x4 DUP1 CALLDATASIZE SUB PUSH1 0x60 DUP2 LT ISZERO PUSH2 0x195 JUMPI PUSH1 0x0 DUP1 REVERT JUMPDEST DUP2 ADD SWAP1 DUP1 DUP1 CALLDATALOAD SWAP1 PUSH1 0x20 ADD SWAP1 PUSH5 0x100000000 DUP2 GT ISZERO PUSH2 0x1B2 JUMPI PUSH1 0x0 DUP1 REVERT JUMPDEST DUP3 ADD DUP4 PUSH1 0x20 DUP3 ADD GT ISZERO PUSH2 0x1C4 JUMPI PUSH1 0x0 DUP1 REVERT JUMPDEST DUP1 CALLDATALOAD SWAP1 PUSH1 0x20 ADD SWAP2 DUP5 PUSH1 0x1 DUP4 MUL DUP5 ADD GT PUSH5 0x100000000 DUP4 GT OR ISZERO PUSH2 0x1E6 JUMPI PUSH1 0x0 DUP1 REVERT JUMPDEST SWAP1 SWAP2 SWAP3 SWAP4 SWAP2 SWAP3 SWAP4 SWAP1 DUP1 CALLDATALOAD SWAP1 PUSH1 0x20 ADD SWAP1 PUSH5 0x100000000 DUP2 GT ISZERO PUSH2 0x207 JUMPI PUSH1 0x0 DUP1 REVERT JUMPDEST DUP3 ADD DUP4 PUSH1 0x20 DUP3 ADD GT ISZERO PUSH2 0x219 JUMPI PUSH1 0x0 DUP1 REVERT JUMPDEST DUP1 CALLDATALOAD SWAP1 PUSH1 0x20 ADD SWAP2 DUP5 PUSH1 0x1 DUP4 MUL DUP5 ADD GT PUSH5 0x100000000 DUP4 GT OR ISZERO PUSH2 0x23B JUMPI PUSH1 0x0 DUP1 REVERT JUMPDEST SWAP1 SWAP2 SWAP3 SWAP4 SWAP2 SWAP3 SWAP4 SWAP1 DUP1 CALLDATALOAD SWAP1 PUSH1 0x20 ADD SWAP1 SWAP3 SWAP2 SWAP1 POP POP POP PUSH2 0x5CD JUMP JUMPDEST PUSH1 0x40 MLOAD DUP1 DUP3 ISZERO ISZERO ISZERO ISZERO DUP2 MSTORE PUSH1 0x20 ADD SWAP2 POP POP PUSH1 0x40 MLOAD DUP1 SWAP2 SUB SWAP1 RETURN JUMPDEST CALLER PUSH20 0xFFFFFFFFFFFFFFFFFFFFFFFFFFFFFFFFFFFFFFFF AND PUSH1 0x1 PUSH1 0x0 SWAP1 SLOAD SWAP1 PUSH2 0x100 EXP SWAP1 DIV PUSH20 0xFFFFFFFFFFFFFFFFFFFFFFFFFFFFFFFFFFFFFFFF AND PUSH20 0xFFFFFFFFFFFFFFFFFFFFFFFFFFFFFFFFFFFFFFFF AND EQ PUSH2 0x332 JUMPI PUSH1 0x40 MLOAD PUSH32 0x8C379A000000000000000000000000000000000000000000000000000000000 DUP2 MSTORE PUSH1 0x4 ADD DUP1 DUP1 PUSH1 0x20 ADD DUP3 DUP2 SUB DUP3 MSTORE PUSH1 0x17 DUP2 MSTORE PUSH1 0x20 ADD DUP1 PUSH32 0x4F6E6C792061646D696E2063616E20646F207468697321000000000000000000 DUP2 MSTORE POP PUSH1 0x20 ADD SWAP2 POP POP PUSH1 0x40 MLOAD DUP1 SWAP2 SUB SWAP1 REVERT JUMPDEST PUSH2 0x398 PUSH1 0x40 MLOAD DUP1 PUSH1 0x20 ADD PUSH1 0x40 MSTORE DUP1 PUSH1 0x0 DUP2 MSTORE POP DUP5 DUP5 DUP1 DUP1 PUSH1 0x1F ADD PUSH1 0x20 DUP1 SWAP2 DIV MUL PUSH1 0x20 ADD PUSH1 0x40 MLOAD SWAP1 DUP2 ADD PUSH1 0x40 MSTORE DUP1 SWAP4 SWAP3 SWAP2 SWAP1 DUP2 DUP2 MSTORE PUSH1 0x20 ADD DUP4 DUP4 DUP1 DUP3 DUP5 CALLDATACOPY PUSH1 0x0 DUP2 DUP5 ADD MSTORE PUSH1 0x1F NOT PUSH1 0x1F DUP3 ADD AND SWAP1 POP DUP1 DUP4 ADD SWAP3 POP POP POP POP POP POP POP PUSH2 0x903 SWAP1 SWAP2 SWAP1 PUSH4 0xFFFFFFFF AND JUMP JUMPDEST ISZERO PUSH2 0x40B JUMPI PUSH1 0x40 MLOAD PUSH32 0x8C379A000000000000000000000000000000000000000000000000000000000 DUP2 MSTORE PUSH1 0x4 ADD DUP1 DUP1 PUSH1 0x20 ADD DUP3 DUP2 SUB DUP3 MSTORE PUSH1 0xF DUP2 MSTORE PUSH1 0x20 ADD DUP1 PUSH32 0x546F206D757374206578697374732E0000000000000000000000000000000000 DUP2 MSTORE POP PUSH1 0x20 ADD SWAP2 POP POP PUSH1 0x40 MLOAD DUP1 SWAP2 SUB SWAP1 REVERT JUMPDEST PUSH1 0x0 DUP2 GT PUSH2 0x481 JUMPI PUSH1 0x40 MLOAD PUSH32 0x8C379A000000000000000000000000000000000000000000000000000000000 DUP2 MSTORE PUSH1 0x4 ADD DUP1 DUP1 PUSH1 0x20 ADD DUP3 DUP2 SUB DUP3 MSTORE PUSH1 0xF DUP2 MSTORE PUSH1 0x20 ADD DUP1 PUSH32 0x56616C7565206D757374203E20302E0000000000000000000000000000000000 DUP2 MSTORE POP PUSH1 0x20 ADD SWAP2 POP POP PUSH1 0x40 MLOAD DUP1 SWAP2 SUB SWAP1 REVERT JUMPDEST PUSH2 0x496 DUP2 PUSH1 0x0 SLOAD PUSH2 0xA31 SWAP1 SWAP2 SWAP1 PUSH4 0xFFFFFFFF AND JUMP JUMPDEST PUSH1 0x0 DUP2 SWAP1 SSTORE POP PUSH2 0x4D6 DUP2 PUSH1 0x2 DUP6 DUP6 PUSH1 0x40 MLOAD DUP1 DUP4 DUP4 DUP1 DUP3 DUP5 CALLDATACOPY DUP1 DUP4 ADD SWAP3 POP POP POP SWAP3 POP POP POP SWAP1 DUP2 MSTORE PUSH1 0x20 ADD PUSH1 0x40 MLOAD DUP1 SWAP2 SUB SWAP1 KECCAK256 SLOAD PUSH2 0xA31 SWAP1 SWAP2 SWAP1 PUSH4 0xFFFFFFFF AND JUMP JUMPDEST PUSH1 0x2 DUP5 DUP5 PUSH1 0x40 MLOAD DUP1 DUP4 DUP4 DUP1 DUP3 DUP5 CALLDATACOPY DUP1 DUP4 ADD SWAP3 POP POP POP SWAP3 POP POP POP SWAP1 DUP2 MSTORE PUSH1 0x20 ADD PUSH1 0x40 MLOAD DUP1 SWAP2 SUB SWAP1 KECCAK256 DUP2 SWAP1 SSTORE POP DUP3 DUP3 PUSH1 0x40 MLOAD DUP1 DUP4 DUP4 DUP1 DUP3 DUP5 CALLDATACOPY DUP1 DUP4 ADD SWAP3 POP POP POP SWAP3 POP POP POP PUSH1 0x40 MLOAD DUP1 SWAP2 SUB SWAP1 KECCAK256 PUSH1 0x40 MLOAD DUP1 DUP1 PUSH32 0x73797374656D0000000000000000000000000000000000000000000000000000 DUP2 MSTORE POP PUSH1 0x6 ADD SWAP1 POP PUSH1 0x40 MLOAD DUP1 SWAP2 SUB SWAP1 KECCAK256 PUSH32 0x5358BE4DF107BE4D9B023FC323F41D7109610225C6EF211B9D375B9FBD7CCC4F DUP4 PUSH1 0x40 MLOAD DUP1 DUP3 DUP2 MSTORE PUSH1 0x20 ADD SWAP2 POP POP PUSH1 0x40 MLOAD DUP1 SWAP2 SUB SWAP1 LOG3 POP POP POP JUMP JUMPDEST PUSH1 0x0 DUP1 SLOAD SWAP1 POP SWAP1 JUMP JUMPDEST PUSH1 0x0 PUSH1 0x2 DUP4 DUP4 PUSH1 0x40 MLOAD DUP1 DUP4 DUP4 DUP1 DUP3 DUP5 CALLDATACOPY DUP1 DUP4 ADD SWAP3 POP POP POP SWAP3 POP POP POP SWAP1 DUP2 MSTORE PUSH1 0x20 ADD PUSH1 0x40 MLOAD DUP1 SWAP2 SUB SWAP1 KECCAK256 SLOAD SWAP1 POP SWAP3 SWAP2 POP POP JUMP JUMPDEST PUSH1 0x0 PUSH2 0x635 PUSH1 0x40 MLOAD DUP1 PUSH1 0x20 ADD PUSH1 0x40 MSTORE DUP1 PUSH1 0x0 DUP2 MSTORE POP DUP6 DUP6 DUP1 DUP1 PUSH1 0x1F ADD PUSH1 0x20 DUP1 SWAP2 DIV MUL PUSH1 0x20 ADD PUSH1 0x40 MLOAD SWAP1 DUP2 ADD PUSH1 0x40 MSTORE DUP1 SWAP4 SWAP3 SWAP2 SWAP1 DUP2 DUP2 MSTORE PUSH1 0x20 ADD DUP4 DUP4 DUP1 DUP3 DUP5 CALLDATACOPY PUSH1 0x0 DUP2 DUP5 ADD MSTORE PUSH1 0x1F NOT PUSH1 0x1F DUP3 ADD AND SWAP1 POP DUP1 DUP4 ADD SWAP3 POP POP POP POP POP POP POP PUSH2 0x903 SWAP1 SWAP2 SWAP1 PUSH4 0xFFFFFFFF AND JUMP JUMPDEST ISZERO PUSH2 0x6A8 JUMPI PUSH1 0x40 MLOAD PUSH32 0x8C379A000000000000000000000000000000000000000000000000000000000 DUP2 MSTORE PUSH1 0x4 ADD DUP1 DUP1 PUSH1 0x20 ADD DUP3 DUP2 SUB DUP3 MSTORE PUSH1 0xF DUP2 MSTORE PUSH1 0x20 ADD DUP1 PUSH32 0x546F206D757374206578697374732E0000000000000000000000000000000000 DUP2 MSTORE POP PUSH1 0x20 ADD SWAP2 POP POP PUSH1 0x40 MLOAD DUP1 SWAP2 SUB SWAP1 REVERT JUMPDEST PUSH1 0x0 DUP3 GT PUSH2 0x71E JUMPI PUSH1 0x40 MLOAD PUSH32 0x8C379A000000000000000000000000000000000000000000000000000000000 DUP2 MSTORE PUSH1 0x4 ADD DUP1 DUP1 PUSH1 0x20 ADD DUP3 DUP2 SUB DUP3 MSTORE PUSH1 0xF DUP2 MSTORE PUSH1 0x20 ADD DUP1 PUSH32 0x56616C7565206D757374203E20302E0000000000000000000000000000000000 DUP2 MSTORE POP PUSH1 0x20 ADD SWAP2 POP POP PUSH1 0x40 MLOAD DUP1 SWAP2 SUB SWAP1 REVERT JUMPDEST DUP2 PUSH1 0x2 DUP8 DUP8 PUSH1 0x40 MLOAD DUP1 DUP4 DUP4 DUP1 DUP3 DUP5 CALLDATACOPY DUP1 DUP4 ADD SWAP3 POP POP POP SWAP3 POP POP POP SWAP1 DUP2 MSTORE PUSH1 0x20 ADD PUSH1 0x40 MLOAD DUP1 SWAP2 SUB SWAP1 KECCAK256 SLOAD LT ISZERO PUSH2 0x7BB JUMPI PUSH1 0x40 MLOAD PUSH32 0x8C379A000000000000000000000000000000000000000000000000000000000 DUP2 MSTORE PUSH1 0x4 ADD DUP1 DUP1 PUSH1 0x20 ADD DUP3 DUP2 SUB DUP3 MSTORE PUSH1 0x14 DUP2 MSTORE PUSH1 0x20 ADD DUP1 PUSH32 0x42616C616E6365206D75737420656E6F7567682E000000000000000000000000 DUP2 MSTORE POP PUSH1 0x20 ADD SWAP2 POP POP PUSH1 0x40 MLOAD DUP1 SWAP2 SUB SWAP1 REVERT JUMPDEST PUSH2 0x7F5 DUP3 PUSH1 0x2 DUP9 DUP9 PUSH1 0x40 MLOAD DUP1 DUP4 DUP4 DUP1 DUP3 DUP5 CALLDATACOPY DUP1 DUP4 ADD SWAP3 POP POP POP SWAP3 POP POP POP SWAP1 DUP2 MSTORE PUSH1 0x20 ADD PUSH1 0x40 MLOAD DUP1 SWAP2 SUB SWAP1 KECCAK256 SLOAD PUSH2 0xA50 SWAP1 SWAP2 SWAP1 PUSH4 0xFFFFFFFF AND JUMP JUMPDEST PUSH1 0x2 DUP8 DUP8 PUSH1 0x40 MLOAD DUP1 DUP4 DUP4 DUP1 DUP3 DUP5 CALLDATACOPY DUP1 DUP4 ADD SWAP3 POP POP POP SWAP3 POP POP POP SWAP1 DUP2 MSTORE PUSH1 0x20 ADD PUSH1 0x40 MLOAD DUP1 SWAP2 SUB SWAP1 KECCAK256 DUP2 SWAP1 SSTORE POP PUSH2 0x85A DUP3 PUSH1 0x2 DUP7 DUP7 PUSH1 0x40 MLOAD DUP1 DUP4 DUP4 DUP1 DUP3 DUP5 CALLDATACOPY DUP1 DUP4 ADD SWAP3 POP POP POP SWAP3 POP POP POP SWAP1 DUP2 MSTORE PUSH1 0x20 ADD PUSH1 0x40 MLOAD DUP1 SWAP2 SUB SWAP1 KECCAK256 SLOAD PUSH2 0xA31 SWAP1 SWAP2 SWAP1 PUSH4 0xFFFFFFFF AND JUMP JUMPDEST PUSH1 0x2 DUP6 DUP6 PUSH1 0x40 MLOAD DUP1 DUP4 DUP4 DUP1 DUP3 DUP5 CALLDATACOPY DUP1 DUP4 ADD SWAP3 POP POP POP SWAP3 POP POP POP SWAP1 DUP2 MSTORE PUSH1 0x20 ADD PUSH1 0x40 MLOAD DUP1 SWAP2 SUB SWAP1 KECCAK256 DUP2 SWAP1 SSTORE POP DUP4 DUP4 PUSH1 0x40 MLOAD DUP1 DUP4 DUP4 DUP1 DUP3 DUP5 CALLDATACOPY DUP1 DUP4 ADD SWAP3 POP POP POP SWAP3 POP POP POP PUSH1 0x40 MLOAD DUP1 SWAP2 SUB SWAP1 KECCAK256 DUP7 DUP7 PUSH1 0x40 MLOAD DUP1 DUP4 DUP4 DUP1 DUP3 DUP5 CALLDATACOPY DUP1 DUP4 ADD SWAP3 POP POP POP SWAP3 POP POP POP PUSH1 0x40 MLOAD DUP1 SWAP2 SUB SWAP1 KECCAK256 PUSH32 0x5358BE4DF107BE4D9B023FC323F41D7109610225C6EF211B9D375B9FBD7CCC4F DUP5 PUSH1 0x40 MLOAD DUP1 DUP3 DUP2 MSTORE PUSH1 0x20 ADD SWAP2 POP POP PUSH1 0x40 MLOAD DUP1 SWAP2 SUB SWAP1 LOG3 SWAP6 SWAP5 POP POP POP POP POP JUMP JUMPDEST PUSH1 0x0 DUP1 DUP4 PUSH1 0x40 MLOAD PUSH1 0x20 ADD DUP1 DUP1 PUSH1 0x20 ADD DUP3 DUP2 SUB DUP3 MSTORE DUP4 DUP2 DUP2 MLOAD DUP2 MSTORE PUSH1 0x20 ADD SWAP2 POP DUP1 MLOAD SWAP1 PUSH1 0x20 ADD SWAP1 DUP1 DUP4 DUP4 PUSH1 0x0 JUMPDEST DUP4 DUP2 LT ISZERO PUSH2 0x94A JUMPI DUP1 DUP3 ADD MLOAD DUP2 DUP5 ADD MSTORE PUSH1 0x20 DUP2 ADD SWAP1 POP PUSH2 0x92F JUMP JUMPDEST POP POP POP POP SWAP1 POP SWAP1 DUP2 ADD SWAP1 PUSH1 0x1F AND DUP1 ISZERO PUSH2 0x977 JUMPI DUP1 DUP3 SUB DUP1 MLOAD PUSH1 0x1 DUP4 PUSH1 0x20 SUB PUSH2 0x100 EXP SUB NOT AND DUP2 MSTORE PUSH1 0x20 ADD SWAP2 POP JUMPDEST POP SWAP3 POP POP POP PUSH1 0x40 MLOAD PUSH1 0x20 DUP2 DUP4 SUB SUB DUP2 MSTORE SWAP1 PUSH1 0x40 MSTORE DUP1 MLOAD SWAP1 PUSH1 0x20 ADD KECCAK256 SWAP1 POP PUSH1 0x0 DUP4 PUSH1 0x40 MLOAD PUSH1 0x20 ADD DUP1 DUP1 PUSH1 0x20 ADD DUP3 DUP2 SUB DUP3 MSTORE DUP4 DUP2 DUP2 MLOAD DUP2 MSTORE PUSH1 0x20 ADD SWAP2 POP DUP1 MLOAD SWAP1 PUSH1 0x20 ADD SWAP1 DUP1 DUP4 DUP4 PUSH1 0x0 JUMPDEST DUP4 DUP2 LT ISZERO PUSH2 0x9DA JUMPI DUP1 DUP3 ADD MLOAD DUP2 DUP5 ADD MSTORE PUSH1 0x20 DUP2 ADD SWAP1 POP PUSH2 0x9BF JUMP JUMPDEST POP POP POP POP SWAP1 POP SWAP1 DUP2 ADD SWAP1 PUSH1 0x1F AND DUP1 ISZERO PUSH2 0xA07 JUMPI DUP1 DUP3 SUB DUP1 MLOAD PUSH1 0x1 DUP4 PUSH1 0x20 SUB PUSH2 0x100 EXP SUB NOT AND DUP2 MSTORE PUSH1 0x20 ADD SWAP2 POP JUMPDEST POP SWAP3 POP POP POP PUSH1 0x40 MLOAD PUSH1 0x20 DUP2 DUP4 SUB SUB DUP2 MSTORE SWAP1 PUSH1 0x40 MSTORE DUP1 MLOAD SWAP1 PUSH1 0x20 ADD KECCAK256 SWAP1 POP DUP1 DUP3 EQ SWAP3 POP POP POP SWAP3 SWAP2 POP POP JUMP JUMPDEST PUSH1 0x0 DUP1 DUP3 DUP5 ADD SWAP1 POP DUP4 DUP2 LT ISZERO PUSH2 0xA46 JUMPI PUSH1 0x0 DUP1 REVERT JUMPDEST DUP1 SWAP2 POP POP SWAP3 SWAP2 POP POP JUMP JUMPDEST PUSH1 0x0 DUP3 DUP3 GT ISZERO PUSH2 0xA5F JUMPI PUSH1 0x0 DUP1 REVERT JUMPDEST PUSH1 0x0 DUP3 DUP5 SUB SWAP1 POP DUP1 SWAP2 POP POP SWAP3 SWAP2 POP POP JUMP INVALID LOG2 PUSH5 0x6970667358 0x22 SLT KECCAK256 0x48 SWAP7 0xE6 SWAP15 0xFB 0xD3 ISZERO DELEGATECALL BYTE RETURN CODESIZE 0xBF LOG2 0xE6 0xDA PUSH3 0x16A423 SWAP14 0xB0 PUSH3 0xB154BC PUSH18 0xAE8B1C4A390864736F6C634300060A003360 DUP1 PUSH1 0x40 MSTORE CALLVALUE DUP1 ISZERO PUSH2 0x10 JUMPI PUSH1 0x0 DUP1 REVERT JUMPDEST POP CALLER PUSH1 0x1 PUSH1 0x0 PUSH2 0x100 EXP DUP2 SLOAD DUP2 PUSH20 0xFFFFFFFFFFFFFFFFFFFFFFFFFFFFFFFFFFFFFFFF MUL NOT AND SWAP1 DUP4 PUSH20 0xFFFFFFFFFFFFFFFFFFFFFFFFFFFFFFFFFFFFFFFF AND MUL OR SWAP1 SSTORE POP PUSH2 0x93E DUP1 PUSH2 0x61 PUSH1 0x0 CODECOPY PUSH1 0x0 RETURN INVALID PUSH1 0x80 PUSH1 0x40 MSTORE CALLVALUE DUP1 ISZERO PUSH2 0x10 JUMPI PUSH1 0x0 DUP1 REVERT JUMPDEST POP PUSH1 0x4 CALLDATASIZE LT PUSH2 0x36 JUMPI PUSH1 0x0 CALLDATALOAD PUSH1 0xE0 SHR DUP1 PUSH4 0x3FFBD47F EQ PUSH2 0x3B JUMPI DUP1 PUSH4 0x58467DBC EQ PUSH2 0x109 JUMPI JUMPDEST PUSH1 0x0 DUP1 REVERT JUMPDEST PUSH2 0x107 PUSH1 0x4 DUP1 CALLDATASIZE SUB PUSH1 0x40 DUP2 LT ISZERO PUSH2 0x51 JUMPI PUSH1 0x0 DUP1 REVERT JUMPDEST DUP2 ADD SWAP1 DUP1 DUP1 CALLDATALOAD SWAP1 PUSH1 0x20 ADD SWAP1 PUSH5 0x100000000 DUP2 GT ISZERO PUSH2 0x6E JUMPI PUSH1 0x0 DUP1 REVERT JUMPDEST DUP3 ADD DUP4 PUSH1 0x20 DUP3 ADD GT ISZERO PUSH2 0x80 JUMPI PUSH1 0x0 DUP1 REVERT JUMPDEST DUP1 CALLDATALOAD SWAP1 PUSH1 0x20 ADD SWAP2 DUP5 PUSH1 0x1 DUP4 MUL DUP5 ADD GT PUSH5 0x100000000 DUP4 GT OR ISZERO PUSH2 0xA2 JUMPI PUSH1 0x0 DUP1 REVERT JUMPDEST SWAP1 SWAP2 SWAP3 SWAP4 SWAP2 SWAP3 SWAP4 SWAP1 DUP1 CALLDATALOAD SWAP1 PUSH1 0x20 ADD SWAP1 PUSH5 0x100000000 DUP2 GT ISZERO PUSH2 0xC3 JUMPI PUSH1 0x0 DUP1 REVERT JUMPDEST DUP3 ADD DUP4 PUSH1 0x20 DUP3 ADD GT ISZERO PUSH2 0xD5 JUMPI PUSH1 0x0 DUP1 REVERT JUMPDEST DUP1 CALLDATALOAD SWAP1 PUSH1 0x20 ADD SWAP2 DUP5 PUSH1 0x1 DUP4 MUL DUP5 ADD GT PUSH5 0x100000000 DUP4 GT OR ISZERO PUSH2 0xF7 JUMPI PUSH1 0x0 DUP1 REVERT JUMPDEST SWAP1 SWAP2 SWAP3 SWAP4 SWAP2 SWAP3 SWAP4 SWAP1 POP POP POP PUSH2 0x1EF JUMP JUMPDEST STOP JUMPDEST PUSH2 0x1D5 PUSH1 0x4 DUP1 CALLDATASIZE SUB PUSH1 0x40 DUP2 LT ISZERO PUSH2 0x11F JUMPI PUSH1 0x0 DUP1 REVERT JUMPDEST DUP2 ADD SWAP1 DUP1 DUP1 CALLDATALOAD SWAP1 PUSH1 0x20 ADD SWAP1 PUSH5 0x100000000 DUP2 GT ISZERO PUSH2 0x13C JUMPI PUSH1 0x0 DUP1 REVERT JUMPDEST DUP3 ADD DUP4 PUSH1 0x20 DUP3 ADD GT ISZERO PUSH2 0x14E JUMPI PUSH1 0x0 DUP1 REVERT JUMPDEST DUP1 CALLDATALOAD SWAP1 PUSH1 0x20 ADD SWAP2 DUP5 PUSH1 0x1 DUP4 MUL DUP5 ADD GT PUSH5 0x100000000 DUP4 GT OR ISZERO PUSH2 0x170 JUMPI PUSH1 0x0 DUP1 REVERT JUMPDEST SWAP1 SWAP2 SWAP3 SWAP4 SWAP2 SWAP3 SWAP4 SWAP1 DUP1 CALLDATALOAD SWAP1 PUSH1 0x20 ADD SWAP1 PUSH5 0x100000000 DUP2 GT ISZERO PUSH2 0x191 JUMPI PUSH1 0x0 DUP1 REVERT JUMPDEST DUP3 ADD DUP4 PUSH1 0x20 DUP3 ADD GT ISZERO PUSH2 0x1A3 JUMPI PUSH1 0x0 DUP1 REVERT JUMPDEST DUP1 CALLDATALOAD SWAP1 PUSH1 0x20 ADD SWAP2 DUP5 PUSH1 0x1 DUP4 MUL DUP5 ADD GT PUSH5 0x100000000 DUP4 GT OR ISZERO PUSH2 0x1C5 JUMPI PUSH1 0x0 DUP1 REVERT JUMPDEST SWAP1 SWAP2 SWAP3 SWAP4 SWAP2 SWAP3 SWAP4 SWAP1 POP POP POP PUSH2 0x531 JUMP JUMPDEST PUSH1 0x40 MLOAD DUP1 DUP3 ISZERO ISZERO ISZERO ISZERO DUP2 MSTORE PUSH1 0x20 ADD SWAP2 POP POP PUSH1 0x40 MLOAD DUP1 SWAP2 SUB SWAP1 RETURN JUMPDEST PUSH2 0x255 PUSH1 0x40 MLOAD DUP1 PUSH1 0x20 ADD PUSH1 0x40 MSTORE DUP1 PUSH1 0x0 DUP2 MSTORE POP DUP6 DUP6 DUP1 DUP1 PUSH1 0x1F ADD PUSH1 0x20 DUP1 SWAP2 DIV MUL PUSH1 0x20 ADD PUSH1 0x40 MLOAD SWAP1 DUP2 ADD PUSH1 0x40 MSTORE DUP1 SWAP4 SWAP3 SWAP2 SWAP1 DUP2 DUP2 MSTORE PUSH1 0x20 ADD DUP4 DUP4 DUP1 DUP3 DUP5 CALLDATACOPY PUSH1 0x0 DUP2 DUP5 ADD MSTORE PUSH1 0x1F NOT PUSH1 0x1F DUP3 ADD AND SWAP1 POP DUP1 DUP4 ADD SWAP3 POP POP POP POP POP POP POP PUSH2 0x735 SWAP1 SWAP2 SWAP1 PUSH4 0xFFFFFFFF AND JUMP JUMPDEST ISZERO PUSH2 0x2C8 JUMPI PUSH1 0x40 MLOAD PUSH32 0x8C379A000000000000000000000000000000000000000000000000000000000 DUP2 MSTORE PUSH1 0x4 ADD DUP1 DUP1 PUSH1 0x20 ADD DUP3 DUP2 SUB DUP3 MSTORE PUSH1 0x17 DUP2 MSTORE PUSH1 0x20 ADD DUP1 PUSH32 0x557365726E616D65206D757374206E6F74206E756C6C2E000000000000000000 DUP2 MSTORE POP PUSH1 0x20 ADD SWAP2 POP POP PUSH1 0x40 MLOAD DUP1 SWAP2 SUB SWAP1 REVERT JUMPDEST PUSH2 0x32E PUSH1 0x40 MLOAD DUP1 PUSH1 0x20 ADD PUSH1 0x40 MSTORE DUP1 PUSH1 0x0 DUP2 MSTORE POP DUP4 DUP4 DUP1 DUP1 PUSH1 0x1F ADD PUSH1 0x20 DUP1 SWAP2 DIV MUL PUSH1 0x20 ADD PUSH1 0x40 MLOAD SWAP1 DUP2 ADD PUSH1 0x40 MSTORE DUP1 SWAP4 SWAP3 SWAP2 SWAP1 DUP2 DUP2 MSTORE PUSH1 0x20 ADD DUP4 DUP4 DUP1 DUP3 DUP5 CALLDATACOPY PUSH1 0x0 DUP2 DUP5 ADD MSTORE PUSH1 0x1F NOT PUSH1 0x1F DUP3 ADD AND SWAP1 POP DUP1 DUP4 ADD SWAP3 POP POP POP POP POP POP POP PUSH2 0x735 SWAP1 SWAP2 SWAP1 PUSH4 0xFFFFFFFF AND JUMP JUMPDEST ISZERO PUSH2 0x3A1 JUMPI PUSH1 0x40 MLOAD PUSH32 0x8C379A000000000000000000000000000000000000000000000000000000000 DUP2 MSTORE PUSH1 0x4 ADD DUP1 DUP1 PUSH1 0x20 ADD DUP3 DUP2 SUB DUP3 MSTORE PUSH1 0x15 DUP2 MSTORE PUSH1 0x20 ADD DUP1 PUSH32 0x506173737764206D757374206E6F74206E756C6C2E0000000000000000000000 DUP2 MSTORE POP PUSH1 0x20 ADD SWAP2 POP POP PUSH1 0x40 MLOAD DUP1 SWAP2 SUB SWAP1 REVERT JUMPDEST PUSH2 0x482 PUSH1 0x40 MLOAD DUP1 PUSH1 0x20 ADD PUSH1 0x40 MSTORE DUP1 PUSH1 0x0 DUP2 MSTORE POP PUSH1 0x0 DUP7 DUP7 PUSH1 0x40 MLOAD DUP1 DUP4 DUP4 DUP1 DUP3 DUP5 CALLDATACOPY DUP1 DUP4 ADD SWAP3 POP POP POP SWAP3 POP POP POP SWAP1 DUP2 MSTORE PUSH1 0x20 ADD PUSH1 0x40 MLOAD DUP1 SWAP2 SUB SWAP1 KECCAK256 DUP1 SLOAD PUSH1 0x1 DUP2 PUSH1 0x1 AND ISZERO PUSH2 0x100 MUL SUB AND PUSH1 0x2 SWAP1 DIV DUP1 PUSH1 0x1F ADD PUSH1 0x20 DUP1 SWAP2 DIV MUL PUSH1 0x20 ADD PUSH1 0x40 MLOAD SWAP1 DUP2 ADD PUSH1 0x40 MSTORE DUP1 SWAP3 SWAP2 SWAP1 DUP2 DUP2 MSTORE PUSH1 0x20 ADD DUP3 DUP1 SLOAD PUSH1 0x1 DUP2 PUSH1 0x1 AND ISZERO PUSH2 0x100 MUL SUB AND PUSH1 0x2 SWAP1 DIV DUP1 ISZERO PUSH2 0x46F JUMPI DUP1 PUSH1 0x1F LT PUSH2 0x444 JUMPI PUSH2 0x100 DUP1 DUP4 SLOAD DIV MUL DUP4 MSTORE SWAP2 PUSH1 0x20 ADD SWAP2 PUSH2 0x46F JUMP JUMPDEST DUP3 ADD SWAP2 SWAP1 PUSH1 0x0 MSTORE PUSH1 0x20 PUSH1 0x0 KECCAK256 SWAP1 JUMPDEST DUP2 SLOAD DUP2 MSTORE SWAP1 PUSH1 0x1 ADD SWAP1 PUSH1 0x20 ADD DUP1 DUP4 GT PUSH2 0x452 JUMPI DUP3 SWAP1 SUB PUSH1 0x1F AND DUP3 ADD SWAP2 JUMPDEST POP POP POP POP POP PUSH2 0x735 SWAP1 SWAP2 SWAP1 PUSH4 0xFFFFFFFF AND JUMP JUMPDEST PUSH2 0x4F4 JUMPI PUSH1 0x40 MLOAD PUSH32 0x8C379A000000000000000000000000000000000000000000000000000000000 DUP2 MSTORE PUSH1 0x4 ADD DUP1 DUP1 PUSH1 0x20 ADD DUP3 DUP2 SUB DUP3 MSTORE PUSH1 0x14 DUP2 MSTORE PUSH1 0x20 ADD DUP1 PUSH32 0x55736572206D757374206E6F742065786973742E000000000000000000000000 DUP2 MSTORE POP PUSH1 0x20 ADD SWAP2 POP POP PUSH1 0x40 MLOAD DUP1 SWAP2 SUB SWAP1 REVERT JUMPDEST DUP2 DUP2 PUSH1 0x0 DUP7 DUP7 PUSH1 0x40 MLOAD DUP1 DUP4 DUP4 DUP1 DUP3 DUP5 CALLDATACOPY DUP1 DUP4 ADD SWAP3 POP POP POP SWAP3 POP POP POP SWAP1 DUP2 MSTORE PUSH1 0x20 ADD PUSH1 0x40 MLOAD DUP1 SWAP2 SUB SWAP1 KECCAK256 SWAP2 SWAP1 PUSH2 0x52A SWAP3 SWAP2 SWAP1 PUSH2 0x863 JUMP JUMPDEST POP POP POP POP POP JUMP JUMPDEST PUSH1 0x0 PUSH2 0x599 PUSH1 0x40 MLOAD DUP1 PUSH1 0x20 ADD PUSH1 0x40 MSTORE DUP1 PUSH1 0x0 DUP2 MSTORE POP DUP7 DUP7 DUP1 DUP1 PUSH1 0x1F ADD PUSH1 0x20 DUP1 SWAP2 DIV MUL PUSH1 0x20 ADD PUSH1 0x40 MLOAD SWAP1 DUP2 ADD PUSH1 0x40 MSTORE DUP1 SWAP4 SWAP3 SWAP2 SWAP1 DUP2 DUP2 MSTORE PUSH1 0x20 ADD DUP4 DUP4 DUP1 DUP3 DUP5 CALLDATACOPY PUSH1 0x0 DUP2 DUP5 ADD MSTORE PUSH1 0x1F NOT PUSH1 0x1F DUP3 ADD AND SWAP1 POP DUP1 DUP4 ADD SWAP3 POP POP POP POP POP POP POP PUSH2 0x735 SWAP1 SWAP2 SWAP1 PUSH4 0xFFFFFFFF AND JUMP JUMPDEST DUP1 PUSH2 0x606 JUMPI POP PUSH2 0x605 PUSH1 0x40 MLOAD DUP1 PUSH1 0x20 ADD PUSH1 0x40 MSTORE DUP1 PUSH1 0x0 DUP2 MSTORE POP DUP5 DUP5 DUP1 DUP1 PUSH1 0x1F ADD PUSH1 0x20 DUP1 SWAP2 DIV MUL PUSH1 0x20 ADD PUSH1 0x40 MLOAD SWAP1 DUP2 ADD PUSH1 0x40 MSTORE DUP1 SWAP4 SWAP3 SWAP2 SWAP1 DUP2 DUP2 MSTORE PUSH1 0x20 ADD DUP4 DUP4 DUP1 DUP3 DUP5 CALLDATACOPY PUSH1 0x0 DUP2 DUP5 ADD MSTORE PUSH1 0x1F NOT PUSH1 0x1F DUP3 ADD AND SWAP1 POP DUP1 DUP4 ADD SWAP3 POP POP POP POP POP POP POP PUSH2 0x735 SWAP1 SWAP2 SWAP1 PUSH4 0xFFFFFFFF AND JUMP JUMPDEST JUMPDEST ISZERO PUSH2 0x614 JUMPI PUSH1 0x0 SWAP1 POP PUSH2 0x72D JUMP JUMPDEST PUSH2 0x72A DUP4 DUP4 DUP1 DUP1 PUSH1 0x1F ADD PUSH1 0x20 DUP1 SWAP2 DIV MUL PUSH1 0x20 ADD PUSH1 0x40 MLOAD SWAP1 DUP2 ADD PUSH1 0x40 MSTORE DUP1 SWAP4 SWAP3 SWAP2 SWAP1 DUP2 DUP2 MSTORE PUSH1 0x20 ADD DUP4 DUP4 DUP1 DUP3 DUP5 CALLDATACOPY PUSH1 0x0 DUP2 DUP5 ADD MSTORE PUSH1 0x1F NOT PUSH1 0x1F DUP3 ADD AND SWAP1 POP DUP1 DUP4 ADD SWAP3 POP POP POP POP POP POP POP PUSH1 0x0 DUP8 DUP8 PUSH1 0x40 MLOAD DUP1 DUP4 DUP4 DUP1 DUP3 DUP5 CALLDATACOPY DUP1 DUP4 ADD SWAP3 POP POP POP SWAP3 POP POP POP SWAP1 DUP2 MSTORE PUSH1 0x20 ADD PUSH1 0x40 MLOAD DUP1 SWAP2 SUB SWAP1 KECCAK256 DUP1 SLOAD PUSH1 0x1 DUP2 PUSH1 0x1 AND ISZERO PUSH2 0x100 MUL SUB AND PUSH1 0x2 SWAP1 DIV DUP1 PUSH1 0x1F ADD PUSH1 0x20 DUP1 SWAP2 DIV MUL PUSH1 0x20 ADD PUSH1 0x40 MLOAD SWAP1 DUP2 ADD PUSH1 0x40 MSTORE DUP1 SWAP3 SWAP2 SWAP1 DUP2 DUP2 MSTORE PUSH1 0x20 ADD DUP3 DUP1 SLOAD PUSH1 0x1 DUP2 PUSH1 0x1 AND ISZERO PUSH2 0x100 MUL SUB AND PUSH1 0x2 SWAP1 DIV DUP1 ISZERO PUSH2 0x717 JUMPI DUP1 PUSH1 0x1F LT PUSH2 0x6EC JUMPI PUSH2 0x100 DUP1 DUP4 SLOAD DIV MUL DUP4 MSTORE SWAP2 PUSH1 0x20 ADD SWAP2 PUSH2 0x717 JUMP JUMPDEST DUP3 ADD SWAP2 SWAP1 PUSH1 0x0 MSTORE PUSH1 0x20 PUSH1 0x0 KECCAK256 SWAP1 JUMPDEST DUP2 SLOAD DUP2 MSTORE SWAP1 PUSH1 0x1 ADD SWAP1 PUSH1 0x20 ADD DUP1 DUP4 GT PUSH2 0x6FA JUMPI DUP3 SWAP1 SUB PUSH1 0x1F AND DUP3 ADD SWAP2 JUMPDEST POP POP POP POP POP PUSH2 0x735 SWAP1 SWAP2 SWAP1 PUSH4 0xFFFFFFFF AND JUMP JUMPDEST SWAP1 POP JUMPDEST SWAP5 SWAP4 POP POP POP POP JUMP JUMPDEST PUSH1 0x0 DUP1 DUP4 PUSH1 0x40 MLOAD PUSH1 0x20 ADD DUP1 DUP1 PUSH1 0x20 ADD DUP3 DUP2 SUB DUP3 MSTORE DUP4 DUP2 DUP2 MLOAD DUP2 MSTORE PUSH1 0x20 ADD SWAP2 POP DUP1 MLOAD SWAP1 PUSH1 0x20 ADD SWAP1 DUP1 DUP4 DUP4 PUSH1 0x0 JUMPDEST DUP4 DUP2 LT ISZERO PUSH2 0x77C JUMPI DUP1 DUP3 ADD MLOAD DUP2 DUP5 ADD MSTORE PUSH1 0x20 DUP2 ADD SWAP1 POP PUSH2 0x761 JUMP JUMPDEST POP POP POP POP SWAP1 POP SWAP1 DUP2 ADD SWAP1 PUSH1 0x1F AND DUP1 ISZERO PUSH2 0x7A9 JUMPI DUP1 DUP3 SUB DUP1 MLOAD PUSH1 0x1 DUP4 PUSH1 0x20 SUB PUSH2 0x100 EXP SUB NOT AND DUP2 MSTORE PUSH1 0x20 ADD SWAP2 POP JUMPDEST POP SWAP3 POP POP POP PUSH1 0x40 MLOAD PUSH1 0x20 DUP2 DUP4 SUB SUB DUP2 MSTORE SWAP1 PUSH1 0x40 MSTORE DUP1 MLOAD SWAP1 PUSH1 0x20 ADD KECCAK256 SWAP1 POP PUSH1 0x0 DUP4 PUSH1 0x40 MLOAD PUSH1 0x20 ADD DUP1 DUP1 PUSH1 0x20 ADD DUP3 DUP2 SUB DUP3 MSTORE DUP4 DUP2 DUP2 MLOAD DUP2 MSTORE PUSH1 0x20 ADD SWAP2 POP DUP1 MLOAD SWAP1 PUSH1 0x20 ADD SWAP1 DUP1 DUP4 DUP4 PUSH1 0x0 JUMPDEST DUP4 DUP2 LT ISZERO PUSH2 0x80C JUMPI DUP1 DUP3 ADD MLOAD DUP2 DUP5 ADD MSTORE PUSH1 0x20 DUP2 ADD SWAP1 POP PUSH2 0x7F1 JUMP JUMPDEST POP POP POP POP SWAP1 POP SWAP1 DUP2 ADD SWAP1 PUSH1 0x1F AND DUP1 ISZERO PUSH2 0x839 JUMPI DUP1 DUP3 SUB DUP1 MLOAD PUSH1 0x1 DUP4 PUSH1 0x20 SUB PUSH2 0x100 EXP SUB NOT AND DUP2 MSTORE PUSH1 0x20 ADD SWAP2 POP JUMPDEST POP SWAP3 POP POP POP PUSH1 0x40 MLOAD PUSH1 0x20 DUP2 DUP4 SUB SUB DUP2 MSTORE SWAP1 PUSH1 0x40 MSTORE DUP1 MLOAD SWAP1 PUSH1 0x20 ADD KECCAK256 SWAP1 POP DUP1 DUP3 EQ SWAP3 POP POP POP SWAP3 SWAP2 POP POP JUMP JUMPDEST DUP3 DUP1 SLOAD PUSH1 0x1 DUP2 PUSH1 0x1 AND ISZERO PUSH2 0x100 MUL SUB AND PUSH1 0x2 SWAP1 DIV SWAP1 PUSH1 0x0 MSTORE PUSH1 0x20 PUSH1 0x0 KECCAK256 SWAP1 PUSH1 0x1F ADD PUSH1 0x20 SWAP1 DIV DUP2 ADD SWAP3 DUP3 PUSH1 0x1F LT PUSH2 0x8A4 JUMPI DUP1 CALLDATALOAD PUSH1 0xFF NOT AND DUP4 DUP1 ADD OR DUP6 SSTORE PUSH2 0x8D2 JUMP JUMPDEST DUP3 DUP1 ADD PUSH1 0x1 ADD DUP6 SSTORE DUP3 ISZERO PUSH2 0x8D2 JUMPI SWAP2 DUP3 ADD JUMPDEST DUP3 DUP2 GT ISZERO PUSH2 0x8D1 JUMPI DUP3 CALLDATALOAD DUP3 SSTORE SWAP2 PUSH1 0x20 ADD SWAP2 SWAP1 PUSH1 0x1 ADD SWAP1 PUSH2 0x8B6 JUMP JUMPDEST JUMPDEST POP SWAP1 POP PUSH2 0x8DF SWAP2 SWAP1 PUSH2 0x8E3 JUMP JUMPDEST POP SWAP1 JUMP JUMPDEST PUSH2 0x905 SWAP2 SWAP1 JUMPDEST DUP1 DUP3 GT ISZERO PUSH2 0x901 JUMPI PUSH1 0x0 DUP2 PUSH1 0x0 SWAP1 SSTORE POP PUSH1 0x1 ADD PUSH2 0x8E9 JUMP JUMPDEST POP SWAP1 JUMP JUMPDEST SWAP1 JUMP INVALID LOG2 PUSH5 0x6970667358 0x22 SLT KECCAK256 LOG2 0xBA 0xD4 0x2C 0x5C CALLER PUSH16 0x7B6C8983A4480E6E24951AEE101BAABA 0xC4 PC 0xE1 0xBB MULMOD RETURN 0xF8 LOG1 RETURNDATASIZE PUSH5 0x736F6C6343 STOP MOD EXP STOP CALLER "
				},
				"gasEstimates": {
					"creation": {
						"codeDepositCost": "2213600",
						"executionCost": "infinite",
						"totalCost": "infinite"
					},
					"external": {
						"balanceOf(string)": "infinite",
						"commit(string,string,uint256)": "infinite",
						"confirm(string,string,uint256,string,uint8)": "infinite",
						"issue(string,string,string,uint256)": "infinite",
						"login(string,string)": "infinite",
						"mint(string,uint256)": "infinite",
						"qryAllTasks()": "infinite",
						"qryOneTask(uint256)": "infinite",
						"register(string,string)": "infinite",
						"take(string,string,uint256)": "infinite",
						"totalSupply()": "infinite",
						"transfer(string,string,uint256)": "infinite"
					}
				},
				"methodIdentifiers": {
					"balanceOf(string)": "35ee5f87",
					"commit(string,string,uint256)": "89dc99d2",
					"confirm(string,string,uint256,string,uint8)": "fc18cb62",
					"issue(string,string,string,uint256)": "679a5e14",
					"login(string,string)": "58467dbc",
					"mint(string,uint256)": "056b01ce",
					"qryAllTasks()": "8a3f7bb3",
					"qryOneTask(uint256)": "9b3add75",
					"register(string,string)": "3ffbd47f",
					"take(string,string,uint256)": "5b4c0b54",
					"totalSupply()": "18160ddd",
					"transfer(string,string,uint256)": "9b80b050"
				}
			},
			"storageLayout": {
				"storage": [
					{
						"astId": 200,
						"contract": "xuanshang/jstask/app/Task.sol:Task",
						"label": "_token",
						"offset": 0,
						"slot": "0",
						"type": "t_contract(Token)840"
					},
					{
						"astId": 202,
						"contract": "xuanshang/jstask/app/Task.sol:Task",
						"label": "_user",
						"offset": 0,
						"slot": "1",
						"type": "t_contract(User)939"
					},
					{
						"astId": 204,
						"contract": "xuanshang/jstask/app/Task.sol:Task",
						"label": "_admin",
						"offset": 0,
						"slot": "2",
						"type": "t_address"
					},
					{
						"astId": 206,
						"contract": "xuanshang/jstask/app/Task.sol:Task",
						"label": "_owner",
						"offset": 0,
						"slot": "3",
						"type": "t_address"
					},
					{
						"astId": 209,
						"contract": "xuanshang/jstask/app/Task.sol:Task",
						"label": "_tasks",
						"offset": 0,
						"slot": "4",
						"type": "t_array(t_struct(TaskInfo)198_storage)dyn_storage"
					}
				],
				"types": {
					"t_address": {
						"encoding": "inplace",
						"label": "address",
						"numberOfBytes": "20"
					},
					"t_array(t_struct(TaskInfo)198_storage)dyn_storage": {
						"base": "t_struct(TaskInfo)198_storage",
						"encoding": "dynamic_array",
						"label": "struct TaskInfo[]",
						"numberOfBytes": "32"
					},
					"t_contract(Token)840": {
						"encoding": "inplace",
						"label": "contract Token",
						"numberOfBytes": "20"
					},
					"t_contract(User)939": {
						"encoding": "inplace",
						"label": "contract User",
						"numberOfBytes": "20"
					},
					"t_string_storage": {
						"encoding": "bytes",
						"label": "string",
						"numberOfBytes": "32"
					},
					"t_struct(TaskInfo)198_storage": {
						"encoding": "inplace",
						"label": "struct TaskInfo",
						"members": [
							{
								"astId": 185,
								"contract": "xuanshang/jstask/app/Task.sol:Task",
								"label": "issuer",
								"offset": 0,
								"slot": "0",
								"type": "t_string_storage"
							},
							{
								"astId": 187,
								"contract": "xuanshang/jstask/app/Task.sol:Task",
								"label": "worker",
								"offset": 0,
								"slot": "1",
								"type": "t_string_storage"
							},
							{
								"astId": 189,
								"contract": "xuanshang/jstask/app/Task.sol:Task",
								"label": "desc",
								"offset": 0,
								"slot": "2",
								"type": "t_string_storage"
							},
							{
								"astId": 191,
								"contract": "xuanshang/jstask/app/Task.sol:Task",
								"label": "bonus",
								"offset": 0,
								"slot": "3",
								"type": "t_uint256"
							},
							{
								"astId": 193,
								"contract": "xuanshang/jstask/app/Task.sol:Task",
								"label": "status",
								"offset": 0,
								"slot": "4",
								"type": "t_uint8"
							},
							{
								"astId": 195,
								"contract": "xuanshang/jstask/app/Task.sol:Task",
								"label": "timestamp",
								"offset": 0,
								"slot": "5",
								"type": "t_uint256"
							},
							{
								"astId": 197,
								"contract": "xuanshang/jstask/app/Task.sol:Task",
								"label": "comment",
								"offset": 0,
								"slot": "6",
								"type": "t_string_storage"
							}
						],
						"numberOfBytes": "224"
					},
					"t_uint256": {
						"encoding": "inplace",
						"label": "uint256",
						"numberOfBytes": "32"
					},
					"t_uint8": {
						"encoding": "inplace",
						"label": "uint8",
						"numberOfBytes": "1"
					}
				}
			},
			"userdoc": {
				"methods": {}
			}
		}
	}
}