{
	"xuanshang/jstask/app/Token.sol": {
		"Token": {
			"abi": [
				{
					"inputs": [],
					"stateMutability": "nonpayable",
					"type": "constructor"
				},
				{
					"anonymous": false,
					"inputs": [
						{
							"indexed": true,
							"internalType": "string",
							"name": "_from",
							"type": "string"
						},
						{
							"indexed": true,
							"internalType": "string",
							"name": "_to",
							"type": "string"
						},
						{
							"indexed": false,
							"internalType": "uint256",
							"name": "_value",
							"type": "uint256"
						}
					],
					"name": "Transfer",
					"type": "event"
				},
				{
					"inputs": [
						{
							"internalType": "string",
							"name": "_owner",
							"type": "string"
						}
					],
					"name": "balanceOf",
					"outputs": [
						{
							"internalType": "uint256",
							"name": "balance",
							"type": "uint256"
						}
					],
					"stateMutability": "view",
					"type": "function"
				},
				{
					"inputs": [
						{
							"internalType": "string",
							"name": "_to",
							"type": "string"
						},
						{
							"internalType": "uint256",
							"name": "_value",
							"type": "uint256"
						}
					],
					"name": "mint",
					"outputs": [],
					"stateMutability": "nonpayable",
					"type": "function"
				},
				{
					"inputs": [],
					"name": "totalSupply",
					"outputs": [
						{
							"internalType": "uint256",
							"name": "",
							"type": "uint256"
						}
					],
					"stateMutability": "view",
					"type": "function"
				},
				{
					"inputs": [
						{
							"internalType": "string",
							"name": "_from",
							"type": "string"
						},
						{
							"internalType": "string",
							"name": "_to",
							"type": "string"
						},
						{
							"internalType": "uint256",
							"name": "_value",
							"type": "uint256"
						}
					],
					"name": "transfer",
					"outputs": [
						{
							"internalType": "bool",
							"name": "success",
							"type": "bool"
						}
					],
					"stateMutability": "nonpayable",
					"type": "function"
				}
			],
			"devdoc": {
				"methods": {}
			},
			"evm": {
				"assembly": "    /* \"xuanshang/jstask/app/Token.sol\":136:1626  contract Token is IERC2000{... */\n  mstore(0x40, 0x80)\n    /* \"xuanshang/jstask/app/Token.sol\":315:397  constructor() public {... */\n  callvalue\n  dup1\n  iszero\n  tag_1\n  jumpi\n  0x00\n  dup1\n  revert\ntag_1:\n  pop\n    /* \"xuanshang/jstask/app/Token.sol\":361:362  0 */\n  0x00\n    /* \"xuanshang/jstask/app/Token.sol\":346:358  _totalSupply */\n  dup1\n    /* \"xuanshang/jstask/app/Token.sol\":346:362  _totalSupply = 0 */\n  dup2\n  swap1\n  sstore\n  pop\n    /* \"xuanshang/jstask/app/Token.sol\":380:390  msg.sender */\n  caller\n    /* \"xuanshang/jstask/app/Token.sol\":372:377  admin */\n  0x01\n  0x00\n    /* \"xuanshang/jstask/app/Token.sol\":372:390  admin = msg.sender */\n  0x0100\n  exp\n  dup2\n  sload\n  dup2\n  0xffffffffffffffffffffffffffffffffffffffff\n  mul\n  not\n  and\n  swap1\n  dup4\n  0xffffffffffffffffffffffffffffffffffffffff\n  and\n  mul\n  or\n  swap1\n  sstore\n  pop\n    /* \"xuanshang/jstask/app/Token.sol\":136:1626  contract Token is IERC2000{... */\n  dataSize(sub_0)\n  dup1\n  dataOffset(sub_0)\n  0x00\n  codecopy\n  0x00\n  return\nstop\n\nsub_0: assembly {\n        /* \"xuanshang/jstask/app/Token.sol\":136:1626  contract Token is IERC2000{... */\n      mstore(0x40, 0x80)\n      callvalue\n      dup1\n      iszero\n      tag_1\n      jumpi\n      0x00\n      dup1\n      revert\n    tag_1:\n      pop\n      jumpi(tag_2, lt(calldatasize, 0x04))\n      shr(0xe0, calldataload(0x00))\n      dup1\n      0x056b01ce\n      eq\n      tag_3\n      jumpi\n      dup1\n      0x18160ddd\n      eq\n      tag_4\n      jumpi\n      dup1\n      0x35ee5f87\n      eq\n      tag_5\n      jumpi\n      dup1\n      0x9b80b050\n      eq\n      tag_6\n      jumpi\n    tag_2:\n      0x00\n      dup1\n      revert\n        /* \"xuanshang/jstask/app/Token.sol\":1244:1619  function mint(string calldata _to, uint256 _value)external{... */\n    tag_3:\n      tag_7\n      0x04\n      dup1\n      calldatasize\n      sub\n      0x40\n      dup2\n      lt\n      iszero\n      tag_8\n      jumpi\n      0x00\n      dup1\n      revert\n    tag_8:\n      dup2\n      add\n      swap1\n      dup1\n      dup1\n      calldataload\n      swap1\n      0x20\n      add\n      swap1\n      0x0100000000\n      dup2\n      gt\n      iszero\n      tag_9\n      jumpi\n      0x00\n      dup1\n      revert\n    tag_9:\n      dup3\n      add\n      dup4\n      0x20\n      dup3\n      add\n      gt\n      iszero\n      tag_10\n      jumpi\n      0x00\n      dup1\n      revert\n    tag_10:\n      dup1\n      calldataload\n      swap1\n      0x20\n      add\n      swap2\n      dup5\n      0x01\n      dup4\n      mul\n      dup5\n      add\n      gt\n      0x0100000000\n      dup4\n      gt\n      or\n      iszero\n      tag_11\n      jumpi\n      0x00\n      dup1\n      revert\n    tag_11:\n      swap1\n      swap2\n      swap3\n      swap4\n      swap2\n      swap3\n      swap4\n      swap1\n      dup1\n      calldataload\n      swap1\n      0x20\n      add\n      swap1\n      swap3\n      swap2\n      swap1\n      pop\n      pop\n      pop\n      tag_12\n      jump\t// in\n    tag_7:\n      stop\n        /* \"xuanshang/jstask/app/Token.sol\":425:523  function totalSupply()override external view returns (uint256){... */\n    tag_4:\n      tag_13\n      tag_14\n      jump\t// in\n    tag_13:\n      mload(0x40)\n      dup1\n      dup3\n      dup2\n      mstore\n      0x20\n      add\n      swap2\n      pop\n      pop\n      mload(0x40)\n      dup1\n      swap2\n      sub\n      swap1\n      return\n        /* \"xuanshang/jstask/app/Token.sol\":548:679  function balanceOf(string calldata _owner)override external view returns (uint256 balance){... */\n    tag_5:\n      tag_15\n      0x04\n      dup1\n      calldatasize\n      sub\n      0x20\n      dup2\n      lt\n      iszero\n      tag_16\n      jumpi\n      0x00\n      dup1\n      revert\n    tag_16:\n      dup2\n      add\n      swap1\n      dup1\n      dup1\n      calldataload\n      swap1\n      0x20\n      add\n      swap1\n      0x0100000000\n      dup2\n      gt\n      iszero\n      tag_17\n      jumpi\n      0x00\n      dup1\n      revert\n    tag_17:\n      dup3\n      add\n      dup4\n      0x20\n      dup3\n      add\n      gt\n      iszero\n      tag_18\n      jumpi\n      0x00\n      dup1\n      revert\n    tag_18:\n      dup1\n      calldataload\n      swap1\n      0x20\n      add\n      swap2\n      dup5\n      0x01\n      dup4\n      mul\n      dup5\n      add\n      gt\n      0x0100000000\n      dup4\n      gt\n      or\n      iszero\n      tag_19\n      jumpi\n      0x00\n      dup1\n      revert\n    tag_19:\n      swap1\n      swap2\n      swap3\n      swap4\n      swap2\n      swap3\n      swap4\n      swap1\n      pop\n      pop\n      pop\n      tag_20\n      jump\t// in\n    tag_15:\n      mload(0x40)\n      dup1\n      dup3\n      dup2\n      mstore\n      0x20\n      add\n      swap2\n      pop\n      pop\n      mload(0x40)\n      dup1\n      swap2\n      sub\n      swap1\n      return\n        /* \"xuanshang/jstask/app/Token.sol\":698:1141  function transfer(string calldata _from,string calldata _to, uint256 _value) external override returns (bool success){... */\n    tag_6:\n      tag_21\n      0x04\n      dup1\n      calldatasize\n      sub\n      0x60\n      dup2\n      lt\n      iszero\n      tag_22\n      jumpi\n      0x00\n      dup1\n      revert\n    tag_22:\n      dup2\n      add\n      swap1\n      dup1\n      dup1\n      calldataload\n      swap1\n      0x20\n      add\n      swap1\n      0x0100000000\n      dup2\n      gt\n      iszero\n      tag_23\n      jumpi\n      0x00\n      dup1\n      revert\n    tag_23:\n      dup3\n      add\n      dup4\n      0x20\n      dup3\n      add\n      gt\n      iszero\n      tag_24\n      jumpi\n      0x00\n      dup1\n      revert\n    tag_24:\n      dup1\n      calldataload\n      swap1\n      0x20\n      add\n      swap2\n      dup5\n      0x01\n      dup4\n      mul\n      dup5\n      add\n      gt\n      0x0100000000\n      dup4\n      gt\n      or\n      iszero\n      tag_25\n      jumpi\n      0x00\n      dup1\n      revert\n    tag_25:\n      swap1\n      swap2\n      swap3\n      swap4\n      swap2\n      swap3\n      swap4\n      swap1\n      dup1\n      calldataload\n      swap1\n      0x20\n      add\n      swap1\n      0x0100000000\n      dup2\n      gt\n      iszero\n      tag_26\n      jumpi\n      0x00\n      dup1\n      revert\n    tag_26:\n      dup3\n      add\n      dup4\n      0x20\n      dup3\n      add\n      gt\n      iszero\n      tag_27\n      jumpi\n      0x00\n      dup1\n      revert\n    tag_27:\n      dup1\n      calldataload\n      swap1\n      0x20\n      add\n      swap2\n      dup5\n      0x01\n      dup4\n      mul\n      dup5\n      add\n      gt\n      0x0100000000\n      dup4\n      gt\n      or\n      iszero\n      tag_28\n      jumpi\n      0x00\n      dup1\n      revert\n    tag_28:\n      swap1\n      swap2\n      swap3\n      swap4\n      swap2\n      swap3\n      swap4\n      swap1\n      dup1\n      calldataload\n      swap1\n      0x20\n      add\n      swap1\n      swap3\n      swap2\n      swap1\n      pop\n      pop\n      pop\n      tag_29\n      jump\t// in\n    tag_21:\n      mload(0x40)\n      dup1\n      dup3\n      iszero\n      iszero\n      iszero\n      iszero\n      dup2\n      mstore\n      0x20\n      add\n      swap2\n      pop\n      pop\n      mload(0x40)\n      dup1\n      swap2\n      sub\n      swap1\n      return\n        /* \"xuanshang/jstask/app/Token.sol\":1244:1619  function mint(string calldata _to, uint256 _value)external{... */\n    tag_12:\n        /* \"xuanshang/jstask/app/Token.sol\":1329:1339  msg.sender */\n      caller\n        /* \"xuanshang/jstask/app/Token.sol\":1320:1339  admin == msg.sender */\n      0xffffffffffffffffffffffffffffffffffffffff\n      and\n        /* \"xuanshang/jstask/app/Token.sol\":1320:1325  admin */\n      0x01\n      0x00\n      swap1\n      sload\n      swap1\n      0x0100\n      exp\n      swap1\n      div\n      0xffffffffffffffffffffffffffffffffffffffff\n      and\n        /* \"xuanshang/jstask/app/Token.sol\":1320:1339  admin == msg.sender */\n      0xffffffffffffffffffffffffffffffffffffffff\n      and\n      eq\n        /* \"xuanshang/jstask/app/Token.sol\":1312:1366  require(admin == msg.sender,\"Only admin can do this!\") */\n      tag_31\n      jumpi\n      mload(0x40)\n      0x08c379a000000000000000000000000000000000000000000000000000000000\n      dup2\n      mstore\n      0x04\n      add\n      dup1\n      dup1\n      0x20\n      add\n      dup3\n      dup2\n      sub\n      dup3\n      mstore\n      0x17\n      dup2\n      mstore\n      0x20\n      add\n      dup1\n      0x4f6e6c792061646d696e2063616e20646f207468697321000000000000000000\n      dup2\n      mstore\n      pop\n      0x20\n      add\n      swap2\n      pop\n      pop\n      mload(0x40)\n      dup1\n      swap2\n      sub\n      swap1\n      revert\n    tag_31:\n        /* \"xuanshang/jstask/app/Token.sol\":1385:1400  _to.isEqual(\"\") */\n      tag_32\n      mload(0x40)\n      dup1\n      0x20\n      add\n      0x40\n      mstore\n      dup1\n      0x00\n      dup2\n      mstore\n      pop\n        /* \"xuanshang/jstask/app/Token.sol\":1385:1388  _to */\n      dup5\n      dup5\n        /* \"xuanshang/jstask/app/Token.sol\":1385:1396  _to.isEqual */\n      dup1\n      dup1\n      0x1f\n      add\n      0x20\n      dup1\n      swap2\n      div\n      mul\n      0x20\n      add\n      mload(0x40)\n      swap1\n      dup2\n      add\n      0x40\n      mstore\n      dup1\n      swap4\n      swap3\n      swap2\n      swap1\n      dup2\n      dup2\n      mstore\n      0x20\n      add\n      dup4\n      dup4\n      dup1\n      dup3\n      dup5\n      calldatacopy\n      0x00\n      dup2\n      dup5\n      add\n      mstore\n      not(0x1f)\n      0x1f\n      dup3\n      add\n      and\n      swap1\n      pop\n      dup1\n      dup4\n      add\n      swap3\n      pop\n      pop\n      pop\n      pop\n      pop\n      pop\n      pop\n      tag_33\n      swap1\n        /* \"xuanshang/jstask/app/Token.sol\":1385:1400  _to.isEqual(\"\") */\n      swap2\n      swap1\n      0xffffffff\n      and\n      jump\t// in\n    tag_32:\n        /* \"xuanshang/jstask/app/Token.sol\":1384:1400  !_to.isEqual(\"\") */\n      iszero\n        /* \"xuanshang/jstask/app/Token.sol\":1376:1419  require(!_to.isEqual(\"\"),\"To must exists.\") */\n      tag_34\n      jumpi\n      mload(0x40)\n      0x08c379a000000000000000000000000000000000000000000000000000000000\n      dup2\n      mstore\n      0x04\n      add\n      dup1\n      dup1\n      0x20\n      add\n      dup3\n      dup2\n      sub\n      dup3\n      mstore\n      0x0f\n      dup2\n      mstore\n      0x20\n      add\n      dup1\n      0x546f206d757374206578697374732e0000000000000000000000000000000000\n      dup2\n      mstore\n      pop\n      0x20\n      add\n      swap2\n      pop\n      pop\n      mload(0x40)\n      dup1\n      swap2\n      sub\n      swap1\n      revert\n    tag_34:\n        /* \"xuanshang/jstask/app/Token.sol\":1446:1447  0 */\n      0x00\n        /* \"xuanshang/jstask/app/Token.sol\":1437:1443  _value */\n      dup2\n        /* \"xuanshang/jstask/app/Token.sol\":1437:1447  _value > 0 */\n      gt\n        /* \"xuanshang/jstask/app/Token.sol\":1429:1466  require(_value > 0,\"Value must > 0.\") */\n      tag_35\n      jumpi\n      mload(0x40)\n      0x08c379a000000000000000000000000000000000000000000000000000000000\n      dup2\n      mstore\n      0x04\n      add\n      dup1\n      dup1\n      0x20\n      add\n      dup3\n      dup2\n      sub\n      dup3\n      mstore\n      0x0f\n      dup2\n      mstore\n      0x20\n      add\n      dup1\n      0x56616c7565206d757374203e20302e0000000000000000000000000000000000\n      dup2\n      mstore\n      pop\n      0x20\n      add\n      swap2\n      pop\n      pop\n      mload(0x40)\n      dup1\n      swap2\n      sub\n      swap1\n      revert\n    tag_35:\n        /* \"xuanshang/jstask/app/Token.sol\":1491:1515  _totalSupply.add(_value) */\n      tag_36\n        /* \"xuanshang/jstask/app/Token.sol\":1508:1514  _value */\n      dup2\n        /* \"xuanshang/jstask/app/Token.sol\":1491:1503  _totalSupply */\n      sload(0x00)\n        /* \"xuanshang/jstask/app/Token.sol\":1491:1507  _totalSupply.add */\n      tag_37\n      swap1\n        /* \"xuanshang/jstask/app/Token.sol\":1491:1515  _totalSupply.add(_value) */\n      swap2\n      swap1\n      0xffffffff\n      and\n      jump\t// in\n    tag_36:\n        /* \"xuanshang/jstask/app/Token.sol\":1476:1488  _totalSupply */\n      0x00\n        /* \"xuanshang/jstask/app/Token.sol\":1476:1515  _totalSupply = _totalSupply.add(_value) */\n      dup2\n      swap1\n      sstore\n      pop\n        /* \"xuanshang/jstask/app/Token.sol\":1542:1568  _balances[_to].add(_value) */\n      tag_38\n        /* \"xuanshang/jstask/app/Token.sol\":1561:1567  _value */\n      dup2\n        /* \"xuanshang/jstask/app/Token.sol\":1542:1551  _balances */\n      0x02\n        /* \"xuanshang/jstask/app/Token.sol\":1552:1555  _to */\n      dup6\n      dup6\n        /* \"xuanshang/jstask/app/Token.sol\":1542:1556  _balances[_to] */\n      mload(0x40)\n      dup1\n      dup4\n      dup4\n      dup1\n      dup3\n      dup5\n      calldatacopy\n      dup1\n      dup4\n      add\n      swap3\n      pop\n      pop\n      pop\n      swap3\n      pop\n      pop\n      pop\n      swap1\n      dup2\n      mstore\n      0x20\n      add\n      mload(0x40)\n      dup1\n      swap2\n      sub\n      swap1\n      keccak256\n      sload\n        /* \"xuanshang/jstask/app/Token.sol\":1542:1560  _balances[_to].add */\n      tag_37\n      swap1\n        /* \"xuanshang/jstask/app/Token.sol\":1542:1568  _balances[_to].add(_value) */\n      swap2\n      swap1\n      0xffffffff\n      and\n      jump\t// in\n    tag_38:\n        /* \"xuanshang/jstask/app/Token.sol\":1525:1534  _balances */\n      0x02\n        /* \"xuanshang/jstask/app/Token.sol\":1535:1538  _to */\n      dup5\n      dup5\n        /* \"xuanshang/jstask/app/Token.sol\":1525:1539  _balances[_to] */\n      mload(0x40)\n      dup1\n      dup4\n      dup4\n      dup1\n      dup3\n      dup5\n      calldatacopy\n      dup1\n      dup4\n      add\n      swap3\n      pop\n      pop\n      pop\n      swap3\n      pop\n      pop\n      pop\n      swap1\n      dup2\n      mstore\n      0x20\n      add\n      mload(0x40)\n      dup1\n      swap2\n      sub\n      swap1\n      keccak256\n        /* \"xuanshang/jstask/app/Token.sol\":1525:1568  _balances[_to] = _balances[_to].add(_value) */\n      dup2\n      swap1\n      sstore\n      pop\n        /* \"xuanshang/jstask/app/Token.sol\":1601:1604  _to */\n      dup3\n      dup3\n        /* \"xuanshang/jstask/app/Token.sol\":1583:1612  Transfer(\"system\",_to,_value) */\n      mload(0x40)\n      dup1\n      dup4\n      dup4\n      dup1\n      dup3\n      dup5\n      calldatacopy\n      dup1\n      dup4\n      add\n      swap3\n      pop\n      pop\n      pop\n      swap3\n      pop\n      pop\n      pop\n      mload(0x40)\n      dup1\n      swap2\n      sub\n      swap1\n      keccak256\n      mload(0x40)\n      dup1\n      dup1\n      0x73797374656d0000000000000000000000000000000000000000000000000000\n      dup2\n      mstore\n      pop\n      0x06\n      add\n      swap1\n      pop\n      mload(0x40)\n      dup1\n      swap2\n      sub\n      swap1\n      keccak256\n      0x5358be4df107be4d9b023fc323f41d7109610225c6ef211b9d375b9fbd7ccc4f\n        /* \"xuanshang/jstask/app/Token.sol\":1605:1611  _value */\n      dup4\n        /* \"xuanshang/jstask/app/Token.sol\":1583:1612  Transfer(\"system\",_to,_value) */\n      mload(0x40)\n      dup1\n      dup3\n      dup2\n      mstore\n      0x20\n      add\n      swap2\n      pop\n      pop\n      mload(0x40)\n      dup1\n      swap2\n      sub\n      swap1\n      log3\n        /* \"xuanshang/jstask/app/Token.sol\":1244:1619  function mint(string calldata _to, uint256 _value)external{... */\n      pop\n      pop\n      pop\n      jump\t// out\n        /* \"xuanshang/jstask/app/Token.sol\":425:523  function totalSupply()override external view returns (uint256){... */\n    tag_14:\n        /* \"xuanshang/jstask/app/Token.sol\":479:486  uint256 */\n      0x00\n        /* \"xuanshang/jstask/app/Token.sol\":504:516  _totalSupply */\n      dup1\n      sload\n        /* \"xuanshang/jstask/app/Token.sol\":497:516  return _totalSupply */\n      swap1\n      pop\n        /* \"xuanshang/jstask/app/Token.sol\":425:523  function totalSupply()override external view returns (uint256){... */\n      swap1\n      jump\t// out\n        /* \"xuanshang/jstask/app/Token.sol\":548:679  function balanceOf(string calldata _owner)override external view returns (uint256 balance){... */\n    tag_20:\n        /* \"xuanshang/jstask/app/Token.sol\":622:637  uint256 balance */\n      0x00\n        /* \"xuanshang/jstask/app/Token.sol\":655:664  _balances */\n      0x02\n        /* \"xuanshang/jstask/app/Token.sol\":665:671  _owner */\n      dup4\n      dup4\n        /* \"xuanshang/jstask/app/Token.sol\":655:672  _balances[_owner] */\n      mload(0x40)\n      dup1\n      dup4\n      dup4\n      dup1\n      dup3\n      dup5\n      calldatacopy\n      dup1\n      dup4\n      add\n      swap3\n      pop\n      pop\n      pop\n      swap3\n      pop\n      pop\n      pop\n      swap1\n      dup2\n      mstore\n      0x20\n      add\n      mload(0x40)\n      dup1\n      swap2\n      sub\n      swap1\n      keccak256\n      sload\n        /* \"xuanshang/jstask/app/Token.sol\":648:672  return _balances[_owner] */\n      swap1\n      pop\n        /* \"xuanshang/jstask/app/Token.sol\":548:679  function balanceOf(string calldata _owner)override external view returns (uint256 balance){... */\n      swap3\n      swap2\n      pop\n      pop\n      jump\t// out\n        /* \"xuanshang/jstask/app/Token.sol\":698:1141  function transfer(string calldata _from,string calldata _to, uint256 _value) external override returns (bool success){... */\n    tag_29:\n        /* \"xuanshang/jstask/app/Token.sol\":802:814  bool success */\n      0x00\n        /* \"xuanshang/jstask/app/Token.sol\":834:849  _to.isEqual(\"\") */\n      tag_42\n      mload(0x40)\n      dup1\n      0x20\n      add\n      0x40\n      mstore\n      dup1\n      0x00\n      dup2\n      mstore\n      pop\n        /* \"xuanshang/jstask/app/Token.sol\":834:837  _to */\n      dup6\n      dup6\n        /* \"xuanshang/jstask/app/Token.sol\":834:845  _to.isEqual */\n      dup1\n      dup1\n      0x1f\n      add\n      0x20\n      dup1\n      swap2\n      div\n      mul\n      0x20\n      add\n      mload(0x40)\n      swap1\n      dup2\n      add\n      0x40\n      mstore\n      dup1\n      swap4\n      swap3\n      swap2\n      swap1\n      dup2\n      dup2\n      mstore\n      0x20\n      add\n      dup4\n      dup4\n      dup1\n      dup3\n      dup5\n      calldatacopy\n      0x00\n      dup2\n      dup5\n      add\n      mstore\n      not(0x1f)\n      0x1f\n      dup3\n      add\n      and\n      swap1\n      pop\n      dup1\n      dup4\n      add\n      swap3\n      pop\n      pop\n      pop\n      pop\n      pop\n      pop\n      pop\n      tag_33\n      swap1\n        /* \"xuanshang/jstask/app/Token.sol\":834:849  _to.isEqual(\"\") */\n      swap2\n      swap1\n      0xffffffff\n      and\n      jump\t// in\n    tag_42:\n        /* \"xuanshang/jstask/app/Token.sol\":833:849  !_to.isEqual(\"\") */\n      iszero\n        /* \"xuanshang/jstask/app/Token.sol\":825:868  require(!_to.isEqual(\"\"),\"To must exists.\") */\n      tag_43\n      jumpi\n      mload(0x40)\n      0x08c379a000000000000000000000000000000000000000000000000000000000\n      dup2\n      mstore\n      0x04\n      add\n      dup1\n      dup1\n      0x20\n      add\n      dup3\n      dup2\n      sub\n      dup3\n      mstore\n      0x0f\n      dup2\n      mstore\n      0x20\n      add\n      dup1\n      0x546f206d757374206578697374732e0000000000000000000000000000000000\n      dup2\n      mstore\n      pop\n      0x20\n      add\n      swap2\n      pop\n      pop\n      mload(0x40)\n      dup1\n      swap2\n      sub\n      swap1\n      revert\n    tag_43:\n        /* \"xuanshang/jstask/app/Token.sol\":895:896  0 */\n      0x00\n        /* \"xuanshang/jstask/app/Token.sol\":886:892  _value */\n      dup3\n        /* \"xuanshang/jstask/app/Token.sol\":886:896  _value > 0 */\n      gt\n        /* \"xuanshang/jstask/app/Token.sol\":878:915  require(_value > 0,\"Value must > 0.\") */\n      tag_44\n      jumpi\n      mload(0x40)\n      0x08c379a000000000000000000000000000000000000000000000000000000000\n      dup2\n      mstore\n      0x04\n      add\n      dup1\n      dup1\n      0x20\n      add\n      dup3\n      dup2\n      sub\n      dup3\n      mstore\n      0x0f\n      dup2\n      mstore\n      0x20\n      add\n      dup1\n      0x56616c7565206d757374203e20302e0000000000000000000000000000000000\n      dup2\n      mstore\n      pop\n      0x20\n      add\n      swap2\n      pop\n      pop\n      mload(0x40)\n      dup1\n      swap2\n      sub\n      swap1\n      revert\n    tag_44:\n        /* \"xuanshang/jstask/app/Token.sol\":953:959  _value */\n      dup2\n        /* \"xuanshang/jstask/app/Token.sol\":933:942  _balances */\n      0x02\n        /* \"xuanshang/jstask/app/Token.sol\":943:948  _from */\n      dup8\n      dup8\n        /* \"xuanshang/jstask/app/Token.sol\":933:949  _balances[_from] */\n      mload(0x40)\n      dup1\n      dup4\n      dup4\n      dup1\n      dup3\n      dup5\n      calldatacopy\n      dup1\n      dup4\n      add\n      swap3\n      pop\n      pop\n      pop\n      swap3\n      pop\n      pop\n      pop\n      swap1\n      dup2\n      mstore\n      0x20\n      add\n      mload(0x40)\n      dup1\n      swap2\n      sub\n      swap1\n      keccak256\n      sload\n        /* \"xuanshang/jstask/app/Token.sol\":933:959  _balances[_from] >= _value */\n      lt\n      iszero\n        /* \"xuanshang/jstask/app/Token.sol\":925:983  require(_balances[_from] >= _value,\"Balance must enough.\") */\n      tag_45\n      jumpi\n      mload(0x40)\n      0x08c379a000000000000000000000000000000000000000000000000000000000\n      dup2\n      mstore\n      0x04\n      add\n      dup1\n      dup1\n      0x20\n      add\n      dup3\n      dup2\n      sub\n      dup3\n      mstore\n      0x14\n      dup2\n      mstore\n      0x20\n      add\n      dup1\n      0x42616c616e6365206d75737420656e6f7567682e000000000000000000000000\n      dup2\n      mstore\n      pop\n      0x20\n      add\n      swap2\n      pop\n      pop\n      mload(0x40)\n      dup1\n      swap2\n      sub\n      swap1\n      revert\n    tag_45:\n        /* \"xuanshang/jstask/app/Token.sol\":1012:1040  _balances[_from].sub(_value) */\n      tag_46\n        /* \"xuanshang/jstask/app/Token.sol\":1033:1039  _value */\n      dup3\n        /* \"xuanshang/jstask/app/Token.sol\":1012:1021  _balances */\n      0x02\n        /* \"xuanshang/jstask/app/Token.sol\":1022:1027  _from */\n      dup9\n      dup9\n        /* \"xuanshang/jstask/app/Token.sol\":1012:1028  _balances[_from] */\n      mload(0x40)\n      dup1\n      dup4\n      dup4\n      dup1\n      dup3\n      dup5\n      calldatacopy\n      dup1\n      dup4\n      add\n      swap3\n      pop\n      pop\n      pop\n      swap3\n      pop\n      pop\n      pop\n      swap1\n      dup2\n      mstore\n      0x20\n      add\n      mload(0x40)\n      dup1\n      swap2\n      sub\n      swap1\n      keccak256\n      sload\n        /* \"xuanshang/jstask/app/Token.sol\":1012:1032  _balances[_from].sub */\n      tag_47\n      swap1\n        /* \"xuanshang/jstask/app/Token.sol\":1012:1040  _balances[_from].sub(_value) */\n      swap2\n      swap1\n      0xffffffff\n      and\n      jump\t// in\n    tag_46:\n        /* \"xuanshang/jstask/app/Token.sol\":993:1002  _balances */\n      0x02\n        /* \"xuanshang/jstask/app/Token.sol\":1003:1008  _from */\n      dup8\n      dup8\n        /* \"xuanshang/jstask/app/Token.sol\":993:1009  _balances[_from] */\n      mload(0x40)\n      dup1\n      dup4\n      dup4\n      dup1\n      dup3\n      dup5\n      calldatacopy\n      dup1\n      dup4\n      add\n      swap3\n      pop\n      pop\n      pop\n      swap3\n      pop\n      pop\n      pop\n      swap1\n      dup2\n      mstore\n      0x20\n      add\n      mload(0x40)\n      dup1\n      swap2\n      sub\n      swap1\n      keccak256\n        /* \"xuanshang/jstask/app/Token.sol\":993:1040  _balances[_from] = _balances[_from].sub(_value) */\n      dup2\n      swap1\n      sstore\n      pop\n        /* \"xuanshang/jstask/app/Token.sol\":1067:1093  _balances[_to].add(_value) */\n      tag_48\n        /* \"xuanshang/jstask/app/Token.sol\":1086:1092  _value */\n      dup3\n        /* \"xuanshang/jstask/app/Token.sol\":1067:1076  _balances */\n      0x02\n        /* \"xuanshang/jstask/app/Token.sol\":1077:1080  _to */\n      dup7\n      dup7\n        /* \"xuanshang/jstask/app/Token.sol\":1067:1081  _balances[_to] */\n      mload(0x40)\n      dup1\n      dup4\n      dup4\n      dup1\n      dup3\n      dup5\n      calldatacopy\n      dup1\n      dup4\n      add\n      swap3\n      pop\n      pop\n      pop\n      swap3\n      pop\n      pop\n      pop\n      swap1\n      dup2\n      mstore\n      0x20\n      add\n      mload(0x40)\n      dup1\n      swap2\n      sub\n      swap1\n      keccak256\n      sload\n        /* \"xuanshang/jstask/app/Token.sol\":1067:1085  _balances[_to].add */\n      tag_37\n      swap1\n        /* \"xuanshang/jstask/app/Token.sol\":1067:1093  _balances[_to].add(_value) */\n      swap2\n      swap1\n      0xffffffff\n      and\n      jump\t// in\n    tag_48:\n        /* \"xuanshang/jstask/app/Token.sol\":1050:1059  _balances */\n      0x02\n        /* \"xuanshang/jstask/app/Token.sol\":1060:1063  _to */\n      dup6\n      dup6\n        /* \"xuanshang/jstask/app/Token.sol\":1050:1064  _balances[_to] */\n      mload(0x40)\n      dup1\n      dup4\n      dup4\n      dup1\n      dup3\n      dup5\n      calldatacopy\n      dup1\n      dup4\n      add\n      swap3\n      pop\n      pop\n      pop\n      swap3\n      pop\n      pop\n      pop\n      swap1\n      dup2\n      mstore\n      0x20\n      add\n      mload(0x40)\n      dup1\n      swap2\n      sub\n      swap1\n      keccak256\n        /* \"xuanshang/jstask/app/Token.sol\":1050:1093  _balances[_to] = _balances[_to].add(_value) */\n      dup2\n      swap1\n      sstore\n      pop\n        /* \"xuanshang/jstask/app/Token.sol\":1123:1126  _to */\n      dup4\n      dup4\n        /* \"xuanshang/jstask/app/Token.sol\":1108:1134  Transfer(_from,_to,_value) */\n      mload(0x40)\n      dup1\n      dup4\n      dup4\n      dup1\n      dup3\n      dup5\n      calldatacopy\n      dup1\n      dup4\n      add\n      swap3\n      pop\n      pop\n      pop\n      swap3\n      pop\n      pop\n      pop\n      mload(0x40)\n      dup1\n      swap2\n      sub\n      swap1\n      keccak256\n        /* \"xuanshang/jstask/app/Token.sol\":1117:1122  _from */\n      dup7\n      dup7\n        /* \"xuanshang/jstask/app/Token.sol\":1108:1134  Transfer(_from,_to,_value) */\n      mload(0x40)\n      dup1\n      dup4\n      dup4\n      dup1\n      dup3\n      dup5\n      calldatacopy\n      dup1\n      dup4\n      add\n      swap3\n      pop\n      pop\n      pop\n      swap3\n      pop\n      pop\n      pop\n      mload(0x40)\n      dup1\n      swap2\n      sub\n      swap1\n      keccak256\n      0x5358be4df107be4d9b023fc323f41d7109610225c6ef211b9d375b9fbd7ccc4f\n        /* \"xuanshang/jstask/app/Token.sol\":1127:1133  _value */\n      dup5\n        /* \"xuanshang/jstask/app/Token.sol\":1108:1134  Transfer(_from,_to,_value) */\n      mload(0x40)\n      dup1\n      dup3\n      dup2\n      mstore\n      0x20\n      add\n      swap2\n      pop\n      pop\n      mload(0x40)\n      dup1\n      swap2\n      sub\n      swap1\n      log3\n        /* \"xuanshang/jstask/app/Token.sol\":698:1141  function transfer(string calldata _from,string calldata _to, uint256 _value) external override returns (bool success){... */\n      swap6\n      swap5\n      pop\n      pop\n      pop\n      pop\n      pop\n      jump\t// out\n        /* \"xuanshang/jstask/app/strings.sol\":82:388  function isEqual(string memory a,string memory b)internal pure returns(bool){... */\n    tag_33:\n        /* \"xuanshang/jstask/app/strings.sol\":153:157  bool */\n      0x00\n        /* \"xuanshang/jstask/app/strings.sol\":260:273  bytes32 hashA */\n      dup1\n        /* \"xuanshang/jstask/app/strings.sol\":297:298  a */\n      dup4\n        /* \"xuanshang/jstask/app/strings.sol\":286:299  abi.encode(a) */\n      add(0x20, mload(0x40))\n      dup1\n      dup1\n      0x20\n      add\n      dup3\n      dup2\n      sub\n      dup3\n      mstore\n      dup4\n      dup2\n      dup2\n      mload\n      dup2\n      mstore\n      0x20\n      add\n      swap2\n      pop\n      dup1\n      mload\n      swap1\n      0x20\n      add\n      swap1\n      dup1\n      dup4\n      dup4\n      0x00\n    tag_50:\n      dup4\n      dup2\n      lt\n      iszero\n      tag_52\n      jumpi\n      dup1\n      dup3\n      add\n      mload\n      dup2\n      dup5\n      add\n      mstore\n      0x20\n      dup2\n      add\n      swap1\n      pop\n      jump(tag_50)\n    tag_52:\n      pop\n      pop\n      pop\n      pop\n      swap1\n      pop\n      swap1\n      dup2\n      add\n      swap1\n      0x1f\n      and\n      dup1\n      iszero\n      tag_53\n      jumpi\n      dup1\n      dup3\n      sub\n      dup1\n      mload\n      0x01\n      dup4\n      0x20\n      sub\n      0x0100\n      exp\n      sub\n      not\n      and\n      dup2\n      mstore\n      0x20\n      add\n      swap2\n      pop\n    tag_53:\n      pop\n      swap3\n      pop\n      pop\n      pop\n      mload(0x40)\n      0x20\n      dup2\n      dup4\n      sub\n      sub\n      dup2\n      mstore\n      swap1\n      0x40\n      mstore\n        /* \"xuanshang/jstask/app/strings.sol\":276:300  keccak256(abi.encode(a)) */\n      dup1\n      mload\n      swap1\n      0x20\n      add\n      keccak256\n        /* \"xuanshang/jstask/app/strings.sol\":260:300  bytes32 hashA = keccak256(abi.encode(a)) */\n      swap1\n      pop\n        /* \"xuanshang/jstask/app/strings.sol\":310:323  bytes32 hashB */\n      0x00\n        /* \"xuanshang/jstask/app/strings.sol\":347:348  b */\n      dup4\n        /* \"xuanshang/jstask/app/strings.sol\":336:349  abi.encode(b) */\n      add(0x20, mload(0x40))\n      dup1\n      dup1\n      0x20\n      add\n      dup3\n      dup2\n      sub\n      dup3\n      mstore\n      dup4\n      dup2\n      dup2\n      mload\n      dup2\n      mstore\n      0x20\n      add\n      swap2\n      pop\n      dup1\n      mload\n      swap1\n      0x20\n      add\n      swap1\n      dup1\n      dup4\n      dup4\n      0x00\n    tag_54:\n      dup4\n      dup2\n      lt\n      iszero\n      tag_56\n      jumpi\n      dup1\n      dup3\n      add\n      mload\n      dup2\n      dup5\n      add\n      mstore\n      0x20\n      dup2\n      add\n      swap1\n      pop\n      jump(tag_54)\n    tag_56:\n      pop\n      pop\n      pop\n      pop\n      swap1\n      pop\n      swap1\n      dup2\n      add\n      swap1\n      0x1f\n      and\n      dup1\n      iszero\n      tag_57\n      jumpi\n      dup1\n      dup3\n      sub\n      dup1\n      mload\n      0x01\n      dup4\n      0x20\n      sub\n      0x0100\n      exp\n      sub\n      not\n      and\n      dup2\n      mstore\n      0x20\n      add\n      swap2\n      pop\n    tag_57:\n      pop\n      swap3\n      pop\n      pop\n      pop\n      mload(0x40)\n      0x20\n      dup2\n      dup4\n      sub\n      sub\n      dup2\n      mstore\n      swap1\n      0x40\n      mstore\n        /* \"xuanshang/jstask/app/strings.sol\":326:350  keccak256(abi.encode(b)) */\n      dup1\n      mload\n      swap1\n      0x20\n      add\n      keccak256\n        /* \"xuanshang/jstask/app/strings.sol\":310:350  bytes32 hashB = keccak256(abi.encode(b)) */\n      swap1\n      pop\n        /* \"xuanshang/jstask/app/strings.sol\":376:381  hashB */\n      dup1\n        /* \"xuanshang/jstask/app/strings.sol\":367:372  hashA */\n      dup3\n        /* \"xuanshang/jstask/app/strings.sol\":367:381  hashA == hashB */\n      eq\n        /* \"xuanshang/jstask/app/strings.sol\":360:381  return hashA == hashB */\n      swap3\n      pop\n      pop\n      pop\n        /* \"xuanshang/jstask/app/strings.sol\":82:388  function isEqual(string memory a,string memory b)internal pure returns(bool){... */\n      swap3\n      swap2\n      pop\n      pop\n      jump\t// out\n        /* \"xuanshang/jstask/app/SafeMath.sol\":1306:1437  function add(uint256 a, uint256 b) internal pure returns (uint256) {... */\n    tag_37:\n        /* \"xuanshang/jstask/app/SafeMath.sol\":1364:1371  uint256 */\n      0x00\n        /* \"xuanshang/jstask/app/SafeMath.sol\":1379:1388  uint256 c */\n      dup1\n        /* \"xuanshang/jstask/app/SafeMath.sol\":1395:1396  b */\n      dup3\n        /* \"xuanshang/jstask/app/SafeMath.sol\":1391:1392  a */\n      dup5\n        /* \"xuanshang/jstask/app/SafeMath.sol\":1391:1396  a + b */\n      add\n        /* \"xuanshang/jstask/app/SafeMath.sol\":1379:1396  uint256 c = a + b */\n      swap1\n      pop\n        /* \"xuanshang/jstask/app/SafeMath.sol\":1415:1416  a */\n      dup4\n        /* \"xuanshang/jstask/app/SafeMath.sol\":1410:1411  c */\n      dup2\n        /* \"xuanshang/jstask/app/SafeMath.sol\":1410:1416  c >= a */\n      lt\n      iszero\n        /* \"xuanshang/jstask/app/SafeMath.sol\":1402:1417  require(c >= a) */\n      tag_59\n      jumpi\n      0x00\n      dup1\n      revert\n    tag_59:\n        /* \"xuanshang/jstask/app/SafeMath.sol\":1431:1432  c */\n      dup1\n        /* \"xuanshang/jstask/app/SafeMath.sol\":1424:1432  return c */\n      swap2\n      pop\n      pop\n        /* \"xuanshang/jstask/app/SafeMath.sol\":1306:1437  function add(uint256 a, uint256 b) internal pure returns (uint256) {... */\n      swap3\n      swap2\n      pop\n      pop\n      jump\t// out\n        /* \"xuanshang/jstask/app/SafeMath.sol\":1112:1243  function sub(uint256 a, uint256 b) internal pure returns (uint256) {... */\n    tag_47:\n        /* \"xuanshang/jstask/app/SafeMath.sol\":1170:1177  uint256 */\n      0x00\n        /* \"xuanshang/jstask/app/SafeMath.sol\":1198:1199  a */\n      dup3\n        /* \"xuanshang/jstask/app/SafeMath.sol\":1193:1194  b */\n      dup3\n        /* \"xuanshang/jstask/app/SafeMath.sol\":1193:1199  b <= a */\n      gt\n      iszero\n        /* \"xuanshang/jstask/app/SafeMath.sol\":1185:1200  require(b <= a) */\n      tag_61\n      jumpi\n      0x00\n      dup1\n      revert\n    tag_61:\n        /* \"xuanshang/jstask/app/SafeMath.sol\":1206:1215  uint256 c */\n      0x00\n        /* \"xuanshang/jstask/app/SafeMath.sol\":1222:1223  b */\n      dup3\n        /* \"xuanshang/jstask/app/SafeMath.sol\":1218:1219  a */\n      dup5\n        /* \"xuanshang/jstask/app/SafeMath.sol\":1218:1223  a - b */\n      sub\n        /* \"xuanshang/jstask/app/SafeMath.sol\":1206:1223  uint256 c = a - b */\n      swap1\n      pop\n        /* \"xuanshang/jstask/app/SafeMath.sol\":1237:1238  c */\n      dup1\n        /* \"xuanshang/jstask/app/SafeMath.sol\":1230:1238  return c */\n      swap2\n      pop\n      pop\n        /* \"xuanshang/jstask/app/SafeMath.sol\":1112:1243  function sub(uint256 a, uint256 b) internal pure returns (uint256) {... */\n      swap3\n      swap2\n      pop\n      pop\n      jump\t// out\n\n    auxdata: 0xa26469706673582212204896e69efbd315f41af338bfa2e6da6216a4239db062b154bc71ae8b1c4a390864736f6c634300060a0033\n}\n",
				"bytecode": {
					"linkReferences": {},
					"object": "608060405234801561001057600080fd5b506000808190555033600160006101000a81548173ffffffffffffffffffffffffffffffffffffffff021916908373ffffffffffffffffffffffffffffffffffffffff160217905550610aa6806100686000396000f3fe608060405234801561001057600080fd5b506004361061004c5760003560e01c8063056b01ce1461005157806318160ddd146100d457806335ee5f87146100f25780639b80b0501461017f575b600080fd5b6100d26004803603604081101561006757600080fd5b810190808035906020019064010000000081111561008457600080fd5b82018360208201111561009657600080fd5b803590602001918460018302840111640100000000831117156100b857600080fd5b90919293919293908035906020019092919050505061026f565b005b6100dc610592565b6040518082815260200191505060405180910390f35b6101696004803603602081101561010857600080fd5b810190808035906020019064010000000081111561012557600080fd5b82018360208201111561013757600080fd5b8035906020019184600183028401116401000000008311171561015957600080fd5b909192939192939050505061059b565b6040518082815260200191505060405180910390f35b6102556004803603606081101561019557600080fd5b81019080803590602001906401000000008111156101b257600080fd5b8201836020820111156101c457600080fd5b803590602001918460018302840111640100000000831117156101e657600080fd5b90919293919293908035906020019064010000000081111561020757600080fd5b82018360208201111561021957600080fd5b8035906020019184600183028401116401000000008311171561023b57600080fd5b9091929391929390803590602001909291905050506105cd565b604051808215151515815260200191505060405180910390f35b3373ffffffffffffffffffffffffffffffffffffffff16600160009054906101000a900473ffffffffffffffffffffffffffffffffffffffff1673ffffffffffffffffffffffffffffffffffffffff1614610332576040517f08c379a00000000000000000000000000000000000000000000000000000000081526004018080602001828103825260178152602001807f4f6e6c792061646d696e2063616e20646f20746869732100000000000000000081525060200191505060405180910390fd5b6103986040518060200160405280600081525084848080601f016020809104026020016040519081016040528093929190818152602001838380828437600081840152601f19601f8201169050808301925050505050505061090390919063ffffffff16565b1561040b576040517f08c379a000000000000000000000000000000000000000000000000000000000815260040180806020018281038252600f8152602001807f546f206d757374206578697374732e000000000000000000000000000000000081525060200191505060405180910390fd5b60008111610481576040517f08c379a000000000000000000000000000000000000000000000000000000000815260040180806020018281038252600f8152602001807f56616c7565206d757374203e20302e000000000000000000000000000000000081525060200191505060405180910390fd5b61049681600054610a3190919063ffffffff16565b6000819055506104d68160028585604051808383808284378083019250505092505050908152602001604051809103902054610a3190919063ffffffff16565b600284846040518083838082843780830192505050925050509081526020016040518091039020819055508282604051808383808284378083019250505092505050604051809103902060405180807f73797374656d0000000000000000000000000000000000000000000000000000815250600601905060405180910390207f5358be4df107be4d9b023fc323f41d7109610225c6ef211b9d375b9fbd7ccc4f836040518082815260200191505060405180910390a3505050565b60008054905090565b600060028383604051808383808284378083019250505092505050908152602001604051809103902054905092915050565b60006106356040518060200160405280600081525085858080601f016020809104026020016040519081016040528093929190818152602001838380828437600081840152601f19601f8201169050808301925050505050505061090390919063ffffffff16565b156106a8576040517f08c379a000000000000000000000000000000000000000000000000000000000815260040180806020018281038252600f8152602001807f546f206d757374206578697374732e000000000000000000000000000000000081525060200191505060405180910390fd5b6000821161071e576040517f08c379a000000000000000000000000000000000000000000000000000000000815260040180806020018281038252600f8152602001807f56616c7565206d757374203e20302e000000000000000000000000000000000081525060200191505060405180910390fd5b816002878760405180838380828437808301925050509250505090815260200160405180910390205410156107bb576040517f08c379a00000000000000000000000000000000000000000000000000000000081526004018080602001828103825260148152602001807f42616c616e6365206d75737420656e6f7567682e00000000000000000000000081525060200191505060405180910390fd5b6107f58260028888604051808383808284378083019250505092505050908152602001604051809103902054610a5090919063ffffffff16565b6002878760405180838380828437808301925050509250505090815260200160405180910390208190555061085a8260028686604051808383808284378083019250505092505050908152602001604051809103902054610a3190919063ffffffff16565b6002858560405180838380828437808301925050509250505090815260200160405180910390208190555083836040518083838082843780830192505050925050506040518091039020868660405180838380828437808301925050509250505060405180910390207f5358be4df107be4d9b023fc323f41d7109610225c6ef211b9d375b9fbd7ccc4f846040518082815260200191505060405180910390a395945050505050565b600080836040516020018080602001828103825283818151815260200191508051906020019080838360005b8381101561094a57808201518184015260208101905061092f565b50505050905090810190601f1680156109775780820380516001836020036101000a031916815260200191505b50925050506040516020818303038152906040528051906020012090506000836040516020018080602001828103825283818151815260200191508051906020019080838360005b838110156109da5780820151818401526020810190506109bf565b50505050905090810190601f168015610a075780820380516001836020036101000a031916815260200191505b50925050506040516020818303038152906040528051906020012090508082149250505092915050565b600080828401905083811015610a4657600080fd5b8091505092915050565b600082821115610a5f57600080fd5b60008284039050809150509291505056fea26469706673582212204896e69efbd315f41af338bfa2e6da6216a4239db062b154bc71ae8b1c4a390864736f6c634300060a0033",
					"opcodes": "PUSH1 0x80 PUSH1 0x40 MSTORE CALLVALUE DUP1 ISZERO PUSH2 0x10 JUMPI PUSH1 0x0 DUP1 REVERT JUMPDEST POP PUSH1 0x0 DUP1 DUP2 SWAP1 SSTORE POP CALLER PUSH1 0x1 PUSH1 0x0 PUSH2 0x100 EXP DUP2 SLOAD DUP2 PUSH20 0xFFFFFFFFFFFFFFFFFFFFFFFFFFFFFFFFFFFFFFFF MUL NOT AND SWAP1 DUP4 PUSH20 0xFFFFFFFFFFFFFFFFFFFFFFFFFFFFFFFFFFFFFFFF AND MUL OR SWAP1 SSTORE POP PUSH2 0xAA6 DUP1 PUSH2 0x68 PUSH1 0x0 CODECOPY PUSH1 0x0 RETURN INVALID PUSH1 0x80 PUSH1 0x40 MSTORE CALLVALUE DUP1 ISZERO PUSH2 0x10 JUMPI PUSH1 0x0 DUP1 REVERT JUMPDEST POP PUSH1 0x4 CALLDATASIZE LT PUSH2 0x4C JUMPI PUSH1 0x0 CALLDATALOAD PUSH1 0xE0 SHR DUP1 PUSH4 0x56B01CE EQ PUSH2 0x51 JUMPI DUP1 PUSH4 0x18160DDD EQ PUSH2 0xD4 JUMPI DUP1 PUSH4 0x35EE5F87 EQ PUSH2 0xF2 JUMPI DUP1 PUSH4 0x9B80B050 EQ PUSH2 0x17F JUMPI JUMPDEST PUSH1 0x0 DUP1 REVERT JUMPDEST PUSH2 0xD2 PUSH1 0x4 DUP1 CALLDATASIZE SUB PUSH1 0x40 DUP2 LT ISZERO PUSH2 0x67 JUMPI PUSH1 0x0 DUP1 REVERT JUMPDEST DUP2 ADD SWAP1 DUP1 DUP1 CALLDATALOAD SWAP1 PUSH1 0x20 ADD SWAP1 PUSH5 0x100000000 DUP2 GT ISZERO PUSH2 0x84 JUMPI PUSH1 0x0 DUP1 REVERT JUMPDEST DUP3 ADD DUP4 PUSH1 0x20 DUP3 ADD GT ISZERO PUSH2 0x96 JUMPI PUSH1 0x0 DUP1 REVERT JUMPDEST DUP1 CALLDATALOAD SWAP1 PUSH1 0x20 ADD SWAP2 DUP5 PUSH1 0x1 DUP4 MUL DUP5 ADD GT PUSH5 0x100000000 DUP4 GT OR ISZERO PUSH2 0xB8 JUMPI PUSH1 0x0 DUP1 REVERT JUMPDEST SWAP1 SWAP2 SWAP3 SWAP4 SWAP2 SWAP3 SWAP4 SWAP1 DUP1 CALLDATALOAD SWAP1 PUSH1 0x20 ADD SWAP1 SWAP3 SWAP2 SWAP1 POP POP POP PUSH2 0x26F JUMP JUMPDEST STOP JUMPDEST PUSH2 0xDC PUSH2 0x592 JUMP JUMPDEST PUSH1 0x40 MLOAD DUP1 DUP3 DUP2 MSTORE PUSH1 0x20 ADD SWAP2 POP POP PUSH1 0x40 MLOAD DUP1 SWAP2 SUB SWAP1 RETURN JUMPDEST PUSH2 0x169 PUSH1 0x4 DUP1 CALLDATASIZE SUB PUSH1 0x20 DUP2 LT ISZERO PUSH2 0x108 JUMPI PUSH1 0x0 DUP1 REVERT JUMPDEST DUP2 ADD SWAP1 DUP1 DUP1 CALLDATALOAD SWAP1 PUSH1 0x20 ADD SWAP1 PUSH5 0x100000000 DUP2 GT ISZERO PUSH2 0x125 JUMPI PUSH1 0x0 DUP1 REVERT JUMPDEST DUP3 ADD DUP4 PUSH1 0x20 DUP3 ADD GT ISZERO PUSH2 0x137 JUMPI PUSH1 0x0 DUP1 REVERT JUMPDEST DUP1 CALLDATALOAD SWAP1 PUSH1 0x20 ADD SWAP2 DUP5 PUSH1 0x1 DUP4 MUL DUP5 ADD GT PUSH5 0x100000000 DUP4 GT OR ISZERO PUSH2 0x159 JUMPI PUSH1 0x0 DUP1 REVERT JUMPDEST SWAP1 SWAP2 SWAP3 SWAP4 SWAP2 SWAP3 SWAP4 SWAP1 POP POP POP PUSH2 0x59B JUMP JUMPDEST PUSH1 0x40 MLOAD DUP1 DUP3 DUP2 MSTORE PUSH1 0x20 ADD SWAP2 POP POP PUSH1 0x40 MLOAD DUP1 SWAP2 SUB SWAP1 RETURN JUMPDEST PUSH2 0x255 PUSH1 0x4 DUP1 CALLDATASIZE SUB PUSH1 0x60 DUP2 LT ISZERO PUSH2 0x195 JUMPI PUSH1 0x0 DUP1 REVERT JUMPDEST DUP2 ADD SWAP1 DUP1 DUP1 CALLDATALOAD SWAP1 PUSH1 0x20 ADD SWAP1 PUSH5 0x100000000 DUP2 GT ISZERO PUSH2 0x1B2 JUMPI PUSH1 0x0 DUP1 REVERT JUMPDEST DUP3 ADD DUP4 PUSH1 0x20 DUP3 ADD GT ISZERO PUSH2 0x1C4 JUMPI PUSH1 0x0 DUP1 REVERT JUMPDEST DUP1 CALLDATALOAD SWAP1 PUSH1 0x20 ADD SWAP2 DUP5 PUSH1 0x1 DUP4 MUL DUP5 ADD GT PUSH5 0x100000000 DUP4 GT OR ISZERO PUSH2 0x1E6 JUMPI PUSH1 0x0 DUP1 REVERT JUMPDEST SWAP1 SWAP2 SWAP3 SWAP4 SWAP2 SWAP3 SWAP4 SWAP1 DUP1 CALLDATALOAD SWAP1 PUSH1 0x20 ADD SWAP1 PUSH5 0x100000000 DUP2 GT ISZERO PUSH2 0x207 JUMPI PUSH1 0x0 DUP1 REVERT JUMPDEST DUP3 ADD DUP4 PUSH1 0x20 DUP3 ADD GT ISZERO PUSH2 0x219 JUMPI PUSH1 0x0 DUP1 REVERT JUMPDEST DUP1 CALLDATALOAD SWAP1 PUSH1 0x20 ADD SWAP2 DUP5 PUSH1 0x1 DUP4 MUL DUP5 ADD GT PUSH5 0x100000000 DUP4 GT OR ISZERO PUSH2 0x23B JUMPI PUSH1 0x0 DUP1 REVERT JUMPDEST SWAP1 SWAP2 SWAP3 SWAP4 SWAP2 SWAP3 SWAP4 SWAP1 DUP1 CALLDATALOAD SWAP1 PUSH1 0x20 ADD SWAP1 SWAP3 SWAP2 SWAP1 POP POP POP PUSH2 0x5CD JUMP JUMPDEST PUSH1 0x40 MLOAD DUP1 DUP3 ISZERO ISZERO ISZERO ISZERO DUP2 MSTORE PUSH1 0x20 ADD SWAP2 POP POP PUSH1 0x40 MLOAD DUP1 SWAP2 SUB SWAP1 RETURN JUMPDEST CALLER PUSH20 0xFFFFFFFFFFFFFFFFFFFFFFFFFFFFFFFFFFFFFFFF AND PUSH1 0x1 PUSH1 0x0 SWAP1 SLOAD SWAP1 PUSH2 0x100 EXP SWAP1 DIV PUSH20 0xFFFFFFFFFFFFFFFFFFFFFFFFFFFFFFFFFFFFFFFF AND PUSH20 0xFFFFFFFFFFFFFFFFFFFFFFFFFFFFFFFFFFFFFFFF AND EQ PUSH2 0x332 JUMPI PUSH1 0x40 MLOAD PUSH32 0x8C379A000000000000000000000000000000000000000000000000000000000 DUP2 MSTORE PUSH1 0x4 ADD DUP1 DUP1 PUSH1 0x20 ADD DUP3 DUP2 SUB DUP3 MSTORE PUSH1 0x17 DUP2 MSTORE PUSH1 0x20 ADD DUP1 PUSH32 0x4F6E6C792061646D696E2063616E20646F207468697321000000000000000000 DUP2 MSTORE POP PUSH1 0x20 ADD SWAP2 POP POP PUSH1 0x40 MLOAD DUP1 SWAP2 SUB SWAP1 REVERT JUMPDEST PUSH2 0x398 PUSH1 0x40 MLOAD DUP1 PUSH1 0x20 ADD PUSH1 0x40 MSTORE DUP1 PUSH1 0x0 DUP2 MSTORE POP DUP5 DUP5 DUP1 DUP1 PUSH1 0x1F ADD PUSH1 0x20 DUP1 SWAP2 DIV MUL PUSH1 0x20 ADD PUSH1 0x40 MLOAD SWAP1 DUP2 ADD PUSH1 0x40 MSTORE DUP1 SWAP4 SWAP3 SWAP2 SWAP1 DUP2 DUP2 MSTORE PUSH1 0x20 ADD DUP4 DUP4 DUP1 DUP3 DUP5 CALLDATACOPY PUSH1 0x0 DUP2 DUP5 ADD MSTORE PUSH1 0x1F NOT PUSH1 0x1F DUP3 ADD AND SWAP1 POP DUP1 DUP4 ADD SWAP3 POP POP POP POP POP POP POP PUSH2 0x903 SWAP1 SWAP2 SWAP1 PUSH4 0xFFFFFFFF AND JUMP JUMPDEST ISZERO PUSH2 0x40B JUMPI PUSH1 0x40 MLOAD PUSH32 0x8C379A000000000000000000000000000000000000000000000000000000000 DUP2 MSTORE PUSH1 0x4 ADD DUP1 DUP1 PUSH1 0x20 ADD DUP3 DUP2 SUB DUP3 MSTORE PUSH1 0xF DUP2 MSTORE PUSH1 0x20 ADD DUP1 PUSH32 0x546F206D757374206578697374732E0000000000000000000000000000000000 DUP2 MSTORE POP PUSH1 0x20 ADD SWAP2 POP POP PUSH1 0x40 MLOAD DUP1 SWAP2 SUB SWAP1 REVERT JUMPDEST PUSH1 0x0 DUP2 GT PUSH2 0x481 JUMPI PUSH1 0x40 MLOAD PUSH32 0x8C379A000000000000000000000000000000000000000000000000000000000 DUP2 MSTORE PUSH1 0x4 ADD DUP1 DUP1 PUSH1 0x20 ADD DUP3 DUP2 SUB DUP3 MSTORE PUSH1 0xF DUP2 MSTORE PUSH1 0x20 ADD DUP1 PUSH32 0x56616C7565206D757374203E20302E0000000000000000000000000000000000 DUP2 MSTORE POP PUSH1 0x20 ADD SWAP2 POP POP PUSH1 0x40 MLOAD DUP1 SWAP2 SUB SWAP1 REVERT JUMPDEST PUSH2 0x496 DUP2 PUSH1 0x0 SLOAD PUSH2 0xA31 SWAP1 SWAP2 SWAP1 PUSH4 0xFFFFFFFF AND JUMP JUMPDEST PUSH1 0x0 DUP2 SWAP1 SSTORE POP PUSH2 0x4D6 DUP2 PUSH1 0x2 DUP6 DUP6 PUSH1 0x40 MLOAD DUP1 DUP4 DUP4 DUP1 DUP3 DUP5 CALLDATACOPY DUP1 DUP4 ADD SWAP3 POP POP POP SWAP3 POP POP POP SWAP1 DUP2 MSTORE PUSH1 0x20 ADD PUSH1 0x40 MLOAD DUP1 SWAP2 SUB SWAP1 KECCAK256 SLOAD PUSH2 0xA31 SWAP1 SWAP2 SWAP1 PUSH4 0xFFFFFFFF AND JUMP JUMPDEST PUSH1 0x2 DUP5 DUP5 PUSH1 0x40 MLOAD DUP1 DUP4 DUP4 DUP1 DUP3 DUP5 CALLDATACOPY DUP1 DUP4 ADD SWAP3 POP POP POP SWAP3 POP POP POP SWAP1 DUP2 MSTORE PUSH1 0x20 ADD PUSH1 0x40 MLOAD DUP1 SWAP2 SUB SWAP1 KECCAK256 DUP2 SWAP1 SSTORE POP DUP3 DUP3 PUSH1 0x40 MLOAD DUP1 DUP4 DUP4 DUP1 DUP3 DUP5 CALLDATACOPY DUP1 DUP4 ADD SWAP3 POP POP POP SWAP3 POP POP POP PUSH1 0x40 MLOAD DUP1 SWAP2 SUB SWAP1 KECCAK256 PUSH1 0x40 MLOAD DUP1 DUP1 PUSH32 0x73797374656D0000000000000000000000000000000000000000000000000000 DUP2 MSTORE POP PUSH1 0x6 ADD SWAP1 POP PUSH1 0x40 MLOAD DUP1 SWAP2 SUB SWAP1 KECCAK256 PUSH32 0x5358BE4DF107BE4D9B023FC323F41D7109610225C6EF211B9D375B9FBD7CCC4F DUP4 PUSH1 0x40 MLOAD DUP1 DUP3 DUP2 MSTORE PUSH1 0x20 ADD SWAP2 POP POP PUSH1 0x40 MLOAD DUP1 SWAP2 SUB SWAP1 LOG3 POP POP POP JUMP JUMPDEST PUSH1 0x0 DUP1 SLOAD SWAP1 POP SWAP1 JUMP JUMPDEST PUSH1 0x0 PUSH1 0x2 DUP4 DUP4 PUSH1 0x40 MLOAD DUP1 DUP4 DUP4 DUP1 DUP3 DUP5 CALLDATACOPY DUP1 DUP4 ADD SWAP3 POP POP POP SWAP3 POP POP POP SWAP1 DUP2 MSTORE PUSH1 0x20 ADD PUSH1 0x40 MLOAD DUP1 SWAP2 SUB SWAP1 KECCAK256 SLOAD SWAP1 POP SWAP3 SWAP2 POP POP JUMP JUMPDEST PUSH1 0x0 PUSH2 0x635 PUSH1 0x40 MLOAD DUP1 PUSH1 0x20 ADD PUSH1 0x40 MSTORE DUP1 PUSH1 0x0 DUP2 MSTORE POP DUP6 DUP6 DUP1 DUP1 PUSH1 0x1F ADD PUSH1 0x20 DUP1 SWAP2 DIV MUL PUSH1 0x20 ADD PUSH1 0x40 MLOAD SWAP1 DUP2 ADD PUSH1 0x40 MSTORE DUP1 SWAP4 SWAP3 SWAP2 SWAP1 DUP2 DUP2 MSTORE PUSH1 0x20 ADD DUP4 DUP4 DUP1 DUP3 DUP5 CALLDATACOPY PUSH1 0x0 DUP2 DUP5 ADD MSTORE PUSH1 0x1F NOT PUSH1 0x1F DUP3 ADD AND SWAP1 POP DUP1 DUP4 ADD SWAP3 POP POP POP POP POP POP POP PUSH2 0x903 SWAP1 SWAP2 SWAP1 PUSH4 0xFFFFFFFF AND JUMP JUMPDEST ISZERO PUSH2 0x6A8 JUMPI PUSH1 0x40 MLOAD PUSH32 0x8C379A000000000000000000000000000000000000000000000000000000000 DUP2 MSTORE PUSH1 0x4 ADD DUP1 DUP1 PUSH1 0x20 ADD DUP3 DUP2 SUB DUP3 MSTORE PUSH1 0xF DUP2 MSTORE PUSH1 0x20 ADD DUP1 PUSH32 0x546F206D757374206578697374732E0000000000000000000000000000000000 DUP2 MSTORE POP PUSH1 0x20 ADD SWAP2 POP POP PUSH1 0x40 MLOAD DUP1 SWAP2 SUB SWAP1 REVERT JUMPDEST PUSH1 0x0 DUP3 GT PUSH2 0x71E JUMPI PUSH1 0x40 MLOAD PUSH32 0x8C379A000000000000000000000000000000000000000000000000000000000 DUP2 MSTORE PUSH1 0x4 ADD DUP1 DUP1 PUSH1 0x20 ADD DUP3 DUP2 SUB DUP3 MSTORE PUSH1 0xF DUP2 MSTORE PUSH1 0x20 ADD DUP1 PUSH32 0x56616C7565206D757374203E20302E0000000000000000000000000000000000 DUP2 MSTORE POP PUSH1 0x20 ADD SWAP2 POP POP PUSH1 0x40 MLOAD DUP1 SWAP2 SUB SWAP1 REVERT JUMPDEST DUP2 PUSH1 0x2 DUP8 DUP8 PUSH1 0x40 MLOAD DUP1 DUP4 DUP4 DUP1 DUP3 DUP5 CALLDATACOPY DUP1 DUP4 ADD SWAP3 POP POP POP SWAP3 POP POP POP SWAP1 DUP2 MSTORE PUSH1 0x20 ADD PUSH1 0x40 MLOAD DUP1 SWAP2 SUB SWAP1 KECCAK256 SLOAD LT ISZERO PUSH2 0x7BB JUMPI PUSH1 0x40 MLOAD PUSH32 0x8C379A000000000000000000000000000000000000000000000000000000000 DUP2 MSTORE PUSH1 0x4 ADD DUP1 DUP1 PUSH1 0x20 ADD DUP3 DUP2 SUB DUP3 MSTORE PUSH1 0x14 DUP2 MSTORE PUSH1 0x20 ADD DUP1 PUSH32 0x42616C616E6365206D75737420656E6F7567682E000000000000000000000000 DUP2 MSTORE POP PUSH1 0x20 ADD SWAP2 POP POP PUSH1 0x40 MLOAD DUP1 SWAP2 SUB SWAP1 REVERT JUMPDEST PUSH2 0x7F5 DUP3 PUSH1 0x2 DUP9 DUP9 PUSH1 0x40 MLOAD DUP1 DUP4 DUP4 DUP1 DUP3 DUP5 CALLDATACOPY DUP1 DUP4 ADD SWAP3 POP POP POP SWAP3 POP POP POP SWAP1 DUP2 MSTORE PUSH1 0x20 ADD PUSH1 0x40 MLOAD DUP1 SWAP2 SUB SWAP1 KECCAK256 SLOAD PUSH2 0xA50 SWAP1 SWAP2 SWAP1 PUSH4 0xFFFFFFFF AND JUMP JUMPDEST PUSH1 0x2 DUP8 DUP8 PUSH1 0x40 MLOAD DUP1 DUP4 DUP4 DUP1 DUP3 DUP5 CALLDATACOPY DUP1 DUP4 ADD SWAP3 POP POP POP SWAP3 POP POP POP SWAP1 DUP2 MSTORE PUSH1 0x20 ADD PUSH1 0x40 MLOAD DUP1 SWAP2 SUB SWAP1 KECCAK256 DUP2 SWAP1 SSTORE POP PUSH2 0x85A DUP3 PUSH1 0x2 DUP7 DUP7 PUSH1 0x40 MLOAD DUP1 DUP4 DUP4 DUP1 DUP3 DUP5 CALLDATACOPY DUP1 DUP4 ADD SWAP3 POP POP POP SWAP3 POP POP POP SWAP1 DUP2 MSTORE PUSH1 0x20 ADD PUSH1 0x40 MLOAD DUP1 SWAP2 SUB SWAP1 KECCAK256 SLOAD PUSH2 0xA31 SWAP1 SWAP2 SWAP1 PUSH4 0xFFFFFFFF AND JUMP JUMPDEST PUSH1 0x2 DUP6 DUP6 PUSH1 0x40 MLOAD DUP1 DUP4 DUP4 DUP1 DUP3 DUP5 CALLDATACOPY DUP1 DUP4 ADD SWAP3 POP POP POP SWAP3 POP POP POP SWAP1 DUP2 MSTORE PUSH1 0x20 ADD PUSH1 0x40 MLOAD DUP1 SWAP2 SUB SWAP1 KECCAK256 DUP2 SWAP1 SSTORE POP DUP4 DUP4 PUSH1 0x40 MLOAD DUP1 DUP4 DUP4 DUP1 DUP3 DUP5 CALLDATACOPY DUP1 DUP4 ADD SWAP3 POP POP POP SWAP3 POP POP POP PUSH1 0x40 MLOAD DUP1 SWAP2 SUB SWAP1 KECCAK256 DUP7 DUP7 PUSH1 0x40 MLOAD DUP1 DUP4 DUP4 DUP1 DUP3 DUP5 CALLDATACOPY DUP1 DUP4 ADD SWAP3 POP POP POP SWAP3 POP POP POP PUSH1 0x40 MLOAD DUP1 SWAP2 SUB SWAP1 KECCAK256 PUSH32 0x5358BE4DF107BE4D9B023FC323F41D7109610225C6EF211B9D375B9FBD7CCC4F DUP5 PUSH1 0x40 MLOAD DUP1 DUP3 DUP2 MSTORE PUSH1 0x20 ADD SWAP2 POP POP PUSH1 0x40 MLOAD DUP1 SWAP2 SUB SWAP1 LOG3 SWAP6 SWAP5 POP POP POP POP POP JUMP JUMPDEST PUSH1 0x0 DUP1 DUP4 PUSH1 0x40 MLOAD PUSH1 0x20 ADD DUP1 DUP1 PUSH1 0x20 ADD DUP3 DUP2 SUB DUP3 MSTORE DUP4 DUP2 DUP2 MLOAD DUP2 MSTORE PUSH1 0x20 ADD SWAP2 POP DUP1 MLOAD SWAP1 PUSH1 0x20 ADD SWAP1 DUP1 DUP4 DUP4 PUSH1 0x0 JUMPDEST DUP4 DUP2 LT ISZERO PUSH2 0x94A JUMPI DUP1 DUP3 ADD MLOAD DUP2 DUP5 ADD MSTORE PUSH1 0x20 DUP2 ADD SWAP1 POP PUSH2 0x92F JUMP JUMPDEST POP POP POP POP SWAP1 POP SWAP1 DUP2 ADD SWAP1 PUSH1 0x1F AND DUP1 ISZERO PUSH2 0x977 JUMPI DUP1 DUP3 SUB DUP1 MLOAD PUSH1 0x1 DUP4 PUSH1 0x20 SUB PUSH2 0x100 EXP SUB NOT AND DUP2 MSTORE PUSH1 0x20 ADD SWAP2 POP JUMPDEST POP SWAP3 POP POP POP PUSH1 0x40 MLOAD PUSH1 0x20 DUP2 DUP4 SUB SUB DUP2 MSTORE SWAP1 PUSH1 0x40 MSTORE DUP1 MLOAD SWAP1 PUSH1 0x20 ADD KECCAK256 SWAP1 POP PUSH1 0x0 DUP4 PUSH1 0x40 MLOAD PUSH1 0x20 ADD DUP1 DUP1 PUSH1 0x20 ADD DUP3 DUP2 SUB DUP3 MSTORE DUP4 DUP2 DUP2 MLOAD DUP2 MSTORE PUSH1 0x20 ADD SWAP2 POP DUP1 MLOAD SWAP1 PUSH1 0x20 ADD SWAP1 DUP1 DUP4 DUP4 PUSH1 0x0 JUMPDEST DUP4 DUP2 LT ISZERO PUSH2 0x9DA JUMPI DUP1 DUP3 ADD MLOAD DUP2 DUP5 ADD MSTORE PUSH1 0x20 DUP2 ADD SWAP1 POP PUSH2 0x9BF JUMP JUMPDEST POP POP POP POP SWAP1 POP SWAP1 DUP2 ADD SWAP1 PUSH1 0x1F AND DUP1 ISZERO PUSH2 0xA07 JUMPI DUP1 DUP3 SUB DUP1 MLOAD PUSH1 0x1 DUP4 PUSH1 0x20 SUB PUSH2 0x100 EXP SUB NOT AND DUP2 MSTORE PUSH1 0x20 ADD SWAP2 POP JUMPDEST POP SWAP3 POP POP POP PUSH1 0x40 MLOAD PUSH1 0x20 DUP2 DUP4 SUB SUB DUP2 MSTORE SWAP1 PUSH1 0x40 MSTORE DUP1 MLOAD SWAP1 PUSH1 0x20 ADD KECCAK256 SWAP1 POP DUP1 DUP3 EQ SWAP3 POP POP POP SWAP3 SWAP2 POP POP JUMP JUMPDEST PUSH1 0x0 DUP1 DUP3 DUP5 ADD SWAP1 POP DUP4 DUP2 LT ISZERO PUSH2 0xA46 JUMPI PUSH1 0x0 DUP1 REVERT JUMPDEST DUP1 SWAP2 POP POP SWAP3 SWAP2 POP POP JUMP JUMPDEST PUSH1 0x0 DUP3 DUP3 GT ISZERO PUSH2 0xA5F JUMPI PUSH1 0x0 DUP1 REVERT JUMPDEST PUSH1 0x0 DUP3 DUP5 SUB SWAP1 POP DUP1 SWAP2 POP POP SWAP3 SWAP2 POP POP JUMP INVALID LOG2 PUSH5 0x6970667358 0x22 SLT KECCAK256 0x48 SWAP7 0xE6 SWAP15 0xFB 0xD3 ISZERO DELEGATECALL BYTE RETURN CODESIZE 0xBF LOG2 0xE6 0xDA PUSH3 0x16A423 SWAP14 0xB0 PUSH3 0xB154BC PUSH18 0xAE8B1C4A390864736F6C634300060A003300 "
				},
				"gasEstimates": {
					"creation": {
						"codeDepositCost": "545200",
						"executionCost": "26461",
						"totalCost": "571661"
					},
					"external": {
						"balanceOf(string)": "infinite",
						"mint(string,uint256)": "infinite",
						"totalSupply()": "1013",
						"transfer(string,string,uint256)": "infinite"
					}
				},
				"methodIdentifiers": {
					"balanceOf(string)": "35ee5f87",
					"mint(string,uint256)": "056b01ce",
					"totalSupply()": "18160ddd",
					"transfer(string,string,uint256)": "9b80b050"
				}
			},
			"storageLayout": {
				"storage": [
					{
						"astId": 662,
						"contract": "xuanshang/jstask/app/Token.sol:Token",
						"label": "_totalSupply",
						"offset": 0,
						"slot": "0",
						"type": "t_uint256"
					},
					{
						"astId": 664,
						"contract": "xuanshang/jstask/app/Token.sol:Token",
						"label": "admin",
						"offset": 0,
						"slot": "1",
						"type": "t_address"
					},
					{
						"astId": 668,
						"contract": "xuanshang/jstask/app/Token.sol:Token",
						"label": "_balances",
						"offset": 0,
						"slot": "2",
						"type": "t_mapping(t_string_memory_ptr,t_uint256)"
					}
				],
				"types": {
					"t_address": {
						"encoding": "inplace",
						"label": "address",
						"numberOfBytes": "20"
					},
					"t_mapping(t_string_memory_ptr,t_uint256)": {
						"encoding": "mapping",
						"key": "t_string_memory_ptr",
						"label": "mapping(string => uint256)",
						"numberOfBytes": "32",
						"value": "t_uint256"
					},
					"t_string_memory_ptr": {
						"encoding": "bytes",
						"label": "string",
						"numberOfBytes": "32"
					},
					"t_uint256": {
						"encoding": "inplace",
						"label": "uint256",
						"numberOfBytes": "32"
					}
				}
			},
			"userdoc": {
				"methods": {}
			}
		}
	}
}